{
	"ListaTrust.sol": {
		"ListaTrust": {
			"abi": [
				{
					"inputs": [],
					"stateMutability": "nonpayable",
					"type": "constructor"
				},
				{
					"anonymous": false,
					"inputs": [
						{
							"indexed": false,
							"internalType": "uint256",
							"name": "id",
							"type": "uint256"
						},
						{
							"indexed": false,
							"internalType": "address",
							"name": "customer",
							"type": "address"
						},
						{
							"indexed": false,
							"internalType": "uint256",
							"name": "amount",
							"type": "uint256"
						},
						{
							"indexed": false,
							"internalType": "string",
							"name": "items",
							"type": "string"
						}
					],
					"name": "NewUtang",
					"type": "event"
				},
				{
					"anonymous": false,
					"inputs": [
						{
							"indexed": false,
							"internalType": "uint256",
							"name": "id",
							"type": "uint256"
						}
					],
					"name": "UtangDeleted",
					"type": "event"
				},
				{
					"anonymous": false,
					"inputs": [
						{
							"indexed": false,
							"internalType": "uint256",
							"name": "id",
							"type": "uint256"
						}
					],
					"name": "UtangPaid",
					"type": "event"
				},
				{
					"inputs": [
						{
							"internalType": "uint256",
							"name": "",
							"type": "uint256"
						}
					],
					"name": "activeUtang",
					"outputs": [
						{
							"internalType": "bool",
							"name": "",
							"type": "bool"
						}
					],
					"stateMutability": "view",
					"type": "function"
				},
				{
					"inputs": [
						{
							"internalType": "address",
							"name": "_customer",
							"type": "address"
						},
						{
							"internalType": "uint256",
							"name": "_amount",
							"type": "uint256"
						},
						{
							"internalType": "string",
							"name": "_items",
							"type": "string"
						}
					],
					"name": "addUtang",
					"outputs": [],
					"stateMutability": "nonpayable",
					"type": "function"
				},
				{
					"inputs": [
						{
							"internalType": "uint256",
							"name": "_id",
							"type": "uint256"
						}
					],
					"name": "deleteUtang",
					"outputs": [],
					"stateMutability": "nonpayable",
					"type": "function"
				},
				{
					"inputs": [
						{
							"internalType": "uint256",
							"name": "_id",
							"type": "uint256"
						},
						{
							"internalType": "uint256",
							"name": "_newAmount",
							"type": "uint256"
						},
						{
							"internalType": "string",
							"name": "_newItems",
							"type": "string"
						}
					],
					"name": "editUtang",
					"outputs": [],
					"stateMutability": "nonpayable",
					"type": "function"
				},
				{
					"inputs": [
						{
							"internalType": "address",
							"name": "_customer",
							"type": "address"
						}
					],
					"name": "getCustomerUtang",
					"outputs": [
						{
							"components": [
								{
									"internalType": "uint256",
									"name": "id",
									"type": "uint256"
								},
								{
									"internalType": "address",
									"name": "customer",
									"type": "address"
								},
								{
									"internalType": "uint256",
									"name": "amount",
									"type": "uint256"
								},
								{
									"internalType": "string",
									"name": "items",
									"type": "string"
								},
								{
									"internalType": "bool",
									"name": "paid",
									"type": "bool"
								},
								{
									"internalType": "uint256",
									"name": "timestamp",
									"type": "uint256"
								}
							],
							"internalType": "struct ListaTrust.Utang[]",
							"name": "",
							"type": "tuple[]"
						}
					],
					"stateMutability": "view",
					"type": "function"
				},
				{
					"inputs": [
						{
							"internalType": "address",
							"name": "_customer",
							"type": "address"
						}
					],
					"name": "getTotalUnpaid",
					"outputs": [
						{
							"internalType": "uint256",
							"name": "",
							"type": "uint256"
						}
					],
					"stateMutability": "view",
					"type": "function"
				},
				{
					"inputs": [
						{
							"internalType": "uint256",
							"name": "_id",
							"type": "uint256"
						}
					],
					"name": "markAsPaid",
					"outputs": [],
					"stateMutability": "nonpayable",
					"type": "function"
				},
				{
					"inputs": [],
					"name": "owner",
					"outputs": [
						{
							"internalType": "address",
							"name": "",
							"type": "address"
						}
					],
					"stateMutability": "view",
					"type": "function"
				},
				{
					"inputs": [
						{
							"internalType": "uint256",
							"name": "",
							"type": "uint256"
						}
					],
					"name": "utangList",
					"outputs": [
						{
							"internalType": "uint256",
							"name": "id",
							"type": "uint256"
						},
						{
							"internalType": "address",
							"name": "customer",
							"type": "address"
						},
						{
							"internalType": "uint256",
							"name": "amount",
							"type": "uint256"
						},
						{
							"internalType": "string",
							"name": "items",
							"type": "string"
						},
						{
							"internalType": "bool",
							"name": "paid",
							"type": "bool"
						},
						{
							"internalType": "uint256",
							"name": "timestamp",
							"type": "uint256"
						}
					],
					"stateMutability": "view",
					"type": "function"
				},
				{
					"inputs": [
						{
							"internalType": "uint256",
							"name": "_id",
							"type": "uint256"
						}
					],
					"name": "verifyUtang",
					"outputs": [
						{
							"internalType": "bool",
							"name": "",
							"type": "bool"
						}
					],
					"stateMutability": "view",
					"type": "function"
				}
			],
			"devdoc": {
				"kind": "dev",
				"methods": {},
				"version": 1
			},
			"evm": {
				"assembly": "    /* \"ListaTrust.sol\":60:3401  contract ListaTrust {\r... */\n  mstore(0x40, 0x80)\n    /* \"ListaTrust.sol\":708:759  constructor() {\r... */\n  callvalue\n  dup1\n  iszero\n  tag_1\n  jumpi\n  0x00\n  dup1\n  revert\ntag_1:\n  pop\n    /* \"ListaTrust.sol\":741:751  msg.sender */\n  caller\n    /* \"ListaTrust.sol\":733:738  owner */\n  0x01\n  0x00\n    /* \"ListaTrust.sol\":733:751  owner = msg.sender */\n  0x0100\n  exp\n  dup2\n  sload\n  dup2\n  0xffffffffffffffffffffffffffffffffffffffff\n  mul\n  not\n  and\n  swap1\n  dup4\n  0xffffffffffffffffffffffffffffffffffffffff\n  and\n  mul\n  or\n  swap1\n  sstore\n  pop\n    /* \"ListaTrust.sol\":60:3401  contract ListaTrust {\r... */\n  dataSize(sub_0)\n  dup1\n  dataOffset(sub_0)\n  0x00\n  codecopy\n  0x00\n  return\nstop\n\nsub_0: assembly {\n        /* \"ListaTrust.sol\":60:3401  contract ListaTrust {\r... */\n      mstore(0x40, 0x80)\n      callvalue\n      dup1\n      iszero\n      tag_1\n      jumpi\n      0x00\n      dup1\n      revert\n    tag_1:\n      pop\n      jumpi(tag_2, lt(calldatasize, 0x04))\n      shr(0xe0, calldataload(0x00))\n      dup1\n      0x8da5cb5b\n      gt\n      tag_13\n      jumpi\n      dup1\n      0x8da5cb5b\n      eq\n      tag_8\n      jumpi\n      dup1\n      0xba056a9b\n      eq\n      tag_9\n      jumpi\n      dup1\n      0xbaf58aec\n      eq\n      tag_10\n      jumpi\n      dup1\n      0xd763f638\n      eq\n      tag_11\n      jumpi\n      dup1\n      0xe9f51aa8\n      eq\n      tag_12\n      jumpi\n      jump(tag_2)\n    tag_13:\n      dup1\n      0x0d7f2d2b\n      eq\n      tag_3\n      jumpi\n      dup1\n      0x2fd1c05e\n      eq\n      tag_4\n      jumpi\n      dup1\n      0x4f355b44\n      eq\n      tag_5\n      jumpi\n      dup1\n      0x6733c3a5\n      eq\n      tag_6\n      jumpi\n      dup1\n      0x7021cafe\n      eq\n      tag_7\n      jumpi\n    tag_2:\n      0x00\n      dup1\n      revert\n        /* \"ListaTrust.sol\":380:420  mapping(uint => bool) public activeUtang */\n    tag_3:\n      tag_14\n      0x04\n      dup1\n      calldatasize\n      sub\n      dup2\n      add\n      swap1\n      tag_15\n      swap2\n      swap1\n      tag_16\n      jump\t// in\n    tag_15:\n      tag_17\n      jump\t// in\n    tag_14:\n      mload(0x40)\n      tag_18\n      swap2\n      swap1\n      tag_19\n      jump\t// in\n    tag_18:\n      mload(0x40)\n      dup1\n      swap2\n      sub\n      swap1\n      return\n        /* \"ListaTrust.sol\":255:279  Utang[] public utangList */\n    tag_4:\n      tag_20\n      0x04\n      dup1\n      calldatasize\n      sub\n      dup2\n      add\n      swap1\n      tag_21\n      swap2\n      swap1\n      tag_16\n      jump\t// in\n    tag_21:\n      tag_22\n      jump\t// in\n    tag_20:\n      mload(0x40)\n      tag_23\n      swap7\n      swap6\n      swap5\n      swap4\n      swap3\n      swap2\n      swap1\n      tag_24\n      jump\t// in\n    tag_23:\n      mload(0x40)\n      dup1\n      swap2\n      sub\n      swap1\n      return\n        /* \"ListaTrust.sol\":1795:2117  function editUtang(uint _id, uint _newAmount, string memory _newItems) public onlyOwner {\r... */\n    tag_5:\n      tag_25\n      0x04\n      dup1\n      calldatasize\n      sub\n      dup2\n      add\n      swap1\n      tag_26\n      swap2\n      swap1\n      tag_27\n      jump\t// in\n    tag_26:\n      tag_28\n      jump\t// in\n    tag_25:\n      stop\n        /* \"ListaTrust.sol\":808:1132  function addUtang(address _customer, uint _amount, string memory _items) public onlyOwner {\r... */\n    tag_6:\n      tag_29\n      0x04\n      dup1\n      calldatasize\n      sub\n      dup2\n      add\n      swap1\n      tag_30\n      swap2\n      swap1\n      tag_31\n      jump\t// in\n    tag_30:\n      tag_32\n      jump\t// in\n    tag_29:\n      stop\n        /* \"ListaTrust.sol\":1196:1446  function markAsPaid(uint _id) public onlyOwner {\r... */\n    tag_7:\n      tag_33\n      0x04\n      dup1\n      calldatasize\n      sub\n      dup2\n      add\n      swap1\n      tag_34\n      swap2\n      swap1\n      tag_16\n      jump\t// in\n    tag_34:\n      tag_35\n      jump\t// in\n    tag_33:\n      stop\n        /* \"ListaTrust.sol\":286:306  address public owner */\n    tag_8:\n      tag_36\n      tag_37\n      jump\t// in\n    tag_36:\n      mload(0x40)\n      tag_38\n      swap2\n      swap1\n      tag_39\n      jump\t// in\n    tag_38:\n      mload(0x40)\n      dup1\n      swap2\n      sub\n      swap1\n      return\n        /* \"ListaTrust.sol\":2858:3205  function getTotalUnpaid(address _customer) public view returns (uint) {\r... */\n    tag_9:\n      tag_40\n      0x04\n      dup1\n      calldatasize\n      sub\n      dup2\n      add\n      swap1\n      tag_41\n      swap2\n      swap1\n      tag_42\n      jump\t// in\n    tag_41:\n      tag_43\n      jump\t// in\n    tag_40:\n      mload(0x40)\n      tag_44\n      swap2\n      swap1\n      tag_45\n      jump\t// in\n    tag_44:\n      mload(0x40)\n      dup1\n      swap2\n      sub\n      swap1\n      return\n        /* \"ListaTrust.sol\":3272:3398  function verifyUtang(uint _id) public view returns (bool) {\r... */\n    tag_10:\n      tag_46\n      0x04\n      dup1\n      calldatasize\n      sub\n      dup2\n      add\n      swap1\n      tag_47\n      swap2\n      swap1\n      tag_16\n      jump\t// in\n    tag_47:\n      tag_48\n      jump\t// in\n    tag_46:\n      mload(0x40)\n      tag_49\n      swap2\n      swap1\n      tag_19\n      jump\t// in\n    tag_49:\n      mload(0x40)\n      dup1\n      swap2\n      sub\n      swap1\n      return\n        /* \"ListaTrust.sol\":2193:2789  function getCustomerUtang(address _customer) public view returns (Utang[] memory) {\r... */\n    tag_11:\n      tag_50\n      0x04\n      dup1\n      calldatasize\n      sub\n      dup2\n      add\n      swap1\n      tag_51\n      swap2\n      swap1\n      tag_42\n      jump\t// in\n    tag_51:\n      tag_52\n      jump\t// in\n    tag_50:\n      mload(0x40)\n      tag_53\n      swap2\n      swap1\n      tag_54\n      jump\t// in\n    tag_53:\n      mload(0x40)\n      dup1\n      swap2\n      sub\n      swap1\n      return\n        /* \"ListaTrust.sol\":1528:1718  function deleteUtang(uint _id) public onlyOwner {\r... */\n    tag_12:\n      tag_55\n      0x04\n      dup1\n      calldatasize\n      sub\n      dup2\n      add\n      swap1\n      tag_56\n      swap2\n      swap1\n      tag_16\n      jump\t// in\n    tag_56:\n      tag_57\n      jump\t// in\n    tag_55:\n      stop\n        /* \"ListaTrust.sol\":380:420  mapping(uint => bool) public activeUtang */\n    tag_17:\n      mstore(0x20, 0x02)\n      dup1\n      0x00\n      mstore\n      keccak256(0x00, 0x40)\n      0x00\n      swap2\n      pop\n      sload\n      swap1\n      0x0100\n      exp\n      swap1\n      div\n      0xff\n      and\n      dup2\n      jump\t// out\n        /* \"ListaTrust.sol\":255:279  Utang[] public utangList */\n    tag_22:\n      0x00\n      dup2\n      dup2\n      sload\n      dup2\n      lt\n      tag_58\n      jumpi\n      0x00\n      dup1\n      revert\n    tag_58:\n      swap1\n      0x00\n      mstore\n      keccak256(0x00, 0x20)\n      swap1\n      0x06\n      mul\n      add\n      0x00\n      swap2\n      pop\n      swap1\n      pop\n      dup1\n      0x00\n      add\n      sload\n      swap1\n      dup1\n      0x01\n      add\n      0x00\n      swap1\n      sload\n      swap1\n      0x0100\n      exp\n      swap1\n      div\n      0xffffffffffffffffffffffffffffffffffffffff\n      and\n      swap1\n      dup1\n      0x02\n      add\n      sload\n      swap1\n      dup1\n      0x03\n      add\n      dup1\n      sload\n      tag_60\n      swap1\n      tag_61\n      jump\t// in\n    tag_60:\n      dup1\n      0x1f\n      add\n      0x20\n      dup1\n      swap2\n      div\n      mul\n      0x20\n      add\n      mload(0x40)\n      swap1\n      dup2\n      add\n      0x40\n      mstore\n      dup1\n      swap3\n      swap2\n      swap1\n      dup2\n      dup2\n      mstore\n      0x20\n      add\n      dup3\n      dup1\n      sload\n      tag_62\n      swap1\n      tag_61\n      jump\t// in\n    tag_62:\n      dup1\n      iszero\n      tag_63\n      jumpi\n      dup1\n      0x1f\n      lt\n      tag_64\n      jumpi\n      0x0100\n      dup1\n      dup4\n      sload\n      div\n      mul\n      dup4\n      mstore\n      swap2\n      0x20\n      add\n      swap2\n      jump(tag_63)\n    tag_64:\n      dup3\n      add\n      swap2\n      swap1\n      0x00\n      mstore\n      keccak256(0x00, 0x20)\n      swap1\n    tag_65:\n      dup2\n      sload\n      dup2\n      mstore\n      swap1\n      0x01\n      add\n      swap1\n      0x20\n      add\n      dup1\n      dup4\n      gt\n      tag_65\n      jumpi\n      dup3\n      swap1\n      sub\n      0x1f\n      and\n      dup3\n      add\n      swap2\n    tag_63:\n      pop\n      pop\n      pop\n      pop\n      pop\n      swap1\n      dup1\n      0x04\n      add\n      0x00\n      swap1\n      sload\n      swap1\n      0x0100\n      exp\n      swap1\n      div\n      0xff\n      and\n      swap1\n      dup1\n      0x05\n      add\n      sload\n      swap1\n      pop\n      dup7\n      jump\t// out\n        /* \"ListaTrust.sol\":1795:2117  function editUtang(uint _id, uint _newAmount, string memory _newItems) public onlyOwner {\r... */\n    tag_28:\n        /* \"ListaTrust.sol\":633:638  owner */\n      0x01\n      0x00\n      swap1\n      sload\n      swap1\n      0x0100\n      exp\n      swap1\n      div\n      0xffffffffffffffffffffffffffffffffffffffff\n      and\n        /* \"ListaTrust.sol\":619:638  msg.sender == owner */\n      0xffffffffffffffffffffffffffffffffffffffff\n      and\n        /* \"ListaTrust.sol\":619:629  msg.sender */\n      caller\n        /* \"ListaTrust.sol\":619:638  msg.sender == owner */\n      0xffffffffffffffffffffffffffffffffffffffff\n      and\n      eq\n        /* \"ListaTrust.sol\":611:676  require(msg.sender == owner, \"IAS2: Only store owner authorized\") */\n      tag_67\n      jumpi\n      mload(0x40)\n      0x08c379a000000000000000000000000000000000000000000000000000000000\n      dup2\n      mstore\n      0x04\n      add\n      tag_68\n      swap1\n      tag_69\n      jump\t// in\n    tag_68:\n      mload(0x40)\n      dup1\n      swap2\n      sub\n      swap1\n      revert\n    tag_67:\n        /* \"ListaTrust.sol\":1902:1913  activeUtang */\n      0x02\n        /* \"ListaTrust.sol\":1902:1918  activeUtang[_id] */\n      0x00\n        /* \"ListaTrust.sol\":1914:1917  _id */\n      dup5\n        /* \"ListaTrust.sol\":1902:1918  activeUtang[_id] */\n      dup2\n      mstore\n      0x20\n      add\n      swap1\n      dup2\n      mstore\n      0x20\n      add\n      0x00\n      keccak256\n      0x00\n      swap1\n      sload\n      swap1\n      0x0100\n      exp\n      swap1\n      div\n      0xff\n      and\n        /* \"ListaTrust.sol\":1894:1949  require(activeUtang[_id], \"IAS2: Utang does not exist\") */\n      tag_71\n      jumpi\n      mload(0x40)\n      0x08c379a000000000000000000000000000000000000000000000000000000000\n      dup2\n      mstore\n      0x04\n      add\n      tag_72\n      swap1\n      tag_73\n      jump\t// in\n    tag_72:\n      mload(0x40)\n      dup1\n      swap2\n      sub\n      swap1\n      revert\n    tag_71:\n        /* \"ListaTrust.sol\":1969:1978  utangList */\n      0x00\n        /* \"ListaTrust.sol\":1979:1982  _id */\n      dup4\n        /* \"ListaTrust.sol\":1969:1983  utangList[_id] */\n      dup2\n      sload\n      dup2\n      lt\n      tag_74\n      jumpi\n      tag_75\n      tag_76\n      jump\t// in\n    tag_75:\n    tag_74:\n      swap1\n      0x00\n      mstore\n      keccak256(0x00, 0x20)\n      swap1\n      0x06\n      mul\n      add\n        /* \"ListaTrust.sol\":1969:1988  utangList[_id].paid */\n      0x04\n      add\n      0x00\n      swap1\n      sload\n      swap1\n      0x0100\n      exp\n      swap1\n      div\n      0xff\n      and\n        /* \"ListaTrust.sol\":1968:1988  !utangList[_id].paid */\n      iszero\n        /* \"ListaTrust.sol\":1960:2021  require(!utangList[_id].paid, \"IAS2: Cannot edit paid utang\") */\n      tag_78\n      jumpi\n      mload(0x40)\n      0x08c379a000000000000000000000000000000000000000000000000000000000\n      dup2\n      mstore\n      0x04\n      add\n      tag_79\n      swap1\n      tag_80\n      jump\t// in\n    tag_79:\n      mload(0x40)\n      dup1\n      swap2\n      sub\n      swap1\n      revert\n    tag_78:\n        /* \"ListaTrust.sol\":2056:2066  _newAmount */\n      dup2\n        /* \"ListaTrust.sol\":2032:2041  utangList */\n      0x00\n        /* \"ListaTrust.sol\":2042:2045  _id */\n      dup5\n        /* \"ListaTrust.sol\":2032:2046  utangList[_id] */\n      dup2\n      sload\n      dup2\n      lt\n      tag_81\n      jumpi\n      tag_82\n      tag_76\n      jump\t// in\n    tag_82:\n    tag_81:\n      swap1\n      0x00\n      mstore\n      keccak256(0x00, 0x20)\n      swap1\n      0x06\n      mul\n      add\n        /* \"ListaTrust.sol\":2032:2053  utangList[_id].amount */\n      0x02\n      add\n        /* \"ListaTrust.sol\":2032:2066  utangList[_id].amount = _newAmount */\n      dup2\n      swap1\n      sstore\n      pop\n        /* \"ListaTrust.sol\":2100:2109  _newItems */\n      dup1\n        /* \"ListaTrust.sol\":2077:2086  utangList */\n      0x00\n        /* \"ListaTrust.sol\":2087:2090  _id */\n      dup5\n        /* \"ListaTrust.sol\":2077:2091  utangList[_id] */\n      dup2\n      sload\n      dup2\n      lt\n      tag_84\n      jumpi\n      tag_85\n      tag_76\n      jump\t// in\n    tag_85:\n    tag_84:\n      swap1\n      0x00\n      mstore\n      keccak256(0x00, 0x20)\n      swap1\n      0x06\n      mul\n      add\n        /* \"ListaTrust.sol\":2077:2097  utangList[_id].items */\n      0x03\n      add\n        /* \"ListaTrust.sol\":2077:2109  utangList[_id].items = _newItems */\n      swap1\n      dup1\n      mload\n      swap1\n      0x20\n      add\n      swap1\n      tag_87\n      swap3\n      swap2\n      swap1\n      tag_88\n      jump\t// in\n    tag_87:\n      pop\n        /* \"ListaTrust.sol\":1795:2117  function editUtang(uint _id, uint _newAmount, string memory _newItems) public onlyOwner {\r... */\n      pop\n      pop\n      pop\n      jump\t// out\n        /* \"ListaTrust.sol\":808:1132  function addUtang(address _customer, uint _amount, string memory _items) public onlyOwner {\r... */\n    tag_32:\n        /* \"ListaTrust.sol\":633:638  owner */\n      0x01\n      0x00\n      swap1\n      sload\n      swap1\n      0x0100\n      exp\n      swap1\n      div\n      0xffffffffffffffffffffffffffffffffffffffff\n      and\n        /* \"ListaTrust.sol\":619:638  msg.sender == owner */\n      0xffffffffffffffffffffffffffffffffffffffff\n      and\n        /* \"ListaTrust.sol\":619:629  msg.sender */\n      caller\n        /* \"ListaTrust.sol\":619:638  msg.sender == owner */\n      0xffffffffffffffffffffffffffffffffffffffff\n      and\n      eq\n        /* \"ListaTrust.sol\":611:676  require(msg.sender == owner, \"IAS2: Only store owner authorized\") */\n      tag_90\n      jumpi\n      mload(0x40)\n      0x08c379a000000000000000000000000000000000000000000000000000000000\n      dup2\n      mstore\n      0x04\n      add\n      tag_91\n      swap1\n      tag_69\n      jump\t// in\n    tag_91:\n      mload(0x40)\n      dup1\n      swap2\n      sub\n      swap1\n      revert\n    tag_90:\n        /* \"ListaTrust.sol\":909:919  uint newId */\n      0x00\n        /* \"ListaTrust.sol\":922:931  utangList */\n      dup1\n        /* \"ListaTrust.sol\":922:938  utangList.length */\n      dup1\n      sload\n      swap1\n      pop\n        /* \"ListaTrust.sol\":909:938  uint newId = utangList.length */\n      swap1\n      pop\n        /* \"ListaTrust.sol\":949:958  utangList */\n      0x00\n        /* \"ListaTrust.sol\":964:1028  Utang(newId, _customer, _amount, _items, false, block.timestamp) */\n      mload(0x40)\n      dup1\n      0xc0\n      add\n      0x40\n      mstore\n      dup1\n        /* \"ListaTrust.sol\":970:975  newId */\n      dup4\n        /* \"ListaTrust.sol\":964:1028  Utang(newId, _customer, _amount, _items, false, block.timestamp) */\n      dup2\n      mstore\n      0x20\n      add\n        /* \"ListaTrust.sol\":977:986  _customer */\n      dup7\n        /* \"ListaTrust.sol\":964:1028  Utang(newId, _customer, _amount, _items, false, block.timestamp) */\n      0xffffffffffffffffffffffffffffffffffffffff\n      and\n      dup2\n      mstore\n      0x20\n      add\n        /* \"ListaTrust.sol\":988:995  _amount */\n      dup6\n        /* \"ListaTrust.sol\":964:1028  Utang(newId, _customer, _amount, _items, false, block.timestamp) */\n      dup2\n      mstore\n      0x20\n      add\n        /* \"ListaTrust.sol\":997:1003  _items */\n      dup5\n        /* \"ListaTrust.sol\":964:1028  Utang(newId, _customer, _amount, _items, false, block.timestamp) */\n      dup2\n      mstore\n      0x20\n      add\n        /* \"ListaTrust.sol\":1005:1010  false */\n      0x00\n        /* \"ListaTrust.sol\":964:1028  Utang(newId, _customer, _amount, _items, false, block.timestamp) */\n      iszero\n      iszero\n      dup2\n      mstore\n      0x20\n      add\n        /* \"ListaTrust.sol\":1012:1027  block.timestamp */\n      timestamp\n        /* \"ListaTrust.sol\":964:1028  Utang(newId, _customer, _amount, _items, false, block.timestamp) */\n      dup2\n      mstore\n      pop\n        /* \"ListaTrust.sol\":949:1029  utangList.push(Utang(newId, _customer, _amount, _items, false, block.timestamp)) */\n      swap1\n      dup1\n      0x01\n      dup2\n      sload\n      add\n      dup1\n      dup3\n      sstore\n      dup1\n      swap2\n      pop\n      pop\n      0x01\n      swap1\n      sub\n      swap1\n      0x00\n      mstore\n      keccak256(0x00, 0x20)\n      swap1\n      0x06\n      mul\n      add\n      0x00\n      swap1\n      swap2\n      swap1\n      swap2\n      swap1\n      swap2\n      pop\n      0x00\n      dup3\n      add\n      mload\n      dup2\n      0x00\n      add\n      sstore\n      0x20\n      dup3\n      add\n      mload\n      dup2\n      0x01\n      add\n      exp(0x0100, 0x00)\n      dup2\n      sload\n      dup2\n      0xffffffffffffffffffffffffffffffffffffffff\n      mul\n      not\n      and\n      swap1\n      dup4\n      0xffffffffffffffffffffffffffffffffffffffff\n      and\n      mul\n      or\n      swap1\n      sstore\n      pop\n      0x40\n      dup3\n      add\n      mload\n      dup2\n      0x02\n      add\n      sstore\n      0x60\n      dup3\n      add\n      mload\n      dup2\n      0x03\n      add\n      swap1\n      dup1\n      mload\n      swap1\n      0x20\n      add\n      swap1\n      tag_94\n      swap3\n      swap2\n      swap1\n      tag_88\n      jump\t// in\n    tag_94:\n      pop\n      0x80\n      dup3\n      add\n      mload\n      dup2\n      0x04\n      add\n      exp(0x0100, 0x00)\n      dup2\n      sload\n      dup2\n      0xff\n      mul\n      not\n      and\n      swap1\n      dup4\n      iszero\n      iszero\n      mul\n      or\n      swap1\n      sstore\n      pop\n      0xa0\n      dup3\n      add\n      mload\n      dup2\n      0x05\n      add\n      sstore\n      pop\n      pop\n        /* \"ListaTrust.sol\":1061:1065  true */\n      0x01\n        /* \"ListaTrust.sol\":1040:1051  activeUtang */\n      0x02\n        /* \"ListaTrust.sol\":1040:1058  activeUtang[newId] */\n      0x00\n        /* \"ListaTrust.sol\":1052:1057  newId */\n      dup4\n        /* \"ListaTrust.sol\":1040:1058  activeUtang[newId] */\n      dup2\n      mstore\n      0x20\n      add\n      swap1\n      dup2\n      mstore\n      0x20\n      add\n      0x00\n      keccak256\n      0x00\n        /* \"ListaTrust.sol\":1040:1065  activeUtang[newId] = true */\n      0x0100\n      exp\n      dup2\n      sload\n      dup2\n      0xff\n      mul\n      not\n      and\n      swap1\n      dup4\n      iszero\n      iszero\n      mul\n      or\n      swap1\n      sstore\n      pop\n        /* \"ListaTrust.sol\":1081:1124  NewUtang(newId, _customer, _amount, _items) */\n      0x7c4b221fd6616355387cf760b2b82c18795e7e4e90c12d69b49f57938e39e44b\n        /* \"ListaTrust.sol\":1090:1095  newId */\n      dup2\n        /* \"ListaTrust.sol\":1097:1106  _customer */\n      dup6\n        /* \"ListaTrust.sol\":1108:1115  _amount */\n      dup6\n        /* \"ListaTrust.sol\":1117:1123  _items */\n      dup6\n        /* \"ListaTrust.sol\":1081:1124  NewUtang(newId, _customer, _amount, _items) */\n      mload(0x40)\n      tag_95\n      swap5\n      swap4\n      swap3\n      swap2\n      swap1\n      tag_96\n      jump\t// in\n    tag_95:\n      mload(0x40)\n      dup1\n      swap2\n      sub\n      swap1\n      log1\n        /* \"ListaTrust.sol\":898:1132  {\r... */\n      pop\n        /* \"ListaTrust.sol\":808:1132  function addUtang(address _customer, uint _amount, string memory _items) public onlyOwner {\r... */\n      pop\n      pop\n      pop\n      jump\t// out\n        /* \"ListaTrust.sol\":1196:1446  function markAsPaid(uint _id) public onlyOwner {\r... */\n    tag_35:\n        /* \"ListaTrust.sol\":633:638  owner */\n      0x01\n      0x00\n      swap1\n      sload\n      swap1\n      0x0100\n      exp\n      swap1\n      div\n      0xffffffffffffffffffffffffffffffffffffffff\n      and\n        /* \"ListaTrust.sol\":619:638  msg.sender == owner */\n      0xffffffffffffffffffffffffffffffffffffffff\n      and\n        /* \"ListaTrust.sol\":619:629  msg.sender */\n      caller\n        /* \"ListaTrust.sol\":619:638  msg.sender == owner */\n      0xffffffffffffffffffffffffffffffffffffffff\n      and\n      eq\n        /* \"ListaTrust.sol\":611:676  require(msg.sender == owner, \"IAS2: Only store owner authorized\") */\n      tag_98\n      jumpi\n      mload(0x40)\n      0x08c379a000000000000000000000000000000000000000000000000000000000\n      dup2\n      mstore\n      0x04\n      add\n      tag_99\n      swap1\n      tag_69\n      jump\t// in\n    tag_99:\n      mload(0x40)\n      dup1\n      swap2\n      sub\n      swap1\n      revert\n    tag_98:\n        /* \"ListaTrust.sol\":1262:1273  activeUtang */\n      0x02\n        /* \"ListaTrust.sol\":1262:1278  activeUtang[_id] */\n      0x00\n        /* \"ListaTrust.sol\":1274:1277  _id */\n      dup3\n        /* \"ListaTrust.sol\":1262:1278  activeUtang[_id] */\n      dup2\n      mstore\n      0x20\n      add\n      swap1\n      dup2\n      mstore\n      0x20\n      add\n      0x00\n      keccak256\n      0x00\n      swap1\n      sload\n      swap1\n      0x0100\n      exp\n      swap1\n      div\n      0xff\n      and\n        /* \"ListaTrust.sol\":1254:1309  require(activeUtang[_id], \"IAS2: Utang does not exist\") */\n      tag_101\n      jumpi\n      mload(0x40)\n      0x08c379a000000000000000000000000000000000000000000000000000000000\n      dup2\n      mstore\n      0x04\n      add\n      tag_102\n      swap1\n      tag_73\n      jump\t// in\n    tag_102:\n      mload(0x40)\n      dup1\n      swap2\n      sub\n      swap1\n      revert\n    tag_101:\n        /* \"ListaTrust.sol\":1329:1338  utangList */\n      0x00\n        /* \"ListaTrust.sol\":1339:1342  _id */\n      dup2\n        /* \"ListaTrust.sol\":1329:1343  utangList[_id] */\n      dup2\n      sload\n      dup2\n      lt\n      tag_103\n      jumpi\n      tag_104\n      tag_76\n      jump\t// in\n    tag_104:\n    tag_103:\n      swap1\n      0x00\n      mstore\n      keccak256(0x00, 0x20)\n      swap1\n      0x06\n      mul\n      add\n        /* \"ListaTrust.sol\":1329:1348  utangList[_id].paid */\n      0x04\n      add\n      0x00\n      swap1\n      sload\n      swap1\n      0x0100\n      exp\n      swap1\n      div\n      0xff\n      and\n        /* \"ListaTrust.sol\":1328:1348  !utangList[_id].paid */\n      iszero\n        /* \"ListaTrust.sol\":1320:1371  require(!utangList[_id].paid, \"IAS2: Already paid\") */\n      tag_106\n      jumpi\n      mload(0x40)\n      0x08c379a000000000000000000000000000000000000000000000000000000000\n      dup2\n      mstore\n      0x04\n      add\n      tag_107\n      swap1\n      tag_108\n      jump\t// in\n    tag_107:\n      mload(0x40)\n      dup1\n      swap2\n      sub\n      swap1\n      revert\n    tag_106:\n        /* \"ListaTrust.sol\":1404:1408  true */\n      0x01\n        /* \"ListaTrust.sol\":1382:1391  utangList */\n      0x00\n        /* \"ListaTrust.sol\":1392:1395  _id */\n      dup3\n        /* \"ListaTrust.sol\":1382:1396  utangList[_id] */\n      dup2\n      sload\n      dup2\n      lt\n      tag_109\n      jumpi\n      tag_110\n      tag_76\n      jump\t// in\n    tag_110:\n    tag_109:\n      swap1\n      0x00\n      mstore\n      keccak256(0x00, 0x20)\n      swap1\n      0x06\n      mul\n      add\n        /* \"ListaTrust.sol\":1382:1401  utangList[_id].paid */\n      0x04\n      add\n      0x00\n        /* \"ListaTrust.sol\":1382:1408  utangList[_id].paid = true */\n      0x0100\n      exp\n      dup2\n      sload\n      dup2\n      0xff\n      mul\n      not\n      and\n      swap1\n      dup4\n      iszero\n      iszero\n      mul\n      or\n      swap1\n      sstore\n      pop\n        /* \"ListaTrust.sol\":1424:1438  UtangPaid(_id) */\n      0x48e985a2725c94a14dd72ab2e85f5da623cb78e019e7c2ff63dd8378625d94e4\n        /* \"ListaTrust.sol\":1434:1437  _id */\n      dup2\n        /* \"ListaTrust.sol\":1424:1438  UtangPaid(_id) */\n      mload(0x40)\n      tag_112\n      swap2\n      swap1\n      tag_45\n      jump\t// in\n    tag_112:\n      mload(0x40)\n      dup1\n      swap2\n      sub\n      swap1\n      log1\n        /* \"ListaTrust.sol\":1196:1446  function markAsPaid(uint _id) public onlyOwner {\r... */\n      pop\n      jump\t// out\n        /* \"ListaTrust.sol\":286:306  address public owner */\n    tag_37:\n      0x01\n      0x00\n      swap1\n      sload\n      swap1\n      0x0100\n      exp\n      swap1\n      div\n      0xffffffffffffffffffffffffffffffffffffffff\n      and\n      dup2\n      jump\t// out\n        /* \"ListaTrust.sol\":2858:3205  function getTotalUnpaid(address _customer) public view returns (uint) {\r... */\n    tag_43:\n        /* \"ListaTrust.sol\":2922:2926  uint */\n      0x00\n        /* \"ListaTrust.sol\":2939:2949  uint total */\n      dup1\n        /* \"ListaTrust.sol\":2952:2953  0 */\n      0x00\n        /* \"ListaTrust.sol\":2939:2953  uint total = 0 */\n      swap1\n      pop\n        /* \"ListaTrust.sol\":2968:2974  uint i */\n      0x00\n        /* \"ListaTrust.sol\":2964:3175  for(uint i = 0; i < utangList.length; i++) {\r... */\n    tag_114:\n        /* \"ListaTrust.sol\":2984:2993  utangList */\n      0x00\n        /* \"ListaTrust.sol\":2984:3000  utangList.length */\n      dup1\n      sload\n      swap1\n      pop\n        /* \"ListaTrust.sol\":2980:2981  i */\n      dup2\n        /* \"ListaTrust.sol\":2980:3000  i < utangList.length */\n      lt\n        /* \"ListaTrust.sol\":2964:3175  for(uint i = 0; i < utangList.length; i++) {\r... */\n      iszero\n      tag_115\n      jumpi\n        /* \"ListaTrust.sol\":3050:3059  _customer */\n      dup4\n        /* \"ListaTrust.sol\":3025:3059  utangList[i].customer == _customer */\n      0xffffffffffffffffffffffffffffffffffffffff\n      and\n        /* \"ListaTrust.sol\":3025:3034  utangList */\n      0x00\n        /* \"ListaTrust.sol\":3035:3036  i */\n      dup3\n        /* \"ListaTrust.sol\":3025:3037  utangList[i] */\n      dup2\n      sload\n      dup2\n      lt\n      tag_117\n      jumpi\n      tag_118\n      tag_76\n      jump\t// in\n    tag_118:\n    tag_117:\n      swap1\n      0x00\n      mstore\n      keccak256(0x00, 0x20)\n      swap1\n      0x06\n      mul\n      add\n        /* \"ListaTrust.sol\":3025:3046  utangList[i].customer */\n      0x01\n      add\n      0x00\n      swap1\n      sload\n      swap1\n      0x0100\n      exp\n      swap1\n      div\n      0xffffffffffffffffffffffffffffffffffffffff\n      and\n        /* \"ListaTrust.sol\":3025:3059  utangList[i].customer == _customer */\n      0xffffffffffffffffffffffffffffffffffffffff\n      and\n      eq\n        /* \"ListaTrust.sol\":3025:3077  utangList[i].customer == _customer && activeUtang[i] */\n      dup1\n      iszero\n      tag_120\n      jumpi\n      pop\n        /* \"ListaTrust.sol\":3063:3074  activeUtang */\n      0x02\n        /* \"ListaTrust.sol\":3063:3077  activeUtang[i] */\n      0x00\n        /* \"ListaTrust.sol\":3075:3076  i */\n      dup3\n        /* \"ListaTrust.sol\":3063:3077  activeUtang[i] */\n      dup2\n      mstore\n      0x20\n      add\n      swap1\n      dup2\n      mstore\n      0x20\n      add\n      0x00\n      keccak256\n      0x00\n      swap1\n      sload\n      swap1\n      0x0100\n      exp\n      swap1\n      div\n      0xff\n      and\n        /* \"ListaTrust.sol\":3025:3077  utangList[i].customer == _customer && activeUtang[i] */\n    tag_120:\n        /* \"ListaTrust.sol\":3025:3099  utangList[i].customer == _customer && activeUtang[i] && !utangList[i].paid */\n      dup1\n      iszero\n      tag_121\n      jumpi\n      pop\n        /* \"ListaTrust.sol\":3082:3091  utangList */\n      0x00\n        /* \"ListaTrust.sol\":3092:3093  i */\n      dup2\n        /* \"ListaTrust.sol\":3082:3094  utangList[i] */\n      dup2\n      sload\n      dup2\n      lt\n      tag_122\n      jumpi\n      tag_123\n      tag_76\n      jump\t// in\n    tag_123:\n    tag_122:\n      swap1\n      0x00\n      mstore\n      keccak256(0x00, 0x20)\n      swap1\n      0x06\n      mul\n      add\n        /* \"ListaTrust.sol\":3082:3099  utangList[i].paid */\n      0x04\n      add\n      0x00\n      swap1\n      sload\n      swap1\n      0x0100\n      exp\n      swap1\n      div\n      0xff\n      and\n        /* \"ListaTrust.sol\":3081:3099  !utangList[i].paid */\n      iszero\n        /* \"ListaTrust.sol\":3025:3099  utangList[i].customer == _customer && activeUtang[i] && !utangList[i].paid */\n    tag_121:\n        /* \"ListaTrust.sol\":3022:3164  if(utangList[i].customer == _customer && activeUtang[i] && !utangList[i].paid) {\r... */\n      iszero\n      tag_125\n      jumpi\n        /* \"ListaTrust.sol\":3129:3138  utangList */\n      0x00\n        /* \"ListaTrust.sol\":3139:3140  i */\n      dup2\n        /* \"ListaTrust.sol\":3129:3141  utangList[i] */\n      dup2\n      sload\n      dup2\n      lt\n      tag_126\n      jumpi\n      tag_127\n      tag_76\n      jump\t// in\n    tag_127:\n    tag_126:\n      swap1\n      0x00\n      mstore\n      keccak256(0x00, 0x20)\n      swap1\n      0x06\n      mul\n      add\n        /* \"ListaTrust.sol\":3129:3148  utangList[i].amount */\n      0x02\n      add\n      sload\n        /* \"ListaTrust.sol\":3120:3148  total += utangList[i].amount */\n      dup3\n      tag_129\n      swap2\n      swap1\n      tag_130\n      jump\t// in\n    tag_129:\n      swap2\n      pop\n        /* \"ListaTrust.sol\":3022:3164  if(utangList[i].customer == _customer && activeUtang[i] && !utangList[i].paid) {\r... */\n    tag_125:\n        /* \"ListaTrust.sol\":3002:3005  i++ */\n      dup1\n      dup1\n      tag_131\n      swap1\n      tag_132\n      jump\t// in\n    tag_131:\n      swap2\n      pop\n      pop\n        /* \"ListaTrust.sol\":2964:3175  for(uint i = 0; i < utangList.length; i++) {\r... */\n      jump(tag_114)\n    tag_115:\n      pop\n        /* \"ListaTrust.sol\":3192:3197  total */\n      dup1\n        /* \"ListaTrust.sol\":3185:3197  return total */\n      swap2\n      pop\n      pop\n        /* \"ListaTrust.sol\":2858:3205  function getTotalUnpaid(address _customer) public view returns (uint) {\r... */\n      swap2\n      swap1\n      pop\n      jump\t// out\n        /* \"ListaTrust.sol\":3272:3398  function verifyUtang(uint _id) public view returns (bool) {\r... */\n    tag_48:\n        /* \"ListaTrust.sol\":3324:3328  bool */\n      0x00\n        /* \"ListaTrust.sol\":3354:3363  utangList */\n      dup1\n        /* \"ListaTrust.sol\":3354:3370  utangList.length */\n      dup1\n      sload\n      swap1\n      pop\n        /* \"ListaTrust.sol\":3348:3351  _id */\n      dup3\n        /* \"ListaTrust.sol\":3348:3370  _id < utangList.length */\n      lt\n        /* \"ListaTrust.sol\":3348:3390  _id < utangList.length && activeUtang[_id] */\n      dup1\n      iszero\n      tag_134\n      jumpi\n      pop\n        /* \"ListaTrust.sol\":3374:3385  activeUtang */\n      0x02\n        /* \"ListaTrust.sol\":3374:3390  activeUtang[_id] */\n      0x00\n        /* \"ListaTrust.sol\":3386:3389  _id */\n      dup4\n        /* \"ListaTrust.sol\":3374:3390  activeUtang[_id] */\n      dup2\n      mstore\n      0x20\n      add\n      swap1\n      dup2\n      mstore\n      0x20\n      add\n      0x00\n      keccak256\n      0x00\n      swap1\n      sload\n      swap1\n      0x0100\n      exp\n      swap1\n      div\n      0xff\n      and\n        /* \"ListaTrust.sol\":3348:3390  _id < utangList.length && activeUtang[_id] */\n    tag_134:\n        /* \"ListaTrust.sol\":3341:3390  return _id < utangList.length && activeUtang[_id] */\n      swap1\n      pop\n        /* \"ListaTrust.sol\":3272:3398  function verifyUtang(uint _id) public view returns (bool) {\r... */\n      swap2\n      swap1\n      pop\n      jump\t// out\n        /* \"ListaTrust.sol\":2193:2789  function getCustomerUtang(address _customer) public view returns (Utang[] memory) {\r... */\n    tag_52:\n        /* \"ListaTrust.sol\":2259:2273  Utang[] memory */\n      0x60\n        /* \"ListaTrust.sol\":2286:2296  uint count */\n      0x00\n        /* \"ListaTrust.sol\":2315:2321  uint i */\n      dup1\n        /* \"ListaTrust.sol\":2311:2445  for(uint i = 0; i < utangList.length; i++) {\r... */\n    tag_136:\n        /* \"ListaTrust.sol\":2331:2340  utangList */\n      0x00\n        /* \"ListaTrust.sol\":2331:2347  utangList.length */\n      dup1\n      sload\n      swap1\n      pop\n        /* \"ListaTrust.sol\":2327:2328  i */\n      dup2\n        /* \"ListaTrust.sol\":2327:2347  i < utangList.length */\n      lt\n        /* \"ListaTrust.sol\":2311:2445  for(uint i = 0; i < utangList.length; i++) {\r... */\n      iszero\n      tag_137\n      jumpi\n        /* \"ListaTrust.sol\":2397:2406  _customer */\n      dup4\n        /* \"ListaTrust.sol\":2372:2406  utangList[i].customer == _customer */\n      0xffffffffffffffffffffffffffffffffffffffff\n      and\n        /* \"ListaTrust.sol\":2372:2381  utangList */\n      0x00\n        /* \"ListaTrust.sol\":2382:2383  i */\n      dup3\n        /* \"ListaTrust.sol\":2372:2384  utangList[i] */\n      dup2\n      sload\n      dup2\n      lt\n      tag_139\n      jumpi\n      tag_140\n      tag_76\n      jump\t// in\n    tag_140:\n    tag_139:\n      swap1\n      0x00\n      mstore\n      keccak256(0x00, 0x20)\n      swap1\n      0x06\n      mul\n      add\n        /* \"ListaTrust.sol\":2372:2393  utangList[i].customer */\n      0x01\n      add\n      0x00\n      swap1\n      sload\n      swap1\n      0x0100\n      exp\n      swap1\n      div\n      0xffffffffffffffffffffffffffffffffffffffff\n      and\n        /* \"ListaTrust.sol\":2372:2406  utangList[i].customer == _customer */\n      0xffffffffffffffffffffffffffffffffffffffff\n      and\n      eq\n        /* \"ListaTrust.sol\":2372:2424  utangList[i].customer == _customer && activeUtang[i] */\n      dup1\n      iszero\n      tag_142\n      jumpi\n      pop\n        /* \"ListaTrust.sol\":2410:2421  activeUtang */\n      0x02\n        /* \"ListaTrust.sol\":2410:2424  activeUtang[i] */\n      0x00\n        /* \"ListaTrust.sol\":2422:2423  i */\n      dup3\n        /* \"ListaTrust.sol\":2410:2424  activeUtang[i] */\n      dup2\n      mstore\n      0x20\n      add\n      swap1\n      dup2\n      mstore\n      0x20\n      add\n      0x00\n      keccak256\n      0x00\n      swap1\n      sload\n      swap1\n      0x0100\n      exp\n      swap1\n      div\n      0xff\n      and\n        /* \"ListaTrust.sol\":2372:2424  utangList[i].customer == _customer && activeUtang[i] */\n    tag_142:\n        /* \"ListaTrust.sol\":2369:2433  if(utangList[i].customer == _customer && activeUtang[i]) count++ */\n      iszero\n      tag_143\n      jumpi\n        /* \"ListaTrust.sol\":2426:2433  count++ */\n      dup2\n      dup1\n      tag_144\n      swap1\n      tag_132\n      jump\t// in\n    tag_144:\n      swap3\n      pop\n      pop\n        /* \"ListaTrust.sol\":2369:2433  if(utangList[i].customer == _customer && activeUtang[i]) count++ */\n    tag_143:\n        /* \"ListaTrust.sol\":2349:2352  i++ */\n      dup1\n      dup1\n      tag_145\n      swap1\n      tag_132\n      jump\t// in\n    tag_145:\n      swap2\n      pop\n      pop\n        /* \"ListaTrust.sol\":2311:2445  for(uint i = 0; i < utangList.length; i++) {\r... */\n      jump(tag_136)\n    tag_137:\n      pop\n        /* \"ListaTrust.sol\":2465:2486  Utang[] memory result */\n      0x00\n        /* \"ListaTrust.sol\":2501:2506  count */\n      dup2\n        /* \"ListaTrust.sol\":2489:2507  new Utang[](count) */\n      0xffffffffffffffff\n      dup2\n      gt\n      iszero\n      tag_146\n      jumpi\n      tag_147\n      tag_148\n      jump\t// in\n    tag_147:\n    tag_146:\n      mload(0x40)\n      swap1\n      dup1\n      dup3\n      mstore\n      dup1\n      0x20\n      mul\n      0x20\n      add\n      dup3\n      add\n      0x40\n      mstore\n      dup1\n      iszero\n      tag_149\n      jumpi\n      dup2\n      0x20\n      add\n    tag_150:\n      tag_151\n      tag_152\n      jump\t// in\n    tag_151:\n      dup2\n      mstore\n      0x20\n      add\n      swap1\n      0x01\n      swap1\n      sub\n      swap1\n      dup2\n      tag_150\n      jumpi\n      swap1\n      pop\n    tag_149:\n      pop\n        /* \"ListaTrust.sol\":2465:2507  Utang[] memory result = new Utang[](count) */\n      swap1\n      pop\n        /* \"ListaTrust.sol\":2518:2528  uint index */\n      0x00\n        /* \"ListaTrust.sol\":2547:2553  uint i */\n      dup1\n        /* \"ListaTrust.sol\":2543:2758  for(uint i = 0; i < utangList.length; i++) {\r... */\n    tag_153:\n        /* \"ListaTrust.sol\":2563:2572  utangList */\n      0x00\n        /* \"ListaTrust.sol\":2563:2579  utangList.length */\n      dup1\n      sload\n      swap1\n      pop\n        /* \"ListaTrust.sol\":2559:2560  i */\n      dup2\n        /* \"ListaTrust.sol\":2559:2579  i < utangList.length */\n      lt\n        /* \"ListaTrust.sol\":2543:2758  for(uint i = 0; i < utangList.length; i++) {\r... */\n      iszero\n      tag_154\n      jumpi\n        /* \"ListaTrust.sol\":2629:2638  _customer */\n      dup6\n        /* \"ListaTrust.sol\":2604:2638  utangList[i].customer == _customer */\n      0xffffffffffffffffffffffffffffffffffffffff\n      and\n        /* \"ListaTrust.sol\":2604:2613  utangList */\n      0x00\n        /* \"ListaTrust.sol\":2614:2615  i */\n      dup3\n        /* \"ListaTrust.sol\":2604:2616  utangList[i] */\n      dup2\n      sload\n      dup2\n      lt\n      tag_156\n      jumpi\n      tag_157\n      tag_76\n      jump\t// in\n    tag_157:\n    tag_156:\n      swap1\n      0x00\n      mstore\n      keccak256(0x00, 0x20)\n      swap1\n      0x06\n      mul\n      add\n        /* \"ListaTrust.sol\":2604:2625  utangList[i].customer */\n      0x01\n      add\n      0x00\n      swap1\n      sload\n      swap1\n      0x0100\n      exp\n      swap1\n      div\n      0xffffffffffffffffffffffffffffffffffffffff\n      and\n        /* \"ListaTrust.sol\":2604:2638  utangList[i].customer == _customer */\n      0xffffffffffffffffffffffffffffffffffffffff\n      and\n      eq\n        /* \"ListaTrust.sol\":2604:2656  utangList[i].customer == _customer && activeUtang[i] */\n      dup1\n      iszero\n      tag_159\n      jumpi\n      pop\n        /* \"ListaTrust.sol\":2642:2653  activeUtang */\n      0x02\n        /* \"ListaTrust.sol\":2642:2656  activeUtang[i] */\n      0x00\n        /* \"ListaTrust.sol\":2654:2655  i */\n      dup3\n        /* \"ListaTrust.sol\":2642:2656  activeUtang[i] */\n      dup2\n      mstore\n      0x20\n      add\n      swap1\n      dup2\n      mstore\n      0x20\n      add\n      0x00\n      keccak256\n      0x00\n      swap1\n      sload\n      swap1\n      0x0100\n      exp\n      swap1\n      div\n      0xff\n      and\n        /* \"ListaTrust.sol\":2604:2656  utangList[i].customer == _customer && activeUtang[i] */\n    tag_159:\n        /* \"ListaTrust.sol\":2601:2747  if(utangList[i].customer == _customer && activeUtang[i]) {\r... */\n      iszero\n      tag_160\n      jumpi\n        /* \"ListaTrust.sol\":2693:2702  utangList */\n      0x00\n        /* \"ListaTrust.sol\":2703:2704  i */\n      dup2\n        /* \"ListaTrust.sol\":2693:2705  utangList[i] */\n      dup2\n      sload\n      dup2\n      lt\n      tag_161\n      jumpi\n      tag_162\n      tag_76\n      jump\t// in\n    tag_162:\n    tag_161:\n      swap1\n      0x00\n      mstore\n      keccak256(0x00, 0x20)\n      swap1\n      0x06\n      mul\n      add\n        /* \"ListaTrust.sol\":2677:2705  result[index] = utangList[i] */\n      mload(0x40)\n      dup1\n      0xc0\n      add\n      0x40\n      mstore\n      swap1\n      dup2\n      0x00\n      dup3\n      add\n      sload\n      dup2\n      mstore\n      0x20\n      add\n      0x01\n      dup3\n      add\n      0x00\n      swap1\n      sload\n      swap1\n      0x0100\n      exp\n      swap1\n      div\n      0xffffffffffffffffffffffffffffffffffffffff\n      and\n      0xffffffffffffffffffffffffffffffffffffffff\n      and\n      0xffffffffffffffffffffffffffffffffffffffff\n      and\n      dup2\n      mstore\n      0x20\n      add\n      0x02\n      dup3\n      add\n      sload\n      dup2\n      mstore\n      0x20\n      add\n      0x03\n      dup3\n      add\n      dup1\n      sload\n      tag_164\n      swap1\n      tag_61\n      jump\t// in\n    tag_164:\n      dup1\n      0x1f\n      add\n      0x20\n      dup1\n      swap2\n      div\n      mul\n      0x20\n      add\n      mload(0x40)\n      swap1\n      dup2\n      add\n      0x40\n      mstore\n      dup1\n      swap3\n      swap2\n      swap1\n      dup2\n      dup2\n      mstore\n      0x20\n      add\n      dup3\n      dup1\n      sload\n      tag_165\n      swap1\n      tag_61\n      jump\t// in\n    tag_165:\n      dup1\n      iszero\n      tag_166\n      jumpi\n      dup1\n      0x1f\n      lt\n      tag_167\n      jumpi\n      0x0100\n      dup1\n      dup4\n      sload\n      div\n      mul\n      dup4\n      mstore\n      swap2\n      0x20\n      add\n      swap2\n      jump(tag_166)\n    tag_167:\n      dup3\n      add\n      swap2\n      swap1\n      0x00\n      mstore\n      keccak256(0x00, 0x20)\n      swap1\n    tag_168:\n      dup2\n      sload\n      dup2\n      mstore\n      swap1\n      0x01\n      add\n      swap1\n      0x20\n      add\n      dup1\n      dup4\n      gt\n      tag_168\n      jumpi\n      dup3\n      swap1\n      sub\n      0x1f\n      and\n      dup3\n      add\n      swap2\n    tag_166:\n      pop\n      pop\n      pop\n      pop\n      pop\n      dup2\n      mstore\n      0x20\n      add\n      0x04\n      dup3\n      add\n      0x00\n      swap1\n      sload\n      swap1\n      0x0100\n      exp\n      swap1\n      div\n      0xff\n      and\n      iszero\n      iszero\n      iszero\n      iszero\n      dup2\n      mstore\n      0x20\n      add\n      0x05\n      dup3\n      add\n      sload\n      dup2\n      mstore\n      pop\n      pop\n        /* \"ListaTrust.sol\":2677:2683  result */\n      dup4\n        /* \"ListaTrust.sol\":2684:2689  index */\n      dup4\n        /* \"ListaTrust.sol\":2677:2690  result[index] */\n      dup2\n      mload\n      dup2\n      lt\n      tag_169\n      jumpi\n      tag_170\n      tag_76\n      jump\t// in\n    tag_170:\n    tag_169:\n      0x20\n      mul\n      0x20\n      add\n      add\n        /* \"ListaTrust.sol\":2677:2705  result[index] = utangList[i] */\n      dup2\n      swap1\n      mstore\n      pop\n        /* \"ListaTrust.sol\":2724:2731  index++ */\n      dup2\n      dup1\n      tag_171\n      swap1\n      tag_132\n      jump\t// in\n    tag_171:\n      swap3\n      pop\n      pop\n        /* \"ListaTrust.sol\":2601:2747  if(utangList[i].customer == _customer && activeUtang[i]) {\r... */\n    tag_160:\n        /* \"ListaTrust.sol\":2581:2584  i++ */\n      dup1\n      dup1\n      tag_172\n      swap1\n      tag_132\n      jump\t// in\n    tag_172:\n      swap2\n      pop\n      pop\n        /* \"ListaTrust.sol\":2543:2758  for(uint i = 0; i < utangList.length; i++) {\r... */\n      jump(tag_153)\n    tag_154:\n      pop\n        /* \"ListaTrust.sol\":2775:2781  result */\n      dup2\n        /* \"ListaTrust.sol\":2768:2781  return result */\n      swap4\n      pop\n      pop\n      pop\n      pop\n        /* \"ListaTrust.sol\":2193:2789  function getCustomerUtang(address _customer) public view returns (Utang[] memory) {\r... */\n      swap2\n      swap1\n      pop\n      jump\t// out\n        /* \"ListaTrust.sol\":1528:1718  function deleteUtang(uint _id) public onlyOwner {\r... */\n    tag_57:\n        /* \"ListaTrust.sol\":633:638  owner */\n      0x01\n      0x00\n      swap1\n      sload\n      swap1\n      0x0100\n      exp\n      swap1\n      div\n      0xffffffffffffffffffffffffffffffffffffffff\n      and\n        /* \"ListaTrust.sol\":619:638  msg.sender == owner */\n      0xffffffffffffffffffffffffffffffffffffffff\n      and\n        /* \"ListaTrust.sol\":619:629  msg.sender */\n      caller\n        /* \"ListaTrust.sol\":619:638  msg.sender == owner */\n      0xffffffffffffffffffffffffffffffffffffffff\n      and\n      eq\n        /* \"ListaTrust.sol\":611:676  require(msg.sender == owner, \"IAS2: Only store owner authorized\") */\n      tag_174\n      jumpi\n      mload(0x40)\n      0x08c379a000000000000000000000000000000000000000000000000000000000\n      dup2\n      mstore\n      0x04\n      add\n      tag_175\n      swap1\n      tag_69\n      jump\t// in\n    tag_175:\n      mload(0x40)\n      dup1\n      swap2\n      sub\n      swap1\n      revert\n    tag_174:\n        /* \"ListaTrust.sol\":1595:1606  activeUtang */\n      0x02\n        /* \"ListaTrust.sol\":1595:1611  activeUtang[_id] */\n      0x00\n        /* \"ListaTrust.sol\":1607:1610  _id */\n      dup3\n        /* \"ListaTrust.sol\":1595:1611  activeUtang[_id] */\n      dup2\n      mstore\n      0x20\n      add\n      swap1\n      dup2\n      mstore\n      0x20\n      add\n      0x00\n      keccak256\n      0x00\n      swap1\n      sload\n      swap1\n      0x0100\n      exp\n      swap1\n      div\n      0xff\n      and\n        /* \"ListaTrust.sol\":1587:1642  require(activeUtang[_id], \"IAS2: Utang does not exist\") */\n      tag_177\n      jumpi\n      mload(0x40)\n      0x08c379a000000000000000000000000000000000000000000000000000000000\n      dup2\n      mstore\n      0x04\n      add\n      tag_178\n      swap1\n      tag_73\n      jump\t// in\n    tag_178:\n      mload(0x40)\n      dup1\n      swap2\n      sub\n      swap1\n      revert\n    tag_177:\n        /* \"ListaTrust.sol\":1672:1677  false */\n      0x00\n        /* \"ListaTrust.sol\":1653:1664  activeUtang */\n      0x02\n        /* \"ListaTrust.sol\":1653:1669  activeUtang[_id] */\n      0x00\n        /* \"ListaTrust.sol\":1665:1668  _id */\n      dup4\n        /* \"ListaTrust.sol\":1653:1669  activeUtang[_id] */\n      dup2\n      mstore\n      0x20\n      add\n      swap1\n      dup2\n      mstore\n      0x20\n      add\n      0x00\n      keccak256\n      0x00\n        /* \"ListaTrust.sol\":1653:1677  activeUtang[_id] = false */\n      0x0100\n      exp\n      dup2\n      sload\n      dup2\n      0xff\n      mul\n      not\n      and\n      swap1\n      dup4\n      iszero\n      iszero\n      mul\n      or\n      swap1\n      sstore\n      pop\n        /* \"ListaTrust.sol\":1693:1710  UtangDeleted(_id) */\n      0x4856b4b72ad15e464af7b2af76c01835371cd13cc0a1d312a7b3a407410b988f\n        /* \"ListaTrust.sol\":1706:1709  _id */\n      dup2\n        /* \"ListaTrust.sol\":1693:1710  UtangDeleted(_id) */\n      mload(0x40)\n      tag_179\n      swap2\n      swap1\n      tag_45\n      jump\t// in\n    tag_179:\n      mload(0x40)\n      dup1\n      swap2\n      sub\n      swap1\n      log1\n        /* \"ListaTrust.sol\":1528:1718  function deleteUtang(uint _id) public onlyOwner {\r... */\n      pop\n      jump\t// out\n    tag_88:\n      dup3\n      dup1\n      sload\n      tag_180\n      swap1\n      tag_61\n      jump\t// in\n    tag_180:\n      swap1\n      0x00\n      mstore\n      keccak256(0x00, 0x20)\n      swap1\n      0x1f\n      add\n      0x20\n      swap1\n      div\n      dup2\n      add\n      swap3\n      dup3\n      tag_182\n      jumpi\n      0x00\n      dup6\n      sstore\n      jump(tag_181)\n    tag_182:\n      dup3\n      0x1f\n      lt\n      tag_183\n      jumpi\n      dup1\n      mload\n      not(0xff)\n      and\n      dup4\n      dup1\n      add\n      or\n      dup6\n      sstore\n      jump(tag_181)\n    tag_183:\n      dup3\n      dup1\n      add\n      0x01\n      add\n      dup6\n      sstore\n      dup3\n      iszero\n      tag_181\n      jumpi\n      swap2\n      dup3\n      add\n    tag_184:\n      dup3\n      dup2\n      gt\n      iszero\n      tag_185\n      jumpi\n      dup3\n      mload\n      dup3\n      sstore\n      swap2\n      0x20\n      add\n      swap2\n      swap1\n      0x01\n      add\n      swap1\n      jump(tag_184)\n    tag_185:\n    tag_181:\n      pop\n      swap1\n      pop\n      tag_186\n      swap2\n      swap1\n      tag_187\n      jump\t// in\n    tag_186:\n      pop\n      swap1\n      jump\t// out\n    tag_152:\n      mload(0x40)\n      dup1\n      0xc0\n      add\n      0x40\n      mstore\n      dup1\n      0x00\n      dup2\n      mstore\n      0x20\n      add\n      and(0xffffffffffffffffffffffffffffffffffffffff, 0x00)\n      dup2\n      mstore\n      0x20\n      add\n      0x00\n      dup2\n      mstore\n      0x20\n      add\n      0x60\n      dup2\n      mstore\n      0x20\n      add\n      iszero(iszero(0x00))\n      dup2\n      mstore\n      0x20\n      add\n      0x00\n      dup2\n      mstore\n      pop\n      swap1\n      jump\t// out\n    tag_187:\n    tag_188:\n      dup1\n      dup3\n      gt\n      iszero\n      tag_189\n      jumpi\n      0x00\n      dup2\n      0x00\n      swap1\n      sstore\n      pop\n      0x01\n      add\n      jump(tag_188)\n    tag_189:\n      pop\n      swap1\n      jump\t// out\n        /* \"#utility.yul\":7:419   */\n    tag_191:\n        /* \"#utility.yul\":85:90   */\n      0x00\n        /* \"#utility.yul\":110:176   */\n      tag_193\n        /* \"#utility.yul\":126:175   */\n      tag_194\n        /* \"#utility.yul\":168:174   */\n      dup5\n        /* \"#utility.yul\":126:175   */\n      tag_195\n      jump\t// in\n    tag_194:\n        /* \"#utility.yul\":110:176   */\n      tag_196\n      jump\t// in\n    tag_193:\n        /* \"#utility.yul\":101:176   */\n      swap1\n      pop\n        /* \"#utility.yul\":199:205   */\n      dup3\n        /* \"#utility.yul\":192:197   */\n      dup2\n        /* \"#utility.yul\":185:206   */\n      mstore\n        /* \"#utility.yul\":237:241   */\n      0x20\n        /* \"#utility.yul\":230:235   */\n      dup2\n        /* \"#utility.yul\":226:242   */\n      add\n        /* \"#utility.yul\":275:278   */\n      dup5\n        /* \"#utility.yul\":266:272   */\n      dup5\n        /* \"#utility.yul\":261:264   */\n      dup5\n        /* \"#utility.yul\":257:273   */\n      add\n        /* \"#utility.yul\":254:279   */\n      gt\n        /* \"#utility.yul\":251:363   */\n      iszero\n      tag_197\n      jumpi\n        /* \"#utility.yul\":282:361   */\n      tag_198\n      tag_199\n      jump\t// in\n    tag_198:\n        /* \"#utility.yul\":251:363   */\n    tag_197:\n        /* \"#utility.yul\":372:413   */\n      tag_200\n        /* \"#utility.yul\":406:412   */\n      dup5\n        /* \"#utility.yul\":401:404   */\n      dup3\n        /* \"#utility.yul\":396:399   */\n      dup6\n        /* \"#utility.yul\":372:413   */\n      tag_201\n      jump\t// in\n    tag_200:\n        /* \"#utility.yul\":91:419   */\n      pop\n        /* \"#utility.yul\":7:419   */\n      swap4\n      swap3\n      pop\n      pop\n      pop\n      jump\t// out\n        /* \"#utility.yul\":425:564   */\n    tag_202:\n        /* \"#utility.yul\":471:476   */\n      0x00\n        /* \"#utility.yul\":509:515   */\n      dup2\n        /* \"#utility.yul\":496:516   */\n      calldataload\n        /* \"#utility.yul\":487:516   */\n      swap1\n      pop\n        /* \"#utility.yul\":525:558   */\n      tag_204\n        /* \"#utility.yul\":552:557   */\n      dup2\n        /* \"#utility.yul\":525:558   */\n      tag_205\n      jump\t// in\n    tag_204:\n        /* \"#utility.yul\":425:564   */\n      swap3\n      swap2\n      pop\n      pop\n      jump\t// out\n        /* \"#utility.yul\":584:924   */\n    tag_206:\n        /* \"#utility.yul\":640:645   */\n      0x00\n        /* \"#utility.yul\":689:692   */\n      dup3\n        /* \"#utility.yul\":682:686   */\n      0x1f\n        /* \"#utility.yul\":674:680   */\n      dup4\n        /* \"#utility.yul\":670:687   */\n      add\n        /* \"#utility.yul\":666:693   */\n      slt\n        /* \"#utility.yul\":656:778   */\n      tag_208\n      jumpi\n        /* \"#utility.yul\":697:776   */\n      tag_209\n      tag_210\n      jump\t// in\n    tag_209:\n        /* \"#utility.yul\":656:778   */\n    tag_208:\n        /* \"#utility.yul\":814:820   */\n      dup2\n        /* \"#utility.yul\":801:821   */\n      calldataload\n        /* \"#utility.yul\":839:918   */\n      tag_211\n        /* \"#utility.yul\":914:917   */\n      dup5\n        /* \"#utility.yul\":906:912   */\n      dup3\n        /* \"#utility.yul\":899:903   */\n      0x20\n        /* \"#utility.yul\":891:897   */\n      dup7\n        /* \"#utility.yul\":887:904   */\n      add\n        /* \"#utility.yul\":839:918   */\n      tag_191\n      jump\t// in\n    tag_211:\n        /* \"#utility.yul\":830:918   */\n      swap2\n      pop\n        /* \"#utility.yul\":646:924   */\n      pop\n        /* \"#utility.yul\":584:924   */\n      swap3\n      swap2\n      pop\n      pop\n      jump\t// out\n        /* \"#utility.yul\":930:1069   */\n    tag_212:\n        /* \"#utility.yul\":976:981   */\n      0x00\n        /* \"#utility.yul\":1014:1020   */\n      dup2\n        /* \"#utility.yul\":1001:1021   */\n      calldataload\n        /* \"#utility.yul\":992:1021   */\n      swap1\n      pop\n        /* \"#utility.yul\":1030:1063   */\n      tag_214\n        /* \"#utility.yul\":1057:1062   */\n      dup2\n        /* \"#utility.yul\":1030:1063   */\n      tag_215\n      jump\t// in\n    tag_214:\n        /* \"#utility.yul\":930:1069   */\n      swap3\n      swap2\n      pop\n      pop\n      jump\t// out\n        /* \"#utility.yul\":1075:1404   */\n    tag_42:\n        /* \"#utility.yul\":1134:1140   */\n      0x00\n        /* \"#utility.yul\":1183:1185   */\n      0x20\n        /* \"#utility.yul\":1171:1180   */\n      dup3\n        /* \"#utility.yul\":1162:1169   */\n      dup5\n        /* \"#utility.yul\":1158:1181   */\n      sub\n        /* \"#utility.yul\":1154:1186   */\n      slt\n        /* \"#utility.yul\":1151:1270   */\n      iszero\n      tag_217\n      jumpi\n        /* \"#utility.yul\":1189:1268   */\n      tag_218\n      tag_219\n      jump\t// in\n    tag_218:\n        /* \"#utility.yul\":1151:1270   */\n    tag_217:\n        /* \"#utility.yul\":1309:1310   */\n      0x00\n        /* \"#utility.yul\":1334:1387   */\n      tag_220\n        /* \"#utility.yul\":1379:1386   */\n      dup5\n        /* \"#utility.yul\":1370:1376   */\n      dup3\n        /* \"#utility.yul\":1359:1368   */\n      dup6\n        /* \"#utility.yul\":1355:1377   */\n      add\n        /* \"#utility.yul\":1334:1387   */\n      tag_202\n      jump\t// in\n    tag_220:\n        /* \"#utility.yul\":1324:1387   */\n      swap2\n      pop\n        /* \"#utility.yul\":1280:1397   */\n      pop\n        /* \"#utility.yul\":1075:1404   */\n      swap3\n      swap2\n      pop\n      pop\n      jump\t// out\n        /* \"#utility.yul\":1410:2209   */\n    tag_31:\n        /* \"#utility.yul\":1497:1503   */\n      0x00\n        /* \"#utility.yul\":1505:1511   */\n      dup1\n        /* \"#utility.yul\":1513:1519   */\n      0x00\n        /* \"#utility.yul\":1562:1564   */\n      0x60\n        /* \"#utility.yul\":1550:1559   */\n      dup5\n        /* \"#utility.yul\":1541:1548   */\n      dup7\n        /* \"#utility.yul\":1537:1560   */\n      sub\n        /* \"#utility.yul\":1533:1565   */\n      slt\n        /* \"#utility.yul\":1530:1649   */\n      iszero\n      tag_222\n      jumpi\n        /* \"#utility.yul\":1568:1647   */\n      tag_223\n      tag_219\n      jump\t// in\n    tag_223:\n        /* \"#utility.yul\":1530:1649   */\n    tag_222:\n        /* \"#utility.yul\":1688:1689   */\n      0x00\n        /* \"#utility.yul\":1713:1766   */\n      tag_224\n        /* \"#utility.yul\":1758:1765   */\n      dup7\n        /* \"#utility.yul\":1749:1755   */\n      dup3\n        /* \"#utility.yul\":1738:1747   */\n      dup8\n        /* \"#utility.yul\":1734:1756   */\n      add\n        /* \"#utility.yul\":1713:1766   */\n      tag_202\n      jump\t// in\n    tag_224:\n        /* \"#utility.yul\":1703:1766   */\n      swap4\n      pop\n        /* \"#utility.yul\":1659:1776   */\n      pop\n        /* \"#utility.yul\":1815:1817   */\n      0x20\n        /* \"#utility.yul\":1841:1894   */\n      tag_225\n        /* \"#utility.yul\":1886:1893   */\n      dup7\n        /* \"#utility.yul\":1877:1883   */\n      dup3\n        /* \"#utility.yul\":1866:1875   */\n      dup8\n        /* \"#utility.yul\":1862:1884   */\n      add\n        /* \"#utility.yul\":1841:1894   */\n      tag_212\n      jump\t// in\n    tag_225:\n        /* \"#utility.yul\":1831:1894   */\n      swap3\n      pop\n        /* \"#utility.yul\":1786:1904   */\n      pop\n        /* \"#utility.yul\":1971:1973   */\n      0x40\n        /* \"#utility.yul\":1960:1969   */\n      dup5\n        /* \"#utility.yul\":1956:1974   */\n      add\n        /* \"#utility.yul\":1943:1975   */\n      calldataload\n        /* \"#utility.yul\":2002:2020   */\n      0xffffffffffffffff\n        /* \"#utility.yul\":1994:2000   */\n      dup2\n        /* \"#utility.yul\":1991:2021   */\n      gt\n        /* \"#utility.yul\":1988:2105   */\n      iszero\n      tag_226\n      jumpi\n        /* \"#utility.yul\":2024:2103   */\n      tag_227\n      tag_228\n      jump\t// in\n    tag_227:\n        /* \"#utility.yul\":1988:2105   */\n    tag_226:\n        /* \"#utility.yul\":2129:2192   */\n      tag_229\n        /* \"#utility.yul\":2184:2191   */\n      dup7\n        /* \"#utility.yul\":2175:2181   */\n      dup3\n        /* \"#utility.yul\":2164:2173   */\n      dup8\n        /* \"#utility.yul\":2160:2182   */\n      add\n        /* \"#utility.yul\":2129:2192   */\n      tag_206\n      jump\t// in\n    tag_229:\n        /* \"#utility.yul\":2119:2192   */\n      swap2\n      pop\n        /* \"#utility.yul\":1914:2202   */\n      pop\n        /* \"#utility.yul\":1410:2209   */\n      swap3\n      pop\n      swap3\n      pop\n      swap3\n      jump\t// out\n        /* \"#utility.yul\":2215:2544   */\n    tag_16:\n        /* \"#utility.yul\":2274:2280   */\n      0x00\n        /* \"#utility.yul\":2323:2325   */\n      0x20\n        /* \"#utility.yul\":2311:2320   */\n      dup3\n        /* \"#utility.yul\":2302:2309   */\n      dup5\n        /* \"#utility.yul\":2298:2321   */\n      sub\n        /* \"#utility.yul\":2294:2326   */\n      slt\n        /* \"#utility.yul\":2291:2410   */\n      iszero\n      tag_231\n      jumpi\n        /* \"#utility.yul\":2329:2408   */\n      tag_232\n      tag_219\n      jump\t// in\n    tag_232:\n        /* \"#utility.yul\":2291:2410   */\n    tag_231:\n        /* \"#utility.yul\":2449:2450   */\n      0x00\n        /* \"#utility.yul\":2474:2527   */\n      tag_233\n        /* \"#utility.yul\":2519:2526   */\n      dup5\n        /* \"#utility.yul\":2510:2516   */\n      dup3\n        /* \"#utility.yul\":2499:2508   */\n      dup6\n        /* \"#utility.yul\":2495:2517   */\n      add\n        /* \"#utility.yul\":2474:2527   */\n      tag_212\n      jump\t// in\n    tag_233:\n        /* \"#utility.yul\":2464:2527   */\n      swap2\n      pop\n        /* \"#utility.yul\":2420:2537   */\n      pop\n        /* \"#utility.yul\":2215:2544   */\n      swap3\n      swap2\n      pop\n      pop\n      jump\t// out\n        /* \"#utility.yul\":2550:3349   */\n    tag_27:\n        /* \"#utility.yul\":2637:2643   */\n      0x00\n        /* \"#utility.yul\":2645:2651   */\n      dup1\n        /* \"#utility.yul\":2653:2659   */\n      0x00\n        /* \"#utility.yul\":2702:2704   */\n      0x60\n        /* \"#utility.yul\":2690:2699   */\n      dup5\n        /* \"#utility.yul\":2681:2688   */\n      dup7\n        /* \"#utility.yul\":2677:2700   */\n      sub\n        /* \"#utility.yul\":2673:2705   */\n      slt\n        /* \"#utility.yul\":2670:2789   */\n      iszero\n      tag_235\n      jumpi\n        /* \"#utility.yul\":2708:2787   */\n      tag_236\n      tag_219\n      jump\t// in\n    tag_236:\n        /* \"#utility.yul\":2670:2789   */\n    tag_235:\n        /* \"#utility.yul\":2828:2829   */\n      0x00\n        /* \"#utility.yul\":2853:2906   */\n      tag_237\n        /* \"#utility.yul\":2898:2905   */\n      dup7\n        /* \"#utility.yul\":2889:2895   */\n      dup3\n        /* \"#utility.yul\":2878:2887   */\n      dup8\n        /* \"#utility.yul\":2874:2896   */\n      add\n        /* \"#utility.yul\":2853:2906   */\n      tag_212\n      jump\t// in\n    tag_237:\n        /* \"#utility.yul\":2843:2906   */\n      swap4\n      pop\n        /* \"#utility.yul\":2799:2916   */\n      pop\n        /* \"#utility.yul\":2955:2957   */\n      0x20\n        /* \"#utility.yul\":2981:3034   */\n      tag_238\n        /* \"#utility.yul\":3026:3033   */\n      dup7\n        /* \"#utility.yul\":3017:3023   */\n      dup3\n        /* \"#utility.yul\":3006:3015   */\n      dup8\n        /* \"#utility.yul\":3002:3024   */\n      add\n        /* \"#utility.yul\":2981:3034   */\n      tag_212\n      jump\t// in\n    tag_238:\n        /* \"#utility.yul\":2971:3034   */\n      swap3\n      pop\n        /* \"#utility.yul\":2926:3044   */\n      pop\n        /* \"#utility.yul\":3111:3113   */\n      0x40\n        /* \"#utility.yul\":3100:3109   */\n      dup5\n        /* \"#utility.yul\":3096:3114   */\n      add\n        /* \"#utility.yul\":3083:3115   */\n      calldataload\n        /* \"#utility.yul\":3142:3160   */\n      0xffffffffffffffff\n        /* \"#utility.yul\":3134:3140   */\n      dup2\n        /* \"#utility.yul\":3131:3161   */\n      gt\n        /* \"#utility.yul\":3128:3245   */\n      iszero\n      tag_239\n      jumpi\n        /* \"#utility.yul\":3164:3243   */\n      tag_240\n      tag_228\n      jump\t// in\n    tag_240:\n        /* \"#utility.yul\":3128:3245   */\n    tag_239:\n        /* \"#utility.yul\":3269:3332   */\n      tag_241\n        /* \"#utility.yul\":3324:3331   */\n      dup7\n        /* \"#utility.yul\":3315:3321   */\n      dup3\n        /* \"#utility.yul\":3304:3313   */\n      dup8\n        /* \"#utility.yul\":3300:3322   */\n      add\n        /* \"#utility.yul\":3269:3332   */\n      tag_206\n      jump\t// in\n    tag_241:\n        /* \"#utility.yul\":3259:3332   */\n      swap2\n      pop\n        /* \"#utility.yul\":3054:3342   */\n      pop\n        /* \"#utility.yul\":2550:3349   */\n      swap3\n      pop\n      swap3\n      pop\n      swap3\n      jump\t// out\n        /* \"#utility.yul\":3355:3595   */\n    tag_242:\n        /* \"#utility.yul\":3466:3476   */\n      0x00\n        /* \"#utility.yul\":3501:3589   */\n      tag_244\n        /* \"#utility.yul\":3585:3588   */\n      dup4\n        /* \"#utility.yul\":3577:3583   */\n      dup4\n        /* \"#utility.yul\":3501:3589   */\n      tag_245\n      jump\t// in\n    tag_244:\n        /* \"#utility.yul\":3487:3589   */\n      swap1\n      pop\n        /* \"#utility.yul\":3355:3595   */\n      swap3\n      swap2\n      pop\n      pop\n      jump\t// out\n        /* \"#utility.yul\":3601:3709   */\n    tag_246:\n        /* \"#utility.yul\":3678:3702   */\n      tag_248\n        /* \"#utility.yul\":3696:3701   */\n      dup2\n        /* \"#utility.yul\":3678:3702   */\n      tag_249\n      jump\t// in\n    tag_248:\n        /* \"#utility.yul\":3673:3676   */\n      dup3\n        /* \"#utility.yul\":3666:3703   */\n      mstore\n        /* \"#utility.yul\":3601:3709   */\n      pop\n      pop\n      jump\t// out\n        /* \"#utility.yul\":3715:3833   */\n    tag_250:\n        /* \"#utility.yul\":3802:3826   */\n      tag_252\n        /* \"#utility.yul\":3820:3825   */\n      dup2\n        /* \"#utility.yul\":3802:3826   */\n      tag_249\n      jump\t// in\n    tag_252:\n        /* \"#utility.yul\":3797:3800   */\n      dup3\n        /* \"#utility.yul\":3790:3827   */\n      mstore\n        /* \"#utility.yul\":3715:3833   */\n      pop\n      pop\n      jump\t// out\n        /* \"#utility.yul\":3901:4980   */\n    tag_253:\n        /* \"#utility.yul\":4062:4065   */\n      0x00\n        /* \"#utility.yul\":4091:4166   */\n      tag_255\n        /* \"#utility.yul\":4160:4165   */\n      dup3\n        /* \"#utility.yul\":4091:4166   */\n      tag_256\n      jump\t// in\n    tag_255:\n        /* \"#utility.yul\":4182:4289   */\n      tag_257\n        /* \"#utility.yul\":4282:4288   */\n      dup2\n        /* \"#utility.yul\":4277:4280   */\n      dup6\n        /* \"#utility.yul\":4182:4289   */\n      tag_258\n      jump\t// in\n    tag_257:\n        /* \"#utility.yul\":4175:4289   */\n      swap4\n      pop\n        /* \"#utility.yul\":4315:4318   */\n      dup4\n        /* \"#utility.yul\":4360:4364   */\n      0x20\n        /* \"#utility.yul\":4352:4358   */\n      dup3\n        /* \"#utility.yul\":4348:4365   */\n      mul\n        /* \"#utility.yul\":4343:4346   */\n      dup6\n        /* \"#utility.yul\":4339:4366   */\n      add\n        /* \"#utility.yul\":4390:4467   */\n      tag_259\n        /* \"#utility.yul\":4461:4466   */\n      dup6\n        /* \"#utility.yul\":4390:4467   */\n      tag_260\n      jump\t// in\n    tag_259:\n        /* \"#utility.yul\":4490:4497   */\n      dup1\n        /* \"#utility.yul\":4521:4522   */\n      0x00\n        /* \"#utility.yul\":4506:4935   */\n    tag_261:\n        /* \"#utility.yul\":4531:4537   */\n      dup6\n        /* \"#utility.yul\":4528:4529   */\n      dup2\n        /* \"#utility.yul\":4525:4538   */\n      lt\n        /* \"#utility.yul\":4506:4935   */\n      iszero\n      tag_263\n      jumpi\n        /* \"#utility.yul\":4602:4611   */\n      dup5\n        /* \"#utility.yul\":4596:4600   */\n      dup5\n        /* \"#utility.yul\":4592:4612   */\n      sub\n        /* \"#utility.yul\":4587:4590   */\n      dup10\n        /* \"#utility.yul\":4580:4613   */\n      mstore\n        /* \"#utility.yul\":4653:4659   */\n      dup2\n        /* \"#utility.yul\":4647:4660   */\n      mload\n        /* \"#utility.yul\":4681:4787   */\n      tag_264\n        /* \"#utility.yul\":4782:4786   */\n      dup6\n        /* \"#utility.yul\":4767:4780   */\n      dup3\n        /* \"#utility.yul\":4681:4787   */\n      tag_242\n      jump\t// in\n    tag_264:\n        /* \"#utility.yul\":4673:4787   */\n      swap5\n      pop\n        /* \"#utility.yul\":4810:4891   */\n      tag_265\n        /* \"#utility.yul\":4884:4890   */\n      dup4\n        /* \"#utility.yul\":4810:4891   */\n      tag_266\n      jump\t// in\n    tag_265:\n        /* \"#utility.yul\":4800:4891   */\n      swap3\n      pop\n        /* \"#utility.yul\":4920:4924   */\n      0x20\n        /* \"#utility.yul\":4915:4918   */\n      dup11\n        /* \"#utility.yul\":4911:4925   */\n      add\n        /* \"#utility.yul\":4904:4925   */\n      swap10\n      pop\n        /* \"#utility.yul\":4566:4935   */\n      pop\n        /* \"#utility.yul\":4553:4554   */\n      0x01\n        /* \"#utility.yul\":4550:4551   */\n      dup2\n        /* \"#utility.yul\":4546:4555   */\n      add\n        /* \"#utility.yul\":4541:4555   */\n      swap1\n      pop\n        /* \"#utility.yul\":4506:4935   */\n      jump(tag_261)\n    tag_263:\n        /* \"#utility.yul\":4510:4524   */\n      pop\n        /* \"#utility.yul\":4951:4955   */\n      dup3\n        /* \"#utility.yul\":4944:4955   */\n      swap8\n      pop\n        /* \"#utility.yul\":4971:4974   */\n      dup8\n        /* \"#utility.yul\":4964:4974   */\n      swap6\n      pop\n        /* \"#utility.yul\":4067:4980   */\n      pop\n      pop\n      pop\n      pop\n      pop\n        /* \"#utility.yul\":3901:4980   */\n      swap3\n      swap2\n      pop\n      pop\n      jump\t// out\n        /* \"#utility.yul\":4986:5085   */\n    tag_267:\n        /* \"#utility.yul\":5057:5078   */\n      tag_269\n        /* \"#utility.yul\":5072:5077   */\n      dup2\n        /* \"#utility.yul\":5057:5078   */\n      tag_270\n      jump\t// in\n    tag_269:\n        /* \"#utility.yul\":5052:5055   */\n      dup3\n        /* \"#utility.yul\":5045:5079   */\n      mstore\n        /* \"#utility.yul\":4986:5085   */\n      pop\n      pop\n      jump\t// out\n        /* \"#utility.yul\":5091:5200   */\n    tag_271:\n        /* \"#utility.yul\":5172:5193   */\n      tag_273\n        /* \"#utility.yul\":5187:5192   */\n      dup2\n        /* \"#utility.yul\":5172:5193   */\n      tag_270\n      jump\t// in\n    tag_273:\n        /* \"#utility.yul\":5167:5170   */\n      dup3\n        /* \"#utility.yul\":5160:5194   */\n      mstore\n        /* \"#utility.yul\":5091:5200   */\n      pop\n      pop\n      jump\t// out\n        /* \"#utility.yul\":5206:5550   */\n    tag_274:\n        /* \"#utility.yul\":5284:5287   */\n      0x00\n        /* \"#utility.yul\":5312:5351   */\n      tag_276\n        /* \"#utility.yul\":5345:5350   */\n      dup3\n        /* \"#utility.yul\":5312:5351   */\n      tag_277\n      jump\t// in\n    tag_276:\n        /* \"#utility.yul\":5367:5428   */\n      tag_278\n        /* \"#utility.yul\":5421:5427   */\n      dup2\n        /* \"#utility.yul\":5416:5419   */\n      dup6\n        /* \"#utility.yul\":5367:5428   */\n      tag_279\n      jump\t// in\n    tag_278:\n        /* \"#utility.yul\":5360:5428   */\n      swap4\n      pop\n        /* \"#utility.yul\":5437:5489   */\n      tag_280\n        /* \"#utility.yul\":5482:5488   */\n      dup2\n        /* \"#utility.yul\":5477:5480   */\n      dup6\n        /* \"#utility.yul\":5470:5474   */\n      0x20\n        /* \"#utility.yul\":5463:5468   */\n      dup7\n        /* \"#utility.yul\":5459:5475   */\n      add\n        /* \"#utility.yul\":5437:5489   */\n      tag_281\n      jump\t// in\n    tag_280:\n        /* \"#utility.yul\":5514:5543   */\n      tag_282\n        /* \"#utility.yul\":5536:5542   */\n      dup2\n        /* \"#utility.yul\":5514:5543   */\n      tag_283\n      jump\t// in\n    tag_282:\n        /* \"#utility.yul\":5509:5512   */\n      dup5\n        /* \"#utility.yul\":5505:5544   */\n      add\n        /* \"#utility.yul\":5498:5544   */\n      swap2\n      pop\n        /* \"#utility.yul\":5288:5550   */\n      pop\n        /* \"#utility.yul\":5206:5550   */\n      swap3\n      swap2\n      pop\n      pop\n      jump\t// out\n        /* \"#utility.yul\":5556:5920   */\n    tag_284:\n        /* \"#utility.yul\":5644:5647   */\n      0x00\n        /* \"#utility.yul\":5672:5711   */\n      tag_286\n        /* \"#utility.yul\":5705:5710   */\n      dup3\n        /* \"#utility.yul\":5672:5711   */\n      tag_277\n      jump\t// in\n    tag_286:\n        /* \"#utility.yul\":5727:5798   */\n      tag_287\n        /* \"#utility.yul\":5791:5797   */\n      dup2\n        /* \"#utility.yul\":5786:5789   */\n      dup6\n        /* \"#utility.yul\":5727:5798   */\n      tag_288\n      jump\t// in\n    tag_287:\n        /* \"#utility.yul\":5720:5798   */\n      swap4\n      pop\n        /* \"#utility.yul\":5807:5859   */\n      tag_289\n        /* \"#utility.yul\":5852:5858   */\n      dup2\n        /* \"#utility.yul\":5847:5850   */\n      dup6\n        /* \"#utility.yul\":5840:5844   */\n      0x20\n        /* \"#utility.yul\":5833:5838   */\n      dup7\n        /* \"#utility.yul\":5829:5845   */\n      add\n        /* \"#utility.yul\":5807:5859   */\n      tag_281\n      jump\t// in\n    tag_289:\n        /* \"#utility.yul\":5884:5913   */\n      tag_290\n        /* \"#utility.yul\":5906:5912   */\n      dup2\n        /* \"#utility.yul\":5884:5913   */\n      tag_283\n      jump\t// in\n    tag_290:\n        /* \"#utility.yul\":5879:5882   */\n      dup5\n        /* \"#utility.yul\":5875:5914   */\n      add\n        /* \"#utility.yul\":5868:5914   */\n      swap2\n      pop\n        /* \"#utility.yul\":5648:5920   */\n      pop\n        /* \"#utility.yul\":5556:5920   */\n      swap3\n      swap2\n      pop\n      pop\n      jump\t// out\n        /* \"#utility.yul\":5926:6292   */\n    tag_291:\n        /* \"#utility.yul\":6068:6071   */\n      0x00\n        /* \"#utility.yul\":6089:6156   */\n      tag_293\n        /* \"#utility.yul\":6153:6155   */\n      0x12\n        /* \"#utility.yul\":6148:6151   */\n      dup4\n        /* \"#utility.yul\":6089:6156   */\n      tag_288\n      jump\t// in\n    tag_293:\n        /* \"#utility.yul\":6082:6156   */\n      swap2\n      pop\n        /* \"#utility.yul\":6165:6258   */\n      tag_294\n        /* \"#utility.yul\":6254:6257   */\n      dup3\n        /* \"#utility.yul\":6165:6258   */\n      tag_295\n      jump\t// in\n    tag_294:\n        /* \"#utility.yul\":6283:6285   */\n      0x20\n        /* \"#utility.yul\":6278:6281   */\n      dup3\n        /* \"#utility.yul\":6274:6286   */\n      add\n        /* \"#utility.yul\":6267:6286   */\n      swap1\n      pop\n        /* \"#utility.yul\":5926:6292   */\n      swap2\n      swap1\n      pop\n      jump\t// out\n        /* \"#utility.yul\":6298:6664   */\n    tag_296:\n        /* \"#utility.yul\":6440:6443   */\n      0x00\n        /* \"#utility.yul\":6461:6528   */\n      tag_298\n        /* \"#utility.yul\":6525:6527   */\n      0x1c\n        /* \"#utility.yul\":6520:6523   */\n      dup4\n        /* \"#utility.yul\":6461:6528   */\n      tag_288\n      jump\t// in\n    tag_298:\n        /* \"#utility.yul\":6454:6528   */\n      swap2\n      pop\n        /* \"#utility.yul\":6537:6630   */\n      tag_299\n        /* \"#utility.yul\":6626:6629   */\n      dup3\n        /* \"#utility.yul\":6537:6630   */\n      tag_300\n      jump\t// in\n    tag_299:\n        /* \"#utility.yul\":6655:6657   */\n      0x20\n        /* \"#utility.yul\":6650:6653   */\n      dup3\n        /* \"#utility.yul\":6646:6658   */\n      add\n        /* \"#utility.yul\":6639:6658   */\n      swap1\n      pop\n        /* \"#utility.yul\":6298:6664   */\n      swap2\n      swap1\n      pop\n      jump\t// out\n        /* \"#utility.yul\":6670:7036   */\n    tag_301:\n        /* \"#utility.yul\":6812:6815   */\n      0x00\n        /* \"#utility.yul\":6833:6900   */\n      tag_303\n        /* \"#utility.yul\":6897:6899   */\n      0x21\n        /* \"#utility.yul\":6892:6895   */\n      dup4\n        /* \"#utility.yul\":6833:6900   */\n      tag_288\n      jump\t// in\n    tag_303:\n        /* \"#utility.yul\":6826:6900   */\n      swap2\n      pop\n        /* \"#utility.yul\":6909:7002   */\n      tag_304\n        /* \"#utility.yul\":6998:7001   */\n      dup3\n        /* \"#utility.yul\":6909:7002   */\n      tag_305\n      jump\t// in\n    tag_304:\n        /* \"#utility.yul\":7027:7029   */\n      0x40\n        /* \"#utility.yul\":7022:7025   */\n      dup3\n        /* \"#utility.yul\":7018:7030   */\n      add\n        /* \"#utility.yul\":7011:7030   */\n      swap1\n      pop\n        /* \"#utility.yul\":6670:7036   */\n      swap2\n      swap1\n      pop\n      jump\t// out\n        /* \"#utility.yul\":7042:7408   */\n    tag_306:\n        /* \"#utility.yul\":7184:7187   */\n      0x00\n        /* \"#utility.yul\":7205:7272   */\n      tag_308\n        /* \"#utility.yul\":7269:7271   */\n      0x1a\n        /* \"#utility.yul\":7264:7267   */\n      dup4\n        /* \"#utility.yul\":7205:7272   */\n      tag_288\n      jump\t// in\n    tag_308:\n        /* \"#utility.yul\":7198:7272   */\n      swap2\n      pop\n        /* \"#utility.yul\":7281:7374   */\n      tag_309\n        /* \"#utility.yul\":7370:7373   */\n      dup3\n        /* \"#utility.yul\":7281:7374   */\n      tag_310\n      jump\t// in\n    tag_309:\n        /* \"#utility.yul\":7399:7401   */\n      0x20\n        /* \"#utility.yul\":7394:7397   */\n      dup3\n        /* \"#utility.yul\":7390:7402   */\n      add\n        /* \"#utility.yul\":7383:7402   */\n      swap1\n      pop\n        /* \"#utility.yul\":7042:7408   */\n      swap2\n      swap1\n      pop\n      jump\t// out\n        /* \"#utility.yul\":7472:8760   */\n    tag_245:\n        /* \"#utility.yul\":7573:7576   */\n      0x00\n        /* \"#utility.yul\":7609:7613   */\n      0xc0\n        /* \"#utility.yul\":7604:7607   */\n      dup4\n        /* \"#utility.yul\":7600:7614   */\n      add\n        /* \"#utility.yul\":7694:7698   */\n      0x00\n        /* \"#utility.yul\":7687:7692   */\n      dup4\n        /* \"#utility.yul\":7683:7699   */\n      add\n        /* \"#utility.yul\":7677:7700   */\n      mload\n        /* \"#utility.yul\":7713:7776   */\n      tag_312\n        /* \"#utility.yul\":7770:7774   */\n      0x00\n        /* \"#utility.yul\":7765:7768   */\n      dup7\n        /* \"#utility.yul\":7761:7775   */\n      add\n        /* \"#utility.yul\":7747:7759   */\n      dup3\n        /* \"#utility.yul\":7713:7776   */\n      tag_313\n      jump\t// in\n    tag_312:\n        /* \"#utility.yul\":7624:7786   */\n      pop\n        /* \"#utility.yul\":7872:7876   */\n      0x20\n        /* \"#utility.yul\":7865:7870   */\n      dup4\n        /* \"#utility.yul\":7861:7877   */\n      add\n        /* \"#utility.yul\":7855:7878   */\n      mload\n        /* \"#utility.yul\":7891:7954   */\n      tag_314\n        /* \"#utility.yul\":7948:7952   */\n      0x20\n        /* \"#utility.yul\":7943:7946   */\n      dup7\n        /* \"#utility.yul\":7939:7953   */\n      add\n        /* \"#utility.yul\":7925:7937   */\n      dup3\n        /* \"#utility.yul\":7891:7954   */\n      tag_246\n      jump\t// in\n    tag_314:\n        /* \"#utility.yul\":7796:7964   */\n      pop\n        /* \"#utility.yul\":8048:8052   */\n      0x40\n        /* \"#utility.yul\":8041:8046   */\n      dup4\n        /* \"#utility.yul\":8037:8053   */\n      add\n        /* \"#utility.yul\":8031:8054   */\n      mload\n        /* \"#utility.yul\":8067:8130   */\n      tag_315\n        /* \"#utility.yul\":8124:8128   */\n      0x40\n        /* \"#utility.yul\":8119:8122   */\n      dup7\n        /* \"#utility.yul\":8115:8129   */\n      add\n        /* \"#utility.yul\":8101:8113   */\n      dup3\n        /* \"#utility.yul\":8067:8130   */\n      tag_313\n      jump\t// in\n    tag_315:\n        /* \"#utility.yul\":7974:8140   */\n      pop\n        /* \"#utility.yul\":8223:8227   */\n      0x60\n        /* \"#utility.yul\":8216:8221   */\n      dup4\n        /* \"#utility.yul\":8212:8228   */\n      add\n        /* \"#utility.yul\":8206:8229   */\n      mload\n        /* \"#utility.yul\":8276:8279   */\n      dup5\n        /* \"#utility.yul\":8270:8274   */\n      dup3\n        /* \"#utility.yul\":8266:8280   */\n      sub\n        /* \"#utility.yul\":8259:8263   */\n      0x60\n        /* \"#utility.yul\":8254:8257   */\n      dup7\n        /* \"#utility.yul\":8250:8264   */\n      add\n        /* \"#utility.yul\":8243:8281   */\n      mstore\n        /* \"#utility.yul\":8302:8375   */\n      tag_316\n        /* \"#utility.yul\":8370:8374   */\n      dup3\n        /* \"#utility.yul\":8356:8368   */\n      dup3\n        /* \"#utility.yul\":8302:8375   */\n      tag_274\n      jump\t// in\n    tag_316:\n        /* \"#utility.yul\":8294:8375   */\n      swap2\n      pop\n        /* \"#utility.yul\":8150:8386   */\n      pop\n        /* \"#utility.yul\":8468:8472   */\n      0x80\n        /* \"#utility.yul\":8461:8466   */\n      dup4\n        /* \"#utility.yul\":8457:8473   */\n      add\n        /* \"#utility.yul\":8451:8474   */\n      mload\n        /* \"#utility.yul\":8487:8544   */\n      tag_317\n        /* \"#utility.yul\":8538:8542   */\n      0x80\n        /* \"#utility.yul\":8533:8536   */\n      dup7\n        /* \"#utility.yul\":8529:8543   */\n      add\n        /* \"#utility.yul\":8515:8527   */\n      dup3\n        /* \"#utility.yul\":8487:8544   */\n      tag_267\n      jump\t// in\n    tag_317:\n        /* \"#utility.yul\":8396:8554   */\n      pop\n        /* \"#utility.yul\":8641:8645   */\n      0xa0\n        /* \"#utility.yul\":8634:8639   */\n      dup4\n        /* \"#utility.yul\":8630:8646   */\n      add\n        /* \"#utility.yul\":8624:8647   */\n      mload\n        /* \"#utility.yul\":8660:8723   */\n      tag_318\n        /* \"#utility.yul\":8717:8721   */\n      0xa0\n        /* \"#utility.yul\":8712:8715   */\n      dup7\n        /* \"#utility.yul\":8708:8722   */\n      add\n        /* \"#utility.yul\":8694:8706   */\n      dup3\n        /* \"#utility.yul\":8660:8723   */\n      tag_313\n      jump\t// in\n    tag_318:\n        /* \"#utility.yul\":8564:8733   */\n      pop\n        /* \"#utility.yul\":8750:8754   */\n      dup1\n        /* \"#utility.yul\":8743:8754   */\n      swap2\n      pop\n        /* \"#utility.yul\":7578:8760   */\n      pop\n        /* \"#utility.yul\":7472:8760   */\n      swap3\n      swap2\n      pop\n      pop\n      jump\t// out\n        /* \"#utility.yul\":8766:8874   */\n    tag_313:\n        /* \"#utility.yul\":8843:8867   */\n      tag_320\n        /* \"#utility.yul\":8861:8866   */\n      dup2\n        /* \"#utility.yul\":8843:8867   */\n      tag_321\n      jump\t// in\n    tag_320:\n        /* \"#utility.yul\":8838:8841   */\n      dup3\n        /* \"#utility.yul\":8831:8868   */\n      mstore\n        /* \"#utility.yul\":8766:8874   */\n      pop\n      pop\n      jump\t// out\n        /* \"#utility.yul\":8880:8998   */\n    tag_322:\n        /* \"#utility.yul\":8967:8991   */\n      tag_324\n        /* \"#utility.yul\":8985:8990   */\n      dup2\n        /* \"#utility.yul\":8967:8991   */\n      tag_321\n      jump\t// in\n    tag_324:\n        /* \"#utility.yul\":8962:8965   */\n      dup3\n        /* \"#utility.yul\":8955:8992   */\n      mstore\n        /* \"#utility.yul\":8880:8998   */\n      pop\n      pop\n      jump\t// out\n        /* \"#utility.yul\":9004:9226   */\n    tag_39:\n        /* \"#utility.yul\":9097:9101   */\n      0x00\n        /* \"#utility.yul\":9135:9137   */\n      0x20\n        /* \"#utility.yul\":9124:9133   */\n      dup3\n        /* \"#utility.yul\":9120:9138   */\n      add\n        /* \"#utility.yul\":9112:9138   */\n      swap1\n      pop\n        /* \"#utility.yul\":9148:9219   */\n      tag_326\n        /* \"#utility.yul\":9216:9217   */\n      0x00\n        /* \"#utility.yul\":9205:9214   */\n      dup4\n        /* \"#utility.yul\":9201:9218   */\n      add\n        /* \"#utility.yul\":9192:9198   */\n      dup5\n        /* \"#utility.yul\":9148:9219   */\n      tag_250\n      jump\t// in\n    tag_326:\n        /* \"#utility.yul\":9004:9226   */\n      swap3\n      swap2\n      pop\n      pop\n      jump\t// out\n        /* \"#utility.yul\":9232:9689   */\n    tag_54:\n        /* \"#utility.yul\":9417:9421   */\n      0x00\n        /* \"#utility.yul\":9455:9457   */\n      0x20\n        /* \"#utility.yul\":9444:9453   */\n      dup3\n        /* \"#utility.yul\":9440:9458   */\n      add\n        /* \"#utility.yul\":9432:9458   */\n      swap1\n      pop\n        /* \"#utility.yul\":9504:9513   */\n      dup2\n        /* \"#utility.yul\":9498:9502   */\n      dup2\n        /* \"#utility.yul\":9494:9514   */\n      sub\n        /* \"#utility.yul\":9490:9491   */\n      0x00\n        /* \"#utility.yul\":9479:9488   */\n      dup4\n        /* \"#utility.yul\":9475:9492   */\n      add\n        /* \"#utility.yul\":9468:9515   */\n      mstore\n        /* \"#utility.yul\":9532:9682   */\n      tag_328\n        /* \"#utility.yul\":9677:9681   */\n      dup2\n        /* \"#utility.yul\":9668:9674   */\n      dup5\n        /* \"#utility.yul\":9532:9682   */\n      tag_253\n      jump\t// in\n    tag_328:\n        /* \"#utility.yul\":9524:9682   */\n      swap1\n      pop\n        /* \"#utility.yul\":9232:9689   */\n      swap3\n      swap2\n      pop\n      pop\n      jump\t// out\n        /* \"#utility.yul\":9695:9905   */\n    tag_19:\n        /* \"#utility.yul\":9782:9786   */\n      0x00\n        /* \"#utility.yul\":9820:9822   */\n      0x20\n        /* \"#utility.yul\":9809:9818   */\n      dup3\n        /* \"#utility.yul\":9805:9823   */\n      add\n        /* \"#utility.yul\":9797:9823   */\n      swap1\n      pop\n        /* \"#utility.yul\":9833:9898   */\n      tag_330\n        /* \"#utility.yul\":9895:9896   */\n      0x00\n        /* \"#utility.yul\":9884:9893   */\n      dup4\n        /* \"#utility.yul\":9880:9897   */\n      add\n        /* \"#utility.yul\":9871:9877   */\n      dup5\n        /* \"#utility.yul\":9833:9898   */\n      tag_271\n      jump\t// in\n    tag_330:\n        /* \"#utility.yul\":9695:9905   */\n      swap3\n      swap2\n      pop\n      pop\n      jump\t// out\n        /* \"#utility.yul\":9911:10330   */\n    tag_108:\n        /* \"#utility.yul\":10077:10081   */\n      0x00\n        /* \"#utility.yul\":10115:10117   */\n      0x20\n        /* \"#utility.yul\":10104:10113   */\n      dup3\n        /* \"#utility.yul\":10100:10118   */\n      add\n        /* \"#utility.yul\":10092:10118   */\n      swap1\n      pop\n        /* \"#utility.yul\":10164:10173   */\n      dup2\n        /* \"#utility.yul\":10158:10162   */\n      dup2\n        /* \"#utility.yul\":10154:10174   */\n      sub\n        /* \"#utility.yul\":10150:10151   */\n      0x00\n        /* \"#utility.yul\":10139:10148   */\n      dup4\n        /* \"#utility.yul\":10135:10152   */\n      add\n        /* \"#utility.yul\":10128:10175   */\n      mstore\n        /* \"#utility.yul\":10192:10323   */\n      tag_332\n        /* \"#utility.yul\":10318:10322   */\n      dup2\n        /* \"#utility.yul\":10192:10323   */\n      tag_291\n      jump\t// in\n    tag_332:\n        /* \"#utility.yul\":10184:10323   */\n      swap1\n      pop\n        /* \"#utility.yul\":9911:10330   */\n      swap2\n      swap1\n      pop\n      jump\t// out\n        /* \"#utility.yul\":10336:10755   */\n    tag_80:\n        /* \"#utility.yul\":10502:10506   */\n      0x00\n        /* \"#utility.yul\":10540:10542   */\n      0x20\n        /* \"#utility.yul\":10529:10538   */\n      dup3\n        /* \"#utility.yul\":10525:10543   */\n      add\n        /* \"#utility.yul\":10517:10543   */\n      swap1\n      pop\n        /* \"#utility.yul\":10589:10598   */\n      dup2\n        /* \"#utility.yul\":10583:10587   */\n      dup2\n        /* \"#utility.yul\":10579:10599   */\n      sub\n        /* \"#utility.yul\":10575:10576   */\n      0x00\n        /* \"#utility.yul\":10564:10573   */\n      dup4\n        /* \"#utility.yul\":10560:10577   */\n      add\n        /* \"#utility.yul\":10553:10600   */\n      mstore\n        /* \"#utility.yul\":10617:10748   */\n      tag_334\n        /* \"#utility.yul\":10743:10747   */\n      dup2\n        /* \"#utility.yul\":10617:10748   */\n      tag_296\n      jump\t// in\n    tag_334:\n        /* \"#utility.yul\":10609:10748   */\n      swap1\n      pop\n        /* \"#utility.yul\":10336:10755   */\n      swap2\n      swap1\n      pop\n      jump\t// out\n        /* \"#utility.yul\":10761:11180   */\n    tag_69:\n        /* \"#utility.yul\":10927:10931   */\n      0x00\n        /* \"#utility.yul\":10965:10967   */\n      0x20\n        /* \"#utility.yul\":10954:10963   */\n      dup3\n        /* \"#utility.yul\":10950:10968   */\n      add\n        /* \"#utility.yul\":10942:10968   */\n      swap1\n      pop\n        /* \"#utility.yul\":11014:11023   */\n      dup2\n        /* \"#utility.yul\":11008:11012   */\n      dup2\n        /* \"#utility.yul\":11004:11024   */\n      sub\n        /* \"#utility.yul\":11000:11001   */\n      0x00\n        /* \"#utility.yul\":10989:10998   */\n      dup4\n        /* \"#utility.yul\":10985:11002   */\n      add\n        /* \"#utility.yul\":10978:11025   */\n      mstore\n        /* \"#utility.yul\":11042:11173   */\n      tag_336\n        /* \"#utility.yul\":11168:11172   */\n      dup2\n        /* \"#utility.yul\":11042:11173   */\n      tag_301\n      jump\t// in\n    tag_336:\n        /* \"#utility.yul\":11034:11173   */\n      swap1\n      pop\n        /* \"#utility.yul\":10761:11180   */\n      swap2\n      swap1\n      pop\n      jump\t// out\n        /* \"#utility.yul\":11186:11605   */\n    tag_73:\n        /* \"#utility.yul\":11352:11356   */\n      0x00\n        /* \"#utility.yul\":11390:11392   */\n      0x20\n        /* \"#utility.yul\":11379:11388   */\n      dup3\n        /* \"#utility.yul\":11375:11393   */\n      add\n        /* \"#utility.yul\":11367:11393   */\n      swap1\n      pop\n        /* \"#utility.yul\":11439:11448   */\n      dup2\n        /* \"#utility.yul\":11433:11437   */\n      dup2\n        /* \"#utility.yul\":11429:11449   */\n      sub\n        /* \"#utility.yul\":11425:11426   */\n      0x00\n        /* \"#utility.yul\":11414:11423   */\n      dup4\n        /* \"#utility.yul\":11410:11427   */\n      add\n        /* \"#utility.yul\":11403:11450   */\n      mstore\n        /* \"#utility.yul\":11467:11598   */\n      tag_338\n        /* \"#utility.yul\":11593:11597   */\n      dup2\n        /* \"#utility.yul\":11467:11598   */\n      tag_306\n      jump\t// in\n    tag_338:\n        /* \"#utility.yul\":11459:11598   */\n      swap1\n      pop\n        /* \"#utility.yul\":11186:11605   */\n      swap2\n      swap1\n      pop\n      jump\t// out\n        /* \"#utility.yul\":11611:11833   */\n    tag_45:\n        /* \"#utility.yul\":11704:11708   */\n      0x00\n        /* \"#utility.yul\":11742:11744   */\n      0x20\n        /* \"#utility.yul\":11731:11740   */\n      dup3\n        /* \"#utility.yul\":11727:11745   */\n      add\n        /* \"#utility.yul\":11719:11745   */\n      swap1\n      pop\n        /* \"#utility.yul\":11755:11826   */\n      tag_340\n        /* \"#utility.yul\":11823:11824   */\n      0x00\n        /* \"#utility.yul\":11812:11821   */\n      dup4\n        /* \"#utility.yul\":11808:11825   */\n      add\n        /* \"#utility.yul\":11799:11805   */\n      dup5\n        /* \"#utility.yul\":11755:11826   */\n      tag_322\n      jump\t// in\n    tag_340:\n        /* \"#utility.yul\":11611:11833   */\n      swap3\n      swap2\n      pop\n      pop\n      jump\t// out\n        /* \"#utility.yul\":11839:12483   */\n    tag_96:\n        /* \"#utility.yul\":12036:12040   */\n      0x00\n        /* \"#utility.yul\":12074:12077   */\n      0x80\n        /* \"#utility.yul\":12063:12072   */\n      dup3\n        /* \"#utility.yul\":12059:12078   */\n      add\n        /* \"#utility.yul\":12051:12078   */\n      swap1\n      pop\n        /* \"#utility.yul\":12088:12159   */\n      tag_342\n        /* \"#utility.yul\":12156:12157   */\n      0x00\n        /* \"#utility.yul\":12145:12154   */\n      dup4\n        /* \"#utility.yul\":12141:12158   */\n      add\n        /* \"#utility.yul\":12132:12138   */\n      dup8\n        /* \"#utility.yul\":12088:12159   */\n      tag_322\n      jump\t// in\n    tag_342:\n        /* \"#utility.yul\":12169:12241   */\n      tag_343\n        /* \"#utility.yul\":12237:12239   */\n      0x20\n        /* \"#utility.yul\":12226:12235   */\n      dup4\n        /* \"#utility.yul\":12222:12240   */\n      add\n        /* \"#utility.yul\":12213:12219   */\n      dup7\n        /* \"#utility.yul\":12169:12241   */\n      tag_250\n      jump\t// in\n    tag_343:\n        /* \"#utility.yul\":12251:12323   */\n      tag_344\n        /* \"#utility.yul\":12319:12321   */\n      0x40\n        /* \"#utility.yul\":12308:12317   */\n      dup4\n        /* \"#utility.yul\":12304:12322   */\n      add\n        /* \"#utility.yul\":12295:12301   */\n      dup6\n        /* \"#utility.yul\":12251:12323   */\n      tag_322\n      jump\t// in\n    tag_344:\n        /* \"#utility.yul\":12370:12379   */\n      dup2\n        /* \"#utility.yul\":12364:12368   */\n      dup2\n        /* \"#utility.yul\":12360:12380   */\n      sub\n        /* \"#utility.yul\":12355:12357   */\n      0x60\n        /* \"#utility.yul\":12344:12353   */\n      dup4\n        /* \"#utility.yul\":12340:12358   */\n      add\n        /* \"#utility.yul\":12333:12381   */\n      mstore\n        /* \"#utility.yul\":12398:12476   */\n      tag_345\n        /* \"#utility.yul\":12471:12475   */\n      dup2\n        /* \"#utility.yul\":12462:12468   */\n      dup5\n        /* \"#utility.yul\":12398:12476   */\n      tag_284\n      jump\t// in\n    tag_345:\n        /* \"#utility.yul\":12390:12476   */\n      swap1\n      pop\n        /* \"#utility.yul\":11839:12483   */\n      swap6\n      swap5\n      pop\n      pop\n      pop\n      pop\n      pop\n      jump\t// out\n        /* \"#utility.yul\":12489:13343   */\n    tag_24:\n        /* \"#utility.yul\":12736:12740   */\n      0x00\n        /* \"#utility.yul\":12774:12777   */\n      0xc0\n        /* \"#utility.yul\":12763:12772   */\n      dup3\n        /* \"#utility.yul\":12759:12778   */\n      add\n        /* \"#utility.yul\":12751:12778   */\n      swap1\n      pop\n        /* \"#utility.yul\":12788:12859   */\n      tag_347\n        /* \"#utility.yul\":12856:12857   */\n      0x00\n        /* \"#utility.yul\":12845:12854   */\n      dup4\n        /* \"#utility.yul\":12841:12858   */\n      add\n        /* \"#utility.yul\":12832:12838   */\n      dup10\n        /* \"#utility.yul\":12788:12859   */\n      tag_322\n      jump\t// in\n    tag_347:\n        /* \"#utility.yul\":12869:12941   */\n      tag_348\n        /* \"#utility.yul\":12937:12939   */\n      0x20\n        /* \"#utility.yul\":12926:12935   */\n      dup4\n        /* \"#utility.yul\":12922:12940   */\n      add\n        /* \"#utility.yul\":12913:12919   */\n      dup9\n        /* \"#utility.yul\":12869:12941   */\n      tag_250\n      jump\t// in\n    tag_348:\n        /* \"#utility.yul\":12951:13023   */\n      tag_349\n        /* \"#utility.yul\":13019:13021   */\n      0x40\n        /* \"#utility.yul\":13008:13017   */\n      dup4\n        /* \"#utility.yul\":13004:13022   */\n      add\n        /* \"#utility.yul\":12995:13001   */\n      dup8\n        /* \"#utility.yul\":12951:13023   */\n      tag_322\n      jump\t// in\n    tag_349:\n        /* \"#utility.yul\":13070:13079   */\n      dup2\n        /* \"#utility.yul\":13064:13068   */\n      dup2\n        /* \"#utility.yul\":13060:13080   */\n      sub\n        /* \"#utility.yul\":13055:13057   */\n      0x60\n        /* \"#utility.yul\":13044:13053   */\n      dup4\n        /* \"#utility.yul\":13040:13058   */\n      add\n        /* \"#utility.yul\":13033:13081   */\n      mstore\n        /* \"#utility.yul\":13098:13176   */\n      tag_350\n        /* \"#utility.yul\":13171:13175   */\n      dup2\n        /* \"#utility.yul\":13162:13168   */\n      dup7\n        /* \"#utility.yul\":13098:13176   */\n      tag_284\n      jump\t// in\n    tag_350:\n        /* \"#utility.yul\":13090:13176   */\n      swap1\n      pop\n        /* \"#utility.yul\":13186:13253   */\n      tag_351\n        /* \"#utility.yul\":13248:13251   */\n      0x80\n        /* \"#utility.yul\":13237:13246   */\n      dup4\n        /* \"#utility.yul\":13233:13252   */\n      add\n        /* \"#utility.yul\":13224:13230   */\n      dup6\n        /* \"#utility.yul\":13186:13253   */\n      tag_271\n      jump\t// in\n    tag_351:\n        /* \"#utility.yul\":13263:13336   */\n      tag_352\n        /* \"#utility.yul\":13331:13334   */\n      0xa0\n        /* \"#utility.yul\":13320:13329   */\n      dup4\n        /* \"#utility.yul\":13316:13335   */\n      add\n        /* \"#utility.yul\":13307:13313   */\n      dup5\n        /* \"#utility.yul\":13263:13336   */\n      tag_322\n      jump\t// in\n    tag_352:\n        /* \"#utility.yul\":12489:13343   */\n      swap8\n      swap7\n      pop\n      pop\n      pop\n      pop\n      pop\n      pop\n      pop\n      jump\t// out\n        /* \"#utility.yul\":13349:13478   */\n    tag_196:\n        /* \"#utility.yul\":13383:13389   */\n      0x00\n        /* \"#utility.yul\":13410:13430   */\n      tag_354\n      tag_355\n      jump\t// in\n    tag_354:\n        /* \"#utility.yul\":13400:13430   */\n      swap1\n      pop\n        /* \"#utility.yul\":13439:13472   */\n      tag_356\n        /* \"#utility.yul\":13467:13471   */\n      dup3\n        /* \"#utility.yul\":13459:13465   */\n      dup3\n        /* \"#utility.yul\":13439:13472   */\n      tag_357\n      jump\t// in\n    tag_356:\n        /* \"#utility.yul\":13349:13478   */\n      swap2\n      swap1\n      pop\n      jump\t// out\n        /* \"#utility.yul\":13484:13559   */\n    tag_355:\n        /* \"#utility.yul\":13517:13523   */\n      0x00\n        /* \"#utility.yul\":13550:13552   */\n      0x40\n        /* \"#utility.yul\":13544:13553   */\n      mload\n        /* \"#utility.yul\":13534:13553   */\n      swap1\n      pop\n        /* \"#utility.yul\":13484:13559   */\n      swap1\n      jump\t// out\n        /* \"#utility.yul\":13565:13873   */\n    tag_195:\n        /* \"#utility.yul\":13627:13631   */\n      0x00\n        /* \"#utility.yul\":13717:13735   */\n      0xffffffffffffffff\n        /* \"#utility.yul\":13709:13715   */\n      dup3\n        /* \"#utility.yul\":13706:13736   */\n      gt\n        /* \"#utility.yul\":13703:13759   */\n      iszero\n      tag_360\n      jumpi\n        /* \"#utility.yul\":13739:13757   */\n      tag_361\n      tag_148\n      jump\t// in\n    tag_361:\n        /* \"#utility.yul\":13703:13759   */\n    tag_360:\n        /* \"#utility.yul\":13777:13806   */\n      tag_362\n        /* \"#utility.yul\":13799:13805   */\n      dup3\n        /* \"#utility.yul\":13777:13806   */\n      tag_283\n      jump\t// in\n    tag_362:\n        /* \"#utility.yul\":13769:13806   */\n      swap1\n      pop\n        /* \"#utility.yul\":13861:13865   */\n      0x20\n        /* \"#utility.yul\":13855:13859   */\n      dup2\n        /* \"#utility.yul\":13851:13866   */\n      add\n        /* \"#utility.yul\":13843:13866   */\n      swap1\n      pop\n        /* \"#utility.yul\":13565:13873   */\n      swap2\n      swap1\n      pop\n      jump\t// out\n        /* \"#utility.yul\":13879:14032   */\n    tag_260:\n        /* \"#utility.yul\":13967:13971   */\n      0x00\n        /* \"#utility.yul\":13990:13993   */\n      dup2\n        /* \"#utility.yul\":13982:13993   */\n      swap1\n      pop\n        /* \"#utility.yul\":14020:14024   */\n      0x20\n        /* \"#utility.yul\":14015:14018   */\n      dup3\n        /* \"#utility.yul\":14011:14025   */\n      add\n        /* \"#utility.yul\":14003:14025   */\n      swap1\n      pop\n        /* \"#utility.yul\":13879:14032   */\n      swap2\n      swap1\n      pop\n      jump\t// out\n        /* \"#utility.yul\":14038:14173   */\n    tag_256:\n        /* \"#utility.yul\":14126:14132   */\n      0x00\n        /* \"#utility.yul\":14160:14165   */\n      dup2\n        /* \"#utility.yul\":14154:14166   */\n      mload\n        /* \"#utility.yul\":14144:14166   */\n      swap1\n      pop\n        /* \"#utility.yul\":14038:14173   */\n      swap2\n      swap1\n      pop\n      jump\t// out\n        /* \"#utility.yul\":14179:14278   */\n    tag_277:\n        /* \"#utility.yul\":14231:14237   */\n      0x00\n        /* \"#utility.yul\":14265:14270   */\n      dup2\n        /* \"#utility.yul\":14259:14271   */\n      mload\n        /* \"#utility.yul\":14249:14271   */\n      swap1\n      pop\n        /* \"#utility.yul\":14179:14278   */\n      swap2\n      swap1\n      pop\n      jump\t// out\n        /* \"#utility.yul\":14284:14418   */\n    tag_266:\n        /* \"#utility.yul\":14375:14379   */\n      0x00\n        /* \"#utility.yul\":14407:14411   */\n      0x20\n        /* \"#utility.yul\":14402:14405   */\n      dup3\n        /* \"#utility.yul\":14398:14412   */\n      add\n        /* \"#utility.yul\":14390:14412   */\n      swap1\n      pop\n        /* \"#utility.yul\":14284:14418   */\n      swap2\n      swap1\n      pop\n      jump\t// out\n        /* \"#utility.yul\":14424:14629   */\n    tag_258:\n        /* \"#utility.yul\":14544:14555   */\n      0x00\n        /* \"#utility.yul\":14578:14584   */\n      dup3\n        /* \"#utility.yul\":14573:14576   */\n      dup3\n        /* \"#utility.yul\":14566:14585   */\n      mstore\n        /* \"#utility.yul\":14618:14622   */\n      0x20\n        /* \"#utility.yul\":14613:14616   */\n      dup3\n        /* \"#utility.yul\":14609:14623   */\n      add\n        /* \"#utility.yul\":14594:14623   */\n      swap1\n      pop\n        /* \"#utility.yul\":14424:14629   */\n      swap3\n      swap2\n      pop\n      pop\n      jump\t// out\n        /* \"#utility.yul\":14635:14794   */\n    tag_279:\n        /* \"#utility.yul\":14709:14720   */\n      0x00\n        /* \"#utility.yul\":14743:14749   */\n      dup3\n        /* \"#utility.yul\":14738:14741   */\n      dup3\n        /* \"#utility.yul\":14731:14750   */\n      mstore\n        /* \"#utility.yul\":14783:14787   */\n      0x20\n        /* \"#utility.yul\":14778:14781   */\n      dup3\n        /* \"#utility.yul\":14774:14788   */\n      add\n        /* \"#utility.yul\":14759:14788   */\n      swap1\n      pop\n        /* \"#utility.yul\":14635:14794   */\n      swap3\n      swap2\n      pop\n      pop\n      jump\t// out\n        /* \"#utility.yul\":14800:14969   */\n    tag_288:\n        /* \"#utility.yul\":14884:14895   */\n      0x00\n        /* \"#utility.yul\":14918:14924   */\n      dup3\n        /* \"#utility.yul\":14913:14916   */\n      dup3\n        /* \"#utility.yul\":14906:14925   */\n      mstore\n        /* \"#utility.yul\":14958:14962   */\n      0x20\n        /* \"#utility.yul\":14953:14956   */\n      dup3\n        /* \"#utility.yul\":14949:14963   */\n      add\n        /* \"#utility.yul\":14934:14963   */\n      swap1\n      pop\n        /* \"#utility.yul\":14800:14969   */\n      swap3\n      swap2\n      pop\n      pop\n      jump\t// out\n        /* \"#utility.yul\":14975:15280   */\n    tag_130:\n        /* \"#utility.yul\":15015:15018   */\n      0x00\n        /* \"#utility.yul\":15034:15054   */\n      tag_371\n        /* \"#utility.yul\":15052:15053   */\n      dup3\n        /* \"#utility.yul\":15034:15054   */\n      tag_321\n      jump\t// in\n    tag_371:\n        /* \"#utility.yul\":15029:15054   */\n      swap2\n      pop\n        /* \"#utility.yul\":15068:15088   */\n      tag_372\n        /* \"#utility.yul\":15086:15087   */\n      dup4\n        /* \"#utility.yul\":15068:15088   */\n      tag_321\n      jump\t// in\n    tag_372:\n        /* \"#utility.yul\":15063:15088   */\n      swap3\n      pop\n        /* \"#utility.yul\":15222:15223   */\n      dup3\n        /* \"#utility.yul\":15154:15220   */\n      0xffffffffffffffffffffffffffffffffffffffffffffffffffffffffffffffff\n        /* \"#utility.yul\":15150:15224   */\n      sub\n        /* \"#utility.yul\":15147:15148   */\n      dup3\n        /* \"#utility.yul\":15144:15225   */\n      gt\n        /* \"#utility.yul\":15141:15248   */\n      iszero\n      tag_373\n      jumpi\n        /* \"#utility.yul\":15228:15246   */\n      tag_374\n      tag_375\n      jump\t// in\n    tag_374:\n        /* \"#utility.yul\":15141:15248   */\n    tag_373:\n        /* \"#utility.yul\":15272:15273   */\n      dup3\n        /* \"#utility.yul\":15269:15270   */\n      dup3\n        /* \"#utility.yul\":15265:15274   */\n      add\n        /* \"#utility.yul\":15258:15274   */\n      swap1\n      pop\n        /* \"#utility.yul\":14975:15280   */\n      swap3\n      swap2\n      pop\n      pop\n      jump\t// out\n        /* \"#utility.yul\":15286:15382   */\n    tag_249:\n        /* \"#utility.yul\":15323:15330   */\n      0x00\n        /* \"#utility.yul\":15352:15376   */\n      tag_377\n        /* \"#utility.yul\":15370:15375   */\n      dup3\n        /* \"#utility.yul\":15352:15376   */\n      tag_378\n      jump\t// in\n    tag_377:\n        /* \"#utility.yul\":15341:15376   */\n      swap1\n      pop\n        /* \"#utility.yul\":15286:15382   */\n      swap2\n      swap1\n      pop\n      jump\t// out\n        /* \"#utility.yul\":15388:15478   */\n    tag_270:\n        /* \"#utility.yul\":15422:15429   */\n      0x00\n        /* \"#utility.yul\":15465:15470   */\n      dup2\n        /* \"#utility.yul\":15458:15471   */\n      iszero\n        /* \"#utility.yul\":15451:15472   */\n      iszero\n        /* \"#utility.yul\":15440:15472   */\n      swap1\n      pop\n        /* \"#utility.yul\":15388:15478   */\n      swap2\n      swap1\n      pop\n      jump\t// out\n        /* \"#utility.yul\":15484:15610   */\n    tag_378:\n        /* \"#utility.yul\":15521:15528   */\n      0x00\n        /* \"#utility.yul\":15561:15603   */\n      0xffffffffffffffffffffffffffffffffffffffff\n        /* \"#utility.yul\":15554:15559   */\n      dup3\n        /* \"#utility.yul\":15550:15604   */\n      and\n        /* \"#utility.yul\":15539:15604   */\n      swap1\n      pop\n        /* \"#utility.yul\":15484:15610   */\n      swap2\n      swap1\n      pop\n      jump\t// out\n        /* \"#utility.yul\":15616:15693   */\n    tag_321:\n        /* \"#utility.yul\":15653:15660   */\n      0x00\n        /* \"#utility.yul\":15682:15687   */\n      dup2\n        /* \"#utility.yul\":15671:15687   */\n      swap1\n      pop\n        /* \"#utility.yul\":15616:15693   */\n      swap2\n      swap1\n      pop\n      jump\t// out\n        /* \"#utility.yul\":15699:15853   */\n    tag_201:\n        /* \"#utility.yul\":15783:15789   */\n      dup3\n        /* \"#utility.yul\":15778:15781   */\n      dup2\n        /* \"#utility.yul\":15773:15776   */\n      dup4\n        /* \"#utility.yul\":15760:15790   */\n      calldatacopy\n        /* \"#utility.yul\":15845:15846   */\n      0x00\n        /* \"#utility.yul\":15836:15842   */\n      dup4\n        /* \"#utility.yul\":15831:15834   */\n      dup4\n        /* \"#utility.yul\":15827:15843   */\n      add\n        /* \"#utility.yul\":15820:15847   */\n      mstore\n        /* \"#utility.yul\":15699:15853   */\n      pop\n      pop\n      pop\n      jump\t// out\n        /* \"#utility.yul\":15859:16166   */\n    tag_281:\n        /* \"#utility.yul\":15927:15928   */\n      0x00\n        /* \"#utility.yul\":15937:16050   */\n    tag_384:\n        /* \"#utility.yul\":15951:15957   */\n      dup4\n        /* \"#utility.yul\":15948:15949   */\n      dup2\n        /* \"#utility.yul\":15945:15958   */\n      lt\n        /* \"#utility.yul\":15937:16050   */\n      iszero\n      tag_386\n      jumpi\n        /* \"#utility.yul\":16036:16037   */\n      dup1\n        /* \"#utility.yul\":16031:16034   */\n      dup3\n        /* \"#utility.yul\":16027:16038   */\n      add\n        /* \"#utility.yul\":16021:16039   */\n      mload\n        /* \"#utility.yul\":16017:16018   */\n      dup2\n        /* \"#utility.yul\":16012:16015   */\n      dup5\n        /* \"#utility.yul\":16008:16019   */\n      add\n        /* \"#utility.yul\":16001:16040   */\n      mstore\n        /* \"#utility.yul\":15973:15975   */\n      0x20\n        /* \"#utility.yul\":15970:15971   */\n      dup2\n        /* \"#utility.yul\":15966:15976   */\n      add\n        /* \"#utility.yul\":15961:15976   */\n      swap1\n      pop\n        /* \"#utility.yul\":15937:16050   */\n      jump(tag_384)\n    tag_386:\n        /* \"#utility.yul\":16068:16074   */\n      dup4\n        /* \"#utility.yul\":16065:16066   */\n      dup2\n        /* \"#utility.yul\":16062:16075   */\n      gt\n        /* \"#utility.yul\":16059:16160   */\n      iszero\n      tag_387\n      jumpi\n        /* \"#utility.yul\":16148:16149   */\n      0x00\n        /* \"#utility.yul\":16139:16145   */\n      dup5\n        /* \"#utility.yul\":16134:16137   */\n      dup5\n        /* \"#utility.yul\":16130:16146   */\n      add\n        /* \"#utility.yul\":16123:16150   */\n      mstore\n        /* \"#utility.yul\":16059:16160   */\n    tag_387:\n        /* \"#utility.yul\":15908:16166   */\n      pop\n        /* \"#utility.yul\":15859:16166   */\n      pop\n      pop\n      pop\n      jump\t// out\n        /* \"#utility.yul\":16172:16492   */\n    tag_61:\n        /* \"#utility.yul\":16216:16222   */\n      0x00\n        /* \"#utility.yul\":16253:16254   */\n      0x02\n        /* \"#utility.yul\":16247:16251   */\n      dup3\n        /* \"#utility.yul\":16243:16255   */\n      div\n        /* \"#utility.yul\":16233:16255   */\n      swap1\n      pop\n        /* \"#utility.yul\":16300:16301   */\n      0x01\n        /* \"#utility.yul\":16294:16298   */\n      dup3\n        /* \"#utility.yul\":16290:16302   */\n      and\n        /* \"#utility.yul\":16321:16339   */\n      dup1\n        /* \"#utility.yul\":16311:16392   */\n      tag_389\n      jumpi\n        /* \"#utility.yul\":16377:16381   */\n      0x7f\n        /* \"#utility.yul\":16369:16375   */\n      dup3\n        /* \"#utility.yul\":16365:16382   */\n      and\n        /* \"#utility.yul\":16355:16382   */\n      swap2\n      pop\n        /* \"#utility.yul\":16311:16392   */\n    tag_389:\n        /* \"#utility.yul\":16439:16441   */\n      0x20\n        /* \"#utility.yul\":16431:16437   */\n      dup3\n        /* \"#utility.yul\":16428:16442   */\n      lt\n        /* \"#utility.yul\":16408:16426   */\n      dup2\n        /* \"#utility.yul\":16405:16443   */\n      eq\n        /* \"#utility.yul\":16402:16486   */\n      iszero\n      tag_390\n      jumpi\n        /* \"#utility.yul\":16458:16476   */\n      tag_391\n      tag_392\n      jump\t// in\n    tag_391:\n        /* \"#utility.yul\":16402:16486   */\n    tag_390:\n        /* \"#utility.yul\":16223:16492   */\n      pop\n        /* \"#utility.yul\":16172:16492   */\n      swap2\n      swap1\n      pop\n      jump\t// out\n        /* \"#utility.yul\":16498:16779   */\n    tag_357:\n        /* \"#utility.yul\":16581:16608   */\n      tag_394\n        /* \"#utility.yul\":16603:16607   */\n      dup3\n        /* \"#utility.yul\":16581:16608   */\n      tag_283\n      jump\t// in\n    tag_394:\n        /* \"#utility.yul\":16573:16579   */\n      dup2\n        /* \"#utility.yul\":16569:16609   */\n      add\n        /* \"#utility.yul\":16711:16717   */\n      dup2\n        /* \"#utility.yul\":16699:16709   */\n      dup2\n        /* \"#utility.yul\":16696:16718   */\n      lt\n        /* \"#utility.yul\":16675:16693   */\n      0xffffffffffffffff\n        /* \"#utility.yul\":16663:16673   */\n      dup3\n        /* \"#utility.yul\":16660:16694   */\n      gt\n        /* \"#utility.yul\":16657:16719   */\n      or\n        /* \"#utility.yul\":16654:16742   */\n      iszero\n      tag_395\n      jumpi\n        /* \"#utility.yul\":16722:16740   */\n      tag_396\n      tag_148\n      jump\t// in\n    tag_396:\n        /* \"#utility.yul\":16654:16742   */\n    tag_395:\n        /* \"#utility.yul\":16762:16772   */\n      dup1\n        /* \"#utility.yul\":16758:16760   */\n      0x40\n        /* \"#utility.yul\":16751:16773   */\n      mstore\n        /* \"#utility.yul\":16541:16779   */\n      pop\n        /* \"#utility.yul\":16498:16779   */\n      pop\n      pop\n      jump\t// out\n        /* \"#utility.yul\":16785:17018   */\n    tag_132:\n        /* \"#utility.yul\":16824:16827   */\n      0x00\n        /* \"#utility.yul\":16847:16871   */\n      tag_398\n        /* \"#utility.yul\":16865:16870   */\n      dup3\n        /* \"#utility.yul\":16847:16871   */\n      tag_321\n      jump\t// in\n    tag_398:\n        /* \"#utility.yul\":16838:16871   */\n      swap2\n      pop\n        /* \"#utility.yul\":16893:16959   */\n      0xffffffffffffffffffffffffffffffffffffffffffffffffffffffffffffffff\n        /* \"#utility.yul\":16886:16891   */\n      dup3\n        /* \"#utility.yul\":16883:16960   */\n      eq\n        /* \"#utility.yul\":16880:16983   */\n      iszero\n      tag_399\n      jumpi\n        /* \"#utility.yul\":16963:16981   */\n      tag_400\n      tag_375\n      jump\t// in\n    tag_400:\n        /* \"#utility.yul\":16880:16983   */\n    tag_399:\n        /* \"#utility.yul\":17010:17011   */\n      0x01\n        /* \"#utility.yul\":17003:17008   */\n      dup3\n        /* \"#utility.yul\":16999:17012   */\n      add\n        /* \"#utility.yul\":16992:17012   */\n      swap1\n      pop\n        /* \"#utility.yul\":16785:17018   */\n      swap2\n      swap1\n      pop\n      jump\t// out\n        /* \"#utility.yul\":17024:17204   */\n    tag_375:\n        /* \"#utility.yul\":17072:17149   */\n      0x4e487b7100000000000000000000000000000000000000000000000000000000\n        /* \"#utility.yul\":17069:17070   */\n      0x00\n        /* \"#utility.yul\":17062:17150   */\n      mstore\n        /* \"#utility.yul\":17169:17173   */\n      0x11\n        /* \"#utility.yul\":17166:17167   */\n      0x04\n        /* \"#utility.yul\":17159:17174   */\n      mstore\n        /* \"#utility.yul\":17193:17197   */\n      0x24\n        /* \"#utility.yul\":17190:17191   */\n      0x00\n        /* \"#utility.yul\":17183:17198   */\n      revert\n        /* \"#utility.yul\":17210:17390   */\n    tag_392:\n        /* \"#utility.yul\":17258:17335   */\n      0x4e487b7100000000000000000000000000000000000000000000000000000000\n        /* \"#utility.yul\":17255:17256   */\n      0x00\n        /* \"#utility.yul\":17248:17336   */\n      mstore\n        /* \"#utility.yul\":17355:17359   */\n      0x22\n        /* \"#utility.yul\":17352:17353   */\n      0x04\n        /* \"#utility.yul\":17345:17360   */\n      mstore\n        /* \"#utility.yul\":17379:17383   */\n      0x24\n        /* \"#utility.yul\":17376:17377   */\n      0x00\n        /* \"#utility.yul\":17369:17384   */\n      revert\n        /* \"#utility.yul\":17396:17576   */\n    tag_76:\n        /* \"#utility.yul\":17444:17521   */\n      0x4e487b7100000000000000000000000000000000000000000000000000000000\n        /* \"#utility.yul\":17441:17442   */\n      0x00\n        /* \"#utility.yul\":17434:17522   */\n      mstore\n        /* \"#utility.yul\":17541:17545   */\n      0x32\n        /* \"#utility.yul\":17538:17539   */\n      0x04\n        /* \"#utility.yul\":17531:17546   */\n      mstore\n        /* \"#utility.yul\":17565:17569   */\n      0x24\n        /* \"#utility.yul\":17562:17563   */\n      0x00\n        /* \"#utility.yul\":17555:17570   */\n      revert\n        /* \"#utility.yul\":17582:17762   */\n    tag_148:\n        /* \"#utility.yul\":17630:17707   */\n      0x4e487b7100000000000000000000000000000000000000000000000000000000\n        /* \"#utility.yul\":17627:17628   */\n      0x00\n        /* \"#utility.yul\":17620:17708   */\n      mstore\n        /* \"#utility.yul\":17727:17731   */\n      0x41\n        /* \"#utility.yul\":17724:17725   */\n      0x04\n        /* \"#utility.yul\":17717:17732   */\n      mstore\n        /* \"#utility.yul\":17751:17755   */\n      0x24\n        /* \"#utility.yul\":17748:17749   */\n      0x00\n        /* \"#utility.yul\":17741:17756   */\n      revert\n        /* \"#utility.yul\":17768:17885   */\n    tag_210:\n        /* \"#utility.yul\":17877:17878   */\n      0x00\n        /* \"#utility.yul\":17874:17875   */\n      dup1\n        /* \"#utility.yul\":17867:17879   */\n      revert\n        /* \"#utility.yul\":17891:18008   */\n    tag_199:\n        /* \"#utility.yul\":18000:18001   */\n      0x00\n        /* \"#utility.yul\":17997:17998   */\n      dup1\n        /* \"#utility.yul\":17990:18002   */\n      revert\n        /* \"#utility.yul\":18014:18131   */\n    tag_228:\n        /* \"#utility.yul\":18123:18124   */\n      0x00\n        /* \"#utility.yul\":18120:18121   */\n      dup1\n        /* \"#utility.yul\":18113:18125   */\n      revert\n        /* \"#utility.yul\":18137:18254   */\n    tag_219:\n        /* \"#utility.yul\":18246:18247   */\n      0x00\n        /* \"#utility.yul\":18243:18244   */\n      dup1\n        /* \"#utility.yul\":18236:18248   */\n      revert\n        /* \"#utility.yul\":18260:18362   */\n    tag_283:\n        /* \"#utility.yul\":18301:18307   */\n      0x00\n        /* \"#utility.yul\":18352:18354   */\n      0x1f\n        /* \"#utility.yul\":18348:18355   */\n      not\n        /* \"#utility.yul\":18343:18345   */\n      0x1f\n        /* \"#utility.yul\":18336:18341   */\n      dup4\n        /* \"#utility.yul\":18332:18346   */\n      add\n        /* \"#utility.yul\":18328:18356   */\n      and\n        /* \"#utility.yul\":18318:18356   */\n      swap1\n      pop\n        /* \"#utility.yul\":18260:18362   */\n      swap2\n      swap1\n      pop\n      jump\t// out\n        /* \"#utility.yul\":18368:18536   */\n    tag_295:\n        /* \"#utility.yul\":18508:18528   */\n      0x494153323a20416c726561647920706169640000000000000000000000000000\n        /* \"#utility.yul\":18504:18505   */\n      0x00\n        /* \"#utility.yul\":18496:18502   */\n      dup3\n        /* \"#utility.yul\":18492:18506   */\n      add\n        /* \"#utility.yul\":18485:18529   */\n      mstore\n        /* \"#utility.yul\":18368:18536   */\n      pop\n      jump\t// out\n        /* \"#utility.yul\":18542:18720   */\n    tag_300:\n        /* \"#utility.yul\":18682:18712   */\n      0x494153323a2043616e6e6f7420656469742070616964207574616e6700000000\n        /* \"#utility.yul\":18678:18679   */\n      0x00\n        /* \"#utility.yul\":18670:18676   */\n      dup3\n        /* \"#utility.yul\":18666:18680   */\n      add\n        /* \"#utility.yul\":18659:18713   */\n      mstore\n        /* \"#utility.yul\":18542:18720   */\n      pop\n      jump\t// out\n        /* \"#utility.yul\":18726:18946   */\n    tag_305:\n        /* \"#utility.yul\":18866:18900   */\n      0x494153323a204f6e6c792073746f7265206f776e657220617574686f72697a65\n        /* \"#utility.yul\":18862:18863   */\n      0x00\n        /* \"#utility.yul\":18854:18860   */\n      dup3\n        /* \"#utility.yul\":18850:18864   */\n      add\n        /* \"#utility.yul\":18843:18901   */\n      mstore\n        /* \"#utility.yul\":18935:18938   */\n      0x6400000000000000000000000000000000000000000000000000000000000000\n        /* \"#utility.yul\":18930:18932   */\n      0x20\n        /* \"#utility.yul\":18922:18928   */\n      dup3\n        /* \"#utility.yul\":18918:18933   */\n      add\n        /* \"#utility.yul\":18911:18939   */\n      mstore\n        /* \"#utility.yul\":18726:18946   */\n      pop\n      jump\t// out\n        /* \"#utility.yul\":18952:19128   */\n    tag_310:\n        /* \"#utility.yul\":19092:19120   */\n      0x494153323a205574616e6720646f6573206e6f74206578697374000000000000\n        /* \"#utility.yul\":19088:19089   */\n      0x00\n        /* \"#utility.yul\":19080:19086   */\n      dup3\n        /* \"#utility.yul\":19076:19090   */\n      add\n        /* \"#utility.yul\":19069:19121   */\n      mstore\n        /* \"#utility.yul\":18952:19128   */\n      pop\n      jump\t// out\n        /* \"#utility.yul\":19134:19256   */\n    tag_205:\n        /* \"#utility.yul\":19207:19231   */\n      tag_415\n        /* \"#utility.yul\":19225:19230   */\n      dup2\n        /* \"#utility.yul\":19207:19231   */\n      tag_249\n      jump\t// in\n    tag_415:\n        /* \"#utility.yul\":19200:19205   */\n      dup2\n        /* \"#utility.yul\":19197:19232   */\n      eq\n        /* \"#utility.yul\":19187:19250   */\n      tag_416\n      jumpi\n        /* \"#utility.yul\":19246:19247   */\n      0x00\n        /* \"#utility.yul\":19243:19244   */\n      dup1\n        /* \"#utility.yul\":19236:19248   */\n      revert\n        /* \"#utility.yul\":19187:19250   */\n    tag_416:\n        /* \"#utility.yul\":19134:19256   */\n      pop\n      jump\t// out\n        /* \"#utility.yul\":19262:19384   */\n    tag_215:\n        /* \"#utility.yul\":19335:19359   */\n      tag_418\n        /* \"#utility.yul\":19353:19358   */\n      dup2\n        /* \"#utility.yul\":19335:19359   */\n      tag_321\n      jump\t// in\n    tag_418:\n        /* \"#utility.yul\":19328:19333   */\n      dup2\n        /* \"#utility.yul\":19325:19360   */\n      eq\n        /* \"#utility.yul\":19315:19378   */\n      tag_419\n      jumpi\n        /* \"#utility.yul\":19374:19375   */\n      0x00\n        /* \"#utility.yul\":19371:19372   */\n      dup1\n        /* \"#utility.yul\":19364:19376   */\n      revert\n        /* \"#utility.yul\":19315:19378   */\n    tag_419:\n        /* \"#utility.yul\":19262:19384   */\n      pop\n      jump\t// out\n\n    auxdata: 0xa2646970667358221220b55d6a7cff487ceeb10f2248b8cc65b4d847720550c186604f46b5a188a1cc6c64736f6c63430008070033\n}\n",
				"bytecode": {
					"linkReferences": {},
					"object": "608060405234801561001057600080fd5b5033600160006101000a81548173ffffffffffffffffffffffffffffffffffffffff021916908373ffffffffffffffffffffffffffffffffffffffff160217905550611aae806100616000396000f3fe608060405234801561001057600080fd5b506004361061009e5760003560e01c80638da5cb5b116100665780638da5cb5b1461015c578063ba056a9b1461017a578063baf58aec146101aa578063d763f638146101da578063e9f51aa81461020a5761009e565b80630d7f2d2b146100a35780632fd1c05e146100d35780634f355b44146101085780636733c3a5146101245780637021cafe14610140575b600080fd5b6100bd60048036038101906100b891906111aa565b610226565b6040516100ca91906114ed565b60405180910390f35b6100ed60048036038101906100e891906111aa565b610246565b6040516100ff969594939291906115ef565b60405180910390f35b610122600480360381019061011d91906111d7565b610347565b005b61013e6004803603810190610139919061113b565b610513565b005b61015a600480360381019061015591906111aa565b610730565b005b61016461090b565b60405161017191906114b0565b60405180910390f35b610194600480360381019061018f919061110e565b610931565b6040516101a19190611588565b60405180910390f35b6101c460048036038101906101bf91906111aa565b610a77565b6040516101d191906114ed565b60405180910390f35b6101f460048036038101906101ef919061110e565b610ab0565b60405161020191906114cb565b60405180910390f35b610224600480360381019061021f91906111aa565b610e2d565b005b60026020528060005260406000206000915054906101000a900460ff1681565b6000818154811061025657600080fd5b90600052602060002090600602016000915090508060000154908060010160009054906101000a900473ffffffffffffffffffffffffffffffffffffffff16908060020154908060030180546102ab906117f3565b80601f01602080910402602001604051908101604052809291908181526020018280546102d7906117f3565b80156103245780601f106102f957610100808354040283529160200191610324565b820191906000526020600020905b81548152906001019060200180831161030757829003601f168201915b5050505050908060040160009054906101000a900460ff16908060050154905086565b600160009054906101000a900473ffffffffffffffffffffffffffffffffffffffff1673ffffffffffffffffffffffffffffffffffffffff163373ffffffffffffffffffffffffffffffffffffffff16146103d7576040517f08c379a00000000000000000000000000000000000000000000000000000000081526004016103ce90611548565b60405180910390fd5b6002600084815260200190815260200160002060009054906101000a900460ff16610437576040517f08c379a000000000000000000000000000000000000000000000000000000000815260040161042e90611568565b60405180910390fd5b6000838154811061044b5761044a6118fd565b5b906000526020600020906006020160040160009054906101000a900460ff16156104aa576040517f08c379a00000000000000000000000000000000000000000000000000000000081526004016104a190611528565b60405180910390fd5b81600084815481106104bf576104be6118fd565b5b90600052602060002090600602016002018190555080600084815481106104e9576104e86118fd565b5b9060005260206000209060060201600301908051906020019061050d929190610f83565b50505050565b600160009054906101000a900473ffffffffffffffffffffffffffffffffffffffff1673ffffffffffffffffffffffffffffffffffffffff163373ffffffffffffffffffffffffffffffffffffffff16146105a3576040517f08c379a000000000000000000000000000000000000000000000000000000000815260040161059a90611548565b60405180910390fd5b60008080549050905060006040518060c001604052808381526020018673ffffffffffffffffffffffffffffffffffffffff1681526020018581526020018481526020016000151581526020014281525090806001815401808255809150506001900390600052602060002090600602016000909190919091506000820151816000015560208201518160010160006101000a81548173ffffffffffffffffffffffffffffffffffffffff021916908373ffffffffffffffffffffffffffffffffffffffff160217905550604082015181600201556060820151816003019080519060200190610694929190610f83565b5060808201518160040160006101000a81548160ff02191690831515021790555060a08201518160050155505060016002600083815260200190815260200160002060006101000a81548160ff0219169083151502179055507f7c4b221fd6616355387cf760b2b82c18795e7e4e90c12d69b49f57938e39e44b8185858560405161072294939291906115a3565b60405180910390a150505050565b600160009054906101000a900473ffffffffffffffffffffffffffffffffffffffff1673ffffffffffffffffffffffffffffffffffffffff163373ffffffffffffffffffffffffffffffffffffffff16146107c0576040517f08c379a00000000000000000000000000000000000000000000000000000000081526004016107b790611548565b60405180910390fd5b6002600082815260200190815260200160002060009054906101000a900460ff16610820576040517f08c379a000000000000000000000000000000000000000000000000000000000815260040161081790611568565b60405180910390fd5b60008181548110610834576108336118fd565b5b906000526020600020906006020160040160009054906101000a900460ff1615610893576040517f08c379a000000000000000000000000000000000000000000000000000000000815260040161088a90611508565b60405180910390fd5b6001600082815481106108a9576108a86118fd565b5b906000526020600020906006020160040160006101000a81548160ff0219169083151502179055507f48e985a2725c94a14dd72ab2e85f5da623cb78e019e7c2ff63dd8378625d94e4816040516109009190611588565b60405180910390a150565b600160009054906101000a900473ffffffffffffffffffffffffffffffffffffffff1681565b6000806000905060005b600080549050811015610a6d578373ffffffffffffffffffffffffffffffffffffffff1660008281548110610973576109726118fd565b5b906000526020600020906006020160010160009054906101000a900473ffffffffffffffffffffffffffffffffffffffff1673ffffffffffffffffffffffffffffffffffffffff161480156109e557506002600082815260200190815260200160002060009054906101000a900460ff165b8015610a21575060008181548110610a00576109ff6118fd565b5b906000526020600020906006020160040160009054906101000a900460ff16155b15610a5a5760008181548110610a3a57610a396118fd565b5b90600052602060002090600602016002015482610a579190611713565b91505b8080610a6590611856565b91505061093b565b5080915050919050565b6000808054905082108015610aa957506002600083815260200190815260200160002060009054906101000a900460ff165b9050919050565b60606000805b600080549050811015610b87578373ffffffffffffffffffffffffffffffffffffffff1660008281548110610aee57610aed6118fd565b5b906000526020600020906006020160010160009054906101000a900473ffffffffffffffffffffffffffffffffffffffff1673ffffffffffffffffffffffffffffffffffffffff16148015610b6057506002600082815260200190815260200160002060009054906101000a900460ff165b15610b74578180610b7090611856565b9250505b8080610b7f90611856565b915050610ab6565b5060008167ffffffffffffffff811115610ba457610ba361192c565b5b604051908082528060200260200182016040528015610bdd57816020015b610bca611009565b815260200190600190039081610bc25790505b5090506000805b600080549050811015610e21578573ffffffffffffffffffffffffffffffffffffffff1660008281548110610c1c57610c1b6118fd565b5b906000526020600020906006020160010160009054906101000a900473ffffffffffffffffffffffffffffffffffffffff1673ffffffffffffffffffffffffffffffffffffffff16148015610c8e57506002600082815260200190815260200160002060009054906101000a900460ff165b15610e0e5760008181548110610ca757610ca66118fd565b5b90600052602060002090600602016040518060c0016040529081600082015481526020016001820160009054906101000a900473ffffffffffffffffffffffffffffffffffffffff1673ffffffffffffffffffffffffffffffffffffffff1673ffffffffffffffffffffffffffffffffffffffff16815260200160028201548152602001600382018054610d3a906117f3565b80601f0160208091040260200160405190810160405280929190818152602001828054610d66906117f3565b8015610db35780601f10610d8857610100808354040283529160200191610db3565b820191906000526020600020905b815481529060010190602001808311610d9657829003601f168201915b505050505081526020016004820160009054906101000a900460ff16151515158152602001600582015481525050838381518110610df457610df36118fd565b5b60200260200101819052508180610e0a90611856565b9250505b8080610e1990611856565b915050610be4565b50819350505050919050565b600160009054906101000a900473ffffffffffffffffffffffffffffffffffffffff1673ffffffffffffffffffffffffffffffffffffffff163373ffffffffffffffffffffffffffffffffffffffff1614610ebd576040517f08c379a0000000000000000000000000000000000000000000000000000000008152600401610eb490611548565b60405180910390fd5b6002600082815260200190815260200160002060009054906101000a900460ff16610f1d576040517f08c379a0000000000000000000000000000000000000000000000000000000008152600401610f1490611568565b60405180910390fd5b60006002600083815260200190815260200160002060006101000a81548160ff0219169083151502179055507f4856b4b72ad15e464af7b2af76c01835371cd13cc0a1d312a7b3a407410b988f81604051610f789190611588565b60405180910390a150565b828054610f8f906117f3565b90600052602060002090601f016020900481019282610fb15760008555610ff8565b82601f10610fca57805160ff1916838001178555610ff8565b82800160010185558215610ff8579182015b82811115610ff7578251825591602001919060010190610fdc565b5b5090506110059190611057565b5090565b6040518060c0016040528060008152602001600073ffffffffffffffffffffffffffffffffffffffff1681526020016000815260200160608152602001600015158152602001600081525090565b5b80821115611070576000816000905550600101611058565b5090565b60006110876110828461167c565b611657565b9050828152602081018484840111156110a3576110a2611960565b5b6110ae8482856117b1565b509392505050565b6000813590506110c581611a4a565b92915050565b600082601f8301126110e0576110df61195b565b5b81356110f0848260208601611074565b91505092915050565b60008135905061110881611a61565b92915050565b6000602082840312156111245761112361196a565b5b6000611132848285016110b6565b91505092915050565b6000806000606084860312156111545761115361196a565b5b6000611162868287016110b6565b9350506020611173868287016110f9565b925050604084013567ffffffffffffffff81111561119457611193611965565b5b6111a0868287016110cb565b9150509250925092565b6000602082840312156111c0576111bf61196a565b5b60006111ce848285016110f9565b91505092915050565b6000806000606084860312156111f0576111ef61196a565b5b60006111fe868287016110f9565b935050602061120f868287016110f9565b925050604084013567ffffffffffffffff8111156112305761122f611965565b5b61123c868287016110cb565b9150509250925092565b60006112528383611409565b905092915050565b61126381611769565b82525050565b61127281611769565b82525050565b6000611283826116bd565b61128d81856116e0565b93508360208202850161129f856116ad565b8060005b858110156112db57848403895281516112bc8582611246565b94506112c7836116d3565b925060208a019950506001810190506112a3565b50829750879550505050505092915050565b6112f68161177b565b82525050565b6113058161177b565b82525050565b6000611316826116c8565b61132081856116f1565b93506113308185602086016117c0565b6113398161196f565b840191505092915050565b600061134f826116c8565b6113598185611702565b93506113698185602086016117c0565b6113728161196f565b840191505092915050565b600061138a601283611702565b915061139582611980565b602082019050919050565b60006113ad601c83611702565b91506113b8826119a9565b602082019050919050565b60006113d0602183611702565b91506113db826119d2565b604082019050919050565b60006113f3601a83611702565b91506113fe82611a21565b602082019050919050565b600060c0830160008301516114216000860182611492565b506020830151611434602086018261125a565b5060408301516114476040860182611492565b506060830151848203606086015261145f828261130b565b915050608083015161147460808601826112ed565b5060a083015161148760a0860182611492565b508091505092915050565b61149b816117a7565b82525050565b6114aa816117a7565b82525050565b60006020820190506114c56000830184611269565b92915050565b600060208201905081810360008301526114e58184611278565b905092915050565b600060208201905061150260008301846112fc565b92915050565b600060208201905081810360008301526115218161137d565b9050919050565b60006020820190508181036000830152611541816113a0565b9050919050565b60006020820190508181036000830152611561816113c3565b9050919050565b60006020820190508181036000830152611581816113e6565b9050919050565b600060208201905061159d60008301846114a1565b92915050565b60006080820190506115b860008301876114a1565b6115c56020830186611269565b6115d260408301856114a1565b81810360608301526115e48184611344565b905095945050505050565b600060c08201905061160460008301896114a1565b6116116020830188611269565b61161e60408301876114a1565b81810360608301526116308186611344565b905061163f60808301856112fc565b61164c60a08301846114a1565b979650505050505050565b6000611661611672565b905061166d8282611825565b919050565b6000604051905090565b600067ffffffffffffffff8211156116975761169661192c565b5b6116a08261196f565b9050602081019050919050565b6000819050602082019050919050565b600081519050919050565b600081519050919050565b6000602082019050919050565b600082825260208201905092915050565b600082825260208201905092915050565b600082825260208201905092915050565b600061171e826117a7565b9150611729836117a7565b9250827fffffffffffffffffffffffffffffffffffffffffffffffffffffffffffffffff0382111561175e5761175d61189f565b5b828201905092915050565b600061177482611787565b9050919050565b60008115159050919050565b600073ffffffffffffffffffffffffffffffffffffffff82169050919050565b6000819050919050565b82818337600083830152505050565b60005b838110156117de5780820151818401526020810190506117c3565b838111156117ed576000848401525b50505050565b6000600282049050600182168061180b57607f821691505b6020821081141561181f5761181e6118ce565b5b50919050565b61182e8261196f565b810181811067ffffffffffffffff8211171561184d5761184c61192c565b5b80604052505050565b6000611861826117a7565b91507fffffffffffffffffffffffffffffffffffffffffffffffffffffffffffffffff8214156118945761189361189f565b5b600182019050919050565b7f4e487b7100000000000000000000000000000000000000000000000000000000600052601160045260246000fd5b7f4e487b7100000000000000000000000000000000000000000000000000000000600052602260045260246000fd5b7f4e487b7100000000000000000000000000000000000000000000000000000000600052603260045260246000fd5b7f4e487b7100000000000000000000000000000000000000000000000000000000600052604160045260246000fd5b600080fd5b600080fd5b600080fd5b600080fd5b6000601f19601f8301169050919050565b7f494153323a20416c726561647920706169640000000000000000000000000000600082015250565b7f494153323a2043616e6e6f7420656469742070616964207574616e6700000000600082015250565b7f494153323a204f6e6c792073746f7265206f776e657220617574686f72697a6560008201527f6400000000000000000000000000000000000000000000000000000000000000602082015250565b7f494153323a205574616e6720646f6573206e6f74206578697374000000000000600082015250565b611a5381611769565b8114611a5e57600080fd5b50565b611a6a816117a7565b8114611a7557600080fd5b5056fea2646970667358221220b55d6a7cff487ceeb10f2248b8cc65b4d847720550c186604f46b5a188a1cc6c64736f6c63430008070033",
					"opcodes": "PUSH1 0x80 PUSH1 0x40 MSTORE CALLVALUE DUP1 ISZERO PUSH2 0x10 JUMPI PUSH1 0x0 DUP1 REVERT JUMPDEST POP CALLER PUSH1 0x1 PUSH1 0x0 PUSH2 0x100 EXP DUP2 SLOAD DUP2 PUSH20 0xFFFFFFFFFFFFFFFFFFFFFFFFFFFFFFFFFFFFFFFF MUL NOT AND SWAP1 DUP4 PUSH20 0xFFFFFFFFFFFFFFFFFFFFFFFFFFFFFFFFFFFFFFFF AND MUL OR SWAP1 SSTORE POP PUSH2 0x1AAE DUP1 PUSH2 0x61 PUSH1 0x0 CODECOPY PUSH1 0x0 RETURN INVALID PUSH1 0x80 PUSH1 0x40 MSTORE CALLVALUE DUP1 ISZERO PUSH2 0x10 JUMPI PUSH1 0x0 DUP1 REVERT JUMPDEST POP PUSH1 0x4 CALLDATASIZE LT PUSH2 0x9E JUMPI PUSH1 0x0 CALLDATALOAD PUSH1 0xE0 SHR DUP1 PUSH4 0x8DA5CB5B GT PUSH2 0x66 JUMPI DUP1 PUSH4 0x8DA5CB5B EQ PUSH2 0x15C JUMPI DUP1 PUSH4 0xBA056A9B EQ PUSH2 0x17A JUMPI DUP1 PUSH4 0xBAF58AEC EQ PUSH2 0x1AA JUMPI DUP1 PUSH4 0xD763F638 EQ PUSH2 0x1DA JUMPI DUP1 PUSH4 0xE9F51AA8 EQ PUSH2 0x20A JUMPI PUSH2 0x9E JUMP JUMPDEST DUP1 PUSH4 0xD7F2D2B EQ PUSH2 0xA3 JUMPI DUP1 PUSH4 0x2FD1C05E EQ PUSH2 0xD3 JUMPI DUP1 PUSH4 0x4F355B44 EQ PUSH2 0x108 JUMPI DUP1 PUSH4 0x6733C3A5 EQ PUSH2 0x124 JUMPI DUP1 PUSH4 0x7021CAFE EQ PUSH2 0x140 JUMPI JUMPDEST PUSH1 0x0 DUP1 REVERT JUMPDEST PUSH2 0xBD PUSH1 0x4 DUP1 CALLDATASIZE SUB DUP2 ADD SWAP1 PUSH2 0xB8 SWAP2 SWAP1 PUSH2 0x11AA JUMP JUMPDEST PUSH2 0x226 JUMP JUMPDEST PUSH1 0x40 MLOAD PUSH2 0xCA SWAP2 SWAP1 PUSH2 0x14ED JUMP JUMPDEST PUSH1 0x40 MLOAD DUP1 SWAP2 SUB SWAP1 RETURN JUMPDEST PUSH2 0xED PUSH1 0x4 DUP1 CALLDATASIZE SUB DUP2 ADD SWAP1 PUSH2 0xE8 SWAP2 SWAP1 PUSH2 0x11AA JUMP JUMPDEST PUSH2 0x246 JUMP JUMPDEST PUSH1 0x40 MLOAD PUSH2 0xFF SWAP7 SWAP6 SWAP5 SWAP4 SWAP3 SWAP2 SWAP1 PUSH2 0x15EF JUMP JUMPDEST PUSH1 0x40 MLOAD DUP1 SWAP2 SUB SWAP1 RETURN JUMPDEST PUSH2 0x122 PUSH1 0x4 DUP1 CALLDATASIZE SUB DUP2 ADD SWAP1 PUSH2 0x11D SWAP2 SWAP1 PUSH2 0x11D7 JUMP JUMPDEST PUSH2 0x347 JUMP JUMPDEST STOP JUMPDEST PUSH2 0x13E PUSH1 0x4 DUP1 CALLDATASIZE SUB DUP2 ADD SWAP1 PUSH2 0x139 SWAP2 SWAP1 PUSH2 0x113B JUMP JUMPDEST PUSH2 0x513 JUMP JUMPDEST STOP JUMPDEST PUSH2 0x15A PUSH1 0x4 DUP1 CALLDATASIZE SUB DUP2 ADD SWAP1 PUSH2 0x155 SWAP2 SWAP1 PUSH2 0x11AA JUMP JUMPDEST PUSH2 0x730 JUMP JUMPDEST STOP JUMPDEST PUSH2 0x164 PUSH2 0x90B JUMP JUMPDEST PUSH1 0x40 MLOAD PUSH2 0x171 SWAP2 SWAP1 PUSH2 0x14B0 JUMP JUMPDEST PUSH1 0x40 MLOAD DUP1 SWAP2 SUB SWAP1 RETURN JUMPDEST PUSH2 0x194 PUSH1 0x4 DUP1 CALLDATASIZE SUB DUP2 ADD SWAP1 PUSH2 0x18F SWAP2 SWAP1 PUSH2 0x110E JUMP JUMPDEST PUSH2 0x931 JUMP JUMPDEST PUSH1 0x40 MLOAD PUSH2 0x1A1 SWAP2 SWAP1 PUSH2 0x1588 JUMP JUMPDEST PUSH1 0x40 MLOAD DUP1 SWAP2 SUB SWAP1 RETURN JUMPDEST PUSH2 0x1C4 PUSH1 0x4 DUP1 CALLDATASIZE SUB DUP2 ADD SWAP1 PUSH2 0x1BF SWAP2 SWAP1 PUSH2 0x11AA JUMP JUMPDEST PUSH2 0xA77 JUMP JUMPDEST PUSH1 0x40 MLOAD PUSH2 0x1D1 SWAP2 SWAP1 PUSH2 0x14ED JUMP JUMPDEST PUSH1 0x40 MLOAD DUP1 SWAP2 SUB SWAP1 RETURN JUMPDEST PUSH2 0x1F4 PUSH1 0x4 DUP1 CALLDATASIZE SUB DUP2 ADD SWAP1 PUSH2 0x1EF SWAP2 SWAP1 PUSH2 0x110E JUMP JUMPDEST PUSH2 0xAB0 JUMP JUMPDEST PUSH1 0x40 MLOAD PUSH2 0x201 SWAP2 SWAP1 PUSH2 0x14CB JUMP JUMPDEST PUSH1 0x40 MLOAD DUP1 SWAP2 SUB SWAP1 RETURN JUMPDEST PUSH2 0x224 PUSH1 0x4 DUP1 CALLDATASIZE SUB DUP2 ADD SWAP1 PUSH2 0x21F SWAP2 SWAP1 PUSH2 0x11AA JUMP JUMPDEST PUSH2 0xE2D JUMP JUMPDEST STOP JUMPDEST PUSH1 0x2 PUSH1 0x20 MSTORE DUP1 PUSH1 0x0 MSTORE PUSH1 0x40 PUSH1 0x0 KECCAK256 PUSH1 0x0 SWAP2 POP SLOAD SWAP1 PUSH2 0x100 EXP SWAP1 DIV PUSH1 0xFF AND DUP2 JUMP JUMPDEST PUSH1 0x0 DUP2 DUP2 SLOAD DUP2 LT PUSH2 0x256 JUMPI PUSH1 0x0 DUP1 REVERT JUMPDEST SWAP1 PUSH1 0x0 MSTORE PUSH1 0x20 PUSH1 0x0 KECCAK256 SWAP1 PUSH1 0x6 MUL ADD PUSH1 0x0 SWAP2 POP SWAP1 POP DUP1 PUSH1 0x0 ADD SLOAD SWAP1 DUP1 PUSH1 0x1 ADD PUSH1 0x0 SWAP1 SLOAD SWAP1 PUSH2 0x100 EXP SWAP1 DIV PUSH20 0xFFFFFFFFFFFFFFFFFFFFFFFFFFFFFFFFFFFFFFFF AND SWAP1 DUP1 PUSH1 0x2 ADD SLOAD SWAP1 DUP1 PUSH1 0x3 ADD DUP1 SLOAD PUSH2 0x2AB SWAP1 PUSH2 0x17F3 JUMP JUMPDEST DUP1 PUSH1 0x1F ADD PUSH1 0x20 DUP1 SWAP2 DIV MUL PUSH1 0x20 ADD PUSH1 0x40 MLOAD SWAP1 DUP2 ADD PUSH1 0x40 MSTORE DUP1 SWAP3 SWAP2 SWAP1 DUP2 DUP2 MSTORE PUSH1 0x20 ADD DUP3 DUP1 SLOAD PUSH2 0x2D7 SWAP1 PUSH2 0x17F3 JUMP JUMPDEST DUP1 ISZERO PUSH2 0x324 JUMPI DUP1 PUSH1 0x1F LT PUSH2 0x2F9 JUMPI PUSH2 0x100 DUP1 DUP4 SLOAD DIV MUL DUP4 MSTORE SWAP2 PUSH1 0x20 ADD SWAP2 PUSH2 0x324 JUMP JUMPDEST DUP3 ADD SWAP2 SWAP1 PUSH1 0x0 MSTORE PUSH1 0x20 PUSH1 0x0 KECCAK256 SWAP1 JUMPDEST DUP2 SLOAD DUP2 MSTORE SWAP1 PUSH1 0x1 ADD SWAP1 PUSH1 0x20 ADD DUP1 DUP4 GT PUSH2 0x307 JUMPI DUP3 SWAP1 SUB PUSH1 0x1F AND DUP3 ADD SWAP2 JUMPDEST POP POP POP POP POP SWAP1 DUP1 PUSH1 0x4 ADD PUSH1 0x0 SWAP1 SLOAD SWAP1 PUSH2 0x100 EXP SWAP1 DIV PUSH1 0xFF AND SWAP1 DUP1 PUSH1 0x5 ADD SLOAD SWAP1 POP DUP7 JUMP JUMPDEST PUSH1 0x1 PUSH1 0x0 SWAP1 SLOAD SWAP1 PUSH2 0x100 EXP SWAP1 DIV PUSH20 0xFFFFFFFFFFFFFFFFFFFFFFFFFFFFFFFFFFFFFFFF AND PUSH20 0xFFFFFFFFFFFFFFFFFFFFFFFFFFFFFFFFFFFFFFFF AND CALLER PUSH20 0xFFFFFFFFFFFFFFFFFFFFFFFFFFFFFFFFFFFFFFFF AND EQ PUSH2 0x3D7 JUMPI PUSH1 0x40 MLOAD PUSH32 0x8C379A000000000000000000000000000000000000000000000000000000000 DUP2 MSTORE PUSH1 0x4 ADD PUSH2 0x3CE SWAP1 PUSH2 0x1548 JUMP JUMPDEST PUSH1 0x40 MLOAD DUP1 SWAP2 SUB SWAP1 REVERT JUMPDEST PUSH1 0x2 PUSH1 0x0 DUP5 DUP2 MSTORE PUSH1 0x20 ADD SWAP1 DUP2 MSTORE PUSH1 0x20 ADD PUSH1 0x0 KECCAK256 PUSH1 0x0 SWAP1 SLOAD SWAP1 PUSH2 0x100 EXP SWAP1 DIV PUSH1 0xFF AND PUSH2 0x437 JUMPI PUSH1 0x40 MLOAD PUSH32 0x8C379A000000000000000000000000000000000000000000000000000000000 DUP2 MSTORE PUSH1 0x4 ADD PUSH2 0x42E SWAP1 PUSH2 0x1568 JUMP JUMPDEST PUSH1 0x40 MLOAD DUP1 SWAP2 SUB SWAP1 REVERT JUMPDEST PUSH1 0x0 DUP4 DUP2 SLOAD DUP2 LT PUSH2 0x44B JUMPI PUSH2 0x44A PUSH2 0x18FD JUMP JUMPDEST JUMPDEST SWAP1 PUSH1 0x0 MSTORE PUSH1 0x20 PUSH1 0x0 KECCAK256 SWAP1 PUSH1 0x6 MUL ADD PUSH1 0x4 ADD PUSH1 0x0 SWAP1 SLOAD SWAP1 PUSH2 0x100 EXP SWAP1 DIV PUSH1 0xFF AND ISZERO PUSH2 0x4AA JUMPI PUSH1 0x40 MLOAD PUSH32 0x8C379A000000000000000000000000000000000000000000000000000000000 DUP2 MSTORE PUSH1 0x4 ADD PUSH2 0x4A1 SWAP1 PUSH2 0x1528 JUMP JUMPDEST PUSH1 0x40 MLOAD DUP1 SWAP2 SUB SWAP1 REVERT JUMPDEST DUP2 PUSH1 0x0 DUP5 DUP2 SLOAD DUP2 LT PUSH2 0x4BF JUMPI PUSH2 0x4BE PUSH2 0x18FD JUMP JUMPDEST JUMPDEST SWAP1 PUSH1 0x0 MSTORE PUSH1 0x20 PUSH1 0x0 KECCAK256 SWAP1 PUSH1 0x6 MUL ADD PUSH1 0x2 ADD DUP2 SWAP1 SSTORE POP DUP1 PUSH1 0x0 DUP5 DUP2 SLOAD DUP2 LT PUSH2 0x4E9 JUMPI PUSH2 0x4E8 PUSH2 0x18FD JUMP JUMPDEST JUMPDEST SWAP1 PUSH1 0x0 MSTORE PUSH1 0x20 PUSH1 0x0 KECCAK256 SWAP1 PUSH1 0x6 MUL ADD PUSH1 0x3 ADD SWAP1 DUP1 MLOAD SWAP1 PUSH1 0x20 ADD SWAP1 PUSH2 0x50D SWAP3 SWAP2 SWAP1 PUSH2 0xF83 JUMP JUMPDEST POP POP POP POP JUMP JUMPDEST PUSH1 0x1 PUSH1 0x0 SWAP1 SLOAD SWAP1 PUSH2 0x100 EXP SWAP1 DIV PUSH20 0xFFFFFFFFFFFFFFFFFFFFFFFFFFFFFFFFFFFFFFFF AND PUSH20 0xFFFFFFFFFFFFFFFFFFFFFFFFFFFFFFFFFFFFFFFF AND CALLER PUSH20 0xFFFFFFFFFFFFFFFFFFFFFFFFFFFFFFFFFFFFFFFF AND EQ PUSH2 0x5A3 JUMPI PUSH1 0x40 MLOAD PUSH32 0x8C379A000000000000000000000000000000000000000000000000000000000 DUP2 MSTORE PUSH1 0x4 ADD PUSH2 0x59A SWAP1 PUSH2 0x1548 JUMP JUMPDEST PUSH1 0x40 MLOAD DUP1 SWAP2 SUB SWAP1 REVERT JUMPDEST PUSH1 0x0 DUP1 DUP1 SLOAD SWAP1 POP SWAP1 POP PUSH1 0x0 PUSH1 0x40 MLOAD DUP1 PUSH1 0xC0 ADD PUSH1 0x40 MSTORE DUP1 DUP4 DUP2 MSTORE PUSH1 0x20 ADD DUP7 PUSH20 0xFFFFFFFFFFFFFFFFFFFFFFFFFFFFFFFFFFFFFFFF AND DUP2 MSTORE PUSH1 0x20 ADD DUP6 DUP2 MSTORE PUSH1 0x20 ADD DUP5 DUP2 MSTORE PUSH1 0x20 ADD PUSH1 0x0 ISZERO ISZERO DUP2 MSTORE PUSH1 0x20 ADD TIMESTAMP DUP2 MSTORE POP SWAP1 DUP1 PUSH1 0x1 DUP2 SLOAD ADD DUP1 DUP3 SSTORE DUP1 SWAP2 POP POP PUSH1 0x1 SWAP1 SUB SWAP1 PUSH1 0x0 MSTORE PUSH1 0x20 PUSH1 0x0 KECCAK256 SWAP1 PUSH1 0x6 MUL ADD PUSH1 0x0 SWAP1 SWAP2 SWAP1 SWAP2 SWAP1 SWAP2 POP PUSH1 0x0 DUP3 ADD MLOAD DUP2 PUSH1 0x0 ADD SSTORE PUSH1 0x20 DUP3 ADD MLOAD DUP2 PUSH1 0x1 ADD PUSH1 0x0 PUSH2 0x100 EXP DUP2 SLOAD DUP2 PUSH20 0xFFFFFFFFFFFFFFFFFFFFFFFFFFFFFFFFFFFFFFFF MUL NOT AND SWAP1 DUP4 PUSH20 0xFFFFFFFFFFFFFFFFFFFFFFFFFFFFFFFFFFFFFFFF AND MUL OR SWAP1 SSTORE POP PUSH1 0x40 DUP3 ADD MLOAD DUP2 PUSH1 0x2 ADD SSTORE PUSH1 0x60 DUP3 ADD MLOAD DUP2 PUSH1 0x3 ADD SWAP1 DUP1 MLOAD SWAP1 PUSH1 0x20 ADD SWAP1 PUSH2 0x694 SWAP3 SWAP2 SWAP1 PUSH2 0xF83 JUMP JUMPDEST POP PUSH1 0x80 DUP3 ADD MLOAD DUP2 PUSH1 0x4 ADD PUSH1 0x0 PUSH2 0x100 EXP DUP2 SLOAD DUP2 PUSH1 0xFF MUL NOT AND SWAP1 DUP4 ISZERO ISZERO MUL OR SWAP1 SSTORE POP PUSH1 0xA0 DUP3 ADD MLOAD DUP2 PUSH1 0x5 ADD SSTORE POP POP PUSH1 0x1 PUSH1 0x2 PUSH1 0x0 DUP4 DUP2 MSTORE PUSH1 0x20 ADD SWAP1 DUP2 MSTORE PUSH1 0x20 ADD PUSH1 0x0 KECCAK256 PUSH1 0x0 PUSH2 0x100 EXP DUP2 SLOAD DUP2 PUSH1 0xFF MUL NOT AND SWAP1 DUP4 ISZERO ISZERO MUL OR SWAP1 SSTORE POP PUSH32 0x7C4B221FD6616355387CF760B2B82C18795E7E4E90C12D69B49F57938E39E44B DUP2 DUP6 DUP6 DUP6 PUSH1 0x40 MLOAD PUSH2 0x722 SWAP5 SWAP4 SWAP3 SWAP2 SWAP1 PUSH2 0x15A3 JUMP JUMPDEST PUSH1 0x40 MLOAD DUP1 SWAP2 SUB SWAP1 LOG1 POP POP POP POP JUMP JUMPDEST PUSH1 0x1 PUSH1 0x0 SWAP1 SLOAD SWAP1 PUSH2 0x100 EXP SWAP1 DIV PUSH20 0xFFFFFFFFFFFFFFFFFFFFFFFFFFFFFFFFFFFFFFFF AND PUSH20 0xFFFFFFFFFFFFFFFFFFFFFFFFFFFFFFFFFFFFFFFF AND CALLER PUSH20 0xFFFFFFFFFFFFFFFFFFFFFFFFFFFFFFFFFFFFFFFF AND EQ PUSH2 0x7C0 JUMPI PUSH1 0x40 MLOAD PUSH32 0x8C379A000000000000000000000000000000000000000000000000000000000 DUP2 MSTORE PUSH1 0x4 ADD PUSH2 0x7B7 SWAP1 PUSH2 0x1548 JUMP JUMPDEST PUSH1 0x40 MLOAD DUP1 SWAP2 SUB SWAP1 REVERT JUMPDEST PUSH1 0x2 PUSH1 0x0 DUP3 DUP2 MSTORE PUSH1 0x20 ADD SWAP1 DUP2 MSTORE PUSH1 0x20 ADD PUSH1 0x0 KECCAK256 PUSH1 0x0 SWAP1 SLOAD SWAP1 PUSH2 0x100 EXP SWAP1 DIV PUSH1 0xFF AND PUSH2 0x820 JUMPI PUSH1 0x40 MLOAD PUSH32 0x8C379A000000000000000000000000000000000000000000000000000000000 DUP2 MSTORE PUSH1 0x4 ADD PUSH2 0x817 SWAP1 PUSH2 0x1568 JUMP JUMPDEST PUSH1 0x40 MLOAD DUP1 SWAP2 SUB SWAP1 REVERT JUMPDEST PUSH1 0x0 DUP2 DUP2 SLOAD DUP2 LT PUSH2 0x834 JUMPI PUSH2 0x833 PUSH2 0x18FD JUMP JUMPDEST JUMPDEST SWAP1 PUSH1 0x0 MSTORE PUSH1 0x20 PUSH1 0x0 KECCAK256 SWAP1 PUSH1 0x6 MUL ADD PUSH1 0x4 ADD PUSH1 0x0 SWAP1 SLOAD SWAP1 PUSH2 0x100 EXP SWAP1 DIV PUSH1 0xFF AND ISZERO PUSH2 0x893 JUMPI PUSH1 0x40 MLOAD PUSH32 0x8C379A000000000000000000000000000000000000000000000000000000000 DUP2 MSTORE PUSH1 0x4 ADD PUSH2 0x88A SWAP1 PUSH2 0x1508 JUMP JUMPDEST PUSH1 0x40 MLOAD DUP1 SWAP2 SUB SWAP1 REVERT JUMPDEST PUSH1 0x1 PUSH1 0x0 DUP3 DUP2 SLOAD DUP2 LT PUSH2 0x8A9 JUMPI PUSH2 0x8A8 PUSH2 0x18FD JUMP JUMPDEST JUMPDEST SWAP1 PUSH1 0x0 MSTORE PUSH1 0x20 PUSH1 0x0 KECCAK256 SWAP1 PUSH1 0x6 MUL ADD PUSH1 0x4 ADD PUSH1 0x0 PUSH2 0x100 EXP DUP2 SLOAD DUP2 PUSH1 0xFF MUL NOT AND SWAP1 DUP4 ISZERO ISZERO MUL OR SWAP1 SSTORE POP PUSH32 0x48E985A2725C94A14DD72AB2E85F5DA623CB78E019E7C2FF63DD8378625D94E4 DUP2 PUSH1 0x40 MLOAD PUSH2 0x900 SWAP2 SWAP1 PUSH2 0x1588 JUMP JUMPDEST PUSH1 0x40 MLOAD DUP1 SWAP2 SUB SWAP1 LOG1 POP JUMP JUMPDEST PUSH1 0x1 PUSH1 0x0 SWAP1 SLOAD SWAP1 PUSH2 0x100 EXP SWAP1 DIV PUSH20 0xFFFFFFFFFFFFFFFFFFFFFFFFFFFFFFFFFFFFFFFF AND DUP2 JUMP JUMPDEST PUSH1 0x0 DUP1 PUSH1 0x0 SWAP1 POP PUSH1 0x0 JUMPDEST PUSH1 0x0 DUP1 SLOAD SWAP1 POP DUP2 LT ISZERO PUSH2 0xA6D JUMPI DUP4 PUSH20 0xFFFFFFFFFFFFFFFFFFFFFFFFFFFFFFFFFFFFFFFF AND PUSH1 0x0 DUP3 DUP2 SLOAD DUP2 LT PUSH2 0x973 JUMPI PUSH2 0x972 PUSH2 0x18FD JUMP JUMPDEST JUMPDEST SWAP1 PUSH1 0x0 MSTORE PUSH1 0x20 PUSH1 0x0 KECCAK256 SWAP1 PUSH1 0x6 MUL ADD PUSH1 0x1 ADD PUSH1 0x0 SWAP1 SLOAD SWAP1 PUSH2 0x100 EXP SWAP1 DIV PUSH20 0xFFFFFFFFFFFFFFFFFFFFFFFFFFFFFFFFFFFFFFFF AND PUSH20 0xFFFFFFFFFFFFFFFFFFFFFFFFFFFFFFFFFFFFFFFF AND EQ DUP1 ISZERO PUSH2 0x9E5 JUMPI POP PUSH1 0x2 PUSH1 0x0 DUP3 DUP2 MSTORE PUSH1 0x20 ADD SWAP1 DUP2 MSTORE PUSH1 0x20 ADD PUSH1 0x0 KECCAK256 PUSH1 0x0 SWAP1 SLOAD SWAP1 PUSH2 0x100 EXP SWAP1 DIV PUSH1 0xFF AND JUMPDEST DUP1 ISZERO PUSH2 0xA21 JUMPI POP PUSH1 0x0 DUP2 DUP2 SLOAD DUP2 LT PUSH2 0xA00 JUMPI PUSH2 0x9FF PUSH2 0x18FD JUMP JUMPDEST JUMPDEST SWAP1 PUSH1 0x0 MSTORE PUSH1 0x20 PUSH1 0x0 KECCAK256 SWAP1 PUSH1 0x6 MUL ADD PUSH1 0x4 ADD PUSH1 0x0 SWAP1 SLOAD SWAP1 PUSH2 0x100 EXP SWAP1 DIV PUSH1 0xFF AND ISZERO JUMPDEST ISZERO PUSH2 0xA5A JUMPI PUSH1 0x0 DUP2 DUP2 SLOAD DUP2 LT PUSH2 0xA3A JUMPI PUSH2 0xA39 PUSH2 0x18FD JUMP JUMPDEST JUMPDEST SWAP1 PUSH1 0x0 MSTORE PUSH1 0x20 PUSH1 0x0 KECCAK256 SWAP1 PUSH1 0x6 MUL ADD PUSH1 0x2 ADD SLOAD DUP3 PUSH2 0xA57 SWAP2 SWAP1 PUSH2 0x1713 JUMP JUMPDEST SWAP2 POP JUMPDEST DUP1 DUP1 PUSH2 0xA65 SWAP1 PUSH2 0x1856 JUMP JUMPDEST SWAP2 POP POP PUSH2 0x93B JUMP JUMPDEST POP DUP1 SWAP2 POP POP SWAP2 SWAP1 POP JUMP JUMPDEST PUSH1 0x0 DUP1 DUP1 SLOAD SWAP1 POP DUP3 LT DUP1 ISZERO PUSH2 0xAA9 JUMPI POP PUSH1 0x2 PUSH1 0x0 DUP4 DUP2 MSTORE PUSH1 0x20 ADD SWAP1 DUP2 MSTORE PUSH1 0x20 ADD PUSH1 0x0 KECCAK256 PUSH1 0x0 SWAP1 SLOAD SWAP1 PUSH2 0x100 EXP SWAP1 DIV PUSH1 0xFF AND JUMPDEST SWAP1 POP SWAP2 SWAP1 POP JUMP JUMPDEST PUSH1 0x60 PUSH1 0x0 DUP1 JUMPDEST PUSH1 0x0 DUP1 SLOAD SWAP1 POP DUP2 LT ISZERO PUSH2 0xB87 JUMPI DUP4 PUSH20 0xFFFFFFFFFFFFFFFFFFFFFFFFFFFFFFFFFFFFFFFF AND PUSH1 0x0 DUP3 DUP2 SLOAD DUP2 LT PUSH2 0xAEE JUMPI PUSH2 0xAED PUSH2 0x18FD JUMP JUMPDEST JUMPDEST SWAP1 PUSH1 0x0 MSTORE PUSH1 0x20 PUSH1 0x0 KECCAK256 SWAP1 PUSH1 0x6 MUL ADD PUSH1 0x1 ADD PUSH1 0x0 SWAP1 SLOAD SWAP1 PUSH2 0x100 EXP SWAP1 DIV PUSH20 0xFFFFFFFFFFFFFFFFFFFFFFFFFFFFFFFFFFFFFFFF AND PUSH20 0xFFFFFFFFFFFFFFFFFFFFFFFFFFFFFFFFFFFFFFFF AND EQ DUP1 ISZERO PUSH2 0xB60 JUMPI POP PUSH1 0x2 PUSH1 0x0 DUP3 DUP2 MSTORE PUSH1 0x20 ADD SWAP1 DUP2 MSTORE PUSH1 0x20 ADD PUSH1 0x0 KECCAK256 PUSH1 0x0 SWAP1 SLOAD SWAP1 PUSH2 0x100 EXP SWAP1 DIV PUSH1 0xFF AND JUMPDEST ISZERO PUSH2 0xB74 JUMPI DUP2 DUP1 PUSH2 0xB70 SWAP1 PUSH2 0x1856 JUMP JUMPDEST SWAP3 POP POP JUMPDEST DUP1 DUP1 PUSH2 0xB7F SWAP1 PUSH2 0x1856 JUMP JUMPDEST SWAP2 POP POP PUSH2 0xAB6 JUMP JUMPDEST POP PUSH1 0x0 DUP2 PUSH8 0xFFFFFFFFFFFFFFFF DUP2 GT ISZERO PUSH2 0xBA4 JUMPI PUSH2 0xBA3 PUSH2 0x192C JUMP JUMPDEST JUMPDEST PUSH1 0x40 MLOAD SWAP1 DUP1 DUP3 MSTORE DUP1 PUSH1 0x20 MUL PUSH1 0x20 ADD DUP3 ADD PUSH1 0x40 MSTORE DUP1 ISZERO PUSH2 0xBDD JUMPI DUP2 PUSH1 0x20 ADD JUMPDEST PUSH2 0xBCA PUSH2 0x1009 JUMP JUMPDEST DUP2 MSTORE PUSH1 0x20 ADD SWAP1 PUSH1 0x1 SWAP1 SUB SWAP1 DUP2 PUSH2 0xBC2 JUMPI SWAP1 POP JUMPDEST POP SWAP1 POP PUSH1 0x0 DUP1 JUMPDEST PUSH1 0x0 DUP1 SLOAD SWAP1 POP DUP2 LT ISZERO PUSH2 0xE21 JUMPI DUP6 PUSH20 0xFFFFFFFFFFFFFFFFFFFFFFFFFFFFFFFFFFFFFFFF AND PUSH1 0x0 DUP3 DUP2 SLOAD DUP2 LT PUSH2 0xC1C JUMPI PUSH2 0xC1B PUSH2 0x18FD JUMP JUMPDEST JUMPDEST SWAP1 PUSH1 0x0 MSTORE PUSH1 0x20 PUSH1 0x0 KECCAK256 SWAP1 PUSH1 0x6 MUL ADD PUSH1 0x1 ADD PUSH1 0x0 SWAP1 SLOAD SWAP1 PUSH2 0x100 EXP SWAP1 DIV PUSH20 0xFFFFFFFFFFFFFFFFFFFFFFFFFFFFFFFFFFFFFFFF AND PUSH20 0xFFFFFFFFFFFFFFFFFFFFFFFFFFFFFFFFFFFFFFFF AND EQ DUP1 ISZERO PUSH2 0xC8E JUMPI POP PUSH1 0x2 PUSH1 0x0 DUP3 DUP2 MSTORE PUSH1 0x20 ADD SWAP1 DUP2 MSTORE PUSH1 0x20 ADD PUSH1 0x0 KECCAK256 PUSH1 0x0 SWAP1 SLOAD SWAP1 PUSH2 0x100 EXP SWAP1 DIV PUSH1 0xFF AND JUMPDEST ISZERO PUSH2 0xE0E JUMPI PUSH1 0x0 DUP2 DUP2 SLOAD DUP2 LT PUSH2 0xCA7 JUMPI PUSH2 0xCA6 PUSH2 0x18FD JUMP JUMPDEST JUMPDEST SWAP1 PUSH1 0x0 MSTORE PUSH1 0x20 PUSH1 0x0 KECCAK256 SWAP1 PUSH1 0x6 MUL ADD PUSH1 0x40 MLOAD DUP1 PUSH1 0xC0 ADD PUSH1 0x40 MSTORE SWAP1 DUP2 PUSH1 0x0 DUP3 ADD SLOAD DUP2 MSTORE PUSH1 0x20 ADD PUSH1 0x1 DUP3 ADD PUSH1 0x0 SWAP1 SLOAD SWAP1 PUSH2 0x100 EXP SWAP1 DIV PUSH20 0xFFFFFFFFFFFFFFFFFFFFFFFFFFFFFFFFFFFFFFFF AND PUSH20 0xFFFFFFFFFFFFFFFFFFFFFFFFFFFFFFFFFFFFFFFF AND PUSH20 0xFFFFFFFFFFFFFFFFFFFFFFFFFFFFFFFFFFFFFFFF AND DUP2 MSTORE PUSH1 0x20 ADD PUSH1 0x2 DUP3 ADD SLOAD DUP2 MSTORE PUSH1 0x20 ADD PUSH1 0x3 DUP3 ADD DUP1 SLOAD PUSH2 0xD3A SWAP1 PUSH2 0x17F3 JUMP JUMPDEST DUP1 PUSH1 0x1F ADD PUSH1 0x20 DUP1 SWAP2 DIV MUL PUSH1 0x20 ADD PUSH1 0x40 MLOAD SWAP1 DUP2 ADD PUSH1 0x40 MSTORE DUP1 SWAP3 SWAP2 SWAP1 DUP2 DUP2 MSTORE PUSH1 0x20 ADD DUP3 DUP1 SLOAD PUSH2 0xD66 SWAP1 PUSH2 0x17F3 JUMP JUMPDEST DUP1 ISZERO PUSH2 0xDB3 JUMPI DUP1 PUSH1 0x1F LT PUSH2 0xD88 JUMPI PUSH2 0x100 DUP1 DUP4 SLOAD DIV MUL DUP4 MSTORE SWAP2 PUSH1 0x20 ADD SWAP2 PUSH2 0xDB3 JUMP JUMPDEST DUP3 ADD SWAP2 SWAP1 PUSH1 0x0 MSTORE PUSH1 0x20 PUSH1 0x0 KECCAK256 SWAP1 JUMPDEST DUP2 SLOAD DUP2 MSTORE SWAP1 PUSH1 0x1 ADD SWAP1 PUSH1 0x20 ADD DUP1 DUP4 GT PUSH2 0xD96 JUMPI DUP3 SWAP1 SUB PUSH1 0x1F AND DUP3 ADD SWAP2 JUMPDEST POP POP POP POP POP DUP2 MSTORE PUSH1 0x20 ADD PUSH1 0x4 DUP3 ADD PUSH1 0x0 SWAP1 SLOAD SWAP1 PUSH2 0x100 EXP SWAP1 DIV PUSH1 0xFF AND ISZERO ISZERO ISZERO ISZERO DUP2 MSTORE PUSH1 0x20 ADD PUSH1 0x5 DUP3 ADD SLOAD DUP2 MSTORE POP POP DUP4 DUP4 DUP2 MLOAD DUP2 LT PUSH2 0xDF4 JUMPI PUSH2 0xDF3 PUSH2 0x18FD JUMP JUMPDEST JUMPDEST PUSH1 0x20 MUL PUSH1 0x20 ADD ADD DUP2 SWAP1 MSTORE POP DUP2 DUP1 PUSH2 0xE0A SWAP1 PUSH2 0x1856 JUMP JUMPDEST SWAP3 POP POP JUMPDEST DUP1 DUP1 PUSH2 0xE19 SWAP1 PUSH2 0x1856 JUMP JUMPDEST SWAP2 POP POP PUSH2 0xBE4 JUMP JUMPDEST POP DUP2 SWAP4 POP POP POP POP SWAP2 SWAP1 POP JUMP JUMPDEST PUSH1 0x1 PUSH1 0x0 SWAP1 SLOAD SWAP1 PUSH2 0x100 EXP SWAP1 DIV PUSH20 0xFFFFFFFFFFFFFFFFFFFFFFFFFFFFFFFFFFFFFFFF AND PUSH20 0xFFFFFFFFFFFFFFFFFFFFFFFFFFFFFFFFFFFFFFFF AND CALLER PUSH20 0xFFFFFFFFFFFFFFFFFFFFFFFFFFFFFFFFFFFFFFFF AND EQ PUSH2 0xEBD JUMPI PUSH1 0x40 MLOAD PUSH32 0x8C379A000000000000000000000000000000000000000000000000000000000 DUP2 MSTORE PUSH1 0x4 ADD PUSH2 0xEB4 SWAP1 PUSH2 0x1548 JUMP JUMPDEST PUSH1 0x40 MLOAD DUP1 SWAP2 SUB SWAP1 REVERT JUMPDEST PUSH1 0x2 PUSH1 0x0 DUP3 DUP2 MSTORE PUSH1 0x20 ADD SWAP1 DUP2 MSTORE PUSH1 0x20 ADD PUSH1 0x0 KECCAK256 PUSH1 0x0 SWAP1 SLOAD SWAP1 PUSH2 0x100 EXP SWAP1 DIV PUSH1 0xFF AND PUSH2 0xF1D JUMPI PUSH1 0x40 MLOAD PUSH32 0x8C379A000000000000000000000000000000000000000000000000000000000 DUP2 MSTORE PUSH1 0x4 ADD PUSH2 0xF14 SWAP1 PUSH2 0x1568 JUMP JUMPDEST PUSH1 0x40 MLOAD DUP1 SWAP2 SUB SWAP1 REVERT JUMPDEST PUSH1 0x0 PUSH1 0x2 PUSH1 0x0 DUP4 DUP2 MSTORE PUSH1 0x20 ADD SWAP1 DUP2 MSTORE PUSH1 0x20 ADD PUSH1 0x0 KECCAK256 PUSH1 0x0 PUSH2 0x100 EXP DUP2 SLOAD DUP2 PUSH1 0xFF MUL NOT AND SWAP1 DUP4 ISZERO ISZERO MUL OR SWAP1 SSTORE POP PUSH32 0x4856B4B72AD15E464AF7B2AF76C01835371CD13CC0A1D312A7B3A407410B988F DUP2 PUSH1 0x40 MLOAD PUSH2 0xF78 SWAP2 SWAP1 PUSH2 0x1588 JUMP JUMPDEST PUSH1 0x40 MLOAD DUP1 SWAP2 SUB SWAP1 LOG1 POP JUMP JUMPDEST DUP3 DUP1 SLOAD PUSH2 0xF8F SWAP1 PUSH2 0x17F3 JUMP JUMPDEST SWAP1 PUSH1 0x0 MSTORE PUSH1 0x20 PUSH1 0x0 KECCAK256 SWAP1 PUSH1 0x1F ADD PUSH1 0x20 SWAP1 DIV DUP2 ADD SWAP3 DUP3 PUSH2 0xFB1 JUMPI PUSH1 0x0 DUP6 SSTORE PUSH2 0xFF8 JUMP JUMPDEST DUP3 PUSH1 0x1F LT PUSH2 0xFCA JUMPI DUP1 MLOAD PUSH1 0xFF NOT AND DUP4 DUP1 ADD OR DUP6 SSTORE PUSH2 0xFF8 JUMP JUMPDEST DUP3 DUP1 ADD PUSH1 0x1 ADD DUP6 SSTORE DUP3 ISZERO PUSH2 0xFF8 JUMPI SWAP2 DUP3 ADD JUMPDEST DUP3 DUP2 GT ISZERO PUSH2 0xFF7 JUMPI DUP3 MLOAD DUP3 SSTORE SWAP2 PUSH1 0x20 ADD SWAP2 SWAP1 PUSH1 0x1 ADD SWAP1 PUSH2 0xFDC JUMP JUMPDEST JUMPDEST POP SWAP1 POP PUSH2 0x1005 SWAP2 SWAP1 PUSH2 0x1057 JUMP JUMPDEST POP SWAP1 JUMP JUMPDEST PUSH1 0x40 MLOAD DUP1 PUSH1 0xC0 ADD PUSH1 0x40 MSTORE DUP1 PUSH1 0x0 DUP2 MSTORE PUSH1 0x20 ADD PUSH1 0x0 PUSH20 0xFFFFFFFFFFFFFFFFFFFFFFFFFFFFFFFFFFFFFFFF AND DUP2 MSTORE PUSH1 0x20 ADD PUSH1 0x0 DUP2 MSTORE PUSH1 0x20 ADD PUSH1 0x60 DUP2 MSTORE PUSH1 0x20 ADD PUSH1 0x0 ISZERO ISZERO DUP2 MSTORE PUSH1 0x20 ADD PUSH1 0x0 DUP2 MSTORE POP SWAP1 JUMP JUMPDEST JUMPDEST DUP1 DUP3 GT ISZERO PUSH2 0x1070 JUMPI PUSH1 0x0 DUP2 PUSH1 0x0 SWAP1 SSTORE POP PUSH1 0x1 ADD PUSH2 0x1058 JUMP JUMPDEST POP SWAP1 JUMP JUMPDEST PUSH1 0x0 PUSH2 0x1087 PUSH2 0x1082 DUP5 PUSH2 0x167C JUMP JUMPDEST PUSH2 0x1657 JUMP JUMPDEST SWAP1 POP DUP3 DUP2 MSTORE PUSH1 0x20 DUP2 ADD DUP5 DUP5 DUP5 ADD GT ISZERO PUSH2 0x10A3 JUMPI PUSH2 0x10A2 PUSH2 0x1960 JUMP JUMPDEST JUMPDEST PUSH2 0x10AE DUP5 DUP3 DUP6 PUSH2 0x17B1 JUMP JUMPDEST POP SWAP4 SWAP3 POP POP POP JUMP JUMPDEST PUSH1 0x0 DUP2 CALLDATALOAD SWAP1 POP PUSH2 0x10C5 DUP2 PUSH2 0x1A4A JUMP JUMPDEST SWAP3 SWAP2 POP POP JUMP JUMPDEST PUSH1 0x0 DUP3 PUSH1 0x1F DUP4 ADD SLT PUSH2 0x10E0 JUMPI PUSH2 0x10DF PUSH2 0x195B JUMP JUMPDEST JUMPDEST DUP2 CALLDATALOAD PUSH2 0x10F0 DUP5 DUP3 PUSH1 0x20 DUP7 ADD PUSH2 0x1074 JUMP JUMPDEST SWAP2 POP POP SWAP3 SWAP2 POP POP JUMP JUMPDEST PUSH1 0x0 DUP2 CALLDATALOAD SWAP1 POP PUSH2 0x1108 DUP2 PUSH2 0x1A61 JUMP JUMPDEST SWAP3 SWAP2 POP POP JUMP JUMPDEST PUSH1 0x0 PUSH1 0x20 DUP3 DUP5 SUB SLT ISZERO PUSH2 0x1124 JUMPI PUSH2 0x1123 PUSH2 0x196A JUMP JUMPDEST JUMPDEST PUSH1 0x0 PUSH2 0x1132 DUP5 DUP3 DUP6 ADD PUSH2 0x10B6 JUMP JUMPDEST SWAP2 POP POP SWAP3 SWAP2 POP POP JUMP JUMPDEST PUSH1 0x0 DUP1 PUSH1 0x0 PUSH1 0x60 DUP5 DUP7 SUB SLT ISZERO PUSH2 0x1154 JUMPI PUSH2 0x1153 PUSH2 0x196A JUMP JUMPDEST JUMPDEST PUSH1 0x0 PUSH2 0x1162 DUP7 DUP3 DUP8 ADD PUSH2 0x10B6 JUMP JUMPDEST SWAP4 POP POP PUSH1 0x20 PUSH2 0x1173 DUP7 DUP3 DUP8 ADD PUSH2 0x10F9 JUMP JUMPDEST SWAP3 POP POP PUSH1 0x40 DUP5 ADD CALLDATALOAD PUSH8 0xFFFFFFFFFFFFFFFF DUP2 GT ISZERO PUSH2 0x1194 JUMPI PUSH2 0x1193 PUSH2 0x1965 JUMP JUMPDEST JUMPDEST PUSH2 0x11A0 DUP7 DUP3 DUP8 ADD PUSH2 0x10CB JUMP JUMPDEST SWAP2 POP POP SWAP3 POP SWAP3 POP SWAP3 JUMP JUMPDEST PUSH1 0x0 PUSH1 0x20 DUP3 DUP5 SUB SLT ISZERO PUSH2 0x11C0 JUMPI PUSH2 0x11BF PUSH2 0x196A JUMP JUMPDEST JUMPDEST PUSH1 0x0 PUSH2 0x11CE DUP5 DUP3 DUP6 ADD PUSH2 0x10F9 JUMP JUMPDEST SWAP2 POP POP SWAP3 SWAP2 POP POP JUMP JUMPDEST PUSH1 0x0 DUP1 PUSH1 0x0 PUSH1 0x60 DUP5 DUP7 SUB SLT ISZERO PUSH2 0x11F0 JUMPI PUSH2 0x11EF PUSH2 0x196A JUMP JUMPDEST JUMPDEST PUSH1 0x0 PUSH2 0x11FE DUP7 DUP3 DUP8 ADD PUSH2 0x10F9 JUMP JUMPDEST SWAP4 POP POP PUSH1 0x20 PUSH2 0x120F DUP7 DUP3 DUP8 ADD PUSH2 0x10F9 JUMP JUMPDEST SWAP3 POP POP PUSH1 0x40 DUP5 ADD CALLDATALOAD PUSH8 0xFFFFFFFFFFFFFFFF DUP2 GT ISZERO PUSH2 0x1230 JUMPI PUSH2 0x122F PUSH2 0x1965 JUMP JUMPDEST JUMPDEST PUSH2 0x123C DUP7 DUP3 DUP8 ADD PUSH2 0x10CB JUMP JUMPDEST SWAP2 POP POP SWAP3 POP SWAP3 POP SWAP3 JUMP JUMPDEST PUSH1 0x0 PUSH2 0x1252 DUP4 DUP4 PUSH2 0x1409 JUMP JUMPDEST SWAP1 POP SWAP3 SWAP2 POP POP JUMP JUMPDEST PUSH2 0x1263 DUP2 PUSH2 0x1769 JUMP JUMPDEST DUP3 MSTORE POP POP JUMP JUMPDEST PUSH2 0x1272 DUP2 PUSH2 0x1769 JUMP JUMPDEST DUP3 MSTORE POP POP JUMP JUMPDEST PUSH1 0x0 PUSH2 0x1283 DUP3 PUSH2 0x16BD JUMP JUMPDEST PUSH2 0x128D DUP2 DUP6 PUSH2 0x16E0 JUMP JUMPDEST SWAP4 POP DUP4 PUSH1 0x20 DUP3 MUL DUP6 ADD PUSH2 0x129F DUP6 PUSH2 0x16AD JUMP JUMPDEST DUP1 PUSH1 0x0 JUMPDEST DUP6 DUP2 LT ISZERO PUSH2 0x12DB JUMPI DUP5 DUP5 SUB DUP10 MSTORE DUP2 MLOAD PUSH2 0x12BC DUP6 DUP3 PUSH2 0x1246 JUMP JUMPDEST SWAP5 POP PUSH2 0x12C7 DUP4 PUSH2 0x16D3 JUMP JUMPDEST SWAP3 POP PUSH1 0x20 DUP11 ADD SWAP10 POP POP PUSH1 0x1 DUP2 ADD SWAP1 POP PUSH2 0x12A3 JUMP JUMPDEST POP DUP3 SWAP8 POP DUP8 SWAP6 POP POP POP POP POP POP SWAP3 SWAP2 POP POP JUMP JUMPDEST PUSH2 0x12F6 DUP2 PUSH2 0x177B JUMP JUMPDEST DUP3 MSTORE POP POP JUMP JUMPDEST PUSH2 0x1305 DUP2 PUSH2 0x177B JUMP JUMPDEST DUP3 MSTORE POP POP JUMP JUMPDEST PUSH1 0x0 PUSH2 0x1316 DUP3 PUSH2 0x16C8 JUMP JUMPDEST PUSH2 0x1320 DUP2 DUP6 PUSH2 0x16F1 JUMP JUMPDEST SWAP4 POP PUSH2 0x1330 DUP2 DUP6 PUSH1 0x20 DUP7 ADD PUSH2 0x17C0 JUMP JUMPDEST PUSH2 0x1339 DUP2 PUSH2 0x196F JUMP JUMPDEST DUP5 ADD SWAP2 POP POP SWAP3 SWAP2 POP POP JUMP JUMPDEST PUSH1 0x0 PUSH2 0x134F DUP3 PUSH2 0x16C8 JUMP JUMPDEST PUSH2 0x1359 DUP2 DUP6 PUSH2 0x1702 JUMP JUMPDEST SWAP4 POP PUSH2 0x1369 DUP2 DUP6 PUSH1 0x20 DUP7 ADD PUSH2 0x17C0 JUMP JUMPDEST PUSH2 0x1372 DUP2 PUSH2 0x196F JUMP JUMPDEST DUP5 ADD SWAP2 POP POP SWAP3 SWAP2 POP POP JUMP JUMPDEST PUSH1 0x0 PUSH2 0x138A PUSH1 0x12 DUP4 PUSH2 0x1702 JUMP JUMPDEST SWAP2 POP PUSH2 0x1395 DUP3 PUSH2 0x1980 JUMP JUMPDEST PUSH1 0x20 DUP3 ADD SWAP1 POP SWAP2 SWAP1 POP JUMP JUMPDEST PUSH1 0x0 PUSH2 0x13AD PUSH1 0x1C DUP4 PUSH2 0x1702 JUMP JUMPDEST SWAP2 POP PUSH2 0x13B8 DUP3 PUSH2 0x19A9 JUMP JUMPDEST PUSH1 0x20 DUP3 ADD SWAP1 POP SWAP2 SWAP1 POP JUMP JUMPDEST PUSH1 0x0 PUSH2 0x13D0 PUSH1 0x21 DUP4 PUSH2 0x1702 JUMP JUMPDEST SWAP2 POP PUSH2 0x13DB DUP3 PUSH2 0x19D2 JUMP JUMPDEST PUSH1 0x40 DUP3 ADD SWAP1 POP SWAP2 SWAP1 POP JUMP JUMPDEST PUSH1 0x0 PUSH2 0x13F3 PUSH1 0x1A DUP4 PUSH2 0x1702 JUMP JUMPDEST SWAP2 POP PUSH2 0x13FE DUP3 PUSH2 0x1A21 JUMP JUMPDEST PUSH1 0x20 DUP3 ADD SWAP1 POP SWAP2 SWAP1 POP JUMP JUMPDEST PUSH1 0x0 PUSH1 0xC0 DUP4 ADD PUSH1 0x0 DUP4 ADD MLOAD PUSH2 0x1421 PUSH1 0x0 DUP7 ADD DUP3 PUSH2 0x1492 JUMP JUMPDEST POP PUSH1 0x20 DUP4 ADD MLOAD PUSH2 0x1434 PUSH1 0x20 DUP7 ADD DUP3 PUSH2 0x125A JUMP JUMPDEST POP PUSH1 0x40 DUP4 ADD MLOAD PUSH2 0x1447 PUSH1 0x40 DUP7 ADD DUP3 PUSH2 0x1492 JUMP JUMPDEST POP PUSH1 0x60 DUP4 ADD MLOAD DUP5 DUP3 SUB PUSH1 0x60 DUP7 ADD MSTORE PUSH2 0x145F DUP3 DUP3 PUSH2 0x130B JUMP JUMPDEST SWAP2 POP POP PUSH1 0x80 DUP4 ADD MLOAD PUSH2 0x1474 PUSH1 0x80 DUP7 ADD DUP3 PUSH2 0x12ED JUMP JUMPDEST POP PUSH1 0xA0 DUP4 ADD MLOAD PUSH2 0x1487 PUSH1 0xA0 DUP7 ADD DUP3 PUSH2 0x1492 JUMP JUMPDEST POP DUP1 SWAP2 POP POP SWAP3 SWAP2 POP POP JUMP JUMPDEST PUSH2 0x149B DUP2 PUSH2 0x17A7 JUMP JUMPDEST DUP3 MSTORE POP POP JUMP JUMPDEST PUSH2 0x14AA DUP2 PUSH2 0x17A7 JUMP JUMPDEST DUP3 MSTORE POP POP JUMP JUMPDEST PUSH1 0x0 PUSH1 0x20 DUP3 ADD SWAP1 POP PUSH2 0x14C5 PUSH1 0x0 DUP4 ADD DUP5 PUSH2 0x1269 JUMP JUMPDEST SWAP3 SWAP2 POP POP JUMP JUMPDEST PUSH1 0x0 PUSH1 0x20 DUP3 ADD SWAP1 POP DUP2 DUP2 SUB PUSH1 0x0 DUP4 ADD MSTORE PUSH2 0x14E5 DUP2 DUP5 PUSH2 0x1278 JUMP JUMPDEST SWAP1 POP SWAP3 SWAP2 POP POP JUMP JUMPDEST PUSH1 0x0 PUSH1 0x20 DUP3 ADD SWAP1 POP PUSH2 0x1502 PUSH1 0x0 DUP4 ADD DUP5 PUSH2 0x12FC JUMP JUMPDEST SWAP3 SWAP2 POP POP JUMP JUMPDEST PUSH1 0x0 PUSH1 0x20 DUP3 ADD SWAP1 POP DUP2 DUP2 SUB PUSH1 0x0 DUP4 ADD MSTORE PUSH2 0x1521 DUP2 PUSH2 0x137D JUMP JUMPDEST SWAP1 POP SWAP2 SWAP1 POP JUMP JUMPDEST PUSH1 0x0 PUSH1 0x20 DUP3 ADD SWAP1 POP DUP2 DUP2 SUB PUSH1 0x0 DUP4 ADD MSTORE PUSH2 0x1541 DUP2 PUSH2 0x13A0 JUMP JUMPDEST SWAP1 POP SWAP2 SWAP1 POP JUMP JUMPDEST PUSH1 0x0 PUSH1 0x20 DUP3 ADD SWAP1 POP DUP2 DUP2 SUB PUSH1 0x0 DUP4 ADD MSTORE PUSH2 0x1561 DUP2 PUSH2 0x13C3 JUMP JUMPDEST SWAP1 POP SWAP2 SWAP1 POP JUMP JUMPDEST PUSH1 0x0 PUSH1 0x20 DUP3 ADD SWAP1 POP DUP2 DUP2 SUB PUSH1 0x0 DUP4 ADD MSTORE PUSH2 0x1581 DUP2 PUSH2 0x13E6 JUMP JUMPDEST SWAP1 POP SWAP2 SWAP1 POP JUMP JUMPDEST PUSH1 0x0 PUSH1 0x20 DUP3 ADD SWAP1 POP PUSH2 0x159D PUSH1 0x0 DUP4 ADD DUP5 PUSH2 0x14A1 JUMP JUMPDEST SWAP3 SWAP2 POP POP JUMP JUMPDEST PUSH1 0x0 PUSH1 0x80 DUP3 ADD SWAP1 POP PUSH2 0x15B8 PUSH1 0x0 DUP4 ADD DUP8 PUSH2 0x14A1 JUMP JUMPDEST PUSH2 0x15C5 PUSH1 0x20 DUP4 ADD DUP7 PUSH2 0x1269 JUMP JUMPDEST PUSH2 0x15D2 PUSH1 0x40 DUP4 ADD DUP6 PUSH2 0x14A1 JUMP JUMPDEST DUP2 DUP2 SUB PUSH1 0x60 DUP4 ADD MSTORE PUSH2 0x15E4 DUP2 DUP5 PUSH2 0x1344 JUMP JUMPDEST SWAP1 POP SWAP6 SWAP5 POP POP POP POP POP JUMP JUMPDEST PUSH1 0x0 PUSH1 0xC0 DUP3 ADD SWAP1 POP PUSH2 0x1604 PUSH1 0x0 DUP4 ADD DUP10 PUSH2 0x14A1 JUMP JUMPDEST PUSH2 0x1611 PUSH1 0x20 DUP4 ADD DUP9 PUSH2 0x1269 JUMP JUMPDEST PUSH2 0x161E PUSH1 0x40 DUP4 ADD DUP8 PUSH2 0x14A1 JUMP JUMPDEST DUP2 DUP2 SUB PUSH1 0x60 DUP4 ADD MSTORE PUSH2 0x1630 DUP2 DUP7 PUSH2 0x1344 JUMP JUMPDEST SWAP1 POP PUSH2 0x163F PUSH1 0x80 DUP4 ADD DUP6 PUSH2 0x12FC JUMP JUMPDEST PUSH2 0x164C PUSH1 0xA0 DUP4 ADD DUP5 PUSH2 0x14A1 JUMP JUMPDEST SWAP8 SWAP7 POP POP POP POP POP POP POP JUMP JUMPDEST PUSH1 0x0 PUSH2 0x1661 PUSH2 0x1672 JUMP JUMPDEST SWAP1 POP PUSH2 0x166D DUP3 DUP3 PUSH2 0x1825 JUMP JUMPDEST SWAP2 SWAP1 POP JUMP JUMPDEST PUSH1 0x0 PUSH1 0x40 MLOAD SWAP1 POP SWAP1 JUMP JUMPDEST PUSH1 0x0 PUSH8 0xFFFFFFFFFFFFFFFF DUP3 GT ISZERO PUSH2 0x1697 JUMPI PUSH2 0x1696 PUSH2 0x192C JUMP JUMPDEST JUMPDEST PUSH2 0x16A0 DUP3 PUSH2 0x196F JUMP JUMPDEST SWAP1 POP PUSH1 0x20 DUP2 ADD SWAP1 POP SWAP2 SWAP1 POP JUMP JUMPDEST PUSH1 0x0 DUP2 SWAP1 POP PUSH1 0x20 DUP3 ADD SWAP1 POP SWAP2 SWAP1 POP JUMP JUMPDEST PUSH1 0x0 DUP2 MLOAD SWAP1 POP SWAP2 SWAP1 POP JUMP JUMPDEST PUSH1 0x0 DUP2 MLOAD SWAP1 POP SWAP2 SWAP1 POP JUMP JUMPDEST PUSH1 0x0 PUSH1 0x20 DUP3 ADD SWAP1 POP SWAP2 SWAP1 POP JUMP JUMPDEST PUSH1 0x0 DUP3 DUP3 MSTORE PUSH1 0x20 DUP3 ADD SWAP1 POP SWAP3 SWAP2 POP POP JUMP JUMPDEST PUSH1 0x0 DUP3 DUP3 MSTORE PUSH1 0x20 DUP3 ADD SWAP1 POP SWAP3 SWAP2 POP POP JUMP JUMPDEST PUSH1 0x0 DUP3 DUP3 MSTORE PUSH1 0x20 DUP3 ADD SWAP1 POP SWAP3 SWAP2 POP POP JUMP JUMPDEST PUSH1 0x0 PUSH2 0x171E DUP3 PUSH2 0x17A7 JUMP JUMPDEST SWAP2 POP PUSH2 0x1729 DUP4 PUSH2 0x17A7 JUMP JUMPDEST SWAP3 POP DUP3 PUSH32 0xFFFFFFFFFFFFFFFFFFFFFFFFFFFFFFFFFFFFFFFFFFFFFFFFFFFFFFFFFFFFFFFF SUB DUP3 GT ISZERO PUSH2 0x175E JUMPI PUSH2 0x175D PUSH2 0x189F JUMP JUMPDEST JUMPDEST DUP3 DUP3 ADD SWAP1 POP SWAP3 SWAP2 POP POP JUMP JUMPDEST PUSH1 0x0 PUSH2 0x1774 DUP3 PUSH2 0x1787 JUMP JUMPDEST SWAP1 POP SWAP2 SWAP1 POP JUMP JUMPDEST PUSH1 0x0 DUP2 ISZERO ISZERO SWAP1 POP SWAP2 SWAP1 POP JUMP JUMPDEST PUSH1 0x0 PUSH20 0xFFFFFFFFFFFFFFFFFFFFFFFFFFFFFFFFFFFFFFFF DUP3 AND SWAP1 POP SWAP2 SWAP1 POP JUMP JUMPDEST PUSH1 0x0 DUP2 SWAP1 POP SWAP2 SWAP1 POP JUMP JUMPDEST DUP3 DUP2 DUP4 CALLDATACOPY PUSH1 0x0 DUP4 DUP4 ADD MSTORE POP POP POP JUMP JUMPDEST PUSH1 0x0 JUMPDEST DUP4 DUP2 LT ISZERO PUSH2 0x17DE JUMPI DUP1 DUP3 ADD MLOAD DUP2 DUP5 ADD MSTORE PUSH1 0x20 DUP2 ADD SWAP1 POP PUSH2 0x17C3 JUMP JUMPDEST DUP4 DUP2 GT ISZERO PUSH2 0x17ED JUMPI PUSH1 0x0 DUP5 DUP5 ADD MSTORE JUMPDEST POP POP POP POP JUMP JUMPDEST PUSH1 0x0 PUSH1 0x2 DUP3 DIV SWAP1 POP PUSH1 0x1 DUP3 AND DUP1 PUSH2 0x180B JUMPI PUSH1 0x7F DUP3 AND SWAP2 POP JUMPDEST PUSH1 0x20 DUP3 LT DUP2 EQ ISZERO PUSH2 0x181F JUMPI PUSH2 0x181E PUSH2 0x18CE JUMP JUMPDEST JUMPDEST POP SWAP2 SWAP1 POP JUMP JUMPDEST PUSH2 0x182E DUP3 PUSH2 0x196F JUMP JUMPDEST DUP2 ADD DUP2 DUP2 LT PUSH8 0xFFFFFFFFFFFFFFFF DUP3 GT OR ISZERO PUSH2 0x184D JUMPI PUSH2 0x184C PUSH2 0x192C JUMP JUMPDEST JUMPDEST DUP1 PUSH1 0x40 MSTORE POP POP POP JUMP JUMPDEST PUSH1 0x0 PUSH2 0x1861 DUP3 PUSH2 0x17A7 JUMP JUMPDEST SWAP2 POP PUSH32 0xFFFFFFFFFFFFFFFFFFFFFFFFFFFFFFFFFFFFFFFFFFFFFFFFFFFFFFFFFFFFFFFF DUP3 EQ ISZERO PUSH2 0x1894 JUMPI PUSH2 0x1893 PUSH2 0x189F JUMP JUMPDEST JUMPDEST PUSH1 0x1 DUP3 ADD SWAP1 POP SWAP2 SWAP1 POP JUMP JUMPDEST PUSH32 0x4E487B7100000000000000000000000000000000000000000000000000000000 PUSH1 0x0 MSTORE PUSH1 0x11 PUSH1 0x4 MSTORE PUSH1 0x24 PUSH1 0x0 REVERT JUMPDEST PUSH32 0x4E487B7100000000000000000000000000000000000000000000000000000000 PUSH1 0x0 MSTORE PUSH1 0x22 PUSH1 0x4 MSTORE PUSH1 0x24 PUSH1 0x0 REVERT JUMPDEST PUSH32 0x4E487B7100000000000000000000000000000000000000000000000000000000 PUSH1 0x0 MSTORE PUSH1 0x32 PUSH1 0x4 MSTORE PUSH1 0x24 PUSH1 0x0 REVERT JUMPDEST PUSH32 0x4E487B7100000000000000000000000000000000000000000000000000000000 PUSH1 0x0 MSTORE PUSH1 0x41 PUSH1 0x4 MSTORE PUSH1 0x24 PUSH1 0x0 REVERT JUMPDEST PUSH1 0x0 DUP1 REVERT JUMPDEST PUSH1 0x0 DUP1 REVERT JUMPDEST PUSH1 0x0 DUP1 REVERT JUMPDEST PUSH1 0x0 DUP1 REVERT JUMPDEST PUSH1 0x0 PUSH1 0x1F NOT PUSH1 0x1F DUP4 ADD AND SWAP1 POP SWAP2 SWAP1 POP JUMP JUMPDEST PUSH32 0x494153323A20416C726561647920706169640000000000000000000000000000 PUSH1 0x0 DUP3 ADD MSTORE POP JUMP JUMPDEST PUSH32 0x494153323A2043616E6E6F7420656469742070616964207574616E6700000000 PUSH1 0x0 DUP3 ADD MSTORE POP JUMP JUMPDEST PUSH32 0x494153323A204F6E6C792073746F7265206F776E657220617574686F72697A65 PUSH1 0x0 DUP3 ADD MSTORE PUSH32 0x6400000000000000000000000000000000000000000000000000000000000000 PUSH1 0x20 DUP3 ADD MSTORE POP JUMP JUMPDEST PUSH32 0x494153323A205574616E6720646F6573206E6F74206578697374000000000000 PUSH1 0x0 DUP3 ADD MSTORE POP JUMP JUMPDEST PUSH2 0x1A53 DUP2 PUSH2 0x1769 JUMP JUMPDEST DUP2 EQ PUSH2 0x1A5E JUMPI PUSH1 0x0 DUP1 REVERT JUMPDEST POP JUMP JUMPDEST PUSH2 0x1A6A DUP2 PUSH2 0x17A7 JUMP JUMPDEST DUP2 EQ PUSH2 0x1A75 JUMPI PUSH1 0x0 DUP1 REVERT JUMPDEST POP JUMP INVALID LOG2 PUSH5 0x6970667358 0x22 SLT KECCAK256 0xB5 0x5D PUSH11 0x7CFF487CEEB10F2248B8CC PUSH6 0xB4D847720550 0xC1 DUP7 PUSH1 0x4F CHAINID 0xB5 LOG1 DUP9 LOG1 0xCC PUSH13 0x64736F6C634300080700330000 "
				},
				"gasEstimates": {
					"creation": {
						"codeDepositCost": "1366000",
						"executionCost": "25690",
						"totalCost": "1391690"
					},
					"external": {
						"activeUtang(uint256)": "2797",
						"addUtang(address,uint256,string)": "infinite",
						"deleteUtang(uint256)": "infinite",
						"editUtang(uint256,uint256,string)": "infinite",
						"getCustomerUtang(address)": "infinite",
						"getTotalUnpaid(address)": "infinite",
						"markAsPaid(uint256)": "infinite",
						"owner()": "2514",
						"utangList(uint256)": "infinite",
						"verifyUtang(uint256)": "5005"
					}
				},
				"methodIdentifiers": {
					"activeUtang(uint256)": "0d7f2d2b",
					"addUtang(address,uint256,string)": "6733c3a5",
					"deleteUtang(uint256)": "e9f51aa8",
					"editUtang(uint256,uint256,string)": "4f355b44",
					"getCustomerUtang(address)": "d763f638",
					"getTotalUnpaid(address)": "ba056a9b",
					"markAsPaid(uint256)": "7021cafe",
					"owner()": "8da5cb5b",
					"utangList(uint256)": "2fd1c05e",
					"verifyUtang(uint256)": "baf58aec"
				}
			},
			"storageLayout": {
				"storage": [
					{
						"astId": 18,
						"contract": "ListaTrust.sol:ListaTrust",
						"label": "utangList",
						"offset": 0,
						"slot": "0",
						"type": "t_array(t_struct(Utang)14_storage)dyn_storage"
					},
					{
						"astId": 20,
						"contract": "ListaTrust.sol:ListaTrust",
						"label": "owner",
						"offset": 0,
						"slot": "1",
						"type": "t_address"
					},
					{
						"astId": 24,
						"contract": "ListaTrust.sol:ListaTrust",
						"label": "activeUtang",
						"offset": 0,
						"slot": "2",
						"type": "t_mapping(t_uint256,t_bool)"
					}
				],
				"types": {
					"t_address": {
						"encoding": "inplace",
						"label": "address",
						"numberOfBytes": "20"
					},
					"t_array(t_struct(Utang)14_storage)dyn_storage": {
						"base": "t_struct(Utang)14_storage",
						"encoding": "dynamic_array",
						"label": "struct ListaTrust.Utang[]",
						"numberOfBytes": "32"
					},
					"t_bool": {
						"encoding": "inplace",
						"label": "bool",
						"numberOfBytes": "1"
					},
					"t_mapping(t_uint256,t_bool)": {
						"encoding": "mapping",
						"key": "t_uint256",
						"label": "mapping(uint256 => bool)",
						"numberOfBytes": "32",
						"value": "t_bool"
					},
					"t_string_storage": {
						"encoding": "bytes",
						"label": "string",
						"numberOfBytes": "32"
					},
					"t_struct(Utang)14_storage": {
						"encoding": "inplace",
						"label": "struct ListaTrust.Utang",
						"members": [
							{
								"astId": 3,
								"contract": "ListaTrust.sol:ListaTrust",
								"label": "id",
								"offset": 0,
								"slot": "0",
								"type": "t_uint256"
							},
							{
								"astId": 5,
								"contract": "ListaTrust.sol:ListaTrust",
								"label": "customer",
								"offset": 0,
								"slot": "1",
								"type": "t_address"
							},
							{
								"astId": 7,
								"contract": "ListaTrust.sol:ListaTrust",
								"label": "amount",
								"offset": 0,
								"slot": "2",
								"type": "t_uint256"
							},
							{
								"astId": 9,
								"contract": "ListaTrust.sol:ListaTrust",
								"label": "items",
								"offset": 0,
								"slot": "3",
								"type": "t_string_storage"
							},
							{
								"astId": 11,
								"contract": "ListaTrust.sol:ListaTrust",
								"label": "paid",
								"offset": 0,
								"slot": "4",
								"type": "t_bool"
							},
							{
								"astId": 13,
								"contract": "ListaTrust.sol:ListaTrust",
								"label": "timestamp",
								"offset": 0,
								"slot": "5",
								"type": "t_uint256"
							}
						],
						"numberOfBytes": "192"
					},
					"t_uint256": {
						"encoding": "inplace",
						"label": "uint256",
						"numberOfBytes": "32"
					}
				}
			},
			"userdoc": {
				"kind": "user",
				"methods": {},
				"version": 1
			}
		}
	}
}