{
	"data": {
		"bytecode": {
			"linkReferences": {},
			"object": "608060405234801561001057600080fd5b5033600160006101000a81548173ffffffffffffffffffffffffffffffffffffffff021916908373ffffffffffffffffffffffffffffffffffffffff160217905550612b44806100616000396000f3fe608060405234801561001057600080fd5b50600436106100ea5760003560e01c806394182c361161008c578063d390f97411610066578063d390f9741461029d578063e508dfbd146102b9578063e9f51aa8146102d5578063f1f740da146102f1576100ea565b806394182c361461020d578063b5bec42a1461023d578063ba056a9b1461026d576100ea565b80634f355b44116100c85780634f355b44146101875780636733c3a5146101a357806378e94dd2146101bf5780638da5cb5b146101ef576100ea565b806304698b7c146100ef5780632fd1c05e1461011f57806337027aa014610157575b600080fd5b61010960048036038101906101049190611c40565b610329565b6040516101169190612126565b60405180910390f35b61013960048036038101906101349190611c40565b610349565b60405161014e999897969594939291906122dc565b60405180910390f35b610171600480360381019061016c9190611b91565b61047c565b60405161017e9190612104565b60405180910390f35b6101a1600480360381019061019c9190611cad565b610873565b005b6101bd60048036038101906101b89190611bd1565b610a9e565b005b6101d960048036038101906101d49190611c40565b610da3565b6040516101e691906122c1565b60405180910390f35b6101f7610e97565b60405161020491906120e9565b60405180910390f35b61022760048036038101906102229190611c40565b610ebd565b6040516102349190612126565b60405180910390f35b61025760048036038101906102529190611c40565b610edd565b6040516102649190612126565b60405180910390f35b61028760048036038101906102829190611b64565b610f31565b60405161029491906122c1565b60405180910390f35b6102b760048036038101906102b29190611c6d565b6110a8565b005b6102d360048036038101906102ce9190611c40565b6113f1565b005b6102ef60048036038101906102ea9190611c40565b61163a565b005b61030b60048036038101906103069190611c40565b6117f1565b604051610320999897969594939291906123bc565b60405180910390f35b60026020528060005260406000206000915054906101000a900460ff1681565b6000818154811061035957600080fd5b90600052602060002090600902016000915090508060000154908060010160009054906101000a900473ffffffffffffffffffffffffffffffffffffffff16908060020160009054906101000a900473ffffffffffffffffffffffffffffffffffffffff16908060030154908060040154908060050180546103da906126de565b80601f0160208091040260200160405190810160405280929190818152602001828054610406906126de565b80156104535780601f1061042857610100808354040283529160200191610453565b820191906000526020600020905b81548152906001019060200180831161043657829003601f168201915b5050505050908060060160009054906101000a900460ff16908060070154908060080154905089565b60606000805b60008054905081101561055a578473ffffffffffffffffffffffffffffffffffffffff16600082815481106104ba576104b96127e8565b5b906000526020600020906009020160020160009054906101000a900473ffffffffffffffffffffffffffffffffffffffff1673ffffffffffffffffffffffffffffffffffffffff16141561054757838061053257506003600082815260200190815260200160002060009054906101000a900460ff16155b1561054657818061054290612741565b9250505b5b808061055290612741565b915050610482565b5060008167ffffffffffffffff81111561057757610576612817565b5b6040519080825280602002602001820160405280156105b057816020015b61059d611998565b8152602001906001900390816105955790505b5090506000805b600080549050811015610866578673ffffffffffffffffffffffffffffffffffffffff16600082815481106105ef576105ee6127e8565b5b906000526020600020906009020160020160009054906101000a900473ffffffffffffffffffffffffffffffffffffffff1673ffffffffffffffffffffffffffffffffffffffff16141561085357858061066757506003600082815260200190815260200160002060009054906101000a900460ff16155b1561085257600081815481106106805761067f6127e8565b5b906000526020600020906009020160405180610120016040529081600082015481526020016001820160009054906101000a900473ffffffffffffffffffffffffffffffffffffffff1673ffffffffffffffffffffffffffffffffffffffff1673ffffffffffffffffffffffffffffffffffffffff1681526020016002820160009054906101000a900473ffffffffffffffffffffffffffffffffffffffff1673ffffffffffffffffffffffffffffffffffffffff1673ffffffffffffffffffffffffffffffffffffffff1681526020016003820154815260200160048201548152602001600582018054610774906126de565b80601f01602080910402602001604051908101604052809291908181526020018280546107a0906126de565b80156107ed5780601f106107c2576101008083540402835291602001916107ed565b820191906000526020600020905b8154815290600101906020018083116107d057829003601f168201915b505050505081526020016006820160009054906101000a900460ff1615151515815260200160078201548152602001600882015481525050838381518110610838576108376127e8565b5b6020026020010181905250818061084e90612741565b9250505b5b808061085e90612741565b9150506105b7565b5081935050505092915050565b600160009054906101000a900473ffffffffffffffffffffffffffffffffffffffff1673ffffffffffffffffffffffffffffffffffffffff163373ffffffffffffffffffffffffffffffffffffffff1614610903576040517f08c379a00000000000000000000000000000000000000000000000000000000081526004016108fa906121c1565b60405180910390fd5b6002600084815260200190815260200160002060009054906101000a900460ff16610963576040517f08c379a000000000000000000000000000000000000000000000000000000000815260040161095a90612221565b60405180910390fd5b6003600084815260200190815260200160002060009054906101000a900460ff16156109c4576040517f08c379a00000000000000000000000000000000000000000000000000000000081526004016109bb90612241565b60405180910390fd5b60008084815481106109d9576109d86127e8565b5b906000526020600020906009020190508060060160009054906101000a900460ff1615610a3b576040517f08c379a0000000000000000000000000000000000000000000000000000000008152600401610a3290612181565b60405180910390fd5b82816003018190555081816005019080519060200190610a5c929190611a12565b507f5167e8570ba1dc55a1f903db53457dda598e2ad9cf96d55818c9994d0248d795848484604051610a9093929190612487565b60405180910390a150505050565b600160009054906101000a900473ffffffffffffffffffffffffffffffffffffffff1673ffffffffffffffffffffffffffffffffffffffff163373ffffffffffffffffffffffffffffffffffffffff1614610b2e576040517f08c379a0000000000000000000000000000000000000000000000000000000008152600401610b25906121c1565b60405180910390fd5b6000808054905090506002600082815260200190815260200160002060009054906101000a900460ff1615610b98576040517f08c379a0000000000000000000000000000000000000000000000000000000008152600401610b8f90612281565b60405180910390fd5b60006040518061012001604052808381526020013373ffffffffffffffffffffffffffffffffffffffff1681526020018673ffffffffffffffffffffffffffffffffffffffff16815260200185815260200160008152602001848152602001600015158152602001428152602001600081525090806001815401808255809150506001900390600052602060002090600902016000909190919091506000820151816000015560208201518160010160006101000a81548173ffffffffffffffffffffffffffffffffffffffff021916908373ffffffffffffffffffffffffffffffffffffffff16021790555060408201518160020160006101000a81548173ffffffffffffffffffffffffffffffffffffffff021916908373ffffffffffffffffffffffffffffffffffffffff160217905550606082015181600301556080820151816004015560a0820151816005019080519060200190610cfc929190611a12565b5060c08201518160060160006101000a81548160ff02191690831515021790555060e082015181600701556101008201518160080155505060016002600083815260200190815260200160002060006101000a81548160ff0219169083151502179055507f7c4b221fd6616355387cf760b2b82c18795e7e4e90c12d69b49f57938e39e44b81858585604051610d959493929190612370565b60405180910390a150505050565b60006002600083815260200190815260200160002060009054906101000a900460ff16610e05576040517f08c379a0000000000000000000000000000000000000000000000000000000008152600401610dfc90612221565b60405180910390fd5b6003600083815260200190815260200160002060009054906101000a900460ff1615610e345760009050610e92565b6000808381548110610e4957610e486127e8565b5b906000526020600020906009020190508060060160009054906101000a900460ff1615610e7a576000915050610e92565b80600401548160030154610e8e919061260e565b9150505b919050565b600160009054906101000a900473ffffffffffffffffffffffffffffffffffffffff1681565b60036020528060005260406000206000915054906101000a900460ff1681565b60006002600083815260200190815260200160002060009054906101000a900460ff168015610f2a57506003600083815260200190815260200160002060009054906101000a900460ff16155b9050919050565b6000806000905060005b60008054905081101561109e578373ffffffffffffffffffffffffffffffffffffffff1660008281548110610f7357610f726127e8565b5b906000526020600020906009020160020160009054906101000a900473ffffffffffffffffffffffffffffffffffffffff1673ffffffffffffffffffffffffffffffffffffffff16148015610fe657506003600082815260200190815260200160002060009054906101000a900460ff16155b8015611022575060008181548110611001576110006127e8565b5b906000526020600020906009020160060160009054906101000a900460ff16155b1561108b576000818154811061103b5761103a6127e8565b5b90600052602060002090600902016004015460008281548110611061576110606127e8565b5b90600052602060002090600902016003015461107d919061260e565b8261108891906125b8565b91505b808061109690612741565b915050610f3b565b5080915050919050565b6002600083815260200190815260200160002060009054906101000a900460ff16611108576040517f08c379a00000000000000000000000000000000000000000000000000000000081526004016110ff90612221565b60405180910390fd5b6003600083815260200190815260200160002060009054906101000a900460ff1615611169576040517f08c379a0000000000000000000000000000000000000000000000000000000008152600401611160906121e1565b60405180910390fd5b600080838154811061117e5761117d6127e8565b5b906000526020600020906009020190508060020160009054906101000a900473ffffffffffffffffffffffffffffffffffffffff1673ffffffffffffffffffffffffffffffffffffffff163373ffffffffffffffffffffffffffffffffffffffff1614806112395750600160009054906101000a900473ffffffffffffffffffffffffffffffffffffffff1673ffffffffffffffffffffffffffffffffffffffff163373ffffffffffffffffffffffffffffffffffffffff16145b611278576040517f08c379a000000000000000000000000000000000000000000000000000000000815260040161126f90612261565b60405180910390fd5b8060060160009054906101000a900460ff16156112ca576040517f08c379a00000000000000000000000000000000000000000000000000000000081526004016112c1906122a1565b60405180910390fd5b6000821161130d576040517f08c379a000000000000000000000000000000000000000000000000000000000815260040161130490612141565b60405180910390fd5b61131683610da3565b821115611358576040517f08c379a000000000000000000000000000000000000000000000000000000000815260040161134f906121a1565b60405180910390fd5b8181600401600082825461136c91906125b8565b9250508190555042816008018190555080600301548160040154106113a95760018160060160006101000a81548160ff0219169083151502179055505b7f40fb2ea394fb15ed13a9ebe6207cd79da5f67601325e65b4b5af26a6bffa0d7783836113d586610da3565b6040516113e4939291906124c5565b60405180910390a1505050565b600160009054906101000a900473ffffffffffffffffffffffffffffffffffffffff1673ffffffffffffffffffffffffffffffffffffffff163373ffffffffffffffffffffffffffffffffffffffff1614611481576040517f08c379a0000000000000000000000000000000000000000000000000000000008152600401611478906121c1565b60405180910390fd5b6002600082815260200190815260200160002060009054906101000a900460ff166114e1576040517f08c379a00000000000000000000000000000000000000000000000000000000081526004016114d890612221565b60405180910390fd5b6003600082815260200190815260200160002060009054906101000a900460ff1615611542576040517f08c379a0000000000000000000000000000000000000000000000000000000008152600401611539906121e1565b60405180910390fd5b6000808281548110611557576115566127e8565b5b906000526020600020906009020190508060060160009054906101000a900460ff16156115b9576040517f08c379a00000000000000000000000000000000000000000000000000000000081526004016115b090612201565b60405180910390fd5b60006115c483610da3565b90508160030154826004018190555060018260060160006101000a81548160ff0219169083151502179055504282600801819055507f40fb2ea394fb15ed13a9ebe6207cd79da5f67601325e65b4b5af26a6bffa0d778382600060405161162d93929190612450565b60405180910390a1505050565b600160009054906101000a900473ffffffffffffffffffffffffffffffffffffffff1673ffffffffffffffffffffffffffffffffffffffff163373ffffffffffffffffffffffffffffffffffffffff16146116ca576040517f08c379a00000000000000000000000000000000000000000000000000000000081526004016116c1906121c1565b60405180910390fd5b6002600082815260200190815260200160002060009054906101000a900460ff1661172a576040517f08c379a000000000000000000000000000000000000000000000000000000000815260040161172190612221565b60405180910390fd5b6003600082815260200190815260200160002060009054906101000a900460ff161561178b576040517f08c379a000000000000000000000000000000000000000000000000000000000815260040161178290612161565b60405180910390fd5b60016003600083815260200190815260200160002060006101000a81548160ff0219169083151502179055507f4856b4b72ad15e464af7b2af76c01835371cd13cc0a1d312a7b3a407410b988f816040516117e691906122c1565b60405180910390a150565b6000806000806000806060600080600260008b815260200190815260200160002060009054906101000a900460ff1661185f576040517f08c379a000000000000000000000000000000000000000000000000000000000815260040161185690612221565b60405180910390fd5b6000808b81548110611874576118736127e8565b5b9060005260206000209060090201905080600001548160020160009054906101000a900473ffffffffffffffffffffffffffffffffffffffff1682600301548360040154846004015485600301546118cc919061260e565b8560060160009054906101000a900460ff1686600501876007015488600801548280546118f8906126de565b80601f0160208091040260200160405190810160405280929190818152602001828054611924906126de565b80156119715780601f1061194657610100808354040283529160200191611971565b820191906000526020600020905b81548152906001019060200180831161195457829003601f168201915b50505050509250995099509950995099509950995099509950509193959799909294969850565b60405180610120016040528060008152602001600073ffffffffffffffffffffffffffffffffffffffff168152602001600073ffffffffffffffffffffffffffffffffffffffff16815260200160008152602001600081526020016060815260200160001515815260200160008152602001600081525090565b828054611a1e906126de565b90600052602060002090601f016020900481019282611a405760008555611a87565b82601f10611a5957805160ff1916838001178555611a87565b82800160010185558215611a87579182015b82811115611a86578251825591602001919060010190611a6b565b5b509050611a949190611a98565b5090565b5b80821115611ab1576000816000905550600101611a99565b5090565b6000611ac8611ac384612521565b6124fc565b905082815260208101848484011115611ae457611ae361284b565b5b611aef84828561269c565b509392505050565b600081359050611b0681612ac9565b92915050565b600081359050611b1b81612ae0565b92915050565b600082601f830112611b3657611b35612846565b5b8135611b46848260208601611ab5565b91505092915050565b600081359050611b5e81612af7565b92915050565b600060208284031215611b7a57611b79612855565b5b6000611b8884828501611af7565b91505092915050565b60008060408385031215611ba857611ba7612855565b5b6000611bb685828601611af7565b9250506020611bc785828601611b0c565b9150509250929050565b600080600060608486031215611bea57611be9612855565b5b6000611bf886828701611af7565b9350506020611c0986828701611b4f565b925050604084013567ffffffffffffffff811115611c2a57611c29612850565b5b611c3686828701611b21565b9150509250925092565b600060208284031215611c5657611c55612855565b5b6000611c6484828501611b4f565b91505092915050565b60008060408385031215611c8457611c83612855565b5b6000611c9285828601611b4f565b9250506020611ca385828601611b4f565b9150509250929050565b600080600060608486031215611cc657611cc5612855565b5b6000611cd486828701611b4f565b9350506020611ce586828701611b4f565b925050604084013567ffffffffffffffff811115611d0657611d05612850565b5b611d1286828701611b21565b9150509250925092565b6000611d288383612006565b905092915050565b611d3981612642565b82525050565b611d4881612642565b82525050565b6000611d5982612562565b611d638185612585565b935083602082028501611d7585612552565b8060005b85811015611db15784840389528151611d928582611d1c565b9450611d9d83612578565b925060208a01995050600181019050611d79565b50829750879550505050505092915050565b611dcc81612654565b82525050565b611ddb81612654565b82525050565b611dea8161268a565b82525050565b6000611dfb8261256d565b611e058185612596565b9350611e158185602086016126ab565b611e1e8161285a565b840191505092915050565b6000611e348261256d565b611e3e81856125a7565b9350611e4e8185602086016126ab565b611e578161285a565b840191505092915050565b6000611e6f601e836125a7565b9150611e7a8261286b565b602082019050919050565b6000611e92600f836125a7565b9150611e9d82612894565b602082019050919050565b6000611eb5601c836125a7565b9150611ec0826128bd565b602082019050919050565b6000611ed86021836125a7565b9150611ee3826128e6565b604082019050919050565b6000611efb6028836125a7565b9150611f0682612935565b604082019050919050565b6000611f1e6016836125a7565b9150611f2982612984565b602082019050919050565b6000611f416012836125a7565b9150611f4c826129ad565b602082019050919050565b6000611f646014836125a7565b9150611f6f826129d6565b602082019050919050565b6000611f876019836125a7565b9150611f92826129ff565b602082019050919050565b6000611faa6024836125a7565b9150611fb582612a28565b604082019050919050565b6000611fcd6011836125a7565b9150611fd882612a77565b602082019050919050565b6000611ff06018836125a7565b9150611ffb82612aa0565b602082019050919050565b60006101208301600083015161201f60008601826120cb565b5060208301516120326020860182611d30565b5060408301516120456040860182611d30565b50606083015161205860608601826120cb565b50608083015161206b60808601826120cb565b5060a083015184820360a08601526120838282611df0565b91505060c083015161209860c0860182611dc3565b5060e08301516120ab60e08601826120cb565b506101008301516120c06101008601826120cb565b508091505092915050565b6120d481612680565b82525050565b6120e381612680565b82525050565b60006020820190506120fe6000830184611d3f565b92915050565b6000602082019050818103600083015261211e8184611d4e565b905092915050565b600060208201905061213b6000830184611dd2565b92915050565b6000602082019050818103600083015261215a81611e62565b9050919050565b6000602082019050818103600083015261217a81611e85565b9050919050565b6000602082019050818103600083015261219a81611ea8565b9050919050565b600060208201905081810360008301526121ba81611ecb565b9050919050565b600060208201905081810360008301526121da81611eee565b9050919050565b600060208201905081810360008301526121fa81611f11565b9050919050565b6000602082019050818103600083015261221a81611f34565b9050919050565b6000602082019050818103600083015261223a81611f57565b9050919050565b6000602082019050818103600083015261225a81611f7a565b9050919050565b6000602082019050818103600083015261227a81611f9d565b9050919050565b6000602082019050818103600083015261229a81611fc0565b9050919050565b600060208201905081810360008301526122ba81611fe3565b9050919050565b60006020820190506122d660008301846120da565b92915050565b6000610120820190506122f2600083018c6120da565b6122ff602083018b611d3f565b61230c604083018a611d3f565b61231960608301896120da565b61232660808301886120da565b81810360a08301526123388187611e29565b905061234760c0830186611dd2565b61235460e08301856120da565b6123626101008301846120da565b9a9950505050505050505050565b600060808201905061238560008301876120da565b6123926020830186611d3f565b61239f60408301856120da565b81810360608301526123b18184611e29565b905095945050505050565b6000610120820190506123d2600083018c6120da565b6123df602083018b611d3f565b6123ec604083018a6120da565b6123f960608301896120da565b61240660808301886120da565b61241360a0830187611dd2565b81810360c08301526124258186611e29565b905061243460e08301856120da565b6124426101008301846120da565b9a9950505050505050505050565b600060608201905061246560008301866120da565b61247260208301856120da565b61247f6040830184611de1565b949350505050565b600060608201905061249c60008301866120da565b6124a960208301856120da565b81810360408301526124bb8184611e29565b9050949350505050565b60006060820190506124da60008301866120da565b6124e760208301856120da565b6124f460408301846120da565b949350505050565b6000612506612517565b90506125128282612710565b919050565b6000604051905090565b600067ffffffffffffffff82111561253c5761253b612817565b5b6125458261285a565b9050602081019050919050565b6000819050602082019050919050565b600081519050919050565b600081519050919050565b6000602082019050919050565b600082825260208201905092915050565b600082825260208201905092915050565b600082825260208201905092915050565b60006125c382612680565b91506125ce83612680565b9250827fffffffffffffffffffffffffffffffffffffffffffffffffffffffffffffffff038211156126035761260261278a565b5b828201905092915050565b600061261982612680565b915061262483612680565b9250828210156126375761263661278a565b5b828203905092915050565b600061264d82612660565b9050919050565b60008115159050919050565b600073ffffffffffffffffffffffffffffffffffffffff82169050919050565b6000819050919050565b600061269582612680565b9050919050565b82818337600083830152505050565b60005b838110156126c95780820151818401526020810190506126ae565b838111156126d8576000848401525b50505050565b600060028204905060018216806126f657607f821691505b6020821081141561270a576127096127b9565b5b50919050565b6127198261285a565b810181811067ffffffffffffffff8211171561273857612737612817565b5b80604052505050565b600061274c82612680565b91507fffffffffffffffffffffffffffffffffffffffffffffffffffffffffffffffff82141561277f5761277e61278a565b5b600182019050919050565b7f4e487b7100000000000000000000000000000000000000000000000000000000600052601160045260246000fd5b7f4e487b7100000000000000000000000000000000000000000000000000000000600052602260045260246000fd5b7f4e487b7100000000000000000000000000000000000000000000000000000000600052603260045260246000fd5b7f4e487b7100000000000000000000000000000000000000000000000000000000600052604160045260246000fd5b600080fd5b600080fd5b600080fd5b600080fd5b6000601f19601f8301169050919050565b7f5061796d656e74206d7573742062652067726561746572207468616e20300000600082015250565b7f416c72656164792064656c657465640000000000000000000000000000000000600082015250565b7f43616e6e6f7420656469742066756c6c792070616964207574616e6700000000600082015250565b7f5061796d656e7420657863656564732072656d61696e696e672062616c616e6360008201527f6500000000000000000000000000000000000000000000000000000000000000602082015250565b7f4f6e6c792073746f7265206f776e65722063616e20706572666f726d2074686960008201527f7320616374696f6e000000000000000000000000000000000000000000000000602082015250565b7f5574616e6720686173206265656e2064656c6574656400000000000000000000600082015250565b7f416c72656164792066756c6c7920706169640000000000000000000000000000600082015250565b7f5574616e6720646f6573206e6f74206578697374000000000000000000000000600082015250565b7f43616e6e6f7420656469742064656c65746564207574616e6700000000000000600082015250565b7f4f6e6c7920637573746f6d6572206f722073746f7265206f776e65722063616e60008201527f2070617900000000000000000000000000000000000000000000000000000000602082015250565b7f494420616c726561647920696e20757365000000000000000000000000000000600082015250565b7f5574616e6720616c72656164792066756c6c7920706169640000000000000000600082015250565b612ad281612642565b8114612add57600080fd5b50565b612ae981612654565b8114612af457600080fd5b50565b612b0081612680565b8114612b0b57600080fd5b5056fea2646970667358221220e5926edb50acae6ae5e9e28c7e736563ce1b3fad4ac7641809e586a5bedd06eb64736f6c63430008070033",
			"opcodes": "PUSH1 0x80 PUSH1 0x40 MSTORE CALLVALUE DUP1 ISZERO PUSH2 0x10 JUMPI PUSH1 0x0 DUP1 REVERT JUMPDEST POP CALLER PUSH1 0x1 PUSH1 0x0 PUSH2 0x100 EXP DUP2 SLOAD DUP2 PUSH20 0xFFFFFFFFFFFFFFFFFFFFFFFFFFFFFFFFFFFFFFFF MUL NOT AND SWAP1 DUP4 PUSH20 0xFFFFFFFFFFFFFFFFFFFFFFFFFFFFFFFFFFFFFFFF AND MUL OR SWAP1 SSTORE POP PUSH2 0x2B44 DUP1 PUSH2 0x61 PUSH1 0x0 CODECOPY PUSH1 0x0 RETURN INVALID PUSH1 0x80 PUSH1 0x40 MSTORE CALLVALUE DUP1 ISZERO PUSH2 0x10 JUMPI PUSH1 0x0 DUP1 REVERT JUMPDEST POP PUSH1 0x4 CALLDATASIZE LT PUSH2 0xEA JUMPI PUSH1 0x0 CALLDATALOAD PUSH1 0xE0 SHR DUP1 PUSH4 0x94182C36 GT PUSH2 0x8C JUMPI DUP1 PUSH4 0xD390F974 GT PUSH2 0x66 JUMPI DUP1 PUSH4 0xD390F974 EQ PUSH2 0x29D JUMPI DUP1 PUSH4 0xE508DFBD EQ PUSH2 0x2B9 JUMPI DUP1 PUSH4 0xE9F51AA8 EQ PUSH2 0x2D5 JUMPI DUP1 PUSH4 0xF1F740DA EQ PUSH2 0x2F1 JUMPI PUSH2 0xEA JUMP JUMPDEST DUP1 PUSH4 0x94182C36 EQ PUSH2 0x20D JUMPI DUP1 PUSH4 0xB5BEC42A EQ PUSH2 0x23D JUMPI DUP1 PUSH4 0xBA056A9B EQ PUSH2 0x26D JUMPI PUSH2 0xEA JUMP JUMPDEST DUP1 PUSH4 0x4F355B44 GT PUSH2 0xC8 JUMPI DUP1 PUSH4 0x4F355B44 EQ PUSH2 0x187 JUMPI DUP1 PUSH4 0x6733C3A5 EQ PUSH2 0x1A3 JUMPI DUP1 PUSH4 0x78E94DD2 EQ PUSH2 0x1BF JUMPI DUP1 PUSH4 0x8DA5CB5B EQ PUSH2 0x1EF JUMPI PUSH2 0xEA JUMP JUMPDEST DUP1 PUSH4 0x4698B7C EQ PUSH2 0xEF JUMPI DUP1 PUSH4 0x2FD1C05E EQ PUSH2 0x11F JUMPI DUP1 PUSH4 0x37027AA0 EQ PUSH2 0x157 JUMPI JUMPDEST PUSH1 0x0 DUP1 REVERT JUMPDEST PUSH2 0x109 PUSH1 0x4 DUP1 CALLDATASIZE SUB DUP2 ADD SWAP1 PUSH2 0x104 SWAP2 SWAP1 PUSH2 0x1C40 JUMP JUMPDEST PUSH2 0x329 JUMP JUMPDEST PUSH1 0x40 MLOAD PUSH2 0x116 SWAP2 SWAP1 PUSH2 0x2126 JUMP JUMPDEST PUSH1 0x40 MLOAD DUP1 SWAP2 SUB SWAP1 RETURN JUMPDEST PUSH2 0x139 PUSH1 0x4 DUP1 CALLDATASIZE SUB DUP2 ADD SWAP1 PUSH2 0x134 SWAP2 SWAP1 PUSH2 0x1C40 JUMP JUMPDEST PUSH2 0x349 JUMP JUMPDEST PUSH1 0x40 MLOAD PUSH2 0x14E SWAP10 SWAP9 SWAP8 SWAP7 SWAP6 SWAP5 SWAP4 SWAP3 SWAP2 SWAP1 PUSH2 0x22DC JUMP JUMPDEST PUSH1 0x40 MLOAD DUP1 SWAP2 SUB SWAP1 RETURN JUMPDEST PUSH2 0x171 PUSH1 0x4 DUP1 CALLDATASIZE SUB DUP2 ADD SWAP1 PUSH2 0x16C SWAP2 SWAP1 PUSH2 0x1B91 JUMP JUMPDEST PUSH2 0x47C JUMP JUMPDEST PUSH1 0x40 MLOAD PUSH2 0x17E SWAP2 SWAP1 PUSH2 0x2104 JUMP JUMPDEST PUSH1 0x40 MLOAD DUP1 SWAP2 SUB SWAP1 RETURN JUMPDEST PUSH2 0x1A1 PUSH1 0x4 DUP1 CALLDATASIZE SUB DUP2 ADD SWAP1 PUSH2 0x19C SWAP2 SWAP1 PUSH2 0x1CAD JUMP JUMPDEST PUSH2 0x873 JUMP JUMPDEST STOP JUMPDEST PUSH2 0x1BD PUSH1 0x4 DUP1 CALLDATASIZE SUB DUP2 ADD SWAP1 PUSH2 0x1B8 SWAP2 SWAP1 PUSH2 0x1BD1 JUMP JUMPDEST PUSH2 0xA9E JUMP JUMPDEST STOP JUMPDEST PUSH2 0x1D9 PUSH1 0x4 DUP1 CALLDATASIZE SUB DUP2 ADD SWAP1 PUSH2 0x1D4 SWAP2 SWAP1 PUSH2 0x1C40 JUMP JUMPDEST PUSH2 0xDA3 JUMP JUMPDEST PUSH1 0x40 MLOAD PUSH2 0x1E6 SWAP2 SWAP1 PUSH2 0x22C1 JUMP JUMPDEST PUSH1 0x40 MLOAD DUP1 SWAP2 SUB SWAP1 RETURN JUMPDEST PUSH2 0x1F7 PUSH2 0xE97 JUMP JUMPDEST PUSH1 0x40 MLOAD PUSH2 0x204 SWAP2 SWAP1 PUSH2 0x20E9 JUMP JUMPDEST PUSH1 0x40 MLOAD DUP1 SWAP2 SUB SWAP1 RETURN JUMPDEST PUSH2 0x227 PUSH1 0x4 DUP1 CALLDATASIZE SUB DUP2 ADD SWAP1 PUSH2 0x222 SWAP2 SWAP1 PUSH2 0x1C40 JUMP JUMPDEST PUSH2 0xEBD JUMP JUMPDEST PUSH1 0x40 MLOAD PUSH2 0x234 SWAP2 SWAP1 PUSH2 0x2126 JUMP JUMPDEST PUSH1 0x40 MLOAD DUP1 SWAP2 SUB SWAP1 RETURN JUMPDEST PUSH2 0x257 PUSH1 0x4 DUP1 CALLDATASIZE SUB DUP2 ADD SWAP1 PUSH2 0x252 SWAP2 SWAP1 PUSH2 0x1C40 JUMP JUMPDEST PUSH2 0xEDD JUMP JUMPDEST PUSH1 0x40 MLOAD PUSH2 0x264 SWAP2 SWAP1 PUSH2 0x2126 JUMP JUMPDEST PUSH1 0x40 MLOAD DUP1 SWAP2 SUB SWAP1 RETURN JUMPDEST PUSH2 0x287 PUSH1 0x4 DUP1 CALLDATASIZE SUB DUP2 ADD SWAP1 PUSH2 0x282 SWAP2 SWAP1 PUSH2 0x1B64 JUMP JUMPDEST PUSH2 0xF31 JUMP JUMPDEST PUSH1 0x40 MLOAD PUSH2 0x294 SWAP2 SWAP1 PUSH2 0x22C1 JUMP JUMPDEST PUSH1 0x40 MLOAD DUP1 SWAP2 SUB SWAP1 RETURN JUMPDEST PUSH2 0x2B7 PUSH1 0x4 DUP1 CALLDATASIZE SUB DUP2 ADD SWAP1 PUSH2 0x2B2 SWAP2 SWAP1 PUSH2 0x1C6D JUMP JUMPDEST PUSH2 0x10A8 JUMP JUMPDEST STOP JUMPDEST PUSH2 0x2D3 PUSH1 0x4 DUP1 CALLDATASIZE SUB DUP2 ADD SWAP1 PUSH2 0x2CE SWAP2 SWAP1 PUSH2 0x1C40 JUMP JUMPDEST PUSH2 0x13F1 JUMP JUMPDEST STOP JUMPDEST PUSH2 0x2EF PUSH1 0x4 DUP1 CALLDATASIZE SUB DUP2 ADD SWAP1 PUSH2 0x2EA SWAP2 SWAP1 PUSH2 0x1C40 JUMP JUMPDEST PUSH2 0x163A JUMP JUMPDEST STOP JUMPDEST PUSH2 0x30B PUSH1 0x4 DUP1 CALLDATASIZE SUB DUP2 ADD SWAP1 PUSH2 0x306 SWAP2 SWAP1 PUSH2 0x1C40 JUMP JUMPDEST PUSH2 0x17F1 JUMP JUMPDEST PUSH1 0x40 MLOAD PUSH2 0x320 SWAP10 SWAP9 SWAP8 SWAP7 SWAP6 SWAP5 SWAP4 SWAP3 SWAP2 SWAP1 PUSH2 0x23BC JUMP JUMPDEST PUSH1 0x40 MLOAD DUP1 SWAP2 SUB SWAP1 RETURN JUMPDEST PUSH1 0x2 PUSH1 0x20 MSTORE DUP1 PUSH1 0x0 MSTORE PUSH1 0x40 PUSH1 0x0 KECCAK256 PUSH1 0x0 SWAP2 POP SLOAD SWAP1 PUSH2 0x100 EXP SWAP1 DIV PUSH1 0xFF AND DUP2 JUMP JUMPDEST PUSH1 0x0 DUP2 DUP2 SLOAD DUP2 LT PUSH2 0x359 JUMPI PUSH1 0x0 DUP1 REVERT JUMPDEST SWAP1 PUSH1 0x0 MSTORE PUSH1 0x20 PUSH1 0x0 KECCAK256 SWAP1 PUSH1 0x9 MUL ADD PUSH1 0x0 SWAP2 POP SWAP1 POP DUP1 PUSH1 0x0 ADD SLOAD SWAP1 DUP1 PUSH1 0x1 ADD PUSH1 0x0 SWAP1 SLOAD SWAP1 PUSH2 0x100 EXP SWAP1 DIV PUSH20 0xFFFFFFFFFFFFFFFFFFFFFFFFFFFFFFFFFFFFFFFF AND SWAP1 DUP1 PUSH1 0x2 ADD PUSH1 0x0 SWAP1 SLOAD SWAP1 PUSH2 0x100 EXP SWAP1 DIV PUSH20 0xFFFFFFFFFFFFFFFFFFFFFFFFFFFFFFFFFFFFFFFF AND SWAP1 DUP1 PUSH1 0x3 ADD SLOAD SWAP1 DUP1 PUSH1 0x4 ADD SLOAD SWAP1 DUP1 PUSH1 0x5 ADD DUP1 SLOAD PUSH2 0x3DA SWAP1 PUSH2 0x26DE JUMP JUMPDEST DUP1 PUSH1 0x1F ADD PUSH1 0x20 DUP1 SWAP2 DIV MUL PUSH1 0x20 ADD PUSH1 0x40 MLOAD SWAP1 DUP2 ADD PUSH1 0x40 MSTORE DUP1 SWAP3 SWAP2 SWAP1 DUP2 DUP2 MSTORE PUSH1 0x20 ADD DUP3 DUP1 SLOAD PUSH2 0x406 SWAP1 PUSH2 0x26DE JUMP JUMPDEST DUP1 ISZERO PUSH2 0x453 JUMPI DUP1 PUSH1 0x1F LT PUSH2 0x428 JUMPI PUSH2 0x100 DUP1 DUP4 SLOAD DIV MUL DUP4 MSTORE SWAP2 PUSH1 0x20 ADD SWAP2 PUSH2 0x453 JUMP JUMPDEST DUP3 ADD SWAP2 SWAP1 PUSH1 0x0 MSTORE PUSH1 0x20 PUSH1 0x0 KECCAK256 SWAP1 JUMPDEST DUP2 SLOAD DUP2 MSTORE SWAP1 PUSH1 0x1 ADD SWAP1 PUSH1 0x20 ADD DUP1 DUP4 GT PUSH2 0x436 JUMPI DUP3 SWAP1 SUB PUSH1 0x1F AND DUP3 ADD SWAP2 JUMPDEST POP POP POP POP POP SWAP1 DUP1 PUSH1 0x6 ADD PUSH1 0x0 SWAP1 SLOAD SWAP1 PUSH2 0x100 EXP SWAP1 DIV PUSH1 0xFF AND SWAP1 DUP1 PUSH1 0x7 ADD SLOAD SWAP1 DUP1 PUSH1 0x8 ADD SLOAD SWAP1 POP DUP10 JUMP JUMPDEST PUSH1 0x60 PUSH1 0x0 DUP1 JUMPDEST PUSH1 0x0 DUP1 SLOAD SWAP1 POP DUP2 LT ISZERO PUSH2 0x55A JUMPI DUP5 PUSH20 0xFFFFFFFFFFFFFFFFFFFFFFFFFFFFFFFFFFFFFFFF AND PUSH1 0x0 DUP3 DUP2 SLOAD DUP2 LT PUSH2 0x4BA JUMPI PUSH2 0x4B9 PUSH2 0x27E8 JUMP JUMPDEST JUMPDEST SWAP1 PUSH1 0x0 MSTORE PUSH1 0x20 PUSH1 0x0 KECCAK256 SWAP1 PUSH1 0x9 MUL ADD PUSH1 0x2 ADD PUSH1 0x0 SWAP1 SLOAD SWAP1 PUSH2 0x100 EXP SWAP1 DIV PUSH20 0xFFFFFFFFFFFFFFFFFFFFFFFFFFFFFFFFFFFFFFFF AND PUSH20 0xFFFFFFFFFFFFFFFFFFFFFFFFFFFFFFFFFFFFFFFF AND EQ ISZERO PUSH2 0x547 JUMPI DUP4 DUP1 PUSH2 0x532 JUMPI POP PUSH1 0x3 PUSH1 0x0 DUP3 DUP2 MSTORE PUSH1 0x20 ADD SWAP1 DUP2 MSTORE PUSH1 0x20 ADD PUSH1 0x0 KECCAK256 PUSH1 0x0 SWAP1 SLOAD SWAP1 PUSH2 0x100 EXP SWAP1 DIV PUSH1 0xFF AND ISZERO JUMPDEST ISZERO PUSH2 0x546 JUMPI DUP2 DUP1 PUSH2 0x542 SWAP1 PUSH2 0x2741 JUMP JUMPDEST SWAP3 POP POP JUMPDEST JUMPDEST DUP1 DUP1 PUSH2 0x552 SWAP1 PUSH2 0x2741 JUMP JUMPDEST SWAP2 POP POP PUSH2 0x482 JUMP JUMPDEST POP PUSH1 0x0 DUP2 PUSH8 0xFFFFFFFFFFFFFFFF DUP2 GT ISZERO PUSH2 0x577 JUMPI PUSH2 0x576 PUSH2 0x2817 JUMP JUMPDEST JUMPDEST PUSH1 0x40 MLOAD SWAP1 DUP1 DUP3 MSTORE DUP1 PUSH1 0x20 MUL PUSH1 0x20 ADD DUP3 ADD PUSH1 0x40 MSTORE DUP1 ISZERO PUSH2 0x5B0 JUMPI DUP2 PUSH1 0x20 ADD JUMPDEST PUSH2 0x59D PUSH2 0x1998 JUMP JUMPDEST DUP2 MSTORE PUSH1 0x20 ADD SWAP1 PUSH1 0x1 SWAP1 SUB SWAP1 DUP2 PUSH2 0x595 JUMPI SWAP1 POP JUMPDEST POP SWAP1 POP PUSH1 0x0 DUP1 JUMPDEST PUSH1 0x0 DUP1 SLOAD SWAP1 POP DUP2 LT ISZERO PUSH2 0x866 JUMPI DUP7 PUSH20 0xFFFFFFFFFFFFFFFFFFFFFFFFFFFFFFFFFFFFFFFF AND PUSH1 0x0 DUP3 DUP2 SLOAD DUP2 LT PUSH2 0x5EF JUMPI PUSH2 0x5EE PUSH2 0x27E8 JUMP JUMPDEST JUMPDEST SWAP1 PUSH1 0x0 MSTORE PUSH1 0x20 PUSH1 0x0 KECCAK256 SWAP1 PUSH1 0x9 MUL ADD PUSH1 0x2 ADD PUSH1 0x0 SWAP1 SLOAD SWAP1 PUSH2 0x100 EXP SWAP1 DIV PUSH20 0xFFFFFFFFFFFFFFFFFFFFFFFFFFFFFFFFFFFFFFFF AND PUSH20 0xFFFFFFFFFFFFFFFFFFFFFFFFFFFFFFFFFFFFFFFF AND EQ ISZERO PUSH2 0x853 JUMPI DUP6 DUP1 PUSH2 0x667 JUMPI POP PUSH1 0x3 PUSH1 0x0 DUP3 DUP2 MSTORE PUSH1 0x20 ADD SWAP1 DUP2 MSTORE PUSH1 0x20 ADD PUSH1 0x0 KECCAK256 PUSH1 0x0 SWAP1 SLOAD SWAP1 PUSH2 0x100 EXP SWAP1 DIV PUSH1 0xFF AND ISZERO JUMPDEST ISZERO PUSH2 0x852 JUMPI PUSH1 0x0 DUP2 DUP2 SLOAD DUP2 LT PUSH2 0x680 JUMPI PUSH2 0x67F PUSH2 0x27E8 JUMP JUMPDEST JUMPDEST SWAP1 PUSH1 0x0 MSTORE PUSH1 0x20 PUSH1 0x0 KECCAK256 SWAP1 PUSH1 0x9 MUL ADD PUSH1 0x40 MLOAD DUP1 PUSH2 0x120 ADD PUSH1 0x40 MSTORE SWAP1 DUP2 PUSH1 0x0 DUP3 ADD SLOAD DUP2 MSTORE PUSH1 0x20 ADD PUSH1 0x1 DUP3 ADD PUSH1 0x0 SWAP1 SLOAD SWAP1 PUSH2 0x100 EXP SWAP1 DIV PUSH20 0xFFFFFFFFFFFFFFFFFFFFFFFFFFFFFFFFFFFFFFFF AND PUSH20 0xFFFFFFFFFFFFFFFFFFFFFFFFFFFFFFFFFFFFFFFF AND PUSH20 0xFFFFFFFFFFFFFFFFFFFFFFFFFFFFFFFFFFFFFFFF AND DUP2 MSTORE PUSH1 0x20 ADD PUSH1 0x2 DUP3 ADD PUSH1 0x0 SWAP1 SLOAD SWAP1 PUSH2 0x100 EXP SWAP1 DIV PUSH20 0xFFFFFFFFFFFFFFFFFFFFFFFFFFFFFFFFFFFFFFFF AND PUSH20 0xFFFFFFFFFFFFFFFFFFFFFFFFFFFFFFFFFFFFFFFF AND PUSH20 0xFFFFFFFFFFFFFFFFFFFFFFFFFFFFFFFFFFFFFFFF AND DUP2 MSTORE PUSH1 0x20 ADD PUSH1 0x3 DUP3 ADD SLOAD DUP2 MSTORE PUSH1 0x20 ADD PUSH1 0x4 DUP3 ADD SLOAD DUP2 MSTORE PUSH1 0x20 ADD PUSH1 0x5 DUP3 ADD DUP1 SLOAD PUSH2 0x774 SWAP1 PUSH2 0x26DE JUMP JUMPDEST DUP1 PUSH1 0x1F ADD PUSH1 0x20 DUP1 SWAP2 DIV MUL PUSH1 0x20 ADD PUSH1 0x40 MLOAD SWAP1 DUP2 ADD PUSH1 0x40 MSTORE DUP1 SWAP3 SWAP2 SWAP1 DUP2 DUP2 MSTORE PUSH1 0x20 ADD DUP3 DUP1 SLOAD PUSH2 0x7A0 SWAP1 PUSH2 0x26DE JUMP JUMPDEST DUP1 ISZERO PUSH2 0x7ED JUMPI DUP1 PUSH1 0x1F LT PUSH2 0x7C2 JUMPI PUSH2 0x100 DUP1 DUP4 SLOAD DIV MUL DUP4 MSTORE SWAP2 PUSH1 0x20 ADD SWAP2 PUSH2 0x7ED JUMP JUMPDEST DUP3 ADD SWAP2 SWAP1 PUSH1 0x0 MSTORE PUSH1 0x20 PUSH1 0x0 KECCAK256 SWAP1 JUMPDEST DUP2 SLOAD DUP2 MSTORE SWAP1 PUSH1 0x1 ADD SWAP1 PUSH1 0x20 ADD DUP1 DUP4 GT PUSH2 0x7D0 JUMPI DUP3 SWAP1 SUB PUSH1 0x1F AND DUP3 ADD SWAP2 JUMPDEST POP POP POP POP POP DUP2 MSTORE PUSH1 0x20 ADD PUSH1 0x6 DUP3 ADD PUSH1 0x0 SWAP1 SLOAD SWAP1 PUSH2 0x100 EXP SWAP1 DIV PUSH1 0xFF AND ISZERO ISZERO ISZERO ISZERO DUP2 MSTORE PUSH1 0x20 ADD PUSH1 0x7 DUP3 ADD SLOAD DUP2 MSTORE PUSH1 0x20 ADD PUSH1 0x8 DUP3 ADD SLOAD DUP2 MSTORE POP POP DUP4 DUP4 DUP2 MLOAD DUP2 LT PUSH2 0x838 JUMPI PUSH2 0x837 PUSH2 0x27E8 JUMP JUMPDEST JUMPDEST PUSH1 0x20 MUL PUSH1 0x20 ADD ADD DUP2 SWAP1 MSTORE POP DUP2 DUP1 PUSH2 0x84E SWAP1 PUSH2 0x2741 JUMP JUMPDEST SWAP3 POP POP JUMPDEST JUMPDEST DUP1 DUP1 PUSH2 0x85E SWAP1 PUSH2 0x2741 JUMP JUMPDEST SWAP2 POP POP PUSH2 0x5B7 JUMP JUMPDEST POP DUP2 SWAP4 POP POP POP POP SWAP3 SWAP2 POP POP JUMP JUMPDEST PUSH1 0x1 PUSH1 0x0 SWAP1 SLOAD SWAP1 PUSH2 0x100 EXP SWAP1 DIV PUSH20 0xFFFFFFFFFFFFFFFFFFFFFFFFFFFFFFFFFFFFFFFF AND PUSH20 0xFFFFFFFFFFFFFFFFFFFFFFFFFFFFFFFFFFFFFFFF AND CALLER PUSH20 0xFFFFFFFFFFFFFFFFFFFFFFFFFFFFFFFFFFFFFFFF AND EQ PUSH2 0x903 JUMPI PUSH1 0x40 MLOAD PUSH32 0x8C379A000000000000000000000000000000000000000000000000000000000 DUP2 MSTORE PUSH1 0x4 ADD PUSH2 0x8FA SWAP1 PUSH2 0x21C1 JUMP JUMPDEST PUSH1 0x40 MLOAD DUP1 SWAP2 SUB SWAP1 REVERT JUMPDEST PUSH1 0x2 PUSH1 0x0 DUP5 DUP2 MSTORE PUSH1 0x20 ADD SWAP1 DUP2 MSTORE PUSH1 0x20 ADD PUSH1 0x0 KECCAK256 PUSH1 0x0 SWAP1 SLOAD SWAP1 PUSH2 0x100 EXP SWAP1 DIV PUSH1 0xFF AND PUSH2 0x963 JUMPI PUSH1 0x40 MLOAD PUSH32 0x8C379A000000000000000000000000000000000000000000000000000000000 DUP2 MSTORE PUSH1 0x4 ADD PUSH2 0x95A SWAP1 PUSH2 0x2221 JUMP JUMPDEST PUSH1 0x40 MLOAD DUP1 SWAP2 SUB SWAP1 REVERT JUMPDEST PUSH1 0x3 PUSH1 0x0 DUP5 DUP2 MSTORE PUSH1 0x20 ADD SWAP1 DUP2 MSTORE PUSH1 0x20 ADD PUSH1 0x0 KECCAK256 PUSH1 0x0 SWAP1 SLOAD SWAP1 PUSH2 0x100 EXP SWAP1 DIV PUSH1 0xFF AND ISZERO PUSH2 0x9C4 JUMPI PUSH1 0x40 MLOAD PUSH32 0x8C379A000000000000000000000000000000000000000000000000000000000 DUP2 MSTORE PUSH1 0x4 ADD PUSH2 0x9BB SWAP1 PUSH2 0x2241 JUMP JUMPDEST PUSH1 0x40 MLOAD DUP1 SWAP2 SUB SWAP1 REVERT JUMPDEST PUSH1 0x0 DUP1 DUP5 DUP2 SLOAD DUP2 LT PUSH2 0x9D9 JUMPI PUSH2 0x9D8 PUSH2 0x27E8 JUMP JUMPDEST JUMPDEST SWAP1 PUSH1 0x0 MSTORE PUSH1 0x20 PUSH1 0x0 KECCAK256 SWAP1 PUSH1 0x9 MUL ADD SWAP1 POP DUP1 PUSH1 0x6 ADD PUSH1 0x0 SWAP1 SLOAD SWAP1 PUSH2 0x100 EXP SWAP1 DIV PUSH1 0xFF AND ISZERO PUSH2 0xA3B JUMPI PUSH1 0x40 MLOAD PUSH32 0x8C379A000000000000000000000000000000000000000000000000000000000 DUP2 MSTORE PUSH1 0x4 ADD PUSH2 0xA32 SWAP1 PUSH2 0x2181 JUMP JUMPDEST PUSH1 0x40 MLOAD DUP1 SWAP2 SUB SWAP1 REVERT JUMPDEST DUP3 DUP2 PUSH1 0x3 ADD DUP2 SWAP1 SSTORE POP DUP2 DUP2 PUSH1 0x5 ADD SWAP1 DUP1 MLOAD SWAP1 PUSH1 0x20 ADD SWAP1 PUSH2 0xA5C SWAP3 SWAP2 SWAP1 PUSH2 0x1A12 JUMP JUMPDEST POP PUSH32 0x5167E8570BA1DC55A1F903DB53457DDA598E2AD9CF96D55818C9994D0248D795 DUP5 DUP5 DUP5 PUSH1 0x40 MLOAD PUSH2 0xA90 SWAP4 SWAP3 SWAP2 SWAP1 PUSH2 0x2487 JUMP JUMPDEST PUSH1 0x40 MLOAD DUP1 SWAP2 SUB SWAP1 LOG1 POP POP POP POP JUMP JUMPDEST PUSH1 0x1 PUSH1 0x0 SWAP1 SLOAD SWAP1 PUSH2 0x100 EXP SWAP1 DIV PUSH20 0xFFFFFFFFFFFFFFFFFFFFFFFFFFFFFFFFFFFFFFFF AND PUSH20 0xFFFFFFFFFFFFFFFFFFFFFFFFFFFFFFFFFFFFFFFF AND CALLER PUSH20 0xFFFFFFFFFFFFFFFFFFFFFFFFFFFFFFFFFFFFFFFF AND EQ PUSH2 0xB2E JUMPI PUSH1 0x40 MLOAD PUSH32 0x8C379A000000000000000000000000000000000000000000000000000000000 DUP2 MSTORE PUSH1 0x4 ADD PUSH2 0xB25 SWAP1 PUSH2 0x21C1 JUMP JUMPDEST PUSH1 0x40 MLOAD DUP1 SWAP2 SUB SWAP1 REVERT JUMPDEST PUSH1 0x0 DUP1 DUP1 SLOAD SWAP1 POP SWAP1 POP PUSH1 0x2 PUSH1 0x0 DUP3 DUP2 MSTORE PUSH1 0x20 ADD SWAP1 DUP2 MSTORE PUSH1 0x20 ADD PUSH1 0x0 KECCAK256 PUSH1 0x0 SWAP1 SLOAD SWAP1 PUSH2 0x100 EXP SWAP1 DIV PUSH1 0xFF AND ISZERO PUSH2 0xB98 JUMPI PUSH1 0x40 MLOAD PUSH32 0x8C379A000000000000000000000000000000000000000000000000000000000 DUP2 MSTORE PUSH1 0x4 ADD PUSH2 0xB8F SWAP1 PUSH2 0x2281 JUMP JUMPDEST PUSH1 0x40 MLOAD DUP1 SWAP2 SUB SWAP1 REVERT JUMPDEST PUSH1 0x0 PUSH1 0x40 MLOAD DUP1 PUSH2 0x120 ADD PUSH1 0x40 MSTORE DUP1 DUP4 DUP2 MSTORE PUSH1 0x20 ADD CALLER PUSH20 0xFFFFFFFFFFFFFFFFFFFFFFFFFFFFFFFFFFFFFFFF AND DUP2 MSTORE PUSH1 0x20 ADD DUP7 PUSH20 0xFFFFFFFFFFFFFFFFFFFFFFFFFFFFFFFFFFFFFFFF AND DUP2 MSTORE PUSH1 0x20 ADD DUP6 DUP2 MSTORE PUSH1 0x20 ADD PUSH1 0x0 DUP2 MSTORE PUSH1 0x20 ADD DUP5 DUP2 MSTORE PUSH1 0x20 ADD PUSH1 0x0 ISZERO ISZERO DUP2 MSTORE PUSH1 0x20 ADD TIMESTAMP DUP2 MSTORE PUSH1 0x20 ADD PUSH1 0x0 DUP2 MSTORE POP SWAP1 DUP1 PUSH1 0x1 DUP2 SLOAD ADD DUP1 DUP3 SSTORE DUP1 SWAP2 POP POP PUSH1 0x1 SWAP1 SUB SWAP1 PUSH1 0x0 MSTORE PUSH1 0x20 PUSH1 0x0 KECCAK256 SWAP1 PUSH1 0x9 MUL ADD PUSH1 0x0 SWAP1 SWAP2 SWAP1 SWAP2 SWAP1 SWAP2 POP PUSH1 0x0 DUP3 ADD MLOAD DUP2 PUSH1 0x0 ADD SSTORE PUSH1 0x20 DUP3 ADD MLOAD DUP2 PUSH1 0x1 ADD PUSH1 0x0 PUSH2 0x100 EXP DUP2 SLOAD DUP2 PUSH20 0xFFFFFFFFFFFFFFFFFFFFFFFFFFFFFFFFFFFFFFFF MUL NOT AND SWAP1 DUP4 PUSH20 0xFFFFFFFFFFFFFFFFFFFFFFFFFFFFFFFFFFFFFFFF AND MUL OR SWAP1 SSTORE POP PUSH1 0x40 DUP3 ADD MLOAD DUP2 PUSH1 0x2 ADD PUSH1 0x0 PUSH2 0x100 EXP DUP2 SLOAD DUP2 PUSH20 0xFFFFFFFFFFFFFFFFFFFFFFFFFFFFFFFFFFFFFFFF MUL NOT AND SWAP1 DUP4 PUSH20 0xFFFFFFFFFFFFFFFFFFFFFFFFFFFFFFFFFFFFFFFF AND MUL OR SWAP1 SSTORE POP PUSH1 0x60 DUP3 ADD MLOAD DUP2 PUSH1 0x3 ADD SSTORE PUSH1 0x80 DUP3 ADD MLOAD DUP2 PUSH1 0x4 ADD SSTORE PUSH1 0xA0 DUP3 ADD MLOAD DUP2 PUSH1 0x5 ADD SWAP1 DUP1 MLOAD SWAP1 PUSH1 0x20 ADD SWAP1 PUSH2 0xCFC SWAP3 SWAP2 SWAP1 PUSH2 0x1A12 JUMP JUMPDEST POP PUSH1 0xC0 DUP3 ADD MLOAD DUP2 PUSH1 0x6 ADD PUSH1 0x0 PUSH2 0x100 EXP DUP2 SLOAD DUP2 PUSH1 0xFF MUL NOT AND SWAP1 DUP4 ISZERO ISZERO MUL OR SWAP1 SSTORE POP PUSH1 0xE0 DUP3 ADD MLOAD DUP2 PUSH1 0x7 ADD SSTORE PUSH2 0x100 DUP3 ADD MLOAD DUP2 PUSH1 0x8 ADD SSTORE POP POP PUSH1 0x1 PUSH1 0x2 PUSH1 0x0 DUP4 DUP2 MSTORE PUSH1 0x20 ADD SWAP1 DUP2 MSTORE PUSH1 0x20 ADD PUSH1 0x0 KECCAK256 PUSH1 0x0 PUSH2 0x100 EXP DUP2 SLOAD DUP2 PUSH1 0xFF MUL NOT AND SWAP1 DUP4 ISZERO ISZERO MUL OR SWAP1 SSTORE POP PUSH32 0x7C4B221FD6616355387CF760B2B82C18795E7E4E90C12D69B49F57938E39E44B DUP2 DUP6 DUP6 DUP6 PUSH1 0x40 MLOAD PUSH2 0xD95 SWAP5 SWAP4 SWAP3 SWAP2 SWAP1 PUSH2 0x2370 JUMP JUMPDEST PUSH1 0x40 MLOAD DUP1 SWAP2 SUB SWAP1 LOG1 POP POP POP POP JUMP JUMPDEST PUSH1 0x0 PUSH1 0x2 PUSH1 0x0 DUP4 DUP2 MSTORE PUSH1 0x20 ADD SWAP1 DUP2 MSTORE PUSH1 0x20 ADD PUSH1 0x0 KECCAK256 PUSH1 0x0 SWAP1 SLOAD SWAP1 PUSH2 0x100 EXP SWAP1 DIV PUSH1 0xFF AND PUSH2 0xE05 JUMPI PUSH1 0x40 MLOAD PUSH32 0x8C379A000000000000000000000000000000000000000000000000000000000 DUP2 MSTORE PUSH1 0x4 ADD PUSH2 0xDFC SWAP1 PUSH2 0x2221 JUMP JUMPDEST PUSH1 0x40 MLOAD DUP1 SWAP2 SUB SWAP1 REVERT JUMPDEST PUSH1 0x3 PUSH1 0x0 DUP4 DUP2 MSTORE PUSH1 0x20 ADD SWAP1 DUP2 MSTORE PUSH1 0x20 ADD PUSH1 0x0 KECCAK256 PUSH1 0x0 SWAP1 SLOAD SWAP1 PUSH2 0x100 EXP SWAP1 DIV PUSH1 0xFF AND ISZERO PUSH2 0xE34 JUMPI PUSH1 0x0 SWAP1 POP PUSH2 0xE92 JUMP JUMPDEST PUSH1 0x0 DUP1 DUP4 DUP2 SLOAD DUP2 LT PUSH2 0xE49 JUMPI PUSH2 0xE48 PUSH2 0x27E8 JUMP JUMPDEST JUMPDEST SWAP1 PUSH1 0x0 MSTORE PUSH1 0x20 PUSH1 0x0 KECCAK256 SWAP1 PUSH1 0x9 MUL ADD SWAP1 POP DUP1 PUSH1 0x6 ADD PUSH1 0x0 SWAP1 SLOAD SWAP1 PUSH2 0x100 EXP SWAP1 DIV PUSH1 0xFF AND ISZERO PUSH2 0xE7A JUMPI PUSH1 0x0 SWAP2 POP POP PUSH2 0xE92 JUMP JUMPDEST DUP1 PUSH1 0x4 ADD SLOAD DUP2 PUSH1 0x3 ADD SLOAD PUSH2 0xE8E SWAP2 SWAP1 PUSH2 0x260E JUMP JUMPDEST SWAP2 POP POP JUMPDEST SWAP2 SWAP1 POP JUMP JUMPDEST PUSH1 0x1 PUSH1 0x0 SWAP1 SLOAD SWAP1 PUSH2 0x100 EXP SWAP1 DIV PUSH20 0xFFFFFFFFFFFFFFFFFFFFFFFFFFFFFFFFFFFFFFFF AND DUP2 JUMP JUMPDEST PUSH1 0x3 PUSH1 0x20 MSTORE DUP1 PUSH1 0x0 MSTORE PUSH1 0x40 PUSH1 0x0 KECCAK256 PUSH1 0x0 SWAP2 POP SLOAD SWAP1 PUSH2 0x100 EXP SWAP1 DIV PUSH1 0xFF AND DUP2 JUMP JUMPDEST PUSH1 0x0 PUSH1 0x2 PUSH1 0x0 DUP4 DUP2 MSTORE PUSH1 0x20 ADD SWAP1 DUP2 MSTORE PUSH1 0x20 ADD PUSH1 0x0 KECCAK256 PUSH1 0x0 SWAP1 SLOAD SWAP1 PUSH2 0x100 EXP SWAP1 DIV PUSH1 0xFF AND DUP1 ISZERO PUSH2 0xF2A JUMPI POP PUSH1 0x3 PUSH1 0x0 DUP4 DUP2 MSTORE PUSH1 0x20 ADD SWAP1 DUP2 MSTORE PUSH1 0x20 ADD PUSH1 0x0 KECCAK256 PUSH1 0x0 SWAP1 SLOAD SWAP1 PUSH2 0x100 EXP SWAP1 DIV PUSH1 0xFF AND ISZERO JUMPDEST SWAP1 POP SWAP2 SWAP1 POP JUMP JUMPDEST PUSH1 0x0 DUP1 PUSH1 0x0 SWAP1 POP PUSH1 0x0 JUMPDEST PUSH1 0x0 DUP1 SLOAD SWAP1 POP DUP2 LT ISZERO PUSH2 0x109E JUMPI DUP4 PUSH20 0xFFFFFFFFFFFFFFFFFFFFFFFFFFFFFFFFFFFFFFFF AND PUSH1 0x0 DUP3 DUP2 SLOAD DUP2 LT PUSH2 0xF73 JUMPI PUSH2 0xF72 PUSH2 0x27E8 JUMP JUMPDEST JUMPDEST SWAP1 PUSH1 0x0 MSTORE PUSH1 0x20 PUSH1 0x0 KECCAK256 SWAP1 PUSH1 0x9 MUL ADD PUSH1 0x2 ADD PUSH1 0x0 SWAP1 SLOAD SWAP1 PUSH2 0x100 EXP SWAP1 DIV PUSH20 0xFFFFFFFFFFFFFFFFFFFFFFFFFFFFFFFFFFFFFFFF AND PUSH20 0xFFFFFFFFFFFFFFFFFFFFFFFFFFFFFFFFFFFFFFFF AND EQ DUP1 ISZERO PUSH2 0xFE6 JUMPI POP PUSH1 0x3 PUSH1 0x0 DUP3 DUP2 MSTORE PUSH1 0x20 ADD SWAP1 DUP2 MSTORE PUSH1 0x20 ADD PUSH1 0x0 KECCAK256 PUSH1 0x0 SWAP1 SLOAD SWAP1 PUSH2 0x100 EXP SWAP1 DIV PUSH1 0xFF AND ISZERO JUMPDEST DUP1 ISZERO PUSH2 0x1022 JUMPI POP PUSH1 0x0 DUP2 DUP2 SLOAD DUP2 LT PUSH2 0x1001 JUMPI PUSH2 0x1000 PUSH2 0x27E8 JUMP JUMPDEST JUMPDEST SWAP1 PUSH1 0x0 MSTORE PUSH1 0x20 PUSH1 0x0 KECCAK256 SWAP1 PUSH1 0x9 MUL ADD PUSH1 0x6 ADD PUSH1 0x0 SWAP1 SLOAD SWAP1 PUSH2 0x100 EXP SWAP1 DIV PUSH1 0xFF AND ISZERO JUMPDEST ISZERO PUSH2 0x108B JUMPI PUSH1 0x0 DUP2 DUP2 SLOAD DUP2 LT PUSH2 0x103B JUMPI PUSH2 0x103A PUSH2 0x27E8 JUMP JUMPDEST JUMPDEST SWAP1 PUSH1 0x0 MSTORE PUSH1 0x20 PUSH1 0x0 KECCAK256 SWAP1 PUSH1 0x9 MUL ADD PUSH1 0x4 ADD SLOAD PUSH1 0x0 DUP3 DUP2 SLOAD DUP2 LT PUSH2 0x1061 JUMPI PUSH2 0x1060 PUSH2 0x27E8 JUMP JUMPDEST JUMPDEST SWAP1 PUSH1 0x0 MSTORE PUSH1 0x20 PUSH1 0x0 KECCAK256 SWAP1 PUSH1 0x9 MUL ADD PUSH1 0x3 ADD SLOAD PUSH2 0x107D SWAP2 SWAP1 PUSH2 0x260E JUMP JUMPDEST DUP3 PUSH2 0x1088 SWAP2 SWAP1 PUSH2 0x25B8 JUMP JUMPDEST SWAP2 POP JUMPDEST DUP1 DUP1 PUSH2 0x1096 SWAP1 PUSH2 0x2741 JUMP JUMPDEST SWAP2 POP POP PUSH2 0xF3B JUMP JUMPDEST POP DUP1 SWAP2 POP POP SWAP2 SWAP1 POP JUMP JUMPDEST PUSH1 0x2 PUSH1 0x0 DUP4 DUP2 MSTORE PUSH1 0x20 ADD SWAP1 DUP2 MSTORE PUSH1 0x20 ADD PUSH1 0x0 KECCAK256 PUSH1 0x0 SWAP1 SLOAD SWAP1 PUSH2 0x100 EXP SWAP1 DIV PUSH1 0xFF AND PUSH2 0x1108 JUMPI PUSH1 0x40 MLOAD PUSH32 0x8C379A000000000000000000000000000000000000000000000000000000000 DUP2 MSTORE PUSH1 0x4 ADD PUSH2 0x10FF SWAP1 PUSH2 0x2221 JUMP JUMPDEST PUSH1 0x40 MLOAD DUP1 SWAP2 SUB SWAP1 REVERT JUMPDEST PUSH1 0x3 PUSH1 0x0 DUP4 DUP2 MSTORE PUSH1 0x20 ADD SWAP1 DUP2 MSTORE PUSH1 0x20 ADD PUSH1 0x0 KECCAK256 PUSH1 0x0 SWAP1 SLOAD SWAP1 PUSH2 0x100 EXP SWAP1 DIV PUSH1 0xFF AND ISZERO PUSH2 0x1169 JUMPI PUSH1 0x40 MLOAD PUSH32 0x8C379A000000000000000000000000000000000000000000000000000000000 DUP2 MSTORE PUSH1 0x4 ADD PUSH2 0x1160 SWAP1 PUSH2 0x21E1 JUMP JUMPDEST PUSH1 0x40 MLOAD DUP1 SWAP2 SUB SWAP1 REVERT JUMPDEST PUSH1 0x0 DUP1 DUP4 DUP2 SLOAD DUP2 LT PUSH2 0x117E JUMPI PUSH2 0x117D PUSH2 0x27E8 JUMP JUMPDEST JUMPDEST SWAP1 PUSH1 0x0 MSTORE PUSH1 0x20 PUSH1 0x0 KECCAK256 SWAP1 PUSH1 0x9 MUL ADD SWAP1 POP DUP1 PUSH1 0x2 ADD PUSH1 0x0 SWAP1 SLOAD SWAP1 PUSH2 0x100 EXP SWAP1 DIV PUSH20 0xFFFFFFFFFFFFFFFFFFFFFFFFFFFFFFFFFFFFFFFF AND PUSH20 0xFFFFFFFFFFFFFFFFFFFFFFFFFFFFFFFFFFFFFFFF AND CALLER PUSH20 0xFFFFFFFFFFFFFFFFFFFFFFFFFFFFFFFFFFFFFFFF AND EQ DUP1 PUSH2 0x1239 JUMPI POP PUSH1 0x1 PUSH1 0x0 SWAP1 SLOAD SWAP1 PUSH2 0x100 EXP SWAP1 DIV PUSH20 0xFFFFFFFFFFFFFFFFFFFFFFFFFFFFFFFFFFFFFFFF AND PUSH20 0xFFFFFFFFFFFFFFFFFFFFFFFFFFFFFFFFFFFFFFFF AND CALLER PUSH20 0xFFFFFFFFFFFFFFFFFFFFFFFFFFFFFFFFFFFFFFFF AND EQ JUMPDEST PUSH2 0x1278 JUMPI PUSH1 0x40 MLOAD PUSH32 0x8C379A000000000000000000000000000000000000000000000000000000000 DUP2 MSTORE PUSH1 0x4 ADD PUSH2 0x126F SWAP1 PUSH2 0x2261 JUMP JUMPDEST PUSH1 0x40 MLOAD DUP1 SWAP2 SUB SWAP1 REVERT JUMPDEST DUP1 PUSH1 0x6 ADD PUSH1 0x0 SWAP1 SLOAD SWAP1 PUSH2 0x100 EXP SWAP1 DIV PUSH1 0xFF AND ISZERO PUSH2 0x12CA JUMPI PUSH1 0x40 MLOAD PUSH32 0x8C379A000000000000000000000000000000000000000000000000000000000 DUP2 MSTORE PUSH1 0x4 ADD PUSH2 0x12C1 SWAP1 PUSH2 0x22A1 JUMP JUMPDEST PUSH1 0x40 MLOAD DUP1 SWAP2 SUB SWAP1 REVERT JUMPDEST PUSH1 0x0 DUP3 GT PUSH2 0x130D JUMPI PUSH1 0x40 MLOAD PUSH32 0x8C379A000000000000000000000000000000000000000000000000000000000 DUP2 MSTORE PUSH1 0x4 ADD PUSH2 0x1304 SWAP1 PUSH2 0x2141 JUMP JUMPDEST PUSH1 0x40 MLOAD DUP1 SWAP2 SUB SWAP1 REVERT JUMPDEST PUSH2 0x1316 DUP4 PUSH2 0xDA3 JUMP JUMPDEST DUP3 GT ISZERO PUSH2 0x1358 JUMPI PUSH1 0x40 MLOAD PUSH32 0x8C379A000000000000000000000000000000000000000000000000000000000 DUP2 MSTORE PUSH1 0x4 ADD PUSH2 0x134F SWAP1 PUSH2 0x21A1 JUMP JUMPDEST PUSH1 0x40 MLOAD DUP1 SWAP2 SUB SWAP1 REVERT JUMPDEST DUP2 DUP2 PUSH1 0x4 ADD PUSH1 0x0 DUP3 DUP3 SLOAD PUSH2 0x136C SWAP2 SWAP1 PUSH2 0x25B8 JUMP JUMPDEST SWAP3 POP POP DUP2 SWAP1 SSTORE POP TIMESTAMP DUP2 PUSH1 0x8 ADD DUP2 SWAP1 SSTORE POP DUP1 PUSH1 0x3 ADD SLOAD DUP2 PUSH1 0x4 ADD SLOAD LT PUSH2 0x13A9 JUMPI PUSH1 0x1 DUP2 PUSH1 0x6 ADD PUSH1 0x0 PUSH2 0x100 EXP DUP2 SLOAD DUP2 PUSH1 0xFF MUL NOT AND SWAP1 DUP4 ISZERO ISZERO MUL OR SWAP1 SSTORE POP JUMPDEST PUSH32 0x40FB2EA394FB15ED13A9EBE6207CD79DA5F67601325E65B4B5AF26A6BFFA0D77 DUP4 DUP4 PUSH2 0x13D5 DUP7 PUSH2 0xDA3 JUMP JUMPDEST PUSH1 0x40 MLOAD PUSH2 0x13E4 SWAP4 SWAP3 SWAP2 SWAP1 PUSH2 0x24C5 JUMP JUMPDEST PUSH1 0x40 MLOAD DUP1 SWAP2 SUB SWAP1 LOG1 POP POP POP JUMP JUMPDEST PUSH1 0x1 PUSH1 0x0 SWAP1 SLOAD SWAP1 PUSH2 0x100 EXP SWAP1 DIV PUSH20 0xFFFFFFFFFFFFFFFFFFFFFFFFFFFFFFFFFFFFFFFF AND PUSH20 0xFFFFFFFFFFFFFFFFFFFFFFFFFFFFFFFFFFFFFFFF AND CALLER PUSH20 0xFFFFFFFFFFFFFFFFFFFFFFFFFFFFFFFFFFFFFFFF AND EQ PUSH2 0x1481 JUMPI PUSH1 0x40 MLOAD PUSH32 0x8C379A000000000000000000000000000000000000000000000000000000000 DUP2 MSTORE PUSH1 0x4 ADD PUSH2 0x1478 SWAP1 PUSH2 0x21C1 JUMP JUMPDEST PUSH1 0x40 MLOAD DUP1 SWAP2 SUB SWAP1 REVERT JUMPDEST PUSH1 0x2 PUSH1 0x0 DUP3 DUP2 MSTORE PUSH1 0x20 ADD SWAP1 DUP2 MSTORE PUSH1 0x20 ADD PUSH1 0x0 KECCAK256 PUSH1 0x0 SWAP1 SLOAD SWAP1 PUSH2 0x100 EXP SWAP1 DIV PUSH1 0xFF AND PUSH2 0x14E1 JUMPI PUSH1 0x40 MLOAD PUSH32 0x8C379A000000000000000000000000000000000000000000000000000000000 DUP2 MSTORE PUSH1 0x4 ADD PUSH2 0x14D8 SWAP1 PUSH2 0x2221 JUMP JUMPDEST PUSH1 0x40 MLOAD DUP1 SWAP2 SUB SWAP1 REVERT JUMPDEST PUSH1 0x3 PUSH1 0x0 DUP3 DUP2 MSTORE PUSH1 0x20 ADD SWAP1 DUP2 MSTORE PUSH1 0x20 ADD PUSH1 0x0 KECCAK256 PUSH1 0x0 SWAP1 SLOAD SWAP1 PUSH2 0x100 EXP SWAP1 DIV PUSH1 0xFF AND ISZERO PUSH2 0x1542 JUMPI PUSH1 0x40 MLOAD PUSH32 0x8C379A000000000000000000000000000000000000000000000000000000000 DUP2 MSTORE PUSH1 0x4 ADD PUSH2 0x1539 SWAP1 PUSH2 0x21E1 JUMP JUMPDEST PUSH1 0x40 MLOAD DUP1 SWAP2 SUB SWAP1 REVERT JUMPDEST PUSH1 0x0 DUP1 DUP3 DUP2 SLOAD DUP2 LT PUSH2 0x1557 JUMPI PUSH2 0x1556 PUSH2 0x27E8 JUMP JUMPDEST JUMPDEST SWAP1 PUSH1 0x0 MSTORE PUSH1 0x20 PUSH1 0x0 KECCAK256 SWAP1 PUSH1 0x9 MUL ADD SWAP1 POP DUP1 PUSH1 0x6 ADD PUSH1 0x0 SWAP1 SLOAD SWAP1 PUSH2 0x100 EXP SWAP1 DIV PUSH1 0xFF AND ISZERO PUSH2 0x15B9 JUMPI PUSH1 0x40 MLOAD PUSH32 0x8C379A000000000000000000000000000000000000000000000000000000000 DUP2 MSTORE PUSH1 0x4 ADD PUSH2 0x15B0 SWAP1 PUSH2 0x2201 JUMP JUMPDEST PUSH1 0x40 MLOAD DUP1 SWAP2 SUB SWAP1 REVERT JUMPDEST PUSH1 0x0 PUSH2 0x15C4 DUP4 PUSH2 0xDA3 JUMP JUMPDEST SWAP1 POP DUP2 PUSH1 0x3 ADD SLOAD DUP3 PUSH1 0x4 ADD DUP2 SWAP1 SSTORE POP PUSH1 0x1 DUP3 PUSH1 0x6 ADD PUSH1 0x0 PUSH2 0x100 EXP DUP2 SLOAD DUP2 PUSH1 0xFF MUL NOT AND SWAP1 DUP4 ISZERO ISZERO MUL OR SWAP1 SSTORE POP TIMESTAMP DUP3 PUSH1 0x8 ADD DUP2 SWAP1 SSTORE POP PUSH32 0x40FB2EA394FB15ED13A9EBE6207CD79DA5F67601325E65B4B5AF26A6BFFA0D77 DUP4 DUP3 PUSH1 0x0 PUSH1 0x40 MLOAD PUSH2 0x162D SWAP4 SWAP3 SWAP2 SWAP1 PUSH2 0x2450 JUMP JUMPDEST PUSH1 0x40 MLOAD DUP1 SWAP2 SUB SWAP1 LOG1 POP POP POP JUMP JUMPDEST PUSH1 0x1 PUSH1 0x0 SWAP1 SLOAD SWAP1 PUSH2 0x100 EXP SWAP1 DIV PUSH20 0xFFFFFFFFFFFFFFFFFFFFFFFFFFFFFFFFFFFFFFFF AND PUSH20 0xFFFFFFFFFFFFFFFFFFFFFFFFFFFFFFFFFFFFFFFF AND CALLER PUSH20 0xFFFFFFFFFFFFFFFFFFFFFFFFFFFFFFFFFFFFFFFF AND EQ PUSH2 0x16CA JUMPI PUSH1 0x40 MLOAD PUSH32 0x8C379A000000000000000000000000000000000000000000000000000000000 DUP2 MSTORE PUSH1 0x4 ADD PUSH2 0x16C1 SWAP1 PUSH2 0x21C1 JUMP JUMPDEST PUSH1 0x40 MLOAD DUP1 SWAP2 SUB SWAP1 REVERT JUMPDEST PUSH1 0x2 PUSH1 0x0 DUP3 DUP2 MSTORE PUSH1 0x20 ADD SWAP1 DUP2 MSTORE PUSH1 0x20 ADD PUSH1 0x0 KECCAK256 PUSH1 0x0 SWAP1 SLOAD SWAP1 PUSH2 0x100 EXP SWAP1 DIV PUSH1 0xFF AND PUSH2 0x172A JUMPI PUSH1 0x40 MLOAD PUSH32 0x8C379A000000000000000000000000000000000000000000000000000000000 DUP2 MSTORE PUSH1 0x4 ADD PUSH2 0x1721 SWAP1 PUSH2 0x2221 JUMP JUMPDEST PUSH1 0x40 MLOAD DUP1 SWAP2 SUB SWAP1 REVERT JUMPDEST PUSH1 0x3 PUSH1 0x0 DUP3 DUP2 MSTORE PUSH1 0x20 ADD SWAP1 DUP2 MSTORE PUSH1 0x20 ADD PUSH1 0x0 KECCAK256 PUSH1 0x0 SWAP1 SLOAD SWAP1 PUSH2 0x100 EXP SWAP1 DIV PUSH1 0xFF AND ISZERO PUSH2 0x178B JUMPI PUSH1 0x40 MLOAD PUSH32 0x8C379A000000000000000000000000000000000000000000000000000000000 DUP2 MSTORE PUSH1 0x4 ADD PUSH2 0x1782 SWAP1 PUSH2 0x2161 JUMP JUMPDEST PUSH1 0x40 MLOAD DUP1 SWAP2 SUB SWAP1 REVERT JUMPDEST PUSH1 0x1 PUSH1 0x3 PUSH1 0x0 DUP4 DUP2 MSTORE PUSH1 0x20 ADD SWAP1 DUP2 MSTORE PUSH1 0x20 ADD PUSH1 0x0 KECCAK256 PUSH1 0x0 PUSH2 0x100 EXP DUP2 SLOAD DUP2 PUSH1 0xFF MUL NOT AND SWAP1 DUP4 ISZERO ISZERO MUL OR SWAP1 SSTORE POP PUSH32 0x4856B4B72AD15E464AF7B2AF76C01835371CD13CC0A1D312A7B3A407410B988F DUP2 PUSH1 0x40 MLOAD PUSH2 0x17E6 SWAP2 SWAP1 PUSH2 0x22C1 JUMP JUMPDEST PUSH1 0x40 MLOAD DUP1 SWAP2 SUB SWAP1 LOG1 POP JUMP JUMPDEST PUSH1 0x0 DUP1 PUSH1 0x0 DUP1 PUSH1 0x0 DUP1 PUSH1 0x60 PUSH1 0x0 DUP1 PUSH1 0x2 PUSH1 0x0 DUP12 DUP2 MSTORE PUSH1 0x20 ADD SWAP1 DUP2 MSTORE PUSH1 0x20 ADD PUSH1 0x0 KECCAK256 PUSH1 0x0 SWAP1 SLOAD SWAP1 PUSH2 0x100 EXP SWAP1 DIV PUSH1 0xFF AND PUSH2 0x185F JUMPI PUSH1 0x40 MLOAD PUSH32 0x8C379A000000000000000000000000000000000000000000000000000000000 DUP2 MSTORE PUSH1 0x4 ADD PUSH2 0x1856 SWAP1 PUSH2 0x2221 JUMP JUMPDEST PUSH1 0x40 MLOAD DUP1 SWAP2 SUB SWAP1 REVERT JUMPDEST PUSH1 0x0 DUP1 DUP12 DUP2 SLOAD DUP2 LT PUSH2 0x1874 JUMPI PUSH2 0x1873 PUSH2 0x27E8 JUMP JUMPDEST JUMPDEST SWAP1 PUSH1 0x0 MSTORE PUSH1 0x20 PUSH1 0x0 KECCAK256 SWAP1 PUSH1 0x9 MUL ADD SWAP1 POP DUP1 PUSH1 0x0 ADD SLOAD DUP2 PUSH1 0x2 ADD PUSH1 0x0 SWAP1 SLOAD SWAP1 PUSH2 0x100 EXP SWAP1 DIV PUSH20 0xFFFFFFFFFFFFFFFFFFFFFFFFFFFFFFFFFFFFFFFF AND DUP3 PUSH1 0x3 ADD SLOAD DUP4 PUSH1 0x4 ADD SLOAD DUP5 PUSH1 0x4 ADD SLOAD DUP6 PUSH1 0x3 ADD SLOAD PUSH2 0x18CC SWAP2 SWAP1 PUSH2 0x260E JUMP JUMPDEST DUP6 PUSH1 0x6 ADD PUSH1 0x0 SWAP1 SLOAD SWAP1 PUSH2 0x100 EXP SWAP1 DIV PUSH1 0xFF AND DUP7 PUSH1 0x5 ADD DUP8 PUSH1 0x7 ADD SLOAD DUP9 PUSH1 0x8 ADD SLOAD DUP3 DUP1 SLOAD PUSH2 0x18F8 SWAP1 PUSH2 0x26DE JUMP JUMPDEST DUP1 PUSH1 0x1F ADD PUSH1 0x20 DUP1 SWAP2 DIV MUL PUSH1 0x20 ADD PUSH1 0x40 MLOAD SWAP1 DUP2 ADD PUSH1 0x40 MSTORE DUP1 SWAP3 SWAP2 SWAP1 DUP2 DUP2 MSTORE PUSH1 0x20 ADD DUP3 DUP1 SLOAD PUSH2 0x1924 SWAP1 PUSH2 0x26DE JUMP JUMPDEST DUP1 ISZERO PUSH2 0x1971 JUMPI DUP1 PUSH1 0x1F LT PUSH2 0x1946 JUMPI PUSH2 0x100 DUP1 DUP4 SLOAD DIV MUL DUP4 MSTORE SWAP2 PUSH1 0x20 ADD SWAP2 PUSH2 0x1971 JUMP JUMPDEST DUP3 ADD SWAP2 SWAP1 PUSH1 0x0 MSTORE PUSH1 0x20 PUSH1 0x0 KECCAK256 SWAP1 JUMPDEST DUP2 SLOAD DUP2 MSTORE SWAP1 PUSH1 0x1 ADD SWAP1 PUSH1 0x20 ADD DUP1 DUP4 GT PUSH2 0x1954 JUMPI DUP3 SWAP1 SUB PUSH1 0x1F AND DUP3 ADD SWAP2 JUMPDEST POP POP POP POP POP SWAP3 POP SWAP10 POP SWAP10 POP SWAP10 POP SWAP10 POP SWAP10 POP SWAP10 POP SWAP10 POP SWAP10 POP SWAP10 POP POP SWAP2 SWAP4 SWAP6 SWAP8 SWAP10 SWAP1 SWAP3 SWAP5 SWAP7 SWAP9 POP JUMP JUMPDEST PUSH1 0x40 MLOAD DUP1 PUSH2 0x120 ADD PUSH1 0x40 MSTORE DUP1 PUSH1 0x0 DUP2 MSTORE PUSH1 0x20 ADD PUSH1 0x0 PUSH20 0xFFFFFFFFFFFFFFFFFFFFFFFFFFFFFFFFFFFFFFFF AND DUP2 MSTORE PUSH1 0x20 ADD PUSH1 0x0 PUSH20 0xFFFFFFFFFFFFFFFFFFFFFFFFFFFFFFFFFFFFFFFF AND DUP2 MSTORE PUSH1 0x20 ADD PUSH1 0x0 DUP2 MSTORE PUSH1 0x20 ADD PUSH1 0x0 DUP2 MSTORE PUSH1 0x20 ADD PUSH1 0x60 DUP2 MSTORE PUSH1 0x20 ADD PUSH1 0x0 ISZERO ISZERO DUP2 MSTORE PUSH1 0x20 ADD PUSH1 0x0 DUP2 MSTORE PUSH1 0x20 ADD PUSH1 0x0 DUP2 MSTORE POP SWAP1 JUMP JUMPDEST DUP3 DUP1 SLOAD PUSH2 0x1A1E SWAP1 PUSH2 0x26DE JUMP JUMPDEST SWAP1 PUSH1 0x0 MSTORE PUSH1 0x20 PUSH1 0x0 KECCAK256 SWAP1 PUSH1 0x1F ADD PUSH1 0x20 SWAP1 DIV DUP2 ADD SWAP3 DUP3 PUSH2 0x1A40 JUMPI PUSH1 0x0 DUP6 SSTORE PUSH2 0x1A87 JUMP JUMPDEST DUP3 PUSH1 0x1F LT PUSH2 0x1A59 JUMPI DUP1 MLOAD PUSH1 0xFF NOT AND DUP4 DUP1 ADD OR DUP6 SSTORE PUSH2 0x1A87 JUMP JUMPDEST DUP3 DUP1 ADD PUSH1 0x1 ADD DUP6 SSTORE DUP3 ISZERO PUSH2 0x1A87 JUMPI SWAP2 DUP3 ADD JUMPDEST DUP3 DUP2 GT ISZERO PUSH2 0x1A86 JUMPI DUP3 MLOAD DUP3 SSTORE SWAP2 PUSH1 0x20 ADD SWAP2 SWAP1 PUSH1 0x1 ADD SWAP1 PUSH2 0x1A6B JUMP JUMPDEST JUMPDEST POP SWAP1 POP PUSH2 0x1A94 SWAP2 SWAP1 PUSH2 0x1A98 JUMP JUMPDEST POP SWAP1 JUMP JUMPDEST JUMPDEST DUP1 DUP3 GT ISZERO PUSH2 0x1AB1 JUMPI PUSH1 0x0 DUP2 PUSH1 0x0 SWAP1 SSTORE POP PUSH1 0x1 ADD PUSH2 0x1A99 JUMP JUMPDEST POP SWAP1 JUMP JUMPDEST PUSH1 0x0 PUSH2 0x1AC8 PUSH2 0x1AC3 DUP5 PUSH2 0x2521 JUMP JUMPDEST PUSH2 0x24FC JUMP JUMPDEST SWAP1 POP DUP3 DUP2 MSTORE PUSH1 0x20 DUP2 ADD DUP5 DUP5 DUP5 ADD GT ISZERO PUSH2 0x1AE4 JUMPI PUSH2 0x1AE3 PUSH2 0x284B JUMP JUMPDEST JUMPDEST PUSH2 0x1AEF DUP5 DUP3 DUP6 PUSH2 0x269C JUMP JUMPDEST POP SWAP4 SWAP3 POP POP POP JUMP JUMPDEST PUSH1 0x0 DUP2 CALLDATALOAD SWAP1 POP PUSH2 0x1B06 DUP2 PUSH2 0x2AC9 JUMP JUMPDEST SWAP3 SWAP2 POP POP JUMP JUMPDEST PUSH1 0x0 DUP2 CALLDATALOAD SWAP1 POP PUSH2 0x1B1B DUP2 PUSH2 0x2AE0 JUMP JUMPDEST SWAP3 SWAP2 POP POP JUMP JUMPDEST PUSH1 0x0 DUP3 PUSH1 0x1F DUP4 ADD SLT PUSH2 0x1B36 JUMPI PUSH2 0x1B35 PUSH2 0x2846 JUMP JUMPDEST JUMPDEST DUP2 CALLDATALOAD PUSH2 0x1B46 DUP5 DUP3 PUSH1 0x20 DUP7 ADD PUSH2 0x1AB5 JUMP JUMPDEST SWAP2 POP POP SWAP3 SWAP2 POP POP JUMP JUMPDEST PUSH1 0x0 DUP2 CALLDATALOAD SWAP1 POP PUSH2 0x1B5E DUP2 PUSH2 0x2AF7 JUMP JUMPDEST SWAP3 SWAP2 POP POP JUMP JUMPDEST PUSH1 0x0 PUSH1 0x20 DUP3 DUP5 SUB SLT ISZERO PUSH2 0x1B7A JUMPI PUSH2 0x1B79 PUSH2 0x2855 JUMP JUMPDEST JUMPDEST PUSH1 0x0 PUSH2 0x1B88 DUP5 DUP3 DUP6 ADD PUSH2 0x1AF7 JUMP JUMPDEST SWAP2 POP POP SWAP3 SWAP2 POP POP JUMP JUMPDEST PUSH1 0x0 DUP1 PUSH1 0x40 DUP4 DUP6 SUB SLT ISZERO PUSH2 0x1BA8 JUMPI PUSH2 0x1BA7 PUSH2 0x2855 JUMP JUMPDEST JUMPDEST PUSH1 0x0 PUSH2 0x1BB6 DUP6 DUP3 DUP7 ADD PUSH2 0x1AF7 JUMP JUMPDEST SWAP3 POP POP PUSH1 0x20 PUSH2 0x1BC7 DUP6 DUP3 DUP7 ADD PUSH2 0x1B0C JUMP JUMPDEST SWAP2 POP POP SWAP3 POP SWAP3 SWAP1 POP JUMP JUMPDEST PUSH1 0x0 DUP1 PUSH1 0x0 PUSH1 0x60 DUP5 DUP7 SUB SLT ISZERO PUSH2 0x1BEA JUMPI PUSH2 0x1BE9 PUSH2 0x2855 JUMP JUMPDEST JUMPDEST PUSH1 0x0 PUSH2 0x1BF8 DUP7 DUP3 DUP8 ADD PUSH2 0x1AF7 JUMP JUMPDEST SWAP4 POP POP PUSH1 0x20 PUSH2 0x1C09 DUP7 DUP3 DUP8 ADD PUSH2 0x1B4F JUMP JUMPDEST SWAP3 POP POP PUSH1 0x40 DUP5 ADD CALLDATALOAD PUSH8 0xFFFFFFFFFFFFFFFF DUP2 GT ISZERO PUSH2 0x1C2A JUMPI PUSH2 0x1C29 PUSH2 0x2850 JUMP JUMPDEST JUMPDEST PUSH2 0x1C36 DUP7 DUP3 DUP8 ADD PUSH2 0x1B21 JUMP JUMPDEST SWAP2 POP POP SWAP3 POP SWAP3 POP SWAP3 JUMP JUMPDEST PUSH1 0x0 PUSH1 0x20 DUP3 DUP5 SUB SLT ISZERO PUSH2 0x1C56 JUMPI PUSH2 0x1C55 PUSH2 0x2855 JUMP JUMPDEST JUMPDEST PUSH1 0x0 PUSH2 0x1C64 DUP5 DUP3 DUP6 ADD PUSH2 0x1B4F JUMP JUMPDEST SWAP2 POP POP SWAP3 SWAP2 POP POP JUMP JUMPDEST PUSH1 0x0 DUP1 PUSH1 0x40 DUP4 DUP6 SUB SLT ISZERO PUSH2 0x1C84 JUMPI PUSH2 0x1C83 PUSH2 0x2855 JUMP JUMPDEST JUMPDEST PUSH1 0x0 PUSH2 0x1C92 DUP6 DUP3 DUP7 ADD PUSH2 0x1B4F JUMP JUMPDEST SWAP3 POP POP PUSH1 0x20 PUSH2 0x1CA3 DUP6 DUP3 DUP7 ADD PUSH2 0x1B4F JUMP JUMPDEST SWAP2 POP POP SWAP3 POP SWAP3 SWAP1 POP JUMP JUMPDEST PUSH1 0x0 DUP1 PUSH1 0x0 PUSH1 0x60 DUP5 DUP7 SUB SLT ISZERO PUSH2 0x1CC6 JUMPI PUSH2 0x1CC5 PUSH2 0x2855 JUMP JUMPDEST JUMPDEST PUSH1 0x0 PUSH2 0x1CD4 DUP7 DUP3 DUP8 ADD PUSH2 0x1B4F JUMP JUMPDEST SWAP4 POP POP PUSH1 0x20 PUSH2 0x1CE5 DUP7 DUP3 DUP8 ADD PUSH2 0x1B4F JUMP JUMPDEST SWAP3 POP POP PUSH1 0x40 DUP5 ADD CALLDATALOAD PUSH8 0xFFFFFFFFFFFFFFFF DUP2 GT ISZERO PUSH2 0x1D06 JUMPI PUSH2 0x1D05 PUSH2 0x2850 JUMP JUMPDEST JUMPDEST PUSH2 0x1D12 DUP7 DUP3 DUP8 ADD PUSH2 0x1B21 JUMP JUMPDEST SWAP2 POP POP SWAP3 POP SWAP3 POP SWAP3 JUMP JUMPDEST PUSH1 0x0 PUSH2 0x1D28 DUP4 DUP4 PUSH2 0x2006 JUMP JUMPDEST SWAP1 POP SWAP3 SWAP2 POP POP JUMP JUMPDEST PUSH2 0x1D39 DUP2 PUSH2 0x2642 JUMP JUMPDEST DUP3 MSTORE POP POP JUMP JUMPDEST PUSH2 0x1D48 DUP2 PUSH2 0x2642 JUMP JUMPDEST DUP3 MSTORE POP POP JUMP JUMPDEST PUSH1 0x0 PUSH2 0x1D59 DUP3 PUSH2 0x2562 JUMP JUMPDEST PUSH2 0x1D63 DUP2 DUP6 PUSH2 0x2585 JUMP JUMPDEST SWAP4 POP DUP4 PUSH1 0x20 DUP3 MUL DUP6 ADD PUSH2 0x1D75 DUP6 PUSH2 0x2552 JUMP JUMPDEST DUP1 PUSH1 0x0 JUMPDEST DUP6 DUP2 LT ISZERO PUSH2 0x1DB1 JUMPI DUP5 DUP5 SUB DUP10 MSTORE DUP2 MLOAD PUSH2 0x1D92 DUP6 DUP3 PUSH2 0x1D1C JUMP JUMPDEST SWAP5 POP PUSH2 0x1D9D DUP4 PUSH2 0x2578 JUMP JUMPDEST SWAP3 POP PUSH1 0x20 DUP11 ADD SWAP10 POP POP PUSH1 0x1 DUP2 ADD SWAP1 POP PUSH2 0x1D79 JUMP JUMPDEST POP DUP3 SWAP8 POP DUP8 SWAP6 POP POP POP POP POP POP SWAP3 SWAP2 POP POP JUMP JUMPDEST PUSH2 0x1DCC DUP2 PUSH2 0x2654 JUMP JUMPDEST DUP3 MSTORE POP POP JUMP JUMPDEST PUSH2 0x1DDB DUP2 PUSH2 0x2654 JUMP JUMPDEST DUP3 MSTORE POP POP JUMP JUMPDEST PUSH2 0x1DEA DUP2 PUSH2 0x268A JUMP JUMPDEST DUP3 MSTORE POP POP JUMP JUMPDEST PUSH1 0x0 PUSH2 0x1DFB DUP3 PUSH2 0x256D JUMP JUMPDEST PUSH2 0x1E05 DUP2 DUP6 PUSH2 0x2596 JUMP JUMPDEST SWAP4 POP PUSH2 0x1E15 DUP2 DUP6 PUSH1 0x20 DUP7 ADD PUSH2 0x26AB JUMP JUMPDEST PUSH2 0x1E1E DUP2 PUSH2 0x285A JUMP JUMPDEST DUP5 ADD SWAP2 POP POP SWAP3 SWAP2 POP POP JUMP JUMPDEST PUSH1 0x0 PUSH2 0x1E34 DUP3 PUSH2 0x256D JUMP JUMPDEST PUSH2 0x1E3E DUP2 DUP6 PUSH2 0x25A7 JUMP JUMPDEST SWAP4 POP PUSH2 0x1E4E DUP2 DUP6 PUSH1 0x20 DUP7 ADD PUSH2 0x26AB JUMP JUMPDEST PUSH2 0x1E57 DUP2 PUSH2 0x285A JUMP JUMPDEST DUP5 ADD SWAP2 POP POP SWAP3 SWAP2 POP POP JUMP JUMPDEST PUSH1 0x0 PUSH2 0x1E6F PUSH1 0x1E DUP4 PUSH2 0x25A7 JUMP JUMPDEST SWAP2 POP PUSH2 0x1E7A DUP3 PUSH2 0x286B JUMP JUMPDEST PUSH1 0x20 DUP3 ADD SWAP1 POP SWAP2 SWAP1 POP JUMP JUMPDEST PUSH1 0x0 PUSH2 0x1E92 PUSH1 0xF DUP4 PUSH2 0x25A7 JUMP JUMPDEST SWAP2 POP PUSH2 0x1E9D DUP3 PUSH2 0x2894 JUMP JUMPDEST PUSH1 0x20 DUP3 ADD SWAP1 POP SWAP2 SWAP1 POP JUMP JUMPDEST PUSH1 0x0 PUSH2 0x1EB5 PUSH1 0x1C DUP4 PUSH2 0x25A7 JUMP JUMPDEST SWAP2 POP PUSH2 0x1EC0 DUP3 PUSH2 0x28BD JUMP JUMPDEST PUSH1 0x20 DUP3 ADD SWAP1 POP SWAP2 SWAP1 POP JUMP JUMPDEST PUSH1 0x0 PUSH2 0x1ED8 PUSH1 0x21 DUP4 PUSH2 0x25A7 JUMP JUMPDEST SWAP2 POP PUSH2 0x1EE3 DUP3 PUSH2 0x28E6 JUMP JUMPDEST PUSH1 0x40 DUP3 ADD SWAP1 POP SWAP2 SWAP1 POP JUMP JUMPDEST PUSH1 0x0 PUSH2 0x1EFB PUSH1 0x28 DUP4 PUSH2 0x25A7 JUMP JUMPDEST SWAP2 POP PUSH2 0x1F06 DUP3 PUSH2 0x2935 JUMP JUMPDEST PUSH1 0x40 DUP3 ADD SWAP1 POP SWAP2 SWAP1 POP JUMP JUMPDEST PUSH1 0x0 PUSH2 0x1F1E PUSH1 0x16 DUP4 PUSH2 0x25A7 JUMP JUMPDEST SWAP2 POP PUSH2 0x1F29 DUP3 PUSH2 0x2984 JUMP JUMPDEST PUSH1 0x20 DUP3 ADD SWAP1 POP SWAP2 SWAP1 POP JUMP JUMPDEST PUSH1 0x0 PUSH2 0x1F41 PUSH1 0x12 DUP4 PUSH2 0x25A7 JUMP JUMPDEST SWAP2 POP PUSH2 0x1F4C DUP3 PUSH2 0x29AD JUMP JUMPDEST PUSH1 0x20 DUP3 ADD SWAP1 POP SWAP2 SWAP1 POP JUMP JUMPDEST PUSH1 0x0 PUSH2 0x1F64 PUSH1 0x14 DUP4 PUSH2 0x25A7 JUMP JUMPDEST SWAP2 POP PUSH2 0x1F6F DUP3 PUSH2 0x29D6 JUMP JUMPDEST PUSH1 0x20 DUP3 ADD SWAP1 POP SWAP2 SWAP1 POP JUMP JUMPDEST PUSH1 0x0 PUSH2 0x1F87 PUSH1 0x19 DUP4 PUSH2 0x25A7 JUMP JUMPDEST SWAP2 POP PUSH2 0x1F92 DUP3 PUSH2 0x29FF JUMP JUMPDEST PUSH1 0x20 DUP3 ADD SWAP1 POP SWAP2 SWAP1 POP JUMP JUMPDEST PUSH1 0x0 PUSH2 0x1FAA PUSH1 0x24 DUP4 PUSH2 0x25A7 JUMP JUMPDEST SWAP2 POP PUSH2 0x1FB5 DUP3 PUSH2 0x2A28 JUMP JUMPDEST PUSH1 0x40 DUP3 ADD SWAP1 POP SWAP2 SWAP1 POP JUMP JUMPDEST PUSH1 0x0 PUSH2 0x1FCD PUSH1 0x11 DUP4 PUSH2 0x25A7 JUMP JUMPDEST SWAP2 POP PUSH2 0x1FD8 DUP3 PUSH2 0x2A77 JUMP JUMPDEST PUSH1 0x20 DUP3 ADD SWAP1 POP SWAP2 SWAP1 POP JUMP JUMPDEST PUSH1 0x0 PUSH2 0x1FF0 PUSH1 0x18 DUP4 PUSH2 0x25A7 JUMP JUMPDEST SWAP2 POP PUSH2 0x1FFB DUP3 PUSH2 0x2AA0 JUMP JUMPDEST PUSH1 0x20 DUP3 ADD SWAP1 POP SWAP2 SWAP1 POP JUMP JUMPDEST PUSH1 0x0 PUSH2 0x120 DUP4 ADD PUSH1 0x0 DUP4 ADD MLOAD PUSH2 0x201F PUSH1 0x0 DUP7 ADD DUP3 PUSH2 0x20CB JUMP JUMPDEST POP PUSH1 0x20 DUP4 ADD MLOAD PUSH2 0x2032 PUSH1 0x20 DUP7 ADD DUP3 PUSH2 0x1D30 JUMP JUMPDEST POP PUSH1 0x40 DUP4 ADD MLOAD PUSH2 0x2045 PUSH1 0x40 DUP7 ADD DUP3 PUSH2 0x1D30 JUMP JUMPDEST POP PUSH1 0x60 DUP4 ADD MLOAD PUSH2 0x2058 PUSH1 0x60 DUP7 ADD DUP3 PUSH2 0x20CB JUMP JUMPDEST POP PUSH1 0x80 DUP4 ADD MLOAD PUSH2 0x206B PUSH1 0x80 DUP7 ADD DUP3 PUSH2 0x20CB JUMP JUMPDEST POP PUSH1 0xA0 DUP4 ADD MLOAD DUP5 DUP3 SUB PUSH1 0xA0 DUP7 ADD MSTORE PUSH2 0x2083 DUP3 DUP3 PUSH2 0x1DF0 JUMP JUMPDEST SWAP2 POP POP PUSH1 0xC0 DUP4 ADD MLOAD PUSH2 0x2098 PUSH1 0xC0 DUP7 ADD DUP3 PUSH2 0x1DC3 JUMP JUMPDEST POP PUSH1 0xE0 DUP4 ADD MLOAD PUSH2 0x20AB PUSH1 0xE0 DUP7 ADD DUP3 PUSH2 0x20CB JUMP JUMPDEST POP PUSH2 0x100 DUP4 ADD MLOAD PUSH2 0x20C0 PUSH2 0x100 DUP7 ADD DUP3 PUSH2 0x20CB JUMP JUMPDEST POP DUP1 SWAP2 POP POP SWAP3 SWAP2 POP POP JUMP JUMPDEST PUSH2 0x20D4 DUP2 PUSH2 0x2680 JUMP JUMPDEST DUP3 MSTORE POP POP JUMP JUMPDEST PUSH2 0x20E3 DUP2 PUSH2 0x2680 JUMP JUMPDEST DUP3 MSTORE POP POP JUMP JUMPDEST PUSH1 0x0 PUSH1 0x20 DUP3 ADD SWAP1 POP PUSH2 0x20FE PUSH1 0x0 DUP4 ADD DUP5 PUSH2 0x1D3F JUMP JUMPDEST SWAP3 SWAP2 POP POP JUMP JUMPDEST PUSH1 0x0 PUSH1 0x20 DUP3 ADD SWAP1 POP DUP2 DUP2 SUB PUSH1 0x0 DUP4 ADD MSTORE PUSH2 0x211E DUP2 DUP5 PUSH2 0x1D4E JUMP JUMPDEST SWAP1 POP SWAP3 SWAP2 POP POP JUMP JUMPDEST PUSH1 0x0 PUSH1 0x20 DUP3 ADD SWAP1 POP PUSH2 0x213B PUSH1 0x0 DUP4 ADD DUP5 PUSH2 0x1DD2 JUMP JUMPDEST SWAP3 SWAP2 POP POP JUMP JUMPDEST PUSH1 0x0 PUSH1 0x20 DUP3 ADD SWAP1 POP DUP2 DUP2 SUB PUSH1 0x0 DUP4 ADD MSTORE PUSH2 0x215A DUP2 PUSH2 0x1E62 JUMP JUMPDEST SWAP1 POP SWAP2 SWAP1 POP JUMP JUMPDEST PUSH1 0x0 PUSH1 0x20 DUP3 ADD SWAP1 POP DUP2 DUP2 SUB PUSH1 0x0 DUP4 ADD MSTORE PUSH2 0x217A DUP2 PUSH2 0x1E85 JUMP JUMPDEST SWAP1 POP SWAP2 SWAP1 POP JUMP JUMPDEST PUSH1 0x0 PUSH1 0x20 DUP3 ADD SWAP1 POP DUP2 DUP2 SUB PUSH1 0x0 DUP4 ADD MSTORE PUSH2 0x219A DUP2 PUSH2 0x1EA8 JUMP JUMPDEST SWAP1 POP SWAP2 SWAP1 POP JUMP JUMPDEST PUSH1 0x0 PUSH1 0x20 DUP3 ADD SWAP1 POP DUP2 DUP2 SUB PUSH1 0x0 DUP4 ADD MSTORE PUSH2 0x21BA DUP2 PUSH2 0x1ECB JUMP JUMPDEST SWAP1 POP SWAP2 SWAP1 POP JUMP JUMPDEST PUSH1 0x0 PUSH1 0x20 DUP3 ADD SWAP1 POP DUP2 DUP2 SUB PUSH1 0x0 DUP4 ADD MSTORE PUSH2 0x21DA DUP2 PUSH2 0x1EEE JUMP JUMPDEST SWAP1 POP SWAP2 SWAP1 POP JUMP JUMPDEST PUSH1 0x0 PUSH1 0x20 DUP3 ADD SWAP1 POP DUP2 DUP2 SUB PUSH1 0x0 DUP4 ADD MSTORE PUSH2 0x21FA DUP2 PUSH2 0x1F11 JUMP JUMPDEST SWAP1 POP SWAP2 SWAP1 POP JUMP JUMPDEST PUSH1 0x0 PUSH1 0x20 DUP3 ADD SWAP1 POP DUP2 DUP2 SUB PUSH1 0x0 DUP4 ADD MSTORE PUSH2 0x221A DUP2 PUSH2 0x1F34 JUMP JUMPDEST SWAP1 POP SWAP2 SWAP1 POP JUMP JUMPDEST PUSH1 0x0 PUSH1 0x20 DUP3 ADD SWAP1 POP DUP2 DUP2 SUB PUSH1 0x0 DUP4 ADD MSTORE PUSH2 0x223A DUP2 PUSH2 0x1F57 JUMP JUMPDEST SWAP1 POP SWAP2 SWAP1 POP JUMP JUMPDEST PUSH1 0x0 PUSH1 0x20 DUP3 ADD SWAP1 POP DUP2 DUP2 SUB PUSH1 0x0 DUP4 ADD MSTORE PUSH2 0x225A DUP2 PUSH2 0x1F7A JUMP JUMPDEST SWAP1 POP SWAP2 SWAP1 POP JUMP JUMPDEST PUSH1 0x0 PUSH1 0x20 DUP3 ADD SWAP1 POP DUP2 DUP2 SUB PUSH1 0x0 DUP4 ADD MSTORE PUSH2 0x227A DUP2 PUSH2 0x1F9D JUMP JUMPDEST SWAP1 POP SWAP2 SWAP1 POP JUMP JUMPDEST PUSH1 0x0 PUSH1 0x20 DUP3 ADD SWAP1 POP DUP2 DUP2 SUB PUSH1 0x0 DUP4 ADD MSTORE PUSH2 0x229A DUP2 PUSH2 0x1FC0 JUMP JUMPDEST SWAP1 POP SWAP2 SWAP1 POP JUMP JUMPDEST PUSH1 0x0 PUSH1 0x20 DUP3 ADD SWAP1 POP DUP2 DUP2 SUB PUSH1 0x0 DUP4 ADD MSTORE PUSH2 0x22BA DUP2 PUSH2 0x1FE3 JUMP JUMPDEST SWAP1 POP SWAP2 SWAP1 POP JUMP JUMPDEST PUSH1 0x0 PUSH1 0x20 DUP3 ADD SWAP1 POP PUSH2 0x22D6 PUSH1 0x0 DUP4 ADD DUP5 PUSH2 0x20DA JUMP JUMPDEST SWAP3 SWAP2 POP POP JUMP JUMPDEST PUSH1 0x0 PUSH2 0x120 DUP3 ADD SWAP1 POP PUSH2 0x22F2 PUSH1 0x0 DUP4 ADD DUP13 PUSH2 0x20DA JUMP JUMPDEST PUSH2 0x22FF PUSH1 0x20 DUP4 ADD DUP12 PUSH2 0x1D3F JUMP JUMPDEST PUSH2 0x230C PUSH1 0x40 DUP4 ADD DUP11 PUSH2 0x1D3F JUMP JUMPDEST PUSH2 0x2319 PUSH1 0x60 DUP4 ADD DUP10 PUSH2 0x20DA JUMP JUMPDEST PUSH2 0x2326 PUSH1 0x80 DUP4 ADD DUP9 PUSH2 0x20DA JUMP JUMPDEST DUP2 DUP2 SUB PUSH1 0xA0 DUP4 ADD MSTORE PUSH2 0x2338 DUP2 DUP8 PUSH2 0x1E29 JUMP JUMPDEST SWAP1 POP PUSH2 0x2347 PUSH1 0xC0 DUP4 ADD DUP7 PUSH2 0x1DD2 JUMP JUMPDEST PUSH2 0x2354 PUSH1 0xE0 DUP4 ADD DUP6 PUSH2 0x20DA JUMP JUMPDEST PUSH2 0x2362 PUSH2 0x100 DUP4 ADD DUP5 PUSH2 0x20DA JUMP JUMPDEST SWAP11 SWAP10 POP POP POP POP POP POP POP POP POP POP JUMP JUMPDEST PUSH1 0x0 PUSH1 0x80 DUP3 ADD SWAP1 POP PUSH2 0x2385 PUSH1 0x0 DUP4 ADD DUP8 PUSH2 0x20DA JUMP JUMPDEST PUSH2 0x2392 PUSH1 0x20 DUP4 ADD DUP7 PUSH2 0x1D3F JUMP JUMPDEST PUSH2 0x239F PUSH1 0x40 DUP4 ADD DUP6 PUSH2 0x20DA JUMP JUMPDEST DUP2 DUP2 SUB PUSH1 0x60 DUP4 ADD MSTORE PUSH2 0x23B1 DUP2 DUP5 PUSH2 0x1E29 JUMP JUMPDEST SWAP1 POP SWAP6 SWAP5 POP POP POP POP POP JUMP JUMPDEST PUSH1 0x0 PUSH2 0x120 DUP3 ADD SWAP1 POP PUSH2 0x23D2 PUSH1 0x0 DUP4 ADD DUP13 PUSH2 0x20DA JUMP JUMPDEST PUSH2 0x23DF PUSH1 0x20 DUP4 ADD DUP12 PUSH2 0x1D3F JUMP JUMPDEST PUSH2 0x23EC PUSH1 0x40 DUP4 ADD DUP11 PUSH2 0x20DA JUMP JUMPDEST PUSH2 0x23F9 PUSH1 0x60 DUP4 ADD DUP10 PUSH2 0x20DA JUMP JUMPDEST PUSH2 0x2406 PUSH1 0x80 DUP4 ADD DUP9 PUSH2 0x20DA JUMP JUMPDEST PUSH2 0x2413 PUSH1 0xA0 DUP4 ADD DUP8 PUSH2 0x1DD2 JUMP JUMPDEST DUP2 DUP2 SUB PUSH1 0xC0 DUP4 ADD MSTORE PUSH2 0x2425 DUP2 DUP7 PUSH2 0x1E29 JUMP JUMPDEST SWAP1 POP PUSH2 0x2434 PUSH1 0xE0 DUP4 ADD DUP6 PUSH2 0x20DA JUMP JUMPDEST PUSH2 0x2442 PUSH2 0x100 DUP4 ADD DUP5 PUSH2 0x20DA JUMP JUMPDEST SWAP11 SWAP10 POP POP POP POP POP POP POP POP POP POP JUMP JUMPDEST PUSH1 0x0 PUSH1 0x60 DUP3 ADD SWAP1 POP PUSH2 0x2465 PUSH1 0x0 DUP4 ADD DUP7 PUSH2 0x20DA JUMP JUMPDEST PUSH2 0x2472 PUSH1 0x20 DUP4 ADD DUP6 PUSH2 0x20DA JUMP JUMPDEST PUSH2 0x247F PUSH1 0x40 DUP4 ADD DUP5 PUSH2 0x1DE1 JUMP JUMPDEST SWAP5 SWAP4 POP POP POP POP JUMP JUMPDEST PUSH1 0x0 PUSH1 0x60 DUP3 ADD SWAP1 POP PUSH2 0x249C PUSH1 0x0 DUP4 ADD DUP7 PUSH2 0x20DA JUMP JUMPDEST PUSH2 0x24A9 PUSH1 0x20 DUP4 ADD DUP6 PUSH2 0x20DA JUMP JUMPDEST DUP2 DUP2 SUB PUSH1 0x40 DUP4 ADD MSTORE PUSH2 0x24BB DUP2 DUP5 PUSH2 0x1E29 JUMP JUMPDEST SWAP1 POP SWAP5 SWAP4 POP POP POP POP JUMP JUMPDEST PUSH1 0x0 PUSH1 0x60 DUP3 ADD SWAP1 POP PUSH2 0x24DA PUSH1 0x0 DUP4 ADD DUP7 PUSH2 0x20DA JUMP JUMPDEST PUSH2 0x24E7 PUSH1 0x20 DUP4 ADD DUP6 PUSH2 0x20DA JUMP JUMPDEST PUSH2 0x24F4 PUSH1 0x40 DUP4 ADD DUP5 PUSH2 0x20DA JUMP JUMPDEST SWAP5 SWAP4 POP POP POP POP JUMP JUMPDEST PUSH1 0x0 PUSH2 0x2506 PUSH2 0x2517 JUMP JUMPDEST SWAP1 POP PUSH2 0x2512 DUP3 DUP3 PUSH2 0x2710 JUMP JUMPDEST SWAP2 SWAP1 POP JUMP JUMPDEST PUSH1 0x0 PUSH1 0x40 MLOAD SWAP1 POP SWAP1 JUMP JUMPDEST PUSH1 0x0 PUSH8 0xFFFFFFFFFFFFFFFF DUP3 GT ISZERO PUSH2 0x253C JUMPI PUSH2 0x253B PUSH2 0x2817 JUMP JUMPDEST JUMPDEST PUSH2 0x2545 DUP3 PUSH2 0x285A JUMP JUMPDEST SWAP1 POP PUSH1 0x20 DUP2 ADD SWAP1 POP SWAP2 SWAP1 POP JUMP JUMPDEST PUSH1 0x0 DUP2 SWAP1 POP PUSH1 0x20 DUP3 ADD SWAP1 POP SWAP2 SWAP1 POP JUMP JUMPDEST PUSH1 0x0 DUP2 MLOAD SWAP1 POP SWAP2 SWAP1 POP JUMP JUMPDEST PUSH1 0x0 DUP2 MLOAD SWAP1 POP SWAP2 SWAP1 POP JUMP JUMPDEST PUSH1 0x0 PUSH1 0x20 DUP3 ADD SWAP1 POP SWAP2 SWAP1 POP JUMP JUMPDEST PUSH1 0x0 DUP3 DUP3 MSTORE PUSH1 0x20 DUP3 ADD SWAP1 POP SWAP3 SWAP2 POP POP JUMP JUMPDEST PUSH1 0x0 DUP3 DUP3 MSTORE PUSH1 0x20 DUP3 ADD SWAP1 POP SWAP3 SWAP2 POP POP JUMP JUMPDEST PUSH1 0x0 DUP3 DUP3 MSTORE PUSH1 0x20 DUP3 ADD SWAP1 POP SWAP3 SWAP2 POP POP JUMP JUMPDEST PUSH1 0x0 PUSH2 0x25C3 DUP3 PUSH2 0x2680 JUMP JUMPDEST SWAP2 POP PUSH2 0x25CE DUP4 PUSH2 0x2680 JUMP JUMPDEST SWAP3 POP DUP3 PUSH32 0xFFFFFFFFFFFFFFFFFFFFFFFFFFFFFFFFFFFFFFFFFFFFFFFFFFFFFFFFFFFFFFFF SUB DUP3 GT ISZERO PUSH2 0x2603 JUMPI PUSH2 0x2602 PUSH2 0x278A JUMP JUMPDEST JUMPDEST DUP3 DUP3 ADD SWAP1 POP SWAP3 SWAP2 POP POP JUMP JUMPDEST PUSH1 0x0 PUSH2 0x2619 DUP3 PUSH2 0x2680 JUMP JUMPDEST SWAP2 POP PUSH2 0x2624 DUP4 PUSH2 0x2680 JUMP JUMPDEST SWAP3 POP DUP3 DUP3 LT ISZERO PUSH2 0x2637 JUMPI PUSH2 0x2636 PUSH2 0x278A JUMP JUMPDEST JUMPDEST DUP3 DUP3 SUB SWAP1 POP SWAP3 SWAP2 POP POP JUMP JUMPDEST PUSH1 0x0 PUSH2 0x264D DUP3 PUSH2 0x2660 JUMP JUMPDEST SWAP1 POP SWAP2 SWAP1 POP JUMP JUMPDEST PUSH1 0x0 DUP2 ISZERO ISZERO SWAP1 POP SWAP2 SWAP1 POP JUMP JUMPDEST PUSH1 0x0 PUSH20 0xFFFFFFFFFFFFFFFFFFFFFFFFFFFFFFFFFFFFFFFF DUP3 AND SWAP1 POP SWAP2 SWAP1 POP JUMP JUMPDEST PUSH1 0x0 DUP2 SWAP1 POP SWAP2 SWAP1 POP JUMP JUMPDEST PUSH1 0x0 PUSH2 0x2695 DUP3 PUSH2 0x2680 JUMP JUMPDEST SWAP1 POP SWAP2 SWAP1 POP JUMP JUMPDEST DUP3 DUP2 DUP4 CALLDATACOPY PUSH1 0x0 DUP4 DUP4 ADD MSTORE POP POP POP JUMP JUMPDEST PUSH1 0x0 JUMPDEST DUP4 DUP2 LT ISZERO PUSH2 0x26C9 JUMPI DUP1 DUP3 ADD MLOAD DUP2 DUP5 ADD MSTORE PUSH1 0x20 DUP2 ADD SWAP1 POP PUSH2 0x26AE JUMP JUMPDEST DUP4 DUP2 GT ISZERO PUSH2 0x26D8 JUMPI PUSH1 0x0 DUP5 DUP5 ADD MSTORE JUMPDEST POP POP POP POP JUMP JUMPDEST PUSH1 0x0 PUSH1 0x2 DUP3 DIV SWAP1 POP PUSH1 0x1 DUP3 AND DUP1 PUSH2 0x26F6 JUMPI PUSH1 0x7F DUP3 AND SWAP2 POP JUMPDEST PUSH1 0x20 DUP3 LT DUP2 EQ ISZERO PUSH2 0x270A JUMPI PUSH2 0x2709 PUSH2 0x27B9 JUMP JUMPDEST JUMPDEST POP SWAP2 SWAP1 POP JUMP JUMPDEST PUSH2 0x2719 DUP3 PUSH2 0x285A JUMP JUMPDEST DUP2 ADD DUP2 DUP2 LT PUSH8 0xFFFFFFFFFFFFFFFF DUP3 GT OR ISZERO PUSH2 0x2738 JUMPI PUSH2 0x2737 PUSH2 0x2817 JUMP JUMPDEST JUMPDEST DUP1 PUSH1 0x40 MSTORE POP POP POP JUMP JUMPDEST PUSH1 0x0 PUSH2 0x274C DUP3 PUSH2 0x2680 JUMP JUMPDEST SWAP2 POP PUSH32 0xFFFFFFFFFFFFFFFFFFFFFFFFFFFFFFFFFFFFFFFFFFFFFFFFFFFFFFFFFFFFFFFF DUP3 EQ ISZERO PUSH2 0x277F JUMPI PUSH2 0x277E PUSH2 0x278A JUMP JUMPDEST JUMPDEST PUSH1 0x1 DUP3 ADD SWAP1 POP SWAP2 SWAP1 POP JUMP JUMPDEST PUSH32 0x4E487B7100000000000000000000000000000000000000000000000000000000 PUSH1 0x0 MSTORE PUSH1 0x11 PUSH1 0x4 MSTORE PUSH1 0x24 PUSH1 0x0 REVERT JUMPDEST PUSH32 0x4E487B7100000000000000000000000000000000000000000000000000000000 PUSH1 0x0 MSTORE PUSH1 0x22 PUSH1 0x4 MSTORE PUSH1 0x24 PUSH1 0x0 REVERT JUMPDEST PUSH32 0x4E487B7100000000000000000000000000000000000000000000000000000000 PUSH1 0x0 MSTORE PUSH1 0x32 PUSH1 0x4 MSTORE PUSH1 0x24 PUSH1 0x0 REVERT JUMPDEST PUSH32 0x4E487B7100000000000000000000000000000000000000000000000000000000 PUSH1 0x0 MSTORE PUSH1 0x41 PUSH1 0x4 MSTORE PUSH1 0x24 PUSH1 0x0 REVERT JUMPDEST PUSH1 0x0 DUP1 REVERT JUMPDEST PUSH1 0x0 DUP1 REVERT JUMPDEST PUSH1 0x0 DUP1 REVERT JUMPDEST PUSH1 0x0 DUP1 REVERT JUMPDEST PUSH1 0x0 PUSH1 0x1F NOT PUSH1 0x1F DUP4 ADD AND SWAP1 POP SWAP2 SWAP1 POP JUMP JUMPDEST PUSH32 0x5061796D656E74206D7573742062652067726561746572207468616E20300000 PUSH1 0x0 DUP3 ADD MSTORE POP JUMP JUMPDEST PUSH32 0x416C72656164792064656C657465640000000000000000000000000000000000 PUSH1 0x0 DUP3 ADD MSTORE POP JUMP JUMPDEST PUSH32 0x43616E6E6F7420656469742066756C6C792070616964207574616E6700000000 PUSH1 0x0 DUP3 ADD MSTORE POP JUMP JUMPDEST PUSH32 0x5061796D656E7420657863656564732072656D61696E696E672062616C616E63 PUSH1 0x0 DUP3 ADD MSTORE PUSH32 0x6500000000000000000000000000000000000000000000000000000000000000 PUSH1 0x20 DUP3 ADD MSTORE POP JUMP JUMPDEST PUSH32 0x4F6E6C792073746F7265206F776E65722063616E20706572666F726D20746869 PUSH1 0x0 DUP3 ADD MSTORE PUSH32 0x7320616374696F6E000000000000000000000000000000000000000000000000 PUSH1 0x20 DUP3 ADD MSTORE POP JUMP JUMPDEST PUSH32 0x5574616E6720686173206265656E2064656C6574656400000000000000000000 PUSH1 0x0 DUP3 ADD MSTORE POP JUMP JUMPDEST PUSH32 0x416C72656164792066756C6C7920706169640000000000000000000000000000 PUSH1 0x0 DUP3 ADD MSTORE POP JUMP JUMPDEST PUSH32 0x5574616E6720646F6573206E6F74206578697374000000000000000000000000 PUSH1 0x0 DUP3 ADD MSTORE POP JUMP JUMPDEST PUSH32 0x43616E6E6F7420656469742064656C65746564207574616E6700000000000000 PUSH1 0x0 DUP3 ADD MSTORE POP JUMP JUMPDEST PUSH32 0x4F6E6C7920637573746F6D6572206F722073746F7265206F776E65722063616E PUSH1 0x0 DUP3 ADD MSTORE PUSH32 0x2070617900000000000000000000000000000000000000000000000000000000 PUSH1 0x20 DUP3 ADD MSTORE POP JUMP JUMPDEST PUSH32 0x494420616C726561647920696E20757365000000000000000000000000000000 PUSH1 0x0 DUP3 ADD MSTORE POP JUMP JUMPDEST PUSH32 0x5574616E6720616C72656164792066756C6C7920706169640000000000000000 PUSH1 0x0 DUP3 ADD MSTORE POP JUMP JUMPDEST PUSH2 0x2AD2 DUP2 PUSH2 0x2642 JUMP JUMPDEST DUP2 EQ PUSH2 0x2ADD JUMPI PUSH1 0x0 DUP1 REVERT JUMPDEST POP JUMP JUMPDEST PUSH2 0x2AE9 DUP2 PUSH2 0x2654 JUMP JUMPDEST DUP2 EQ PUSH2 0x2AF4 JUMPI PUSH1 0x0 DUP1 REVERT JUMPDEST POP JUMP JUMPDEST PUSH2 0x2B00 DUP2 PUSH2 0x2680 JUMP JUMPDEST DUP2 EQ PUSH2 0x2B0B JUMPI PUSH1 0x0 DUP1 REVERT JUMPDEST POP JUMP INVALID LOG2 PUSH5 0x6970667358 0x22 SLT KECCAK256 0xE5 SWAP3 PUSH15 0xDB50ACAE6AE5E9E28C7E736563CE1B EXTCODEHASH 0xAD 0x4A 0xC7 PUSH5 0x1809E586A5 0xBE 0xDD MOD 0xEB PUSH5 0x736F6C6343 STOP ADDMOD SMOD STOP CALLER "
		},
		"gasEstimates": {
			"creation": {
				"codeDepositCost": "2215200",
				"executionCost": "26634",
				"totalCost": "2241834"
			},
			"external": {
				"addUtang(address,uint256,string)": "infinite",
				"deleteUtang(uint256)": "infinite",
				"editUtang(uint256,uint256,string)": "infinite",
				"getCustomerUtang(address,bool)": "infinite",
				"getRemainingBalance(uint256)": "infinite",
				"getTotalUnpaid(address)": "infinite",
				"getUtangDetails(uint256)": "infinite",
				"isDeleted(uint256)": "2819",
				"makePayment(uint256,uint256)": "infinite",
				"markAsFullyPaid(uint256)": "infinite",
				"owner()": "2603",
				"utangExists(uint256)": "2820",
				"utangIdExists(uint256)": "5109",
				"utangList(uint256)": "infinite"
			}
		},
		"methodIdentifiers": {
			"addUtang(address,uint256,string)": "6733c3a5",
			"deleteUtang(uint256)": "e9f51aa8",
			"editUtang(uint256,uint256,string)": "4f355b44",
			"getCustomerUtang(address,bool)": "37027aa0",
			"getRemainingBalance(uint256)": "78e94dd2",
			"getTotalUnpaid(address)": "ba056a9b",
			"getUtangDetails(uint256)": "f1f740da",
			"isDeleted(uint256)": "94182c36",
			"makePayment(uint256,uint256)": "d390f974",
			"markAsFullyPaid(uint256)": "e508dfbd",
			"owner()": "8da5cb5b",
			"utangExists(uint256)": "04698b7c",
			"utangIdExists(uint256)": "b5bec42a",
			"utangList(uint256)": "2fd1c05e"
		}
	},
	"abi": [
		{
			"inputs": [],
			"stateMutability": "nonpayable",
			"type": "constructor"
		},
		{
			"anonymous": false,
			"inputs": [
				{
					"indexed": false,
					"internalType": "uint256",
					"name": "id",
					"type": "uint256"
				},
				{
					"indexed": false,
					"internalType": "address",
					"name": "customer",
					"type": "address"
				},
				{
					"indexed": false,
					"internalType": "uint256",
					"name": "amount",
					"type": "uint256"
				},
				{
					"indexed": false,
					"internalType": "string",
					"name": "items",
					"type": "string"
				}
			],
			"name": "NewUtang",
			"type": "event"
		},
		{
			"anonymous": false,
			"inputs": [
				{
					"indexed": false,
					"internalType": "uint256",
					"name": "id",
					"type": "uint256"
				}
			],
			"name": "UtangDeleted",
			"type": "event"
		},
		{
			"anonymous": false,
			"inputs": [
				{
					"indexed": false,
					"internalType": "uint256",
					"name": "id",
					"type": "uint256"
				},
				{
					"indexed": false,
					"internalType": "uint256",
					"name": "newAmount",
					"type": "uint256"
				},
				{
					"indexed": false,
					"internalType": "string",
					"name": "newItems",
					"type": "string"
				}
			],
			"name": "UtangEdited",
			"type": "event"
		},
		{
			"anonymous": false,
			"inputs": [
				{
					"indexed": false,
					"internalType": "uint256",
					"name": "id",
					"type": "uint256"
				},
				{
					"indexed": false,
					"internalType": "uint256",
					"name": "amountPaid",
					"type": "uint256"
				},
				{
					"indexed": false,
					"internalType": "uint256",
					"name": "remainingBalance",
					"type": "uint256"
				}
			],
			"name": "UtangPaid",
			"type": "event"
		},
		{
			"inputs": [
				{
					"internalType": "address",
					"name": "_customer",
					"type": "address"
				},
				{
					"internalType": "uint256",
					"name": "_amount",
					"type": "uint256"
				},
				{
					"internalType": "string",
					"name": "_items",
					"type": "string"
				}
			],
			"name": "addUtang",
			"outputs": [],
			"stateMutability": "nonpayable",
			"type": "function"
		},
		{
			"inputs": [
				{
					"internalType": "uint256",
					"name": "_id",
					"type": "uint256"
				}
			],
			"name": "deleteUtang",
			"outputs": [],
			"stateMutability": "nonpayable",
			"type": "function"
		},
		{
			"inputs": [
				{
					"internalType": "uint256",
					"name": "_id",
					"type": "uint256"
				},
				{
					"internalType": "uint256",
					"name": "_newAmount",
					"type": "uint256"
				},
				{
					"internalType": "string",
					"name": "_newItems",
					"type": "string"
				}
			],
			"name": "editUtang",
			"outputs": [],
			"stateMutability": "nonpayable",
			"type": "function"
		},
		{
			"inputs": [
				{
					"internalType": "address",
					"name": "_customer",
					"type": "address"
				},
				{
					"internalType": "bool",
					"name": "_includeDeleted",
					"type": "bool"
				}
			],
			"name": "getCustomerUtang",
			"outputs": [
				{
					"components": [
						{
							"internalType": "uint256",
							"name": "id",
							"type": "uint256"
						},
						{
							"internalType": "address",
							"name": "storeOwner",
							"type": "address"
						},
						{
							"internalType": "address",
							"name": "customer",
							"type": "address"
						},
						{
							"internalType": "uint256",
							"name": "amount",
							"type": "uint256"
						},
						{
							"internalType": "uint256",
							"name": "paidAmount",
							"type": "uint256"
						},
						{
							"internalType": "string",
							"name": "items",
							"type": "string"
						},
						{
							"internalType": "bool",
							"name": "isFullyPaid",
							"type": "bool"
						},
						{
							"internalType": "uint256",
							"name": "timestamp",
							"type": "uint256"
						},
						{
							"internalType": "uint256",
							"name": "lastPaymentTime",
							"type": "uint256"
						}
					],
					"internalType": "struct ListaTrustFinal.Utang[]",
					"name": "",
					"type": "tuple[]"
				}
			],
			"stateMutability": "view",
			"type": "function"
		},
		{
			"inputs": [
				{
					"internalType": "uint256",
					"name": "_id",
					"type": "uint256"
				}
			],
			"name": "getRemainingBalance",
			"outputs": [
				{
					"internalType": "uint256",
					"name": "",
					"type": "uint256"
				}
			],
			"stateMutability": "view",
			"type": "function"
		},
		{
			"inputs": [
				{
					"internalType": "address",
					"name": "_customer",
					"type": "address"
				}
			],
			"name": "getTotalUnpaid",
			"outputs": [
				{
					"internalType": "uint256",
					"name": "",
					"type": "uint256"
				}
			],
			"stateMutability": "view",
			"type": "function"
		},
		{
			"inputs": [
				{
					"internalType": "uint256",
					"name": "_id",
					"type": "uint256"
				}
			],
			"name": "getUtangDetails",
			"outputs": [
				{
					"internalType": "uint256",
					"name": "id",
					"type": "uint256"
				},
				{
					"internalType": "address",
					"name": "customer",
					"type": "address"
				},
				{
					"internalType": "uint256",
					"name": "totalAmount",
					"type": "uint256"
				},
				{
					"internalType": "uint256",
					"name": "paidAmount",
					"type": "uint256"
				},
				{
					"internalType": "uint256",
					"name": "remainingBalance",
					"type": "uint256"
				},
				{
					"internalType": "bool",
					"name": "isFullyPaid",
					"type": "bool"
				},
				{
					"internalType": "string",
					"name": "items",
					"type": "string"
				},
				{
					"internalType": "uint256",
					"name": "created",
					"type": "uint256"
				},
				{
					"internalType": "uint256",
					"name": "lastPayment",
					"type": "uint256"
				}
			],
			"stateMutability": "view",
			"type": "function"
		},
		{
			"inputs": [
				{
					"internalType": "uint256",
					"name": "",
					"type": "uint256"
				}
			],
			"name": "isDeleted",
			"outputs": [
				{
					"internalType": "bool",
					"name": "",
					"type": "bool"
				}
			],
			"stateMutability": "view",
			"type": "function"
		},
		{
			"inputs": [
				{
					"internalType": "uint256",
					"name": "_id",
					"type": "uint256"
				},
				{
					"internalType": "uint256",
					"name": "_paymentAmount",
					"type": "uint256"
				}
			],
			"name": "makePayment",
			"outputs": [],
			"stateMutability": "nonpayable",
			"type": "function"
		},
		{
			"inputs": [
				{
					"internalType": "uint256",
					"name": "_id",
					"type": "uint256"
				}
			],
			"name": "markAsFullyPaid",
			"outputs": [],
			"stateMutability": "nonpayable",
			"type": "function"
		},
		{
			"inputs": [],
			"name": "owner",
			"outputs": [
				{
					"internalType": "address",
					"name": "",
					"type": "address"
				}
			],
			"stateMutability": "view",
			"type": "function"
		},
		{
			"inputs": [
				{
					"internalType": "uint256",
					"name": "",
					"type": "uint256"
				}
			],
			"name": "utangExists",
			"outputs": [
				{
					"internalType": "bool",
					"name": "",
					"type": "bool"
				}
			],
			"stateMutability": "view",
			"type": "function"
		},
		{
			"inputs": [
				{
					"internalType": "uint256",
					"name": "_id",
					"type": "uint256"
				}
			],
			"name": "utangIdExists",
			"outputs": [
				{
					"internalType": "bool",
					"name": "",
					"type": "bool"
				}
			],
			"stateMutability": "view",
			"type": "function"
		},
		{
			"inputs": [
				{
					"internalType": "uint256",
					"name": "",
					"type": "uint256"
				}
			],
			"name": "utangList",
			"outputs": [
				{
					"internalType": "uint256",
					"name": "id",
					"type": "uint256"
				},
				{
					"internalType": "address",
					"name": "storeOwner",
					"type": "address"
				},
				{
					"internalType": "address",
					"name": "customer",
					"type": "address"
				},
				{
					"internalType": "uint256",
					"name": "amount",
					"type": "uint256"
				},
				{
					"internalType": "uint256",
					"name": "paidAmount",
					"type": "uint256"
				},
				{
					"internalType": "string",
					"name": "items",
					"type": "string"
				},
				{
					"internalType": "bool",
					"name": "isFullyPaid",
					"type": "bool"
				},
				{
					"internalType": "uint256",
					"name": "timestamp",
					"type": "uint256"
				},
				{
					"internalType": "uint256",
					"name": "lastPaymentTime",
					"type": "uint256"
				}
			],
			"stateMutability": "view",
			"type": "function"
		}
	]
}