{
	"data": {
		"bytecode": {
			"linkReferences": {},
			"object": "6080604052348015600e575f5ffd5b506113228061001c5f395ff3fe608060405234801561000f575f5ffd5b506004361061004a575f3560e01c80636733c3a51461004e5780637e257dc81461006a578063ad207e1e1461009f578063d763f638146100bb575b5f5ffd5b61006860048036038101906100639190610acb565b6100eb565b005b610084600480360381019061007f9190610b37565b61028b565b60405161009696959493929190610bfa565b60405180910390f35b6100b960048036038101906100b49190610b37565b6103a1565b005b6100d560048036038101906100d09190610c60565b610533565b6040516100e29190610e41565b60405180910390f35b5f5f8054905090505f6040518060c001604052808381526020013373ffffffffffffffffffffffffffffffffffffffff1681526020018673ffffffffffffffffffffffffffffffffffffffff1681526020018581526020018481526020015f1515815250908060018154018082558091505060019003905f5260205f2090600602015f909190919091505f820151815f01556020820151816001015f6101000a81548173ffffffffffffffffffffffffffffffffffffffff021916908373ffffffffffffffffffffffffffffffffffffffff1602179055506040820151816002015f6101000a81548173ffffffffffffffffffffffffffffffffffffffff021916908373ffffffffffffffffffffffffffffffffffffffff160217905550606082015181600301556080820151816004019081610228919061105e565b5060a0820151816005015f6101000a81548160ff02191690831515021790555050507f3f19529f50ac84af5a4fa2f3fd05d798c2e8412232bcd1665faee8bb4799811981858560405161027d9392919061112d565b60405180910390a150505050565b5f8181548110610299575f80fd5b905f5260205f2090600602015f91509050805f015490806001015f9054906101000a900473ffffffffffffffffffffffffffffffffffffffff1690806002015f9054906101000a900473ffffffffffffffffffffffffffffffffffffffff169080600301549080600401805461030e90610e8e565b80601f016020809104026020016040519081016040528092919081815260200182805461033a90610e8e565b80156103855780601f1061035c57610100808354040283529160200191610385565b820191905f5260205f20905b81548152906001019060200180831161036857829003601f168201915b505050505090806005015f9054906101000a900460ff16905086565b3373ffffffffffffffffffffffffffffffffffffffff165f82815481106103cb576103ca611162565b5b905f5260205f2090600602016002015f9054906101000a900473ffffffffffffffffffffffffffffffffffffffff1673ffffffffffffffffffffffffffffffffffffffff1614610450576040517f08c379a0000000000000000000000000000000000000000000000000000000008152600401610447906111d9565b60405180910390fd5b5f818154811061046357610462611162565b5b905f5260205f2090600602016005015f9054906101000a900460ff16156104bf576040517f08c379a00000000000000000000000000000000000000000000000000000000081526004016104b690611241565b60405180910390fd5b60015f82815481106104d4576104d3611162565b5b905f5260205f2090600602016005015f6101000a81548160ff0219169083151502179055507f48e985a2725c94a14dd72ab2e85f5da623cb78e019e7c2ff63dd8378625d94e481604051610528919061125f565b60405180910390a150565b60605f5f90505f5f90505b5f805490508110156105da578373ffffffffffffffffffffffffffffffffffffffff165f828154811061057457610573611162565b5b905f5260205f2090600602016002015f9054906101000a900473ffffffffffffffffffffffffffffffffffffffff1673ffffffffffffffffffffffffffffffffffffffff16036105cd5781806105c9906112a5565b9250505b808060010191505061053e565b505f8167ffffffffffffffff8111156105f6576105f56109a7565b5b60405190808252806020026020018201604052801561062f57816020015b61061c610892565b8152602001906001900390816106145790505b5090505f5f90505f5f90505b5f80549050811015610886578573ffffffffffffffffffffffffffffffffffffffff165f828154811061067157610670611162565b5b905f5260205f2090600602016002015f9054906101000a900473ffffffffffffffffffffffffffffffffffffffff1673ffffffffffffffffffffffffffffffffffffffff1603610879575f81815481106106ce576106cd611162565b5b905f5260205f2090600602016040518060c00160405290815f8201548152602001600182015f9054906101000a900473ffffffffffffffffffffffffffffffffffffffff1673ffffffffffffffffffffffffffffffffffffffff1673ffffffffffffffffffffffffffffffffffffffff168152602001600282015f9054906101000a900473ffffffffffffffffffffffffffffffffffffffff1673ffffffffffffffffffffffffffffffffffffffff1673ffffffffffffffffffffffffffffffffffffffff168152602001600382015481526020016004820180546107b290610e8e565b80601f01602080910402602001604051908101604052809291908181526020018280546107de90610e8e565b80156108295780601f1061080057610100808354040283529160200191610829565b820191905f5260205f20905b81548152906001019060200180831161080c57829003601f168201915b50505050508152602001600582015f9054906101000a900460ff16151515158152505083838151811061085f5761085e611162565b5b60200260200101819052508180610875906112a5565b9250505b808060010191505061063b565b50819350505050919050565b6040518060c001604052805f81526020015f73ffffffffffffffffffffffffffffffffffffffff1681526020015f73ffffffffffffffffffffffffffffffffffffffff1681526020015f8152602001606081526020015f151581525090565b5f604051905090565b5f5ffd5b5f5ffd5b5f73ffffffffffffffffffffffffffffffffffffffff82169050919050565b5f61092b82610902565b9050919050565b61093b81610921565b8114610945575f5ffd5b50565b5f8135905061095681610932565b92915050565b5f819050919050565b61096e8161095c565b8114610978575f5ffd5b50565b5f8135905061098981610965565b92915050565b5f5ffd5b5f5ffd5b5f601f19601f8301169050919050565b7f4e487b71000000000000000000000000000000000000000000000000000000005f52604160045260245ffd5b6109dd82610997565b810181811067ffffffffffffffff821117156109fc576109fb6109a7565b5b80604052505050565b5f610a0e6108f1565b9050610a1a82826109d4565b919050565b5f67ffffffffffffffff821115610a3957610a386109a7565b5b610a4282610997565b9050602081019050919050565b828183375f83830152505050565b5f610a6f610a6a84610a1f565b610a05565b905082815260208101848484011115610a8b57610a8a610993565b5b610a96848285610a4f565b509392505050565b5f82601f830112610ab257610ab161098f565b5b8135610ac2848260208601610a5d565b91505092915050565b5f5f5f60608486031215610ae257610ae16108fa565b5b5f610aef86828701610948565b9350506020610b008682870161097b565b925050604084013567ffffffffffffffff811115610b2157610b206108fe565b5b610b2d86828701610a9e565b9150509250925092565b5f60208284031215610b4c57610b4b6108fa565b5b5f610b598482850161097b565b91505092915050565b610b6b8161095c565b82525050565b610b7a81610921565b82525050565b5f81519050919050565b5f82825260208201905092915050565b8281835e5f83830152505050565b5f610bb282610b80565b610bbc8185610b8a565b9350610bcc818560208601610b9a565b610bd581610997565b840191505092915050565b5f8115159050919050565b610bf481610be0565b82525050565b5f60c082019050610c0d5f830189610b62565b610c1a6020830188610b71565b610c276040830187610b71565b610c346060830186610b62565b8181036080830152610c468185610ba8565b9050610c5560a0830184610beb565b979650505050505050565b5f60208284031215610c7557610c746108fa565b5b5f610c8284828501610948565b91505092915050565b5f81519050919050565b5f82825260208201905092915050565b5f819050602082019050919050565b610cbd8161095c565b82525050565b610ccc81610921565b82525050565b5f82825260208201905092915050565b5f610cec82610b80565b610cf68185610cd2565b9350610d06818560208601610b9a565b610d0f81610997565b840191505092915050565b610d2381610be0565b82525050565b5f60c083015f830151610d3e5f860182610cb4565b506020830151610d516020860182610cc3565b506040830151610d646040860182610cc3565b506060830151610d776060860182610cb4565b5060808301518482036080860152610d8f8282610ce2565b91505060a0830151610da460a0860182610d1a565b508091505092915050565b5f610dba8383610d29565b905092915050565b5f602082019050919050565b5f610dd882610c8b565b610de28185610c95565b935083602082028501610df485610ca5565b805f5b85811015610e2f5784840389528151610e108582610daf565b9450610e1b83610dc2565b925060208a01995050600181019050610df7565b50829750879550505050505092915050565b5f6020820190508181035f830152610e598184610dce565b905092915050565b7f4e487b71000000000000000000000000000000000000000000000000000000005f52602260045260245ffd5b5f6002820490506001821680610ea557607f821691505b602082108103610eb857610eb7610e61565b5b50919050565b5f819050815f5260205f209050919050565b5f6020601f8301049050919050565b5f82821b905092915050565b5f60088302610f1a7fffffffffffffffffffffffffffffffffffffffffffffffffffffffffffffffff82610edf565b610f248683610edf565b95508019841693508086168417925050509392505050565b5f819050919050565b5f610f5f610f5a610f558461095c565b610f3c565b61095c565b9050919050565b5f819050919050565b610f7883610f45565b610f8c610f8482610f66565b848454610eeb565b825550505050565b5f5f905090565b610fa3610f94565b610fae818484610f6f565b505050565b5b81811015610fd157610fc65f82610f9b565b600181019050610fb4565b5050565b601f82111561101657610fe781610ebe565b610ff084610ed0565b81016020851015610fff578190505b61101361100b85610ed0565b830182610fb3565b50505b505050565b5f82821c905092915050565b5f6110365f198460080261101b565b1980831691505092915050565b5f61104e8383611027565b9150826002028217905092915050565b61106782610b80565b67ffffffffffffffff8111156110805761107f6109a7565b5b61108a8254610e8e565b611095828285610fd5565b5f60209050601f8311600181146110c6575f84156110b4578287015190505b6110be8582611043565b865550611125565b601f1984166110d486610ebe565b5f5b828110156110fb578489015182556001820191506020850194506020810190506110d6565b868310156111185784890151611114601f891682611027565b8355505b6001600288020188555050505b505050505050565b5f6060820190506111405f830186610b62565b61114d6020830185610b71565b61115a6040830184610b62565b949350505050565b7f4e487b71000000000000000000000000000000000000000000000000000000005f52603260045260245ffd5b7f4f6e6c7920637573746f6d65722063616e2070617900000000000000000000005f82015250565b5f6111c3601583610b8a565b91506111ce8261118f565b602082019050919050565b5f6020820190508181035f8301526111f0816111b7565b9050919050565b7f416c7265616479207061696400000000000000000000000000000000000000005f82015250565b5f61122b600c83610b8a565b9150611236826111f7565b602082019050919050565b5f6020820190508181035f8301526112588161121f565b9050919050565b5f6020820190506112725f830184610b62565b92915050565b7f4e487b71000000000000000000000000000000000000000000000000000000005f52601160045260245ffd5b5f6112af8261095c565b91507fffffffffffffffffffffffffffffffffffffffffffffffffffffffffffffffff82036112e1576112e0611278565b5b60018201905091905056fea26469706673582212207fbb45cf4811873b9c68f2068dd0d0ff82b0a9396f1387f9726e235e3ef2960d64736f6c634300081f0033",
			"opcodes": "PUSH1 0x80 PUSH1 0x40 MSTORE CALLVALUE DUP1 ISZERO PUSH1 0xE JUMPI PUSH0 PUSH0 REVERT JUMPDEST POP PUSH2 0x1322 DUP1 PUSH2 0x1C PUSH0 CODECOPY PUSH0 RETURN INVALID PUSH1 0x80 PUSH1 0x40 MSTORE CALLVALUE DUP1 ISZERO PUSH2 0xF JUMPI PUSH0 PUSH0 REVERT JUMPDEST POP PUSH1 0x4 CALLDATASIZE LT PUSH2 0x4A JUMPI PUSH0 CALLDATALOAD PUSH1 0xE0 SHR DUP1 PUSH4 0x6733C3A5 EQ PUSH2 0x4E JUMPI DUP1 PUSH4 0x7E257DC8 EQ PUSH2 0x6A JUMPI DUP1 PUSH4 0xAD207E1E EQ PUSH2 0x9F JUMPI DUP1 PUSH4 0xD763F638 EQ PUSH2 0xBB JUMPI JUMPDEST PUSH0 PUSH0 REVERT JUMPDEST PUSH2 0x68 PUSH1 0x4 DUP1 CALLDATASIZE SUB DUP2 ADD SWAP1 PUSH2 0x63 SWAP2 SWAP1 PUSH2 0xACB JUMP JUMPDEST PUSH2 0xEB JUMP JUMPDEST STOP JUMPDEST PUSH2 0x84 PUSH1 0x4 DUP1 CALLDATASIZE SUB DUP2 ADD SWAP1 PUSH2 0x7F SWAP2 SWAP1 PUSH2 0xB37 JUMP JUMPDEST PUSH2 0x28B JUMP JUMPDEST PUSH1 0x40 MLOAD PUSH2 0x96 SWAP7 SWAP6 SWAP5 SWAP4 SWAP3 SWAP2 SWAP1 PUSH2 0xBFA JUMP JUMPDEST PUSH1 0x40 MLOAD DUP1 SWAP2 SUB SWAP1 RETURN JUMPDEST PUSH2 0xB9 PUSH1 0x4 DUP1 CALLDATASIZE SUB DUP2 ADD SWAP1 PUSH2 0xB4 SWAP2 SWAP1 PUSH2 0xB37 JUMP JUMPDEST PUSH2 0x3A1 JUMP JUMPDEST STOP JUMPDEST PUSH2 0xD5 PUSH1 0x4 DUP1 CALLDATASIZE SUB DUP2 ADD SWAP1 PUSH2 0xD0 SWAP2 SWAP1 PUSH2 0xC60 JUMP JUMPDEST PUSH2 0x533 JUMP JUMPDEST PUSH1 0x40 MLOAD PUSH2 0xE2 SWAP2 SWAP1 PUSH2 0xE41 JUMP JUMPDEST PUSH1 0x40 MLOAD DUP1 SWAP2 SUB SWAP1 RETURN JUMPDEST PUSH0 PUSH0 DUP1 SLOAD SWAP1 POP SWAP1 POP PUSH0 PUSH1 0x40 MLOAD DUP1 PUSH1 0xC0 ADD PUSH1 0x40 MSTORE DUP1 DUP4 DUP2 MSTORE PUSH1 0x20 ADD CALLER PUSH20 0xFFFFFFFFFFFFFFFFFFFFFFFFFFFFFFFFFFFFFFFF AND DUP2 MSTORE PUSH1 0x20 ADD DUP7 PUSH20 0xFFFFFFFFFFFFFFFFFFFFFFFFFFFFFFFFFFFFFFFF AND DUP2 MSTORE PUSH1 0x20 ADD DUP6 DUP2 MSTORE PUSH1 0x20 ADD DUP5 DUP2 MSTORE PUSH1 0x20 ADD PUSH0 ISZERO ISZERO DUP2 MSTORE POP SWAP1 DUP1 PUSH1 0x1 DUP2 SLOAD ADD DUP1 DUP3 SSTORE DUP1 SWAP2 POP POP PUSH1 0x1 SWAP1 SUB SWAP1 PUSH0 MSTORE PUSH1 0x20 PUSH0 KECCAK256 SWAP1 PUSH1 0x6 MUL ADD PUSH0 SWAP1 SWAP2 SWAP1 SWAP2 SWAP1 SWAP2 POP PUSH0 DUP3 ADD MLOAD DUP2 PUSH0 ADD SSTORE PUSH1 0x20 DUP3 ADD MLOAD DUP2 PUSH1 0x1 ADD PUSH0 PUSH2 0x100 EXP DUP2 SLOAD DUP2 PUSH20 0xFFFFFFFFFFFFFFFFFFFFFFFFFFFFFFFFFFFFFFFF MUL NOT AND SWAP1 DUP4 PUSH20 0xFFFFFFFFFFFFFFFFFFFFFFFFFFFFFFFFFFFFFFFF AND MUL OR SWAP1 SSTORE POP PUSH1 0x40 DUP3 ADD MLOAD DUP2 PUSH1 0x2 ADD PUSH0 PUSH2 0x100 EXP DUP2 SLOAD DUP2 PUSH20 0xFFFFFFFFFFFFFFFFFFFFFFFFFFFFFFFFFFFFFFFF MUL NOT AND SWAP1 DUP4 PUSH20 0xFFFFFFFFFFFFFFFFFFFFFFFFFFFFFFFFFFFFFFFF AND MUL OR SWAP1 SSTORE POP PUSH1 0x60 DUP3 ADD MLOAD DUP2 PUSH1 0x3 ADD SSTORE PUSH1 0x80 DUP3 ADD MLOAD DUP2 PUSH1 0x4 ADD SWAP1 DUP2 PUSH2 0x228 SWAP2 SWAP1 PUSH2 0x105E JUMP JUMPDEST POP PUSH1 0xA0 DUP3 ADD MLOAD DUP2 PUSH1 0x5 ADD PUSH0 PUSH2 0x100 EXP DUP2 SLOAD DUP2 PUSH1 0xFF MUL NOT AND SWAP1 DUP4 ISZERO ISZERO MUL OR SWAP1 SSTORE POP POP POP PUSH32 0x3F19529F50AC84AF5A4FA2F3FD05D798C2E8412232BCD1665FAEE8BB47998119 DUP2 DUP6 DUP6 PUSH1 0x40 MLOAD PUSH2 0x27D SWAP4 SWAP3 SWAP2 SWAP1 PUSH2 0x112D JUMP JUMPDEST PUSH1 0x40 MLOAD DUP1 SWAP2 SUB SWAP1 LOG1 POP POP POP POP JUMP JUMPDEST PUSH0 DUP2 DUP2 SLOAD DUP2 LT PUSH2 0x299 JUMPI PUSH0 DUP1 REVERT JUMPDEST SWAP1 PUSH0 MSTORE PUSH1 0x20 PUSH0 KECCAK256 SWAP1 PUSH1 0x6 MUL ADD PUSH0 SWAP2 POP SWAP1 POP DUP1 PUSH0 ADD SLOAD SWAP1 DUP1 PUSH1 0x1 ADD PUSH0 SWAP1 SLOAD SWAP1 PUSH2 0x100 EXP SWAP1 DIV PUSH20 0xFFFFFFFFFFFFFFFFFFFFFFFFFFFFFFFFFFFFFFFF AND SWAP1 DUP1 PUSH1 0x2 ADD PUSH0 SWAP1 SLOAD SWAP1 PUSH2 0x100 EXP SWAP1 DIV PUSH20 0xFFFFFFFFFFFFFFFFFFFFFFFFFFFFFFFFFFFFFFFF AND SWAP1 DUP1 PUSH1 0x3 ADD SLOAD SWAP1 DUP1 PUSH1 0x4 ADD DUP1 SLOAD PUSH2 0x30E SWAP1 PUSH2 0xE8E JUMP JUMPDEST DUP1 PUSH1 0x1F ADD PUSH1 0x20 DUP1 SWAP2 DIV MUL PUSH1 0x20 ADD PUSH1 0x40 MLOAD SWAP1 DUP2 ADD PUSH1 0x40 MSTORE DUP1 SWAP3 SWAP2 SWAP1 DUP2 DUP2 MSTORE PUSH1 0x20 ADD DUP3 DUP1 SLOAD PUSH2 0x33A SWAP1 PUSH2 0xE8E JUMP JUMPDEST DUP1 ISZERO PUSH2 0x385 JUMPI DUP1 PUSH1 0x1F LT PUSH2 0x35C JUMPI PUSH2 0x100 DUP1 DUP4 SLOAD DIV MUL DUP4 MSTORE SWAP2 PUSH1 0x20 ADD SWAP2 PUSH2 0x385 JUMP JUMPDEST DUP3 ADD SWAP2 SWAP1 PUSH0 MSTORE PUSH1 0x20 PUSH0 KECCAK256 SWAP1 JUMPDEST DUP2 SLOAD DUP2 MSTORE SWAP1 PUSH1 0x1 ADD SWAP1 PUSH1 0x20 ADD DUP1 DUP4 GT PUSH2 0x368 JUMPI DUP3 SWAP1 SUB PUSH1 0x1F AND DUP3 ADD SWAP2 JUMPDEST POP POP POP POP POP SWAP1 DUP1 PUSH1 0x5 ADD PUSH0 SWAP1 SLOAD SWAP1 PUSH2 0x100 EXP SWAP1 DIV PUSH1 0xFF AND SWAP1 POP DUP7 JUMP JUMPDEST CALLER PUSH20 0xFFFFFFFFFFFFFFFFFFFFFFFFFFFFFFFFFFFFFFFF AND PUSH0 DUP3 DUP2 SLOAD DUP2 LT PUSH2 0x3CB JUMPI PUSH2 0x3CA PUSH2 0x1162 JUMP JUMPDEST JUMPDEST SWAP1 PUSH0 MSTORE PUSH1 0x20 PUSH0 KECCAK256 SWAP1 PUSH1 0x6 MUL ADD PUSH1 0x2 ADD PUSH0 SWAP1 SLOAD SWAP1 PUSH2 0x100 EXP SWAP1 DIV PUSH20 0xFFFFFFFFFFFFFFFFFFFFFFFFFFFFFFFFFFFFFFFF AND PUSH20 0xFFFFFFFFFFFFFFFFFFFFFFFFFFFFFFFFFFFFFFFF AND EQ PUSH2 0x450 JUMPI PUSH1 0x40 MLOAD PUSH32 0x8C379A000000000000000000000000000000000000000000000000000000000 DUP2 MSTORE PUSH1 0x4 ADD PUSH2 0x447 SWAP1 PUSH2 0x11D9 JUMP JUMPDEST PUSH1 0x40 MLOAD DUP1 SWAP2 SUB SWAP1 REVERT JUMPDEST PUSH0 DUP2 DUP2 SLOAD DUP2 LT PUSH2 0x463 JUMPI PUSH2 0x462 PUSH2 0x1162 JUMP JUMPDEST JUMPDEST SWAP1 PUSH0 MSTORE PUSH1 0x20 PUSH0 KECCAK256 SWAP1 PUSH1 0x6 MUL ADD PUSH1 0x5 ADD PUSH0 SWAP1 SLOAD SWAP1 PUSH2 0x100 EXP SWAP1 DIV PUSH1 0xFF AND ISZERO PUSH2 0x4BF JUMPI PUSH1 0x40 MLOAD PUSH32 0x8C379A000000000000000000000000000000000000000000000000000000000 DUP2 MSTORE PUSH1 0x4 ADD PUSH2 0x4B6 SWAP1 PUSH2 0x1241 JUMP JUMPDEST PUSH1 0x40 MLOAD DUP1 SWAP2 SUB SWAP1 REVERT JUMPDEST PUSH1 0x1 PUSH0 DUP3 DUP2 SLOAD DUP2 LT PUSH2 0x4D4 JUMPI PUSH2 0x4D3 PUSH2 0x1162 JUMP JUMPDEST JUMPDEST SWAP1 PUSH0 MSTORE PUSH1 0x20 PUSH0 KECCAK256 SWAP1 PUSH1 0x6 MUL ADD PUSH1 0x5 ADD PUSH0 PUSH2 0x100 EXP DUP2 SLOAD DUP2 PUSH1 0xFF MUL NOT AND SWAP1 DUP4 ISZERO ISZERO MUL OR SWAP1 SSTORE POP PUSH32 0x48E985A2725C94A14DD72AB2E85F5DA623CB78E019E7C2FF63DD8378625D94E4 DUP2 PUSH1 0x40 MLOAD PUSH2 0x528 SWAP2 SWAP1 PUSH2 0x125F JUMP JUMPDEST PUSH1 0x40 MLOAD DUP1 SWAP2 SUB SWAP1 LOG1 POP JUMP JUMPDEST PUSH1 0x60 PUSH0 PUSH0 SWAP1 POP PUSH0 PUSH0 SWAP1 POP JUMPDEST PUSH0 DUP1 SLOAD SWAP1 POP DUP2 LT ISZERO PUSH2 0x5DA JUMPI DUP4 PUSH20 0xFFFFFFFFFFFFFFFFFFFFFFFFFFFFFFFFFFFFFFFF AND PUSH0 DUP3 DUP2 SLOAD DUP2 LT PUSH2 0x574 JUMPI PUSH2 0x573 PUSH2 0x1162 JUMP JUMPDEST JUMPDEST SWAP1 PUSH0 MSTORE PUSH1 0x20 PUSH0 KECCAK256 SWAP1 PUSH1 0x6 MUL ADD PUSH1 0x2 ADD PUSH0 SWAP1 SLOAD SWAP1 PUSH2 0x100 EXP SWAP1 DIV PUSH20 0xFFFFFFFFFFFFFFFFFFFFFFFFFFFFFFFFFFFFFFFF AND PUSH20 0xFFFFFFFFFFFFFFFFFFFFFFFFFFFFFFFFFFFFFFFF AND SUB PUSH2 0x5CD JUMPI DUP2 DUP1 PUSH2 0x5C9 SWAP1 PUSH2 0x12A5 JUMP JUMPDEST SWAP3 POP POP JUMPDEST DUP1 DUP1 PUSH1 0x1 ADD SWAP2 POP POP PUSH2 0x53E JUMP JUMPDEST POP PUSH0 DUP2 PUSH8 0xFFFFFFFFFFFFFFFF DUP2 GT ISZERO PUSH2 0x5F6 JUMPI PUSH2 0x5F5 PUSH2 0x9A7 JUMP JUMPDEST JUMPDEST PUSH1 0x40 MLOAD SWAP1 DUP1 DUP3 MSTORE DUP1 PUSH1 0x20 MUL PUSH1 0x20 ADD DUP3 ADD PUSH1 0x40 MSTORE DUP1 ISZERO PUSH2 0x62F JUMPI DUP2 PUSH1 0x20 ADD JUMPDEST PUSH2 0x61C PUSH2 0x892 JUMP JUMPDEST DUP2 MSTORE PUSH1 0x20 ADD SWAP1 PUSH1 0x1 SWAP1 SUB SWAP1 DUP2 PUSH2 0x614 JUMPI SWAP1 POP JUMPDEST POP SWAP1 POP PUSH0 PUSH0 SWAP1 POP PUSH0 PUSH0 SWAP1 POP JUMPDEST PUSH0 DUP1 SLOAD SWAP1 POP DUP2 LT ISZERO PUSH2 0x886 JUMPI DUP6 PUSH20 0xFFFFFFFFFFFFFFFFFFFFFFFFFFFFFFFFFFFFFFFF AND PUSH0 DUP3 DUP2 SLOAD DUP2 LT PUSH2 0x671 JUMPI PUSH2 0x670 PUSH2 0x1162 JUMP JUMPDEST JUMPDEST SWAP1 PUSH0 MSTORE PUSH1 0x20 PUSH0 KECCAK256 SWAP1 PUSH1 0x6 MUL ADD PUSH1 0x2 ADD PUSH0 SWAP1 SLOAD SWAP1 PUSH2 0x100 EXP SWAP1 DIV PUSH20 0xFFFFFFFFFFFFFFFFFFFFFFFFFFFFFFFFFFFFFFFF AND PUSH20 0xFFFFFFFFFFFFFFFFFFFFFFFFFFFFFFFFFFFFFFFF AND SUB PUSH2 0x879 JUMPI PUSH0 DUP2 DUP2 SLOAD DUP2 LT PUSH2 0x6CE JUMPI PUSH2 0x6CD PUSH2 0x1162 JUMP JUMPDEST JUMPDEST SWAP1 PUSH0 MSTORE PUSH1 0x20 PUSH0 KECCAK256 SWAP1 PUSH1 0x6 MUL ADD PUSH1 0x40 MLOAD DUP1 PUSH1 0xC0 ADD PUSH1 0x40 MSTORE SWAP1 DUP2 PUSH0 DUP3 ADD SLOAD DUP2 MSTORE PUSH1 0x20 ADD PUSH1 0x1 DUP3 ADD PUSH0 SWAP1 SLOAD SWAP1 PUSH2 0x100 EXP SWAP1 DIV PUSH20 0xFFFFFFFFFFFFFFFFFFFFFFFFFFFFFFFFFFFFFFFF AND PUSH20 0xFFFFFFFFFFFFFFFFFFFFFFFFFFFFFFFFFFFFFFFF AND PUSH20 0xFFFFFFFFFFFFFFFFFFFFFFFFFFFFFFFFFFFFFFFF AND DUP2 MSTORE PUSH1 0x20 ADD PUSH1 0x2 DUP3 ADD PUSH0 SWAP1 SLOAD SWAP1 PUSH2 0x100 EXP SWAP1 DIV PUSH20 0xFFFFFFFFFFFFFFFFFFFFFFFFFFFFFFFFFFFFFFFF AND PUSH20 0xFFFFFFFFFFFFFFFFFFFFFFFFFFFFFFFFFFFFFFFF AND PUSH20 0xFFFFFFFFFFFFFFFFFFFFFFFFFFFFFFFFFFFFFFFF AND DUP2 MSTORE PUSH1 0x20 ADD PUSH1 0x3 DUP3 ADD SLOAD DUP2 MSTORE PUSH1 0x20 ADD PUSH1 0x4 DUP3 ADD DUP1 SLOAD PUSH2 0x7B2 SWAP1 PUSH2 0xE8E JUMP JUMPDEST DUP1 PUSH1 0x1F ADD PUSH1 0x20 DUP1 SWAP2 DIV MUL PUSH1 0x20 ADD PUSH1 0x40 MLOAD SWAP1 DUP2 ADD PUSH1 0x40 MSTORE DUP1 SWAP3 SWAP2 SWAP1 DUP2 DUP2 MSTORE PUSH1 0x20 ADD DUP3 DUP1 SLOAD PUSH2 0x7DE SWAP1 PUSH2 0xE8E JUMP JUMPDEST DUP1 ISZERO PUSH2 0x829 JUMPI DUP1 PUSH1 0x1F LT PUSH2 0x800 JUMPI PUSH2 0x100 DUP1 DUP4 SLOAD DIV MUL DUP4 MSTORE SWAP2 PUSH1 0x20 ADD SWAP2 PUSH2 0x829 JUMP JUMPDEST DUP3 ADD SWAP2 SWAP1 PUSH0 MSTORE PUSH1 0x20 PUSH0 KECCAK256 SWAP1 JUMPDEST DUP2 SLOAD DUP2 MSTORE SWAP1 PUSH1 0x1 ADD SWAP1 PUSH1 0x20 ADD DUP1 DUP4 GT PUSH2 0x80C JUMPI DUP3 SWAP1 SUB PUSH1 0x1F AND DUP3 ADD SWAP2 JUMPDEST POP POP POP POP POP DUP2 MSTORE PUSH1 0x20 ADD PUSH1 0x5 DUP3 ADD PUSH0 SWAP1 SLOAD SWAP1 PUSH2 0x100 EXP SWAP1 DIV PUSH1 0xFF AND ISZERO ISZERO ISZERO ISZERO DUP2 MSTORE POP POP DUP4 DUP4 DUP2 MLOAD DUP2 LT PUSH2 0x85F JUMPI PUSH2 0x85E PUSH2 0x1162 JUMP JUMPDEST JUMPDEST PUSH1 0x20 MUL PUSH1 0x20 ADD ADD DUP2 SWAP1 MSTORE POP DUP2 DUP1 PUSH2 0x875 SWAP1 PUSH2 0x12A5 JUMP JUMPDEST SWAP3 POP POP JUMPDEST DUP1 DUP1 PUSH1 0x1 ADD SWAP2 POP POP PUSH2 0x63B JUMP JUMPDEST POP DUP2 SWAP4 POP POP POP POP SWAP2 SWAP1 POP JUMP JUMPDEST PUSH1 0x40 MLOAD DUP1 PUSH1 0xC0 ADD PUSH1 0x40 MSTORE DUP1 PUSH0 DUP2 MSTORE PUSH1 0x20 ADD PUSH0 PUSH20 0xFFFFFFFFFFFFFFFFFFFFFFFFFFFFFFFFFFFFFFFF AND DUP2 MSTORE PUSH1 0x20 ADD PUSH0 PUSH20 0xFFFFFFFFFFFFFFFFFFFFFFFFFFFFFFFFFFFFFFFF AND DUP2 MSTORE PUSH1 0x20 ADD PUSH0 DUP2 MSTORE PUSH1 0x20 ADD PUSH1 0x60 DUP2 MSTORE PUSH1 0x20 ADD PUSH0 ISZERO ISZERO DUP2 MSTORE POP SWAP1 JUMP JUMPDEST PUSH0 PUSH1 0x40 MLOAD SWAP1 POP SWAP1 JUMP JUMPDEST PUSH0 PUSH0 REVERT JUMPDEST PUSH0 PUSH0 REVERT JUMPDEST PUSH0 PUSH20 0xFFFFFFFFFFFFFFFFFFFFFFFFFFFFFFFFFFFFFFFF DUP3 AND SWAP1 POP SWAP2 SWAP1 POP JUMP JUMPDEST PUSH0 PUSH2 0x92B DUP3 PUSH2 0x902 JUMP JUMPDEST SWAP1 POP SWAP2 SWAP1 POP JUMP JUMPDEST PUSH2 0x93B DUP2 PUSH2 0x921 JUMP JUMPDEST DUP2 EQ PUSH2 0x945 JUMPI PUSH0 PUSH0 REVERT JUMPDEST POP JUMP JUMPDEST PUSH0 DUP2 CALLDATALOAD SWAP1 POP PUSH2 0x956 DUP2 PUSH2 0x932 JUMP JUMPDEST SWAP3 SWAP2 POP POP JUMP JUMPDEST PUSH0 DUP2 SWAP1 POP SWAP2 SWAP1 POP JUMP JUMPDEST PUSH2 0x96E DUP2 PUSH2 0x95C JUMP JUMPDEST DUP2 EQ PUSH2 0x978 JUMPI PUSH0 PUSH0 REVERT JUMPDEST POP JUMP JUMPDEST PUSH0 DUP2 CALLDATALOAD SWAP1 POP PUSH2 0x989 DUP2 PUSH2 0x965 JUMP JUMPDEST SWAP3 SWAP2 POP POP JUMP JUMPDEST PUSH0 PUSH0 REVERT JUMPDEST PUSH0 PUSH0 REVERT JUMPDEST PUSH0 PUSH1 0x1F NOT PUSH1 0x1F DUP4 ADD AND SWAP1 POP SWAP2 SWAP1 POP JUMP JUMPDEST PUSH32 0x4E487B7100000000000000000000000000000000000000000000000000000000 PUSH0 MSTORE PUSH1 0x41 PUSH1 0x4 MSTORE PUSH1 0x24 PUSH0 REVERT JUMPDEST PUSH2 0x9DD DUP3 PUSH2 0x997 JUMP JUMPDEST DUP2 ADD DUP2 DUP2 LT PUSH8 0xFFFFFFFFFFFFFFFF DUP3 GT OR ISZERO PUSH2 0x9FC JUMPI PUSH2 0x9FB PUSH2 0x9A7 JUMP JUMPDEST JUMPDEST DUP1 PUSH1 0x40 MSTORE POP POP POP JUMP JUMPDEST PUSH0 PUSH2 0xA0E PUSH2 0x8F1 JUMP JUMPDEST SWAP1 POP PUSH2 0xA1A DUP3 DUP3 PUSH2 0x9D4 JUMP JUMPDEST SWAP2 SWAP1 POP JUMP JUMPDEST PUSH0 PUSH8 0xFFFFFFFFFFFFFFFF DUP3 GT ISZERO PUSH2 0xA39 JUMPI PUSH2 0xA38 PUSH2 0x9A7 JUMP JUMPDEST JUMPDEST PUSH2 0xA42 DUP3 PUSH2 0x997 JUMP JUMPDEST SWAP1 POP PUSH1 0x20 DUP2 ADD SWAP1 POP SWAP2 SWAP1 POP JUMP JUMPDEST DUP3 DUP2 DUP4 CALLDATACOPY PUSH0 DUP4 DUP4 ADD MSTORE POP POP POP JUMP JUMPDEST PUSH0 PUSH2 0xA6F PUSH2 0xA6A DUP5 PUSH2 0xA1F JUMP JUMPDEST PUSH2 0xA05 JUMP JUMPDEST SWAP1 POP DUP3 DUP2 MSTORE PUSH1 0x20 DUP2 ADD DUP5 DUP5 DUP5 ADD GT ISZERO PUSH2 0xA8B JUMPI PUSH2 0xA8A PUSH2 0x993 JUMP JUMPDEST JUMPDEST PUSH2 0xA96 DUP5 DUP3 DUP6 PUSH2 0xA4F JUMP JUMPDEST POP SWAP4 SWAP3 POP POP POP JUMP JUMPDEST PUSH0 DUP3 PUSH1 0x1F DUP4 ADD SLT PUSH2 0xAB2 JUMPI PUSH2 0xAB1 PUSH2 0x98F JUMP JUMPDEST JUMPDEST DUP2 CALLDATALOAD PUSH2 0xAC2 DUP5 DUP3 PUSH1 0x20 DUP7 ADD PUSH2 0xA5D JUMP JUMPDEST SWAP2 POP POP SWAP3 SWAP2 POP POP JUMP JUMPDEST PUSH0 PUSH0 PUSH0 PUSH1 0x60 DUP5 DUP7 SUB SLT ISZERO PUSH2 0xAE2 JUMPI PUSH2 0xAE1 PUSH2 0x8FA JUMP JUMPDEST JUMPDEST PUSH0 PUSH2 0xAEF DUP7 DUP3 DUP8 ADD PUSH2 0x948 JUMP JUMPDEST SWAP4 POP POP PUSH1 0x20 PUSH2 0xB00 DUP7 DUP3 DUP8 ADD PUSH2 0x97B JUMP JUMPDEST SWAP3 POP POP PUSH1 0x40 DUP5 ADD CALLDATALOAD PUSH8 0xFFFFFFFFFFFFFFFF DUP2 GT ISZERO PUSH2 0xB21 JUMPI PUSH2 0xB20 PUSH2 0x8FE JUMP JUMPDEST JUMPDEST PUSH2 0xB2D DUP7 DUP3 DUP8 ADD PUSH2 0xA9E JUMP JUMPDEST SWAP2 POP POP SWAP3 POP SWAP3 POP SWAP3 JUMP JUMPDEST PUSH0 PUSH1 0x20 DUP3 DUP5 SUB SLT ISZERO PUSH2 0xB4C JUMPI PUSH2 0xB4B PUSH2 0x8FA JUMP JUMPDEST JUMPDEST PUSH0 PUSH2 0xB59 DUP5 DUP3 DUP6 ADD PUSH2 0x97B JUMP JUMPDEST SWAP2 POP POP SWAP3 SWAP2 POP POP JUMP JUMPDEST PUSH2 0xB6B DUP2 PUSH2 0x95C JUMP JUMPDEST DUP3 MSTORE POP POP JUMP JUMPDEST PUSH2 0xB7A DUP2 PUSH2 0x921 JUMP JUMPDEST DUP3 MSTORE POP POP JUMP JUMPDEST PUSH0 DUP2 MLOAD SWAP1 POP SWAP2 SWAP1 POP JUMP JUMPDEST PUSH0 DUP3 DUP3 MSTORE PUSH1 0x20 DUP3 ADD SWAP1 POP SWAP3 SWAP2 POP POP JUMP JUMPDEST DUP3 DUP2 DUP4 MCOPY PUSH0 DUP4 DUP4 ADD MSTORE POP POP POP JUMP JUMPDEST PUSH0 PUSH2 0xBB2 DUP3 PUSH2 0xB80 JUMP JUMPDEST PUSH2 0xBBC DUP2 DUP6 PUSH2 0xB8A JUMP JUMPDEST SWAP4 POP PUSH2 0xBCC DUP2 DUP6 PUSH1 0x20 DUP7 ADD PUSH2 0xB9A JUMP JUMPDEST PUSH2 0xBD5 DUP2 PUSH2 0x997 JUMP JUMPDEST DUP5 ADD SWAP2 POP POP SWAP3 SWAP2 POP POP JUMP JUMPDEST PUSH0 DUP2 ISZERO ISZERO SWAP1 POP SWAP2 SWAP1 POP JUMP JUMPDEST PUSH2 0xBF4 DUP2 PUSH2 0xBE0 JUMP JUMPDEST DUP3 MSTORE POP POP JUMP JUMPDEST PUSH0 PUSH1 0xC0 DUP3 ADD SWAP1 POP PUSH2 0xC0D PUSH0 DUP4 ADD DUP10 PUSH2 0xB62 JUMP JUMPDEST PUSH2 0xC1A PUSH1 0x20 DUP4 ADD DUP9 PUSH2 0xB71 JUMP JUMPDEST PUSH2 0xC27 PUSH1 0x40 DUP4 ADD DUP8 PUSH2 0xB71 JUMP JUMPDEST PUSH2 0xC34 PUSH1 0x60 DUP4 ADD DUP7 PUSH2 0xB62 JUMP JUMPDEST DUP2 DUP2 SUB PUSH1 0x80 DUP4 ADD MSTORE PUSH2 0xC46 DUP2 DUP6 PUSH2 0xBA8 JUMP JUMPDEST SWAP1 POP PUSH2 0xC55 PUSH1 0xA0 DUP4 ADD DUP5 PUSH2 0xBEB JUMP JUMPDEST SWAP8 SWAP7 POP POP POP POP POP POP POP JUMP JUMPDEST PUSH0 PUSH1 0x20 DUP3 DUP5 SUB SLT ISZERO PUSH2 0xC75 JUMPI PUSH2 0xC74 PUSH2 0x8FA JUMP JUMPDEST JUMPDEST PUSH0 PUSH2 0xC82 DUP5 DUP3 DUP6 ADD PUSH2 0x948 JUMP JUMPDEST SWAP2 POP POP SWAP3 SWAP2 POP POP JUMP JUMPDEST PUSH0 DUP2 MLOAD SWAP1 POP SWAP2 SWAP1 POP JUMP JUMPDEST PUSH0 DUP3 DUP3 MSTORE PUSH1 0x20 DUP3 ADD SWAP1 POP SWAP3 SWAP2 POP POP JUMP JUMPDEST PUSH0 DUP2 SWAP1 POP PUSH1 0x20 DUP3 ADD SWAP1 POP SWAP2 SWAP1 POP JUMP JUMPDEST PUSH2 0xCBD DUP2 PUSH2 0x95C JUMP JUMPDEST DUP3 MSTORE POP POP JUMP JUMPDEST PUSH2 0xCCC DUP2 PUSH2 0x921 JUMP JUMPDEST DUP3 MSTORE POP POP JUMP JUMPDEST PUSH0 DUP3 DUP3 MSTORE PUSH1 0x20 DUP3 ADD SWAP1 POP SWAP3 SWAP2 POP POP JUMP JUMPDEST PUSH0 PUSH2 0xCEC DUP3 PUSH2 0xB80 JUMP JUMPDEST PUSH2 0xCF6 DUP2 DUP6 PUSH2 0xCD2 JUMP JUMPDEST SWAP4 POP PUSH2 0xD06 DUP2 DUP6 PUSH1 0x20 DUP7 ADD PUSH2 0xB9A JUMP JUMPDEST PUSH2 0xD0F DUP2 PUSH2 0x997 JUMP JUMPDEST DUP5 ADD SWAP2 POP POP SWAP3 SWAP2 POP POP JUMP JUMPDEST PUSH2 0xD23 DUP2 PUSH2 0xBE0 JUMP JUMPDEST DUP3 MSTORE POP POP JUMP JUMPDEST PUSH0 PUSH1 0xC0 DUP4 ADD PUSH0 DUP4 ADD MLOAD PUSH2 0xD3E PUSH0 DUP7 ADD DUP3 PUSH2 0xCB4 JUMP JUMPDEST POP PUSH1 0x20 DUP4 ADD MLOAD PUSH2 0xD51 PUSH1 0x20 DUP7 ADD DUP3 PUSH2 0xCC3 JUMP JUMPDEST POP PUSH1 0x40 DUP4 ADD MLOAD PUSH2 0xD64 PUSH1 0x40 DUP7 ADD DUP3 PUSH2 0xCC3 JUMP JUMPDEST POP PUSH1 0x60 DUP4 ADD MLOAD PUSH2 0xD77 PUSH1 0x60 DUP7 ADD DUP3 PUSH2 0xCB4 JUMP JUMPDEST POP PUSH1 0x80 DUP4 ADD MLOAD DUP5 DUP3 SUB PUSH1 0x80 DUP7 ADD MSTORE PUSH2 0xD8F DUP3 DUP3 PUSH2 0xCE2 JUMP JUMPDEST SWAP2 POP POP PUSH1 0xA0 DUP4 ADD MLOAD PUSH2 0xDA4 PUSH1 0xA0 DUP7 ADD DUP3 PUSH2 0xD1A JUMP JUMPDEST POP DUP1 SWAP2 POP POP SWAP3 SWAP2 POP POP JUMP JUMPDEST PUSH0 PUSH2 0xDBA DUP4 DUP4 PUSH2 0xD29 JUMP JUMPDEST SWAP1 POP SWAP3 SWAP2 POP POP JUMP JUMPDEST PUSH0 PUSH1 0x20 DUP3 ADD SWAP1 POP SWAP2 SWAP1 POP JUMP JUMPDEST PUSH0 PUSH2 0xDD8 DUP3 PUSH2 0xC8B JUMP JUMPDEST PUSH2 0xDE2 DUP2 DUP6 PUSH2 0xC95 JUMP JUMPDEST SWAP4 POP DUP4 PUSH1 0x20 DUP3 MUL DUP6 ADD PUSH2 0xDF4 DUP6 PUSH2 0xCA5 JUMP JUMPDEST DUP1 PUSH0 JUMPDEST DUP6 DUP2 LT ISZERO PUSH2 0xE2F JUMPI DUP5 DUP5 SUB DUP10 MSTORE DUP2 MLOAD PUSH2 0xE10 DUP6 DUP3 PUSH2 0xDAF JUMP JUMPDEST SWAP5 POP PUSH2 0xE1B DUP4 PUSH2 0xDC2 JUMP JUMPDEST SWAP3 POP PUSH1 0x20 DUP11 ADD SWAP10 POP POP PUSH1 0x1 DUP2 ADD SWAP1 POP PUSH2 0xDF7 JUMP JUMPDEST POP DUP3 SWAP8 POP DUP8 SWAP6 POP POP POP POP POP POP SWAP3 SWAP2 POP POP JUMP JUMPDEST PUSH0 PUSH1 0x20 DUP3 ADD SWAP1 POP DUP2 DUP2 SUB PUSH0 DUP4 ADD MSTORE PUSH2 0xE59 DUP2 DUP5 PUSH2 0xDCE JUMP JUMPDEST SWAP1 POP SWAP3 SWAP2 POP POP JUMP JUMPDEST PUSH32 0x4E487B7100000000000000000000000000000000000000000000000000000000 PUSH0 MSTORE PUSH1 0x22 PUSH1 0x4 MSTORE PUSH1 0x24 PUSH0 REVERT JUMPDEST PUSH0 PUSH1 0x2 DUP3 DIV SWAP1 POP PUSH1 0x1 DUP3 AND DUP1 PUSH2 0xEA5 JUMPI PUSH1 0x7F DUP3 AND SWAP2 POP JUMPDEST PUSH1 0x20 DUP3 LT DUP2 SUB PUSH2 0xEB8 JUMPI PUSH2 0xEB7 PUSH2 0xE61 JUMP JUMPDEST JUMPDEST POP SWAP2 SWAP1 POP JUMP JUMPDEST PUSH0 DUP2 SWAP1 POP DUP2 PUSH0 MSTORE PUSH1 0x20 PUSH0 KECCAK256 SWAP1 POP SWAP2 SWAP1 POP JUMP JUMPDEST PUSH0 PUSH1 0x20 PUSH1 0x1F DUP4 ADD DIV SWAP1 POP SWAP2 SWAP1 POP JUMP JUMPDEST PUSH0 DUP3 DUP3 SHL SWAP1 POP SWAP3 SWAP2 POP POP JUMP JUMPDEST PUSH0 PUSH1 0x8 DUP4 MUL PUSH2 0xF1A PUSH32 0xFFFFFFFFFFFFFFFFFFFFFFFFFFFFFFFFFFFFFFFFFFFFFFFFFFFFFFFFFFFFFFFF DUP3 PUSH2 0xEDF JUMP JUMPDEST PUSH2 0xF24 DUP7 DUP4 PUSH2 0xEDF JUMP JUMPDEST SWAP6 POP DUP1 NOT DUP5 AND SWAP4 POP DUP1 DUP7 AND DUP5 OR SWAP3 POP POP POP SWAP4 SWAP3 POP POP POP JUMP JUMPDEST PUSH0 DUP2 SWAP1 POP SWAP2 SWAP1 POP JUMP JUMPDEST PUSH0 PUSH2 0xF5F PUSH2 0xF5A PUSH2 0xF55 DUP5 PUSH2 0x95C JUMP JUMPDEST PUSH2 0xF3C JUMP JUMPDEST PUSH2 0x95C JUMP JUMPDEST SWAP1 POP SWAP2 SWAP1 POP JUMP JUMPDEST PUSH0 DUP2 SWAP1 POP SWAP2 SWAP1 POP JUMP JUMPDEST PUSH2 0xF78 DUP4 PUSH2 0xF45 JUMP JUMPDEST PUSH2 0xF8C PUSH2 0xF84 DUP3 PUSH2 0xF66 JUMP JUMPDEST DUP5 DUP5 SLOAD PUSH2 0xEEB JUMP JUMPDEST DUP3 SSTORE POP POP POP POP JUMP JUMPDEST PUSH0 PUSH0 SWAP1 POP SWAP1 JUMP JUMPDEST PUSH2 0xFA3 PUSH2 0xF94 JUMP JUMPDEST PUSH2 0xFAE DUP2 DUP5 DUP5 PUSH2 0xF6F JUMP JUMPDEST POP POP POP JUMP JUMPDEST JUMPDEST DUP2 DUP2 LT ISZERO PUSH2 0xFD1 JUMPI PUSH2 0xFC6 PUSH0 DUP3 PUSH2 0xF9B JUMP JUMPDEST PUSH1 0x1 DUP2 ADD SWAP1 POP PUSH2 0xFB4 JUMP JUMPDEST POP POP JUMP JUMPDEST PUSH1 0x1F DUP3 GT ISZERO PUSH2 0x1016 JUMPI PUSH2 0xFE7 DUP2 PUSH2 0xEBE JUMP JUMPDEST PUSH2 0xFF0 DUP5 PUSH2 0xED0 JUMP JUMPDEST DUP2 ADD PUSH1 0x20 DUP6 LT ISZERO PUSH2 0xFFF JUMPI DUP2 SWAP1 POP JUMPDEST PUSH2 0x1013 PUSH2 0x100B DUP6 PUSH2 0xED0 JUMP JUMPDEST DUP4 ADD DUP3 PUSH2 0xFB3 JUMP JUMPDEST POP POP JUMPDEST POP POP POP JUMP JUMPDEST PUSH0 DUP3 DUP3 SHR SWAP1 POP SWAP3 SWAP2 POP POP JUMP JUMPDEST PUSH0 PUSH2 0x1036 PUSH0 NOT DUP5 PUSH1 0x8 MUL PUSH2 0x101B JUMP JUMPDEST NOT DUP1 DUP4 AND SWAP2 POP POP SWAP3 SWAP2 POP POP JUMP JUMPDEST PUSH0 PUSH2 0x104E DUP4 DUP4 PUSH2 0x1027 JUMP JUMPDEST SWAP2 POP DUP3 PUSH1 0x2 MUL DUP3 OR SWAP1 POP SWAP3 SWAP2 POP POP JUMP JUMPDEST PUSH2 0x1067 DUP3 PUSH2 0xB80 JUMP JUMPDEST PUSH8 0xFFFFFFFFFFFFFFFF DUP2 GT ISZERO PUSH2 0x1080 JUMPI PUSH2 0x107F PUSH2 0x9A7 JUMP JUMPDEST JUMPDEST PUSH2 0x108A DUP3 SLOAD PUSH2 0xE8E JUMP JUMPDEST PUSH2 0x1095 DUP3 DUP3 DUP6 PUSH2 0xFD5 JUMP JUMPDEST PUSH0 PUSH1 0x20 SWAP1 POP PUSH1 0x1F DUP4 GT PUSH1 0x1 DUP2 EQ PUSH2 0x10C6 JUMPI PUSH0 DUP5 ISZERO PUSH2 0x10B4 JUMPI DUP3 DUP8 ADD MLOAD SWAP1 POP JUMPDEST PUSH2 0x10BE DUP6 DUP3 PUSH2 0x1043 JUMP JUMPDEST DUP7 SSTORE POP PUSH2 0x1125 JUMP JUMPDEST PUSH1 0x1F NOT DUP5 AND PUSH2 0x10D4 DUP7 PUSH2 0xEBE JUMP JUMPDEST PUSH0 JUMPDEST DUP3 DUP2 LT ISZERO PUSH2 0x10FB JUMPI DUP5 DUP10 ADD MLOAD DUP3 SSTORE PUSH1 0x1 DUP3 ADD SWAP2 POP PUSH1 0x20 DUP6 ADD SWAP5 POP PUSH1 0x20 DUP2 ADD SWAP1 POP PUSH2 0x10D6 JUMP JUMPDEST DUP7 DUP4 LT ISZERO PUSH2 0x1118 JUMPI DUP5 DUP10 ADD MLOAD PUSH2 0x1114 PUSH1 0x1F DUP10 AND DUP3 PUSH2 0x1027 JUMP JUMPDEST DUP4 SSTORE POP JUMPDEST PUSH1 0x1 PUSH1 0x2 DUP9 MUL ADD DUP9 SSTORE POP POP POP JUMPDEST POP POP POP POP POP POP JUMP JUMPDEST PUSH0 PUSH1 0x60 DUP3 ADD SWAP1 POP PUSH2 0x1140 PUSH0 DUP4 ADD DUP7 PUSH2 0xB62 JUMP JUMPDEST PUSH2 0x114D PUSH1 0x20 DUP4 ADD DUP6 PUSH2 0xB71 JUMP JUMPDEST PUSH2 0x115A PUSH1 0x40 DUP4 ADD DUP5 PUSH2 0xB62 JUMP JUMPDEST SWAP5 SWAP4 POP POP POP POP JUMP JUMPDEST PUSH32 0x4E487B7100000000000000000000000000000000000000000000000000000000 PUSH0 MSTORE PUSH1 0x32 PUSH1 0x4 MSTORE PUSH1 0x24 PUSH0 REVERT JUMPDEST PUSH32 0x4F6E6C7920637573746F6D65722063616E207061790000000000000000000000 PUSH0 DUP3 ADD MSTORE POP JUMP JUMPDEST PUSH0 PUSH2 0x11C3 PUSH1 0x15 DUP4 PUSH2 0xB8A JUMP JUMPDEST SWAP2 POP PUSH2 0x11CE DUP3 PUSH2 0x118F JUMP JUMPDEST PUSH1 0x20 DUP3 ADD SWAP1 POP SWAP2 SWAP1 POP JUMP JUMPDEST PUSH0 PUSH1 0x20 DUP3 ADD SWAP1 POP DUP2 DUP2 SUB PUSH0 DUP4 ADD MSTORE PUSH2 0x11F0 DUP2 PUSH2 0x11B7 JUMP JUMPDEST SWAP1 POP SWAP2 SWAP1 POP JUMP JUMPDEST PUSH32 0x416C726561647920706169640000000000000000000000000000000000000000 PUSH0 DUP3 ADD MSTORE POP JUMP JUMPDEST PUSH0 PUSH2 0x122B PUSH1 0xC DUP4 PUSH2 0xB8A JUMP JUMPDEST SWAP2 POP PUSH2 0x1236 DUP3 PUSH2 0x11F7 JUMP JUMPDEST PUSH1 0x20 DUP3 ADD SWAP1 POP SWAP2 SWAP1 POP JUMP JUMPDEST PUSH0 PUSH1 0x20 DUP3 ADD SWAP1 POP DUP2 DUP2 SUB PUSH0 DUP4 ADD MSTORE PUSH2 0x1258 DUP2 PUSH2 0x121F JUMP JUMPDEST SWAP1 POP SWAP2 SWAP1 POP JUMP JUMPDEST PUSH0 PUSH1 0x20 DUP3 ADD SWAP1 POP PUSH2 0x1272 PUSH0 DUP4 ADD DUP5 PUSH2 0xB62 JUMP JUMPDEST SWAP3 SWAP2 POP POP JUMP JUMPDEST PUSH32 0x4E487B7100000000000000000000000000000000000000000000000000000000 PUSH0 MSTORE PUSH1 0x11 PUSH1 0x4 MSTORE PUSH1 0x24 PUSH0 REVERT JUMPDEST PUSH0 PUSH2 0x12AF DUP3 PUSH2 0x95C JUMP JUMPDEST SWAP2 POP PUSH32 0xFFFFFFFFFFFFFFFFFFFFFFFFFFFFFFFFFFFFFFFFFFFFFFFFFFFFFFFFFFFFFFFF DUP3 SUB PUSH2 0x12E1 JUMPI PUSH2 0x12E0 PUSH2 0x1278 JUMP JUMPDEST JUMPDEST PUSH1 0x1 DUP3 ADD SWAP1 POP SWAP2 SWAP1 POP JUMP INVALID LOG2 PUSH5 0x6970667358 0x22 SLT KECCAK256 PUSH32 0xBB45CF4811873B9C68F2068DD0D0FF82B0A9396F1387F9726E235E3EF2960D64 PUSH20 0x6F6C634300081F00330000000000000000000000 "
		},
		"gasEstimates": {
			"creation": {
				"codeDepositCost": "979600",
				"executionCost": "1019",
				"totalCost": "980619"
			},
			"external": {
				"addUtang(address,uint256,string)": "infinite",
				"allRecords(uint256)": "infinite",
				"getCustomerUtang(address)": "infinite",
				"markPaid(uint256)": "infinite"
			}
		},
		"methodIdentifiers": {
			"addUtang(address,uint256,string)": "6733c3a5",
			"allRecords(uint256)": "7e257dc8",
			"getCustomerUtang(address)": "d763f638",
			"markPaid(uint256)": "ad207e1e"
		}
	},
	"abi": [
		{
			"anonymous": false,
			"inputs": [
				{
					"indexed": false,
					"internalType": "uint256",
					"name": "id",
					"type": "uint256"
				},
				{
					"indexed": false,
					"internalType": "address",
					"name": "customer",
					"type": "address"
				},
				{
					"indexed": false,
					"internalType": "uint256",
					"name": "amount",
					"type": "uint256"
				}
			],
			"name": "NewUtang",
			"type": "event"
		},
		{
			"anonymous": false,
			"inputs": [
				{
					"indexed": false,
					"internalType": "uint256",
					"name": "id",
					"type": "uint256"
				}
			],
			"name": "UtangPaid",
			"type": "event"
		},
		{
			"inputs": [
				{
					"internalType": "address",
					"name": "_customer",
					"type": "address"
				},
				{
					"internalType": "uint256",
					"name": "_amount",
					"type": "uint256"
				},
				{
					"internalType": "string",
					"name": "_desc",
					"type": "string"
				}
			],
			"name": "addUtang",
			"outputs": [],
			"stateMutability": "nonpayable",
			"type": "function"
		},
		{
			"inputs": [
				{
					"internalType": "uint256",
					"name": "",
					"type": "uint256"
				}
			],
			"name": "allRecords",
			"outputs": [
				{
					"internalType": "uint256",
					"name": "id",
					"type": "uint256"
				},
				{
					"internalType": "address",
					"name": "storeOwner",
					"type": "address"
				},
				{
					"internalType": "address",
					"name": "customer",
					"type": "address"
				},
				{
					"internalType": "uint256",
					"name": "amount",
					"type": "uint256"
				},
				{
					"internalType": "string",
					"name": "description",
					"type": "string"
				},
				{
					"internalType": "bool",
					"name": "paid",
					"type": "bool"
				}
			],
			"stateMutability": "view",
			"type": "function"
		},
		{
			"inputs": [
				{
					"internalType": "address",
					"name": "_customer",
					"type": "address"
				}
			],
			"name": "getCustomerUtang",
			"outputs": [
				{
					"components": [
						{
							"internalType": "uint256",
							"name": "id",
							"type": "uint256"
						},
						{
							"internalType": "address",
							"name": "storeOwner",
							"type": "address"
						},
						{
							"internalType": "address",
							"name": "customer",
							"type": "address"
						},
						{
							"internalType": "uint256",
							"name": "amount",
							"type": "uint256"
						},
						{
							"internalType": "string",
							"name": "description",
							"type": "string"
						},
						{
							"internalType": "bool",
							"name": "paid",
							"type": "bool"
						}
					],
					"internalType": "struct SimpleUtangTracker.UtangRecord[]",
					"name": "",
					"type": "tuple[]"
				}
			],
			"stateMutability": "view",
			"type": "function"
		},
		{
			"inputs": [
				{
					"internalType": "uint256",
					"name": "_id",
					"type": "uint256"
				}
			],
			"name": "markPaid",
			"outputs": [],
			"stateMutability": "nonpayable",
			"type": "function"
		}
	]
}