{
	"data": {
		"bytecode": {
			"linkReferences": {},
			"object": "60806040525f5f553480156011575f5ffd5b5061093b8061001f5f395ff3fe608060405234801561000f575f5ffd5b506004361061004a575f3560e01c806306ead22e1461004e5780630e5eeef714610080578063642f91631461009c578063e581f9ee146100cd575b5f5ffd5b61006860048036038101906100639190610312565b6100eb565b604051610077939291906103bc565b60405180910390f35b61009a60048036038101906100959190610524565b610197565b005b6100b660048036038101906100b19190610312565b61020a565b6040516100c492919061057e565b60405180910390f35b6100d56102c9565b6040516100e291906105ac565b60405180910390f35b6001602052805f5260405f205f91509050805f015490806001018054610110906105f2565b80601f016020809104026020016040519081016040528092919081815260200182805461013c906105f2565b80156101875780601f1061015e57610100808354040283529160200191610187565b820191905f5260205f20905b81548152906001019060200180831161016a57829003601f168201915b5050505050908060020154905083565b5f5f8154809291906101a89061064f565b919050555060405180606001604052805f5481526020018381526020018281525060015f5f5481526020019081526020015f205f820151815f015560208201518160010190816101f89190610836565b50604082015181600201559050505050565b60605f60015f8481526020019081526020015f2060010160015f8581526020019081526020015f2060020154818054610242906105f2565b80601f016020809104026020016040519081016040528092919081815260200182805461026e906105f2565b80156102b95780601f10610290576101008083540402835291602001916102b9565b820191905f5260205f20905b81548152906001019060200180831161029c57829003601f168201915b5050505050915091509150915091565b5f5481565b5f604051905090565b5f5ffd5b5f5ffd5b5f819050919050565b6102f1816102df565b81146102fb575f5ffd5b50565b5f8135905061030c816102e8565b92915050565b5f60208284031215610327576103266102d7565b5b5f610334848285016102fe565b91505092915050565b610346816102df565b82525050565b5f81519050919050565b5f82825260208201905092915050565b8281835e5f83830152505050565b5f601f19601f8301169050919050565b5f61038e8261034c565b6103988185610356565b93506103a8818560208601610366565b6103b181610374565b840191505092915050565b5f6060820190506103cf5f83018661033d565b81810360208301526103e18185610384565b90506103f0604083018461033d565b949350505050565b5f5ffd5b5f5ffd5b7f4e487b71000000000000000000000000000000000000000000000000000000005f52604160045260245ffd5b61043682610374565b810181811067ffffffffffffffff8211171561045557610454610400565b5b80604052505050565b5f6104676102ce565b9050610473828261042d565b919050565b5f67ffffffffffffffff82111561049257610491610400565b5b61049b82610374565b9050602081019050919050565b828183375f83830152505050565b5f6104c86104c384610478565b61045e565b9050828152602081018484840111156104e4576104e36103fc565b5b6104ef8482856104a8565b509392505050565b5f82601f83011261050b5761050a6103f8565b5b813561051b8482602086016104b6565b91505092915050565b5f5f6040838503121561053a576105396102d7565b5b5f83013567ffffffffffffffff811115610557576105566102db565b5b610563858286016104f7565b9250506020610574858286016102fe565b9150509250929050565b5f6040820190508181035f8301526105968185610384565b90506105a5602083018461033d565b9392505050565b5f6020820190506105bf5f83018461033d565b92915050565b7f4e487b71000000000000000000000000000000000000000000000000000000005f52602260045260245ffd5b5f600282049050600182168061060957607f821691505b60208210810361061c5761061b6105c5565b5b50919050565b7f4e487b71000000000000000000000000000000000000000000000000000000005f52601160045260245ffd5b5f610659826102df565b91507fffffffffffffffffffffffffffffffffffffffffffffffffffffffffffffffff820361068b5761068a610622565b5b600182019050919050565b5f819050815f5260205f209050919050565b5f6020601f8301049050919050565b5f82821b905092915050565b5f600883026106f27fffffffffffffffffffffffffffffffffffffffffffffffffffffffffffffffff826106b7565b6106fc86836106b7565b95508019841693508086168417925050509392505050565b5f819050919050565b5f61073761073261072d846102df565b610714565b6102df565b9050919050565b5f819050919050565b6107508361071d565b61076461075c8261073e565b8484546106c3565b825550505050565b5f5f905090565b61077b61076c565b610786818484610747565b505050565b5b818110156107a95761079e5f82610773565b60018101905061078c565b5050565b601f8211156107ee576107bf81610696565b6107c8846106a8565b810160208510156107d7578190505b6107eb6107e3856106a8565b83018261078b565b50505b505050565b5f82821c905092915050565b5f61080e5f19846008026107f3565b1980831691505092915050565b5f61082683836107ff565b9150826002028217905092915050565b61083f8261034c565b67ffffffffffffffff81111561085857610857610400565b5b61086282546105f2565b61086d8282856107ad565b5f60209050601f83116001811461089e575f841561088c578287015190505b610896858261081b565b8655506108fd565b601f1984166108ac86610696565b5f5b828110156108d3578489015182556001820191506020850194506020810190506108ae565b868310156108f057848901516108ec601f8916826107ff565b8355505b6001600288020188555050505b50505050505056fea2646970667358221220af3fed44943d65e9cffbb77056b5bff7cd2c306c9722c6f5e50d8b8e0f2595bb64736f6c634300081f0033",
			"opcodes": "PUSH1 0x80 PUSH1 0x40 MSTORE PUSH0 PUSH0 SSTORE CALLVALUE DUP1 ISZERO PUSH1 0x11 JUMPI PUSH0 PUSH0 REVERT JUMPDEST POP PUSH2 0x93B DUP1 PUSH2 0x1F PUSH0 CODECOPY PUSH0 RETURN INVALID PUSH1 0x80 PUSH1 0x40 MSTORE CALLVALUE DUP1 ISZERO PUSH2 0xF JUMPI PUSH0 PUSH0 REVERT JUMPDEST POP PUSH1 0x4 CALLDATASIZE LT PUSH2 0x4A JUMPI PUSH0 CALLDATALOAD PUSH1 0xE0 SHR DUP1 PUSH4 0x6EAD22E EQ PUSH2 0x4E JUMPI DUP1 PUSH4 0xE5EEEF7 EQ PUSH2 0x80 JUMPI DUP1 PUSH4 0x642F9163 EQ PUSH2 0x9C JUMPI DUP1 PUSH4 0xE581F9EE EQ PUSH2 0xCD JUMPI JUMPDEST PUSH0 PUSH0 REVERT JUMPDEST PUSH2 0x68 PUSH1 0x4 DUP1 CALLDATASIZE SUB DUP2 ADD SWAP1 PUSH2 0x63 SWAP2 SWAP1 PUSH2 0x312 JUMP JUMPDEST PUSH2 0xEB JUMP JUMPDEST PUSH1 0x40 MLOAD PUSH2 0x77 SWAP4 SWAP3 SWAP2 SWAP1 PUSH2 0x3BC JUMP JUMPDEST PUSH1 0x40 MLOAD DUP1 SWAP2 SUB SWAP1 RETURN JUMPDEST PUSH2 0x9A PUSH1 0x4 DUP1 CALLDATASIZE SUB DUP2 ADD SWAP1 PUSH2 0x95 SWAP2 SWAP1 PUSH2 0x524 JUMP JUMPDEST PUSH2 0x197 JUMP JUMPDEST STOP JUMPDEST PUSH2 0xB6 PUSH1 0x4 DUP1 CALLDATASIZE SUB DUP2 ADD SWAP1 PUSH2 0xB1 SWAP2 SWAP1 PUSH2 0x312 JUMP JUMPDEST PUSH2 0x20A JUMP JUMPDEST PUSH1 0x40 MLOAD PUSH2 0xC4 SWAP3 SWAP2 SWAP1 PUSH2 0x57E JUMP JUMPDEST PUSH1 0x40 MLOAD DUP1 SWAP2 SUB SWAP1 RETURN JUMPDEST PUSH2 0xD5 PUSH2 0x2C9 JUMP JUMPDEST PUSH1 0x40 MLOAD PUSH2 0xE2 SWAP2 SWAP1 PUSH2 0x5AC JUMP JUMPDEST PUSH1 0x40 MLOAD DUP1 SWAP2 SUB SWAP1 RETURN JUMPDEST PUSH1 0x1 PUSH1 0x20 MSTORE DUP1 PUSH0 MSTORE PUSH1 0x40 PUSH0 KECCAK256 PUSH0 SWAP2 POP SWAP1 POP DUP1 PUSH0 ADD SLOAD SWAP1 DUP1 PUSH1 0x1 ADD DUP1 SLOAD PUSH2 0x110 SWAP1 PUSH2 0x5F2 JUMP JUMPDEST DUP1 PUSH1 0x1F ADD PUSH1 0x20 DUP1 SWAP2 DIV MUL PUSH1 0x20 ADD PUSH1 0x40 MLOAD SWAP1 DUP2 ADD PUSH1 0x40 MSTORE DUP1 SWAP3 SWAP2 SWAP1 DUP2 DUP2 MSTORE PUSH1 0x20 ADD DUP3 DUP1 SLOAD PUSH2 0x13C SWAP1 PUSH2 0x5F2 JUMP JUMPDEST DUP1 ISZERO PUSH2 0x187 JUMPI DUP1 PUSH1 0x1F LT PUSH2 0x15E JUMPI PUSH2 0x100 DUP1 DUP4 SLOAD DIV MUL DUP4 MSTORE SWAP2 PUSH1 0x20 ADD SWAP2 PUSH2 0x187 JUMP JUMPDEST DUP3 ADD SWAP2 SWAP1 PUSH0 MSTORE PUSH1 0x20 PUSH0 KECCAK256 SWAP1 JUMPDEST DUP2 SLOAD DUP2 MSTORE SWAP1 PUSH1 0x1 ADD SWAP1 PUSH1 0x20 ADD DUP1 DUP4 GT PUSH2 0x16A JUMPI DUP3 SWAP1 SUB PUSH1 0x1F AND DUP3 ADD SWAP2 JUMPDEST POP POP POP POP POP SWAP1 DUP1 PUSH1 0x2 ADD SLOAD SWAP1 POP DUP4 JUMP JUMPDEST PUSH0 PUSH0 DUP2 SLOAD DUP1 SWAP3 SWAP2 SWAP1 PUSH2 0x1A8 SWAP1 PUSH2 0x64F JUMP JUMPDEST SWAP2 SWAP1 POP SSTORE POP PUSH1 0x40 MLOAD DUP1 PUSH1 0x60 ADD PUSH1 0x40 MSTORE DUP1 PUSH0 SLOAD DUP2 MSTORE PUSH1 0x20 ADD DUP4 DUP2 MSTORE PUSH1 0x20 ADD DUP3 DUP2 MSTORE POP PUSH1 0x1 PUSH0 PUSH0 SLOAD DUP2 MSTORE PUSH1 0x20 ADD SWAP1 DUP2 MSTORE PUSH1 0x20 ADD PUSH0 KECCAK256 PUSH0 DUP3 ADD MLOAD DUP2 PUSH0 ADD SSTORE PUSH1 0x20 DUP3 ADD MLOAD DUP2 PUSH1 0x1 ADD SWAP1 DUP2 PUSH2 0x1F8 SWAP2 SWAP1 PUSH2 0x836 JUMP JUMPDEST POP PUSH1 0x40 DUP3 ADD MLOAD DUP2 PUSH1 0x2 ADD SSTORE SWAP1 POP POP POP POP JUMP JUMPDEST PUSH1 0x60 PUSH0 PUSH1 0x1 PUSH0 DUP5 DUP2 MSTORE PUSH1 0x20 ADD SWAP1 DUP2 MSTORE PUSH1 0x20 ADD PUSH0 KECCAK256 PUSH1 0x1 ADD PUSH1 0x1 PUSH0 DUP6 DUP2 MSTORE PUSH1 0x20 ADD SWAP1 DUP2 MSTORE PUSH1 0x20 ADD PUSH0 KECCAK256 PUSH1 0x2 ADD SLOAD DUP2 DUP1 SLOAD PUSH2 0x242 SWAP1 PUSH2 0x5F2 JUMP JUMPDEST DUP1 PUSH1 0x1F ADD PUSH1 0x20 DUP1 SWAP2 DIV MUL PUSH1 0x20 ADD PUSH1 0x40 MLOAD SWAP1 DUP2 ADD PUSH1 0x40 MSTORE DUP1 SWAP3 SWAP2 SWAP1 DUP2 DUP2 MSTORE PUSH1 0x20 ADD DUP3 DUP1 SLOAD PUSH2 0x26E SWAP1 PUSH2 0x5F2 JUMP JUMPDEST DUP1 ISZERO PUSH2 0x2B9 JUMPI DUP1 PUSH1 0x1F LT PUSH2 0x290 JUMPI PUSH2 0x100 DUP1 DUP4 SLOAD DIV MUL DUP4 MSTORE SWAP2 PUSH1 0x20 ADD SWAP2 PUSH2 0x2B9 JUMP JUMPDEST DUP3 ADD SWAP2 SWAP1 PUSH0 MSTORE PUSH1 0x20 PUSH0 KECCAK256 SWAP1 JUMPDEST DUP2 SLOAD DUP2 MSTORE SWAP1 PUSH1 0x1 ADD SWAP1 PUSH1 0x20 ADD DUP1 DUP4 GT PUSH2 0x29C JUMPI DUP3 SWAP1 SUB PUSH1 0x1F AND DUP3 ADD SWAP2 JUMPDEST POP POP POP POP POP SWAP2 POP SWAP2 POP SWAP2 POP SWAP2 POP SWAP2 JUMP JUMPDEST PUSH0 SLOAD DUP2 JUMP JUMPDEST PUSH0 PUSH1 0x40 MLOAD SWAP1 POP SWAP1 JUMP JUMPDEST PUSH0 PUSH0 REVERT JUMPDEST PUSH0 PUSH0 REVERT JUMPDEST PUSH0 DUP2 SWAP1 POP SWAP2 SWAP1 POP JUMP JUMPDEST PUSH2 0x2F1 DUP2 PUSH2 0x2DF JUMP JUMPDEST DUP2 EQ PUSH2 0x2FB JUMPI PUSH0 PUSH0 REVERT JUMPDEST POP JUMP JUMPDEST PUSH0 DUP2 CALLDATALOAD SWAP1 POP PUSH2 0x30C DUP2 PUSH2 0x2E8 JUMP JUMPDEST SWAP3 SWAP2 POP POP JUMP JUMPDEST PUSH0 PUSH1 0x20 DUP3 DUP5 SUB SLT ISZERO PUSH2 0x327 JUMPI PUSH2 0x326 PUSH2 0x2D7 JUMP JUMPDEST JUMPDEST PUSH0 PUSH2 0x334 DUP5 DUP3 DUP6 ADD PUSH2 0x2FE JUMP JUMPDEST SWAP2 POP POP SWAP3 SWAP2 POP POP JUMP JUMPDEST PUSH2 0x346 DUP2 PUSH2 0x2DF JUMP JUMPDEST DUP3 MSTORE POP POP JUMP JUMPDEST PUSH0 DUP2 MLOAD SWAP1 POP SWAP2 SWAP1 POP JUMP JUMPDEST PUSH0 DUP3 DUP3 MSTORE PUSH1 0x20 DUP3 ADD SWAP1 POP SWAP3 SWAP2 POP POP JUMP JUMPDEST DUP3 DUP2 DUP4 MCOPY PUSH0 DUP4 DUP4 ADD MSTORE POP POP POP JUMP JUMPDEST PUSH0 PUSH1 0x1F NOT PUSH1 0x1F DUP4 ADD AND SWAP1 POP SWAP2 SWAP1 POP JUMP JUMPDEST PUSH0 PUSH2 0x38E DUP3 PUSH2 0x34C JUMP JUMPDEST PUSH2 0x398 DUP2 DUP6 PUSH2 0x356 JUMP JUMPDEST SWAP4 POP PUSH2 0x3A8 DUP2 DUP6 PUSH1 0x20 DUP7 ADD PUSH2 0x366 JUMP JUMPDEST PUSH2 0x3B1 DUP2 PUSH2 0x374 JUMP JUMPDEST DUP5 ADD SWAP2 POP POP SWAP3 SWAP2 POP POP JUMP JUMPDEST PUSH0 PUSH1 0x60 DUP3 ADD SWAP1 POP PUSH2 0x3CF PUSH0 DUP4 ADD DUP7 PUSH2 0x33D JUMP JUMPDEST DUP2 DUP2 SUB PUSH1 0x20 DUP4 ADD MSTORE PUSH2 0x3E1 DUP2 DUP6 PUSH2 0x384 JUMP JUMPDEST SWAP1 POP PUSH2 0x3F0 PUSH1 0x40 DUP4 ADD DUP5 PUSH2 0x33D JUMP JUMPDEST SWAP5 SWAP4 POP POP POP POP JUMP JUMPDEST PUSH0 PUSH0 REVERT JUMPDEST PUSH0 PUSH0 REVERT JUMPDEST PUSH32 0x4E487B7100000000000000000000000000000000000000000000000000000000 PUSH0 MSTORE PUSH1 0x41 PUSH1 0x4 MSTORE PUSH1 0x24 PUSH0 REVERT JUMPDEST PUSH2 0x436 DUP3 PUSH2 0x374 JUMP JUMPDEST DUP2 ADD DUP2 DUP2 LT PUSH8 0xFFFFFFFFFFFFFFFF DUP3 GT OR ISZERO PUSH2 0x455 JUMPI PUSH2 0x454 PUSH2 0x400 JUMP JUMPDEST JUMPDEST DUP1 PUSH1 0x40 MSTORE POP POP POP JUMP JUMPDEST PUSH0 PUSH2 0x467 PUSH2 0x2CE JUMP JUMPDEST SWAP1 POP PUSH2 0x473 DUP3 DUP3 PUSH2 0x42D JUMP JUMPDEST SWAP2 SWAP1 POP JUMP JUMPDEST PUSH0 PUSH8 0xFFFFFFFFFFFFFFFF DUP3 GT ISZERO PUSH2 0x492 JUMPI PUSH2 0x491 PUSH2 0x400 JUMP JUMPDEST JUMPDEST PUSH2 0x49B DUP3 PUSH2 0x374 JUMP JUMPDEST SWAP1 POP PUSH1 0x20 DUP2 ADD SWAP1 POP SWAP2 SWAP1 POP JUMP JUMPDEST DUP3 DUP2 DUP4 CALLDATACOPY PUSH0 DUP4 DUP4 ADD MSTORE POP POP POP JUMP JUMPDEST PUSH0 PUSH2 0x4C8 PUSH2 0x4C3 DUP5 PUSH2 0x478 JUMP JUMPDEST PUSH2 0x45E JUMP JUMPDEST SWAP1 POP DUP3 DUP2 MSTORE PUSH1 0x20 DUP2 ADD DUP5 DUP5 DUP5 ADD GT ISZERO PUSH2 0x4E4 JUMPI PUSH2 0x4E3 PUSH2 0x3FC JUMP JUMPDEST JUMPDEST PUSH2 0x4EF DUP5 DUP3 DUP6 PUSH2 0x4A8 JUMP JUMPDEST POP SWAP4 SWAP3 POP POP POP JUMP JUMPDEST PUSH0 DUP3 PUSH1 0x1F DUP4 ADD SLT PUSH2 0x50B JUMPI PUSH2 0x50A PUSH2 0x3F8 JUMP JUMPDEST JUMPDEST DUP2 CALLDATALOAD PUSH2 0x51B DUP5 DUP3 PUSH1 0x20 DUP7 ADD PUSH2 0x4B6 JUMP JUMPDEST SWAP2 POP POP SWAP3 SWAP2 POP POP JUMP JUMPDEST PUSH0 PUSH0 PUSH1 0x40 DUP4 DUP6 SUB SLT ISZERO PUSH2 0x53A JUMPI PUSH2 0x539 PUSH2 0x2D7 JUMP JUMPDEST JUMPDEST PUSH0 DUP4 ADD CALLDATALOAD PUSH8 0xFFFFFFFFFFFFFFFF DUP2 GT ISZERO PUSH2 0x557 JUMPI PUSH2 0x556 PUSH2 0x2DB JUMP JUMPDEST JUMPDEST PUSH2 0x563 DUP6 DUP3 DUP7 ADD PUSH2 0x4F7 JUMP JUMPDEST SWAP3 POP POP PUSH1 0x20 PUSH2 0x574 DUP6 DUP3 DUP7 ADD PUSH2 0x2FE JUMP JUMPDEST SWAP2 POP POP SWAP3 POP SWAP3 SWAP1 POP JUMP JUMPDEST PUSH0 PUSH1 0x40 DUP3 ADD SWAP1 POP DUP2 DUP2 SUB PUSH0 DUP4 ADD MSTORE PUSH2 0x596 DUP2 DUP6 PUSH2 0x384 JUMP JUMPDEST SWAP1 POP PUSH2 0x5A5 PUSH1 0x20 DUP4 ADD DUP5 PUSH2 0x33D JUMP JUMPDEST SWAP4 SWAP3 POP POP POP JUMP JUMPDEST PUSH0 PUSH1 0x20 DUP3 ADD SWAP1 POP PUSH2 0x5BF PUSH0 DUP4 ADD DUP5 PUSH2 0x33D JUMP JUMPDEST SWAP3 SWAP2 POP POP JUMP JUMPDEST PUSH32 0x4E487B7100000000000000000000000000000000000000000000000000000000 PUSH0 MSTORE PUSH1 0x22 PUSH1 0x4 MSTORE PUSH1 0x24 PUSH0 REVERT JUMPDEST PUSH0 PUSH1 0x2 DUP3 DIV SWAP1 POP PUSH1 0x1 DUP3 AND DUP1 PUSH2 0x609 JUMPI PUSH1 0x7F DUP3 AND SWAP2 POP JUMPDEST PUSH1 0x20 DUP3 LT DUP2 SUB PUSH2 0x61C JUMPI PUSH2 0x61B PUSH2 0x5C5 JUMP JUMPDEST JUMPDEST POP SWAP2 SWAP1 POP JUMP JUMPDEST PUSH32 0x4E487B7100000000000000000000000000000000000000000000000000000000 PUSH0 MSTORE PUSH1 0x11 PUSH1 0x4 MSTORE PUSH1 0x24 PUSH0 REVERT JUMPDEST PUSH0 PUSH2 0x659 DUP3 PUSH2 0x2DF JUMP JUMPDEST SWAP2 POP PUSH32 0xFFFFFFFFFFFFFFFFFFFFFFFFFFFFFFFFFFFFFFFFFFFFFFFFFFFFFFFFFFFFFFFF DUP3 SUB PUSH2 0x68B JUMPI PUSH2 0x68A PUSH2 0x622 JUMP JUMPDEST JUMPDEST PUSH1 0x1 DUP3 ADD SWAP1 POP SWAP2 SWAP1 POP JUMP JUMPDEST PUSH0 DUP2 SWAP1 POP DUP2 PUSH0 MSTORE PUSH1 0x20 PUSH0 KECCAK256 SWAP1 POP SWAP2 SWAP1 POP JUMP JUMPDEST PUSH0 PUSH1 0x20 PUSH1 0x1F DUP4 ADD DIV SWAP1 POP SWAP2 SWAP1 POP JUMP JUMPDEST PUSH0 DUP3 DUP3 SHL SWAP1 POP SWAP3 SWAP2 POP POP JUMP JUMPDEST PUSH0 PUSH1 0x8 DUP4 MUL PUSH2 0x6F2 PUSH32 0xFFFFFFFFFFFFFFFFFFFFFFFFFFFFFFFFFFFFFFFFFFFFFFFFFFFFFFFFFFFFFFFF DUP3 PUSH2 0x6B7 JUMP JUMPDEST PUSH2 0x6FC DUP7 DUP4 PUSH2 0x6B7 JUMP JUMPDEST SWAP6 POP DUP1 NOT DUP5 AND SWAP4 POP DUP1 DUP7 AND DUP5 OR SWAP3 POP POP POP SWAP4 SWAP3 POP POP POP JUMP JUMPDEST PUSH0 DUP2 SWAP1 POP SWAP2 SWAP1 POP JUMP JUMPDEST PUSH0 PUSH2 0x737 PUSH2 0x732 PUSH2 0x72D DUP5 PUSH2 0x2DF JUMP JUMPDEST PUSH2 0x714 JUMP JUMPDEST PUSH2 0x2DF JUMP JUMPDEST SWAP1 POP SWAP2 SWAP1 POP JUMP JUMPDEST PUSH0 DUP2 SWAP1 POP SWAP2 SWAP1 POP JUMP JUMPDEST PUSH2 0x750 DUP4 PUSH2 0x71D JUMP JUMPDEST PUSH2 0x764 PUSH2 0x75C DUP3 PUSH2 0x73E JUMP JUMPDEST DUP5 DUP5 SLOAD PUSH2 0x6C3 JUMP JUMPDEST DUP3 SSTORE POP POP POP POP JUMP JUMPDEST PUSH0 PUSH0 SWAP1 POP SWAP1 JUMP JUMPDEST PUSH2 0x77B PUSH2 0x76C JUMP JUMPDEST PUSH2 0x786 DUP2 DUP5 DUP5 PUSH2 0x747 JUMP JUMPDEST POP POP POP JUMP JUMPDEST JUMPDEST DUP2 DUP2 LT ISZERO PUSH2 0x7A9 JUMPI PUSH2 0x79E PUSH0 DUP3 PUSH2 0x773 JUMP JUMPDEST PUSH1 0x1 DUP2 ADD SWAP1 POP PUSH2 0x78C JUMP JUMPDEST POP POP JUMP JUMPDEST PUSH1 0x1F DUP3 GT ISZERO PUSH2 0x7EE JUMPI PUSH2 0x7BF DUP2 PUSH2 0x696 JUMP JUMPDEST PUSH2 0x7C8 DUP5 PUSH2 0x6A8 JUMP JUMPDEST DUP2 ADD PUSH1 0x20 DUP6 LT ISZERO PUSH2 0x7D7 JUMPI DUP2 SWAP1 POP JUMPDEST PUSH2 0x7EB PUSH2 0x7E3 DUP6 PUSH2 0x6A8 JUMP JUMPDEST DUP4 ADD DUP3 PUSH2 0x78B JUMP JUMPDEST POP POP JUMPDEST POP POP POP JUMP JUMPDEST PUSH0 DUP3 DUP3 SHR SWAP1 POP SWAP3 SWAP2 POP POP JUMP JUMPDEST PUSH0 PUSH2 0x80E PUSH0 NOT DUP5 PUSH1 0x8 MUL PUSH2 0x7F3 JUMP JUMPDEST NOT DUP1 DUP4 AND SWAP2 POP POP SWAP3 SWAP2 POP POP JUMP JUMPDEST PUSH0 PUSH2 0x826 DUP4 DUP4 PUSH2 0x7FF JUMP JUMPDEST SWAP2 POP DUP3 PUSH1 0x2 MUL DUP3 OR SWAP1 POP SWAP3 SWAP2 POP POP JUMP JUMPDEST PUSH2 0x83F DUP3 PUSH2 0x34C JUMP JUMPDEST PUSH8 0xFFFFFFFFFFFFFFFF DUP2 GT ISZERO PUSH2 0x858 JUMPI PUSH2 0x857 PUSH2 0x400 JUMP JUMPDEST JUMPDEST PUSH2 0x862 DUP3 SLOAD PUSH2 0x5F2 JUMP JUMPDEST PUSH2 0x86D DUP3 DUP3 DUP6 PUSH2 0x7AD JUMP JUMPDEST PUSH0 PUSH1 0x20 SWAP1 POP PUSH1 0x1F DUP4 GT PUSH1 0x1 DUP2 EQ PUSH2 0x89E JUMPI PUSH0 DUP5 ISZERO PUSH2 0x88C JUMPI DUP3 DUP8 ADD MLOAD SWAP1 POP JUMPDEST PUSH2 0x896 DUP6 DUP3 PUSH2 0x81B JUMP JUMPDEST DUP7 SSTORE POP PUSH2 0x8FD JUMP JUMPDEST PUSH1 0x1F NOT DUP5 AND PUSH2 0x8AC DUP7 PUSH2 0x696 JUMP JUMPDEST PUSH0 JUMPDEST DUP3 DUP2 LT ISZERO PUSH2 0x8D3 JUMPI DUP5 DUP10 ADD MLOAD DUP3 SSTORE PUSH1 0x1 DUP3 ADD SWAP2 POP PUSH1 0x20 DUP6 ADD SWAP5 POP PUSH1 0x20 DUP2 ADD SWAP1 POP PUSH2 0x8AE JUMP JUMPDEST DUP7 DUP4 LT ISZERO PUSH2 0x8F0 JUMPI DUP5 DUP10 ADD MLOAD PUSH2 0x8EC PUSH1 0x1F DUP10 AND DUP3 PUSH2 0x7FF JUMP JUMPDEST DUP4 SSTORE POP JUMPDEST PUSH1 0x1 PUSH1 0x2 DUP9 MUL ADD DUP9 SSTORE POP POP POP JUMPDEST POP POP POP POP POP POP JUMP INVALID LOG2 PUSH5 0x6970667358 0x22 SLT KECCAK256 0xAF EXTCODEHASH 0xED PREVRANDAO SWAP5 RETURNDATASIZE PUSH6 0xE9CFFBB77056 0xB5 0xBF 0xF7 0xCD 0x2C ADDRESS PUSH13 0x9722C6F5E50D8B8E0F2595BB64 PUSH20 0x6F6C634300081F00330000000000000000000000 "
		},
		"gasEstimates": {
			"creation": {
				"codeDepositCost": "472600",
				"executionCost": "5507",
				"totalCost": "478107"
			},
			"external": {
				"addStudent(string,uint256)": "infinite",
				"getStudent(uint256)": "infinite",
				"studentCount()": "2468",
				"students(uint256)": "infinite"
			}
		},
		"methodIdentifiers": {
			"addStudent(string,uint256)": "0e5eeef7",
			"getStudent(uint256)": "642f9163",
			"studentCount()": "e581f9ee",
			"students(uint256)": "06ead22e"
		}
	},
	"abi": [
		{
			"inputs": [
				{
					"internalType": "string",
					"name": "_name",
					"type": "string"
				},
				{
					"internalType": "uint256",
					"name": "_score",
					"type": "uint256"
				}
			],
			"name": "addStudent",
			"outputs": [],
			"stateMutability": "nonpayable",
			"type": "function"
		},
		{
			"inputs": [
				{
					"internalType": "uint256",
					"name": "_id",
					"type": "uint256"
				}
			],
			"name": "getStudent",
			"outputs": [
				{
					"internalType": "string",
					"name": "",
					"type": "string"
				},
				{
					"internalType": "uint256",
					"name": "",
					"type": "uint256"
				}
			],
			"stateMutability": "view",
			"type": "function"
		},
		{
			"inputs": [],
			"name": "studentCount",
			"outputs": [
				{
					"internalType": "uint256",
					"name": "",
					"type": "uint256"
				}
			],
			"stateMutability": "view",
			"type": "function"
		},
		{
			"inputs": [
				{
					"internalType": "uint256",
					"name": "",
					"type": "uint256"
				}
			],
			"name": "students",
			"outputs": [
				{
					"internalType": "uint256",
					"name": "id",
					"type": "uint256"
				},
				{
					"internalType": "string",
					"name": "name",
					"type": "string"
				},
				{
					"internalType": "uint256",
					"name": "score",
					"type": "uint256"
				}
			],
			"stateMutability": "view",
			"type": "function"
		}
	]
}